{
  "_format": "hh-sol-artifact-1",
  "contractName": "AMMPool",
  "sourceName": "contracts/AMMPool.sol",
  "abi": [
    {
      "inputs": [
        {
          "internalType": "address",
          "name": "_usdc",
          "type": "address"
        },
        {
          "internalType": "address",
          "name": "_market",
          "type": "address"
        },
        {
          "internalType": "bool",
          "name": "_isYes",
          "type": "bool"
        }
      ],
      "stateMutability": "nonpayable",
      "type": "constructor"
    },
    {
      "anonymous": false,
      "inputs": [
        {
          "indexed": true,
          "internalType": "address",
          "name": "owner",
          "type": "address"
        },
        {
          "indexed": true,
          "internalType": "address",
          "name": "spender",
          "type": "address"
        },
        {
          "indexed": false,
          "internalType": "uint256",
          "name": "value",
          "type": "uint256"
        }
      ],
      "name": "Approval",
      "type": "event"
    },
    {
      "anonymous": false,
      "inputs": [
        {
          "indexed": false,
          "internalType": "address",
          "name": "token",
          "type": "address"
        },
        {
          "indexed": false,
          "internalType": "address",
          "name": "to",
          "type": "address"
        },
        {
          "indexed": false,
          "internalType": "uint256",
          "name": "amount",
          "type": "uint256"
        }
      ],
      "name": "EmergencyWithdrawn",
      "type": "event"
    },
    {
      "anonymous": false,
      "inputs": [
        {
          "indexed": true,
          "internalType": "address",
          "name": "provider",
          "type": "address"
        },
        {
          "indexed": false,
          "internalType": "uint256",
          "name": "usdcAmount",
          "type": "uint256"
        },
        {
          "indexed": false,
          "internalType": "uint256",
          "name": "shares",
          "type": "uint256"
        }
      ],
      "name": "LiquidityAdded",
      "type": "event"
    },
    {
      "anonymous": false,
      "inputs": [
        {
          "indexed": true,
          "internalType": "address",
          "name": "provider",
          "type": "address"
        },
        {
          "indexed": false,
          "internalType": "uint256",
          "name": "usdcAmount",
          "type": "uint256"
        },
        {
          "indexed": false,
          "internalType": "uint256",
          "name": "shares",
          "type": "uint256"
        }
      ],
      "name": "LiquidityRemoved",
      "type": "event"
    },
    {
      "anonymous": false,
      "inputs": [
        {
          "indexed": true,
          "internalType": "address",
          "name": "previousOwner",
          "type": "address"
        },
        {
          "indexed": true,
          "internalType": "address",
          "name": "newOwner",
          "type": "address"
        }
      ],
      "name": "OwnershipTransferred",
      "type": "event"
    },
    {
      "anonymous": false,
      "inputs": [
        {
          "indexed": false,
          "internalType": "address",
          "name": "account",
          "type": "address"
        }
      ],
      "name": "Paused",
      "type": "event"
    },
    {
      "anonymous": false,
      "inputs": [
        {
          "indexed": true,
          "internalType": "address",
          "name": "user",
          "type": "address"
        },
        {
          "indexed": false,
          "internalType": "uint256",
          "name": "usdcIn",
          "type": "uint256"
        },
        {
          "indexed": false,
          "internalType": "uint256",
          "name": "sharesOut",
          "type": "uint256"
        }
      ],
      "name": "SwapExecuted",
      "type": "event"
    },
    {
      "anonymous": false,
      "inputs": [
        {
          "indexed": true,
          "internalType": "address",
          "name": "from",
          "type": "address"
        },
        {
          "indexed": true,
          "internalType": "address",
          "name": "to",
          "type": "address"
        },
        {
          "indexed": false,
          "internalType": "uint256",
          "name": "value",
          "type": "uint256"
        }
      ],
      "name": "Transfer",
      "type": "event"
    },
    {
      "anonymous": false,
      "inputs": [
        {
          "indexed": false,
          "internalType": "address",
          "name": "account",
          "type": "address"
        }
      ],
      "name": "Unpaused",
      "type": "event"
    },
    {
      "inputs": [],
      "name": "DECIMAL_SCALE",
      "outputs": [
        {
          "internalType": "uint256",
          "name": "",
          "type": "uint256"
        }
      ],
      "stateMutability": "view",
      "type": "function"
    },
    {
      "inputs": [],
      "name": "FEE",
      "outputs": [
        {
          "internalType": "uint256",
          "name": "",
          "type": "uint256"
        }
      ],
      "stateMutability": "view",
      "type": "function"
    },
    {
      "inputs": [],
      "name": "SHARE_DECIMALS",
      "outputs": [
        {
          "internalType": "uint256",
          "name": "",
          "type": "uint256"
        }
      ],
      "stateMutability": "view",
      "type": "function"
    },
    {
      "inputs": [],
      "name": "USDC_DECIMALS",
      "outputs": [
        {
          "internalType": "uint256",
          "name": "",
          "type": "uint256"
        }
      ],
      "stateMutability": "view",
      "type": "function"
    },
    {
      "inputs": [
        {
          "internalType": "uint256",
          "name": "usdcAmount",
          "type": "uint256"
        }
      ],
      "name": "addLiquidity",
      "outputs": [],
      "stateMutability": "nonpayable",
      "type": "function"
    },
    {
      "inputs": [
        {
          "internalType": "address",
          "name": "owner",
          "type": "address"
        },
        {
          "internalType": "address",
          "name": "spender",
          "type": "address"
        }
      ],
      "name": "allowance",
      "outputs": [
        {
          "internalType": "uint256",
          "name": "",
          "type": "uint256"
        }
      ],
      "stateMutability": "view",
      "type": "function"
    },
    {
      "inputs": [
        {
          "internalType": "address",
          "name": "spender",
          "type": "address"
        },
        {
          "internalType": "uint256",
          "name": "amount",
          "type": "uint256"
        }
      ],
      "name": "approve",
      "outputs": [
        {
          "internalType": "bool",
          "name": "",
          "type": "bool"
        }
      ],
      "stateMutability": "nonpayable",
      "type": "function"
    },
    {
      "inputs": [
        {
          "internalType": "address",
          "name": "account",
          "type": "address"
        }
      ],
      "name": "balanceOf",
      "outputs": [
        {
          "internalType": "uint256",
          "name": "",
          "type": "uint256"
        }
      ],
      "stateMutability": "view",
      "type": "function"
    },
    {
      "inputs": [
        {
          "internalType": "address",
          "name": "user",
          "type": "address"
        }
      ],
      "name": "calculatePayout",
      "outputs": [
        {
          "internalType": "uint256",
          "name": "",
          "type": "uint256"
        }
      ],
      "stateMutability": "view",
      "type": "function"
    },
    {
      "inputs": [],
      "name": "decimals",
      "outputs": [
        {
          "internalType": "uint8",
          "name": "",
          "type": "uint8"
        }
      ],
      "stateMutability": "view",
      "type": "function"
    },
    {
      "inputs": [
        {
          "internalType": "address",
          "name": "spender",
          "type": "address"
        },
        {
          "internalType": "uint256",
          "name": "subtractedValue",
          "type": "uint256"
        }
      ],
      "name": "decreaseAllowance",
      "outputs": [
        {
          "internalType": "bool",
          "name": "",
          "type": "bool"
        }
      ],
      "stateMutability": "nonpayable",
      "type": "function"
    },
    {
      "inputs": [
        {
          "internalType": "address",
          "name": "token",
          "type": "address"
        },
        {
          "internalType": "address",
          "name": "to",
          "type": "address"
        }
      ],
      "name": "emergencyWithdraw",
      "outputs": [],
      "stateMutability": "nonpayable",
      "type": "function"
    },
    {
      "inputs": [],
      "name": "getPrice",
      "outputs": [
        {
          "internalType": "uint256",
          "name": "",
          "type": "uint256"
        }
      ],
      "stateMutability": "view",
      "type": "function"
    },
    {
      "inputs": [],
      "name": "getReserveInfo",
      "outputs": [
        {
          "internalType": "uint256",
          "name": "usdcReserve",
          "type": "uint256"
        },
        {
          "internalType": "uint256",
          "name": "sharesReserve",
          "type": "uint256"
        },
        {
          "internalType": "uint256",
          "name": "totalShares",
          "type": "uint256"
        },
        {
          "internalType": "uint256",
          "name": "currentPrice",
          "type": "uint256"
        }
      ],
      "stateMutability": "view",
      "type": "function"
    },
    {
      "inputs": [],
      "name": "getReserveShares",
      "outputs": [
        {
          "internalType": "uint256",
          "name": "",
          "type": "uint256"
        }
      ],
      "stateMutability": "view",
      "type": "function"
    },
    {
      "inputs": [],
      "name": "getReserveUSDC",
      "outputs": [
        {
          "internalType": "uint256",
          "name": "",
          "type": "uint256"
        }
      ],
      "stateMutability": "view",
      "type": "function"
    },
    {
      "inputs": [
        {
          "internalType": "address",
          "name": "spender",
          "type": "address"
        },
        {
          "internalType": "uint256",
          "name": "addedValue",
          "type": "uint256"
        }
      ],
      "name": "increaseAllowance",
      "outputs": [
        {
          "internalType": "bool",
          "name": "",
          "type": "bool"
        }
      ],
      "stateMutability": "nonpayable",
      "type": "function"
    },
    {
      "inputs": [],
      "name": "isYes",
      "outputs": [
        {
          "internalType": "bool",
          "name": "",
          "type": "bool"
        }
      ],
      "stateMutability": "view",
      "type": "function"
    },
    {
      "inputs": [],
      "name": "market",
      "outputs": [
        {
          "internalType": "address",
          "name": "",
          "type": "address"
        }
      ],
      "stateMutability": "view",
      "type": "function"
    },
    {
      "inputs": [],
      "name": "name",
      "outputs": [
        {
          "internalType": "string",
          "name": "",
          "type": "string"
        }
      ],
      "stateMutability": "view",
      "type": "function"
    },
    {
      "inputs": [],
      "name": "owner",
      "outputs": [
        {
          "internalType": "address",
          "name": "",
          "type": "address"
        }
      ],
      "stateMutability": "view",
      "type": "function"
    },
    {
      "inputs": [],
      "name": "pause",
      "outputs": [],
      "stateMutability": "nonpayable",
      "type": "function"
    },
    {
      "inputs": [],
      "name": "paused",
      "outputs": [
        {
          "internalType": "bool",
          "name": "",
          "type": "bool"
        }
      ],
      "stateMutability": "view",
      "type": "function"
    },
    {
      "inputs": [
        {
          "internalType": "uint256",
          "name": "lpAmount",
          "type": "uint256"
        }
      ],
      "name": "removeLiquidity",
      "outputs": [],
      "stateMutability": "nonpayable",
      "type": "function"
    },
    {
      "inputs": [],
      "name": "renounceOwnership",
      "outputs": [],
      "stateMutability": "nonpayable",
      "type": "function"
    },
    {
      "inputs": [],
      "name": "reserveShares",
      "outputs": [
        {
          "internalType": "uint256",
          "name": "",
          "type": "uint256"
        }
      ],
      "stateMutability": "view",
      "type": "function"
    },
    {
      "inputs": [],
      "name": "reserveUSDC",
      "outputs": [
        {
          "internalType": "uint256",
          "name": "",
          "type": "uint256"
        }
      ],
      "stateMutability": "view",
      "type": "function"
    },
    {
      "inputs": [
        {
          "internalType": "uint256",
          "name": "usdcIn",
          "type": "uint256"
        },
        {
          "internalType": "address",
          "name": "to",
          "type": "address"
        }
      ],
      "name": "swapIn",
      "outputs": [],
      "stateMutability": "nonpayable",
      "type": "function"
    },
    {
      "inputs": [],
      "name": "symbol",
      "outputs": [
        {
          "internalType": "string",
          "name": "",
          "type": "string"
        }
      ],
      "stateMutability": "view",
      "type": "function"
    },
    {
      "inputs": [],
      "name": "totalSupply",
      "outputs": [
        {
          "internalType": "uint256",
          "name": "",
          "type": "uint256"
        }
      ],
      "stateMutability": "view",
      "type": "function"
    },
    {
      "inputs": [
        {
          "internalType": "address",
          "name": "to",
          "type": "address"
        },
        {
          "internalType": "uint256",
          "name": "amount",
          "type": "uint256"
        }
      ],
      "name": "transfer",
      "outputs": [
        {
          "internalType": "bool",
          "name": "",
          "type": "bool"
        }
      ],
      "stateMutability": "nonpayable",
      "type": "function"
    },
    {
      "inputs": [
        {
          "internalType": "address",
          "name": "from",
          "type": "address"
        },
        {
          "internalType": "address",
          "name": "to",
          "type": "address"
        },
        {
          "internalType": "uint256",
          "name": "amount",
          "type": "uint256"
        }
      ],
      "name": "transferFrom",
      "outputs": [
        {
          "internalType": "bool",
          "name": "",
          "type": "bool"
        }
      ],
      "stateMutability": "nonpayable",
      "type": "function"
    },
    {
      "inputs": [
        {
          "internalType": "address",
          "name": "newOwner",
          "type": "address"
        }
      ],
      "name": "transferOwnership",
      "outputs": [],
      "stateMutability": "nonpayable",
      "type": "function"
    },
    {
      "inputs": [],
      "name": "unpause",
      "outputs": [],
      "stateMutability": "nonpayable",
      "type": "function"
    },
    {
      "inputs": [],
      "name": "usdc",
      "outputs": [
        {
          "internalType": "address",
          "name": "",
          "type": "address"
        }
      ],
      "stateMutability": "view",
      "type": "function"
    }
  ],
  "bytecode": "0x6080346200043357601f1990601f6001600160401b0362001ced3881900383810186168501919083831186841017620002f2578086926060946040528339810103126200043357620000518362000458565b9360209160406200006484870162000458565b9501519384151594858103620004335780156200040d576200008562000438565b600a8152695945532053686172657360b01b86820152905b15620003ee57620000ad62000438565b600381526259455360e81b86820152915b815192848411620002f25760039384546001948582811c92168015620003e3575b8a831014620003cd57818584931162000377575b508990858311600114620003145760009262000308575b505060001982871b1c191690841b1784555b8051948511620002f25760049687548481811c91168015620002e7575b82821014620002d25783811162000287575b50809286116001146200021b5750849550908492916000956200020f575b50501b92600019911b1c19161790555b600580546001600160a81b031980821633600881811b610100600160a81b0316929092179094556040519691936001600160a01b03938493921c83167f8be0079c531659141344cd1fd0a4f28419497f9722a3daafe3b4186f6b6457e0600080a31660018060a01b031960065416176006556007549260ff60a01b9060a01b1693169116171760075561187f90816200046e8239f35b01519350388062000169565b939295859081168860005285600020956000905b898383106200026c575050501062000251575b50505050811b01905562000179565b01519060f884600019921b161c191690553880808062000242565b8587015189559097019694850194889350908101906200022f565b88600052816000208480890160051c820192848a10620002c8575b0160051c019085905b828110620002bb5750506200014b565b60008155018590620002ab565b92508192620002a2565b602289634e487b7160e01b6000525260246000fd5b90607f169062000139565b634e487b7160e01b600052604160045260246000fd5b0151905038806200010a565b908987941691886000528b6000209260005b8d82821062000360575050841162000347575b505050811b0184556200011c565b015160001983891b60f8161c1916905538808062000339565b8385015186558a9790950194938401930162000326565b90915086600052896000208580850160051c8201928c8610620003c3575b918891869594930160051c01915b828110620003b3575050620000f3565b60008155859450889101620003a3565b9250819262000395565b634e487b7160e01b600052602260045260246000fd5b91607f1691620000df565b620003f862000438565b60028152614e4f60f01b8682015291620000be565b6200041762000438565b60098152684e4f2053686172657360b81b86820152906200009d565b600080fd5b60408051919082016001600160401b03811183821017620002f257604052565b51906001600160a01b0382168203620004335756fe608060408181526004918236101561001657600080fd5b600092833560e01c91826306fdde031461117557508163095ea7b31461114b57816318160ddd1461112c57816323b872dd14611062578163313ce5671461034857816339509351146110125781633e413bee14610fe95781633f4ba83a14610f535781634ecfdfad14610dc757816351c6590a14610c5457816358c7aa0f146102c05781635c975abb14610c305781636382d9ad14610a4f57816370a0823114610a18578163715018a6146109b757816380f556051461098e5781638456cb59146109335781638840d7b9146103645781638da5cb5b1461090657816395d89b4114610801578163983babb4146107da57816398d5fdca146107bd5781639c8f9f23146104c1578163a457c2d714610419578163a877933f146103ec578163a9059cbb146103bb578163c1419def1461039f578163c57981b514610383578163c87b502e14610364578163d853365f14610348578163db5dca2114610328578163dd62ed3e146102df578163eef37a18146102c0578163f2fde38b146101e3575063ffe777bd146101a657600080fd5b346101df57816003193601126101df576008546009546002546080936101ca611419565b92815194855260208501528301526060820152f35b5080fd5b9050346102bc5760203660031901126102bc576101fe6112b3565b610206611707565b6001600160a01b0381811693909290841561026a57505060058054610100600160a81b03198116600893841b610100600160a81b031617909155901c167f8be0079c531659141344cd1fd0a4f28419497f9722a3daafe3b4186f6b6457e08380a380f35b906020608492519162461bcd60e51b8352820152602660248201527f4f776e61626c653a206e6577206f776e657220697320746865207a65726f206160448201526564647265737360d01b6064820152fd5b8280fd5b5050346101df57816003193601126101df576020906009549051908152f35b5050346101df57806003193601126101df57806020926102fd6112b3565b6103056112ce565b6001600160a01b0391821683526001865283832091168252845220549051908152f35b5050346101df57816003193601126101df576020905164e8d4a510008152f35b5050346101df57816003193601126101df576020905160128152f35b5050346101df57816003193601126101df576020906008549051908152f35b5050346101df57816003193601126101df5760209051601e8152f35b5050346101df57816003193601126101df576020905160068152f35b5050346101df57806003193601126101df576020906103e56103db6112b3565b6024359033611599565b5160018152f35b5050346101df5760203660031901126101df5760209061041261040d6112b3565b61144f565b9051908152f35b905082346104be57826003193601126104be576104346112b3565b918360243592338152600160205281812060018060a01b038616825260205220549082821061046d576020856103e58585038733611497565b608490602086519162461bcd60e51b8352820152602560248201527f45524332303a2064656372656173656420616c6c6f77616e63652062656c6f77604482015264207a65726f60d81b6064820152fd5b80fd5b8383346101df57602090816003193601126102bc5783356104e0611805565b80156107895733845283835280828520541061074d57600254801561071b576105149061050f6008548461138d565b6113a0565b9283156106d957331561068d573385528481528285205482811061063f57846105c69697848493338b528a855203868a20558460025403806002558987518781527fddf252ad1be2c89b69c2b068fc378daa952ba7f163c4a11628f55a4df523b3ef863392a3610586836008546112e4565b600855600955600654865163a9059cbb60e01b8152339281019283526020830193909352919788926001600160a01b03169183918b918391604090910190565b03925af1948515610635577f96cd817c6329656790ef8fba7675405193677d39619571282f5e21f3a98cd0599495610608575b5082519485528401523392a280f35b61062790823d841161062e575b61061f8183611307565b810190611401565b50866105f9565b503d610615565b83513d88823e3d90fd5b835162461bcd60e51b8152808801839052602260248201527f45524332303a206275726e20616d6f756e7420657863656564732062616c616e604482015261636560f01b6064820152608490fd5b8560849184519162461bcd60e51b8352820152602160248201527f45524332303a206275726e2066726f6d20746865207a65726f206164647265736044820152607360f81b6064820152fd5b8560649184519162461bcd60e51b8352820152601760248201527f5553444320616d6f756e74206d757374206265203e20300000000000000000006044820152fd5b825162461bcd60e51b8152808701859052600c60248201526b4e6f206c697175696469747960a01b6044820152606490fd5b815162461bcd60e51b81528086018490526016602482015275496e73756666696369656e74204c5020746f6b656e7360501b6044820152606490fd5b815162461bcd60e51b8152808601849052600e60248201526d125b9d985b1a5908185b5bdd5b9d60921b6044820152606490fd5b5050346101df57816003193601126101df57602090610412611419565b5050346101df57816003193601126101df5760209060ff60075460a01c1690519015158152f35b8383346101df57816003193601126101df5780519180938054916001908360011c92600185169485156108fc575b60209586861081146108e9578589529081156108c5575060011461086d575b610869878761085f828c0383611307565b519182918261126a565b0390f35b81529295507f8a35acfbc15ff81a39ae7d344fd709f28e8600b4aa8c65c6b64bfe7fe36bd19b5b8284106108b257505050826108699461085f9282010194868061084e565b8054868501880152928601928101610894565b60ff19168887015250505050151560051b830101925061085f82610869868061084e565b634e487b7160e01b845260228352602484fd5b93607f169361082f565b5050346101df57816003193601126101df57600554905160089190911c6001600160a01b03168152602090f35b5050346101df57816003193601126101df5760207f62e78cea01bee320cd4e420270b5ea74000d11b0c9f74754ebdbfc544b05a25891610971611707565b610979611805565b600160ff19600554161760055551338152a180f35b5050346101df57816003193601126101df5760075490516001600160a01b039091168152602090f35b83346104be57806003193601126104be576109d0611707565b60058054610100600160a81b03198116909155819060081c6001600160a01b03167f8be0079c531659141344cd1fd0a4f28419497f9722a3daafe3b4186f6b6457e08280a380f35b5050346101df5760203660031901126101df5760209181906001600160a01b03610a406112b3565b16815280845220549051908152f35b9050346102bc57816003193601126102bc57610a696112b3565b610a716112ce565b91610a7a611707565b60ff6005541615610bfc5783516370a0823160e01b81523081830152906020906001600160a01b038416908284602481855afa938415610bf2578894610bbf575b508315610b8457865163a9059cbb60e01b81526001600160a01b0387169181019182526020820185905291839183919082908b90829060400103925af18015610b7a57917f457e4fe0c9f161a0c6f3bfb8d7809a4ac19f6291bd81b03b86b0d00f9af3717b9691610b569493610b5c575b5050516001600160a01b039384168152939092166020840152604083019190915281906060820190565b0390a180f35b81610b7292903d1061062e5761061f8183611307565b503880610b2c565b86513d89823e3d90fd5b865162461bcd60e51b815290810183905260156024820152744e6f20746f6b656e7320746f20776974686472617760581b6044820152606490fd5b9093508281813d8311610beb575b610bd78183611307565b81010312610be757519238610abb565b8780fd5b503d610bcd565b87513d8a823e3d90fd5b606490602085519162461bcd60e51b8352820152600e60248201526d135d5cdd081899481c185d5cd95960921b6044820152fd5b5050346101df57816003193601126101df5760209060ff6005541690519015158152f35b8383346101df5760203660031901126101df57823590610c72611805565b8115610c7e811561134c565b60065482516323b872dd60e01b81523387820190815230602080830191909152604082018790529192839182900360600190829089906001600160a01b03165af18015610dbd57610d9e575b5060025480610d5c575064e8d4a510009081840291848304141715610d49577fac1d76749e5447b7b16f5ab61447e1bd502f3bb4807af3b28e620d1700a6ee45929394505b610d1a8115156113c0565b610d248133611762565b610d308460085461133f565b600855600254600955815193845260208401523392a280f35b634e487b7160e01b845260118552602484fd5b83949550610d999150610d90907fac1d76749e5447b7b16f5ab61447e1bd502f3bb4807af3b28e620d1700a6ee459461138d565b600854906113a0565b610d0f565b610db69060203d60201161062e5761061f8183611307565b5085610cca565b83513d87823e3d90fd5b8383346101df57806003193601126101df57823590610de46112ce565b6007546001600160a01b03919082163303610f22578315610e05811561134c565b601e850290858204601e141715610f0f57612710610e249104856112e4565b60025480610eb7575064e8d4a51000808202908282041482151715610ea4577f2d043ce009ff53fd444b0f4f5ff4c3f4ee293265203f77f156eeb33b595dfc4f95969750610e8b90915b610e798315156113c0565b610e838385611762565b60085461133f565b600855600254600955835195865260208601521692a280f35b634e487b7160e01b875260118852602487fd5b7f2d043ce009ff53fd444b0f4f5ff4c3f4ee293265203f77f156eeb33b595dfc4f95969750610f09610e8b91610f03600854610efd86610ef7858461138d565b9261133f565b906113a0565b906112e4565b91610e6e565b634e487b7160e01b865260118752602486fd5b825162461bcd60e51b8152602081880152600b60248201526a13db9b1e481b585c9ad95d60aa1b6044820152606490fd5b9050346102bc57826003193601126102bc57610f6d611707565b6005549060ff821615610faf575060ff1916600555513381527f5db9ee0a495bf2e6ff9c91a7834c1ba4fdd244a5e8aa4e537bd38aeae4b073aa90602090a180f35b606490602084519162461bcd60e51b8352820152601460248201527314185d5cd8589b194e881b9bdd081c185d5cd95960621b6044820152fd5b5050346101df57816003193601126101df5760065490516001600160a01b039091168152602090f35b5050346101df57806003193601126101df576103e560209261105b6110356112b3565b338352600186528483206001600160a01b0382168452865291849020546024359061133f565b9033611497565b839150346101df5760603660031901126101df5761107e6112b3565b6110866112ce565b91846044359460018060a01b0384168152600160205281812033825260205220549060001982036110c0575b6020866103e5878787611599565b8482106110e957509183916110de602096956103e595033383611497565b9193948193506110b2565b606490602087519162461bcd60e51b8352820152601d60248201527f45524332303a20696e73756666696369656e7420616c6c6f77616e63650000006044820152fd5b5050346101df57816003193601126101df576020906002549051908152f35b5050346101df57806003193601126101df576020906103e561116b6112b3565b6024359033611497565b92915034611266578360031936011261126657600354600181811c918690828116801561125c575b6020958686108214611249575084885290811561122757506001146111ce575b610869868661085f828b0383611307565b929550600383527fc2575a0e9e593c00f959f8c92f12db2869c3395a3b0502d05e2516446f71f85b5b82841061121457505050826108699461085f9282010194386111bd565b80548685018801529286019281016111f7565b60ff191687860152505050151560051b830101925061085f82610869386111bd565b634e487b7160e01b845260229052602483fd5b93607f169361119d565b8380fd5b6020808252825181830181905290939260005b82811061129f57505060409293506000838284010152601f8019910116010190565b81810186015184820160400152850161127d565b600435906001600160a01b03821682036112c957565b600080fd5b602435906001600160a01b03821682036112c957565b919082039182116112f157565b634e487b7160e01b600052601160045260246000fd5b90601f8019910116810190811067ffffffffffffffff82111761132957604052565b634e487b7160e01b600052604160045260246000fd5b919082018092116112f157565b1561135357565b60405162461bcd60e51b81526020600482015260126024820152710416d6f756e74206d757374206265203e20360741b6044820152606490fd5b818102929181159184041417156112f157565b81156113aa570490565b634e487b7160e01b600052601260045260246000fd5b156113c757565b60405162461bcd60e51b81526020600482015260126024820152710536861726573206d757374206265203e20360741b6044820152606490fd5b908160209103126112c9575180151581036112c95790565b6002548015611449576008549064e8d4a51000918281029281840414901517156112f157611446916113a0565b90565b50600090565b6001600160a01b03166000908152602081905260409020548015801561148d575b61144957611484611446916008549061138d565b600254906113a0565b5060025415611470565b6001600160a01b0390811691821561154857169182156114f85760207f8c5be1e5ebec7d5bd14f71427d1e84f3dd0314c0f7b2291e5b200ac8c7c3b925918360005260018252604060002085600052825280604060002055604051908152a3565b60405162461bcd60e51b815260206004820152602260248201527f45524332303a20617070726f766520746f20746865207a65726f206164647265604482015261737360f01b6064820152608490fd5b60405162461bcd60e51b8152602060048201526024808201527f45524332303a20617070726f76652066726f6d20746865207a65726f206164646044820152637265737360e01b6064820152608490fd5b6001600160a01b039081169182156116b457169182156116635760008281528060205260408120549180831061160f57604082827fddf252ad1be2c89b69c2b068fc378daa952ba7f163c4a11628f55a4df523b3ef958760209652828652038282205586815220818154019055604051908152a3565b60405162461bcd60e51b815260206004820152602660248201527f45524332303a207472616e7366657220616d6f756e7420657863656564732062604482015265616c616e636560d01b6064820152608490fd5b60405162461bcd60e51b815260206004820152602360248201527f45524332303a207472616e7366657220746f20746865207a65726f206164647260448201526265737360e81b6064820152608490fd5b60405162461bcd60e51b815260206004820152602560248201527f45524332303a207472616e736665722066726f6d20746865207a65726f206164604482015264647265737360d81b6064820152608490fd5b60055460081c6001600160a01b0316330361171e57565b606460405162461bcd60e51b815260206004820152602060248201527f4f776e61626c653a2063616c6c6572206973206e6f7420746865206f776e65726044820152fd5b6001600160a01b03169081156117c0577fddf252ad1be2c89b69c2b068fc378daa952ba7f163c4a11628f55a4df523b3ef6020826117a460009460025461133f565b60025584845283825260408420818154019055604051908152a3565b60405162461bcd60e51b815260206004820152601f60248201527f45524332303a206d696e7420746f20746865207a65726f2061646472657373006044820152606490fd5b60ff6005541661181157565b60405162461bcd60e51b815260206004820152601060248201526f14185d5cd8589b194e881c185d5cd95960821b6044820152606490fdfea2646970667358221220d4de3804cab62882537d469c302dd55007cfa6cb3daea6c132e19fc5d35cdbe664736f6c63430008180033",
  "linkReferences": {},
  "deployedLinkReferences": {}
}