{"contracts/ResolutionModuleUpgradeable.sol":{"ResolutionModuleUpgradeable":{"abi":[{"anonymous":false,"inputs":[{"indexed":false,"internalType":"address","name":"previousAdmin","type":"address"},{"indexed":false,"internalType":"address","name":"newAdmin","type":"address"}],"name":"AdminChanged","type":"event"},{"anonymous":false,"inputs":[{"indexed":true,"internalType":"address","name":"beacon","type":"address"}],"name":"BeaconUpgraded","type":"event"},{"anonymous":false,"inputs":[{"indexed":true,"internalType":"uint256","name":"proposalId","type":"uint256"},{"indexed":false,"internalType":"address","name":"disputer","type":"address"}],"name":"Disputed","type":"event"},{"anonymous":false,"inputs":[{"indexed":false,"internalType":"uint8","name":"version","type":"uint8"}],"name":"Initialized","type":"event"},{"anonymous":false,"inputs":[{"indexed":true,"internalType":"uint256","name":"proposalId","type":"uint256"},{"indexed":false,"internalType":"uint256","name":"marketId","type":"uint256"},{"indexed":false,"internalType":"uint8","name":"outcome","type":"uint8"}],"name":"OutcomeProposed","type":"event"},{"anonymous":false,"inputs":[{"indexed":true,"internalType":"address","name":"previousOwner","type":"address"},{"indexed":true,"internalType":"address","name":"newOwner","type":"address"}],"name":"OwnershipTransferred","type":"event"},{"anonymous":false,"inputs":[{"indexed":true,"internalType":"address","name":"implementation","type":"address"}],"name":"Upgraded","type":"event"},{"inputs":[],"name":"BOND_AMOUNT","outputs":[{"internalType":"uint256","name":"","type":"uint256"}],"stateMutability":"view","type":"function"},{"inputs":[],"name":"CHALLENGE_WINDOW","outputs":[{"internalType":"uint256","name":"","type":"uint256"}],"stateMutability":"view","type":"function"},{"inputs":[],"name":"adminResolver","outputs":[{"internalType":"address","name":"","type":"address"}],"stateMutability":"view","type":"function"},{"inputs":[{"internalType":"uint256","name":"proposalId","type":"uint256"}],"name":"dispute","outputs":[],"stateMutability":"nonpayable","type":"function"},{"inputs":[{"internalType":"uint256","name":"proposalId","type":"uint256"}],"name":"finalizeNoDispute","outputs":[],"stateMutability":"nonpayable","type":"function"},{"inputs":[{"internalType":"address","name":"_usdc","type":"address"},{"internalType":"address","name":"_adminResolver","type":"address"}],"name":"initialize","outputs":[],"stateMutability":"nonpayable","type":"function"},{"inputs":[],"name":"owner","outputs":[{"internalType":"address","name":"","type":"address"}],"stateMutability":"view","type":"function"},{"inputs":[],"name":"proposalCount","outputs":[{"internalType":"uint256","name":"","type":"uint256"}],"stateMutability":"view","type":"function"},{"inputs":[{"internalType":"uint256","name":"","type":"uint256"}],"name":"proposals","outputs":[{"internalType":"uint256","name":"marketId","type":"uint256"},{"internalType":"uint8","name":"outcome","type":"uint8"},{"internalType":"address","name":"proposer","type":"address"},{"internalType":"address","name":"disputer","type":"address"},{"internalType":"uint256","name":"bond","type":"uint256"},{"internalType":"uint256","name":"challengeEnd","type":"uint256"},{"internalType":"bool","name":"disputed","type":"bool"}],"stateMutability":"view","type":"function"},{"inputs":[{"internalType":"address","name":"market","type":"address"},{"internalType":"uint8","name":"outcome","type":"uint8"}],"name":"proposeOutcome","outputs":[],"stateMutability":"nonpayable","type":"function"},{"inputs":[],"name":"proxiableUUID","outputs":[{"internalType":"bytes32","name":"","type":"bytes32"}],"stateMutability":"view","type":"function"},{"inputs":[],"name":"renounceOwnership","outputs":[],"stateMutability":"nonpayable","type":"function"},{"inputs":[{"internalType":"address","name":"newOwner","type":"address"}],"name":"transferOwnership","outputs":[],"stateMutability":"nonpayable","type":"function"},{"inputs":[{"internalType":"address","name":"newImplementation","type":"address"}],"name":"upgradeTo","outputs":[],"stateMutability":"nonpayable","type":"function"},{"inputs":[{"internalType":"address","name":"newImplementation","type":"address"},{"internalType":"bytes","name":"data","type":"bytes"}],"name":"upgradeToAndCall","outputs":[],"stateMutability":"payable","type":"function"},{"inputs":[],"name":"usdc","outputs":[{"internalType":"address","name":"","type":"address"}],"stateMutability":"view","type":"function"}],"evm":{"bytecode":{"linkReferences":{},"object":"60a08060405234610031573060805261134090816100378239608051818181610732015281816108590152610cdd0152f35b600080fdfe6080604081815260048036101561001557600080fd5b600092833560e01c908163013cf08b14610ea7575080633659cfe614610cb65780633e413bee14610c8d57806344ef913c14610c64578063485cc95514610adc5780634f1ef286146107df57806352d1902d1461071d578063715018a6146106bd578063719f409c1461048257806386d6282c146103615780638da5cb5b14610338578063bcacc70a14610319578063d62aad29146102fc578063da35c664146102d9578063f2fde38b146102485763f6c85888146100d357600080fd5b346101fd5760209182600319360112610244578135845260c983528084208281015442101580610235575b156102015760018060a01b0392838254169386600184019560ff87541690803b156101fd576024839288519485938492631b75218f60e11b8452898401525af180156101f3576101c3575b508592918760038360449460cb5416985460081c16940154968651978895869463a9059cbb60e01b865285015260248401525af19081156101ba575061018d578280f35b816101ac92903d106101b3575b6101a48183610f6d565b81019061106d565b5038808280f35b503d61019a565b513d85823e3d90fd5b67ffffffffffffffff8198929398116101e0578452959085610149565b634e487b7160e01b825260418852602482fd5b85513d8a823e3d90fd5b8280fd5b5091606492519162461bcd60e51b8352820152600f60248201526e43616e6e6f742066696e616c697a6560881b6044820152fd5b5060ff600582015416156100fe565b8380fd5b50346101fd5760203660031901126101fd57610262610f20565b9161026b6110e5565b6001600160a01b0383161561028757836102848461113d565b80f35b906020608492519162461bcd60e51b8352820152602660248201527f4f776e61626c653a206e6577206f776e657220697320746865207a65726f206160448201526564647265737360d01b6064820152fd5b5050346102f857816003193601126102f85760209060ca549051908152f35b5080fd5b5050346102f857816003193601126102f85760209051611c208152f35b5050346102f857816003193601126102f85760209051633b9aca008152f35b5050346102f857816003193601126102f85760975490516001600160a01b039091168152602090f35b50346101fd576020806003193601126102445781359182855260c98252838520908082015442101561044f5760cb54600383015486516323b872dd60e01b8152339381019390935230602484015260448301528390829060649082908a906001600160a01b03165af1801561044557916002917fcde8e21e97a7f6ec4bbf0ee44450212e0ba73be8fdfbfb2b155e861d86756bac959693610428575b5060058101600160ff1982541617905501336001600160601b0360a01b82541617905551338152a280f35b61043e90853d87116101b3576101a48183610f6d565b50386103fd565b85513d88823e3d90fd5b845162461bcd60e51b8152908101839052600d60248201526c15da5b991bddc818db1bdcd959609a1b6044820152606490fd5b509190346102f857806003193601126102f85761049d610f20565b90602493843560ff81168091036106b9576001811480156106af575b1561067b578460018060a01b03928360cb54169385516323b872dd60e01b81523383820152308a820152633b9aca00958660448301528160648160209788945af1801561067157610654575b5060ca549660001988146106425781906001890160ca551694611c204201918242116106305787519a60e08c01908c821067ffffffffffffffff83111761061f5750928a9b928a9b7f9269d301f16e15fa22cc98511a481ff00ab5b0d9e076522e330675d30d37a4389b96936005968c528a86528886018a81528c87013381528d606089019480865260808a0196875260a08a0197885260c08a019b818d52815260c98d52209751885560ff60018901925116825491610100600160a81b03905160081b16916affffffffffffffffffffff60a81b1617179055600286019151166001600160601b0360a01b8254161790555160038401555190820155019051151560ff801983541691161790558351928352820152a280f35b634e487b7160e01b8c52604186528bfd5b634e487b7160e01b8a52601184528a8afd5b634e487b7160e01b8952601183528989fd5b61066a90843d86116101b3576101a48183610f6d565b5038610505565b87513d8b823e3d90fd5b50600f856020606494519362461bcd60e51b85528401528201526e496e76616c6964206f7574636f6d6560881b6044820152fd5b50600281146104b9565b8480fd5b833461071a578060031936011261071a576106d66110e5565b609780546001600160a01b0319811690915581906001600160a01b03167f8be0079c531659141344cd1fd0a4f28419497f9722a3daafe3b4186f6b6457e08280a380f35b80fd5b50823461071a578060031936011261071a57507f00000000000000000000000000000000000000000000000000000000000000006001600160a01b0316300361077757602082516000805160206112eb8339815191528152f35b6020608492519162461bcd60e51b8352820152603860248201527f555550535570677261646561626c653a206d757374206e6f742062652063616c60448201527f6c6564207468726f7567682064656c656761746563616c6c00000000000000006064820152fd5b5090806003193601126101fd576107f4610f20565b906024359067ffffffffffffffff82116106b957366023830112156106b9578184013561082081610f8f565b61082c83519182610f6d565b818152866020948583019336602482840101116101fd578060248893018637830101526001600160a01b037f000000000000000000000000000000000000000000000000000000000000000081169061088730831415610fab565b6108a46000805160206112eb83398151915292828454161461100c565b6108ac6110e5565b7f4910fdfa16fed3260ed0e7147f7cc6da11a60208b5b9406d12a635614ffd91435460ff16156108e6575050505050506102849150611186565b869293949596169085516352d1902d60e01b815287818a81865afa8a9181610aa9575b5061096857865162461bcd60e51b8152808a01899052602e60248201527f45524331393637557067726164653a206e657720696d706c656d656e7461746960448201526d6f6e206973206e6f74205555505360901b6064820152608490fd5b979192939695949703610a54575061097f82611186565b7fbc7cd75a20ee27fd9adebab32041f755214dbc6bffa90cc0225b39da2e5c2d3b8780a285845115801590610a4c575b6109bd575b50505050505080f35b80610a36968451966109ce88610f3b565b602788527f416464726573733a206c6f772d6c6576656c2064656c65676174652063616c6c87890152660819985a5b195960ca1b868901525190845af4913d15610a42573d610a28610a1f82610f8f565b92519283610f6d565b81528681943d92013e611216565b503880808080856109b4565b5060609250611216565b5060016109af565b835162461bcd60e51b8152908101859052602960248201527f45524331393637557067726164653a20756e737570706f727465642070726f786044820152681a58589b195555525160ba1b6064820152608490fd5b9091508881813d8311610ad5575b610ac18183610f6d565b81010312610ad157519038610909565b8a80fd5b503d610ab7565b50346101fd57816003193601126101fd57610af5610f20565b6001600160a01b0391906024358381169190829003610c6057855460ff8160081c161593848095610c53575b8015610c3c575b15610be2575060ff198116600117875583610bd1575b50610b5860ff875460081c16610b5381611085565b611085565b610b613361113d565b855493610b7360ff8660081c16611085565b6001600160601b0360a01b91168160cb54161760cb5560cc54161760cc55610b99578280f35b61ff001916825551600181527f7f26b83ff96e1f2b6a682f133852f6798a09c465da95921460cefb384740249890602090a138808280f35b61ffff191661010117865538610b3e565b608490602088519162461bcd60e51b8352820152602e60248201527f496e697469616c697a61626c653a20636f6e747261637420697320616c72656160448201526d191e481a5b9a5d1a585b1a5e995960921b6064820152fd5b50303b158015610b285750600160ff831614610b28565b50600160ff831610610b21565b8580fd5b5050346102f857816003193601126102f85760cc5490516001600160a01b039091168152602090f35b5050346102f857816003193601126102f85760cb5490516001600160a01b039091168152602090f35b5090346101fd5760208060031936011261024457610cd2610f20565b916001600160a01b037f00000000000000000000000000000000000000000000000000000000000000008116610d0a30821415610fab565b610d276000805160206112eb83398151915291838354161461100c565b610d2f6110e5565b8251908482019282841067ffffffffffffffff851117610e94578385528883527f4910fdfa16fed3260ed0e7147f7cc6da11a60208b5b9406d12a635614ffd91435460ff1615610d89575050505050506102849150611186565b869293949596169085516352d1902d60e01b815287818a81865afa8a9181610e65575b50610e0b57865162461bcd60e51b8152808a01899052602e60248201527f45524331393637557067726164653a206e657720696d706c656d656e7461746960448201526d6f6e206973206e6f74205555505360901b6064820152608490fd5b979192939695949703610a545750610e2282611186565b7fbc7cd75a20ee27fd9adebab32041f755214dbc6bffa90cc0225b39da2e5c2d3b8780a285845115801590610e5e576109bd5750505050505080f35b50806109af565b9091508881813d8311610e8d575b610e7d8183610f6d565b81010312610ad157519038610dac565b503d610e73565b634e487b7160e01b895260418852602489fd5b9291905034610244576020366003190112610244578160e0948235815260c9602052209081549260018301549060018060a01b03806002860154169260ff60056003880154968801549701541696885260ff8116602089015260081c16908601526060850152608084015260a0830152151560c0820152f35b600435906001600160a01b0382168203610f3657565b600080fd5b6060810190811067ffffffffffffffff821117610f5757604052565b634e487b7160e01b600052604160045260246000fd5b90601f8019910116810190811067ffffffffffffffff821117610f5757604052565b67ffffffffffffffff8111610f5757601f01601f191660200190565b15610fb257565b60405162461bcd60e51b815260206004820152602c60248201527f46756e6374696f6e206d7573742062652063616c6c6564207468726f7567682060448201526b19195b1959d85d1958d85b1b60a21b6064820152608490fd5b1561101357565b60405162461bcd60e51b815260206004820152602c60248201527f46756e6374696f6e206d7573742062652063616c6c6564207468726f7567682060448201526b6163746976652070726f787960a01b6064820152608490fd5b90816020910312610f3657518015158103610f365790565b1561108c57565b60405162461bcd60e51b815260206004820152602b60248201527f496e697469616c697a61626c653a20636f6e7472616374206973206e6f74206960448201526a6e697469616c697a696e6760a81b6064820152608490fd5b6097546001600160a01b031633036110f957565b606460405162461bcd60e51b815260206004820152602060248201527f4f776e61626c653a2063616c6c6572206973206e6f7420746865206f776e65726044820152fd5b609780546001600160a01b039283166001600160a01b0319821681179092559091167f8be0079c531659141344cd1fd0a4f28419497f9722a3daafe3b4186f6b6457e0600080a3565b803b156111bb576000805160206112eb83398151915280546001600160a01b0319166001600160a01b03909216919091179055565b60405162461bcd60e51b815260206004820152602d60248201527f455243313936373a206e657720696d706c656d656e746174696f6e206973206e60448201526c1bdd08184818dbdb9d1c9858dd609a1b6064820152608490fd5b91929015611278575081511561122a575090565b3b156112335790565b60405162461bcd60e51b815260206004820152601d60248201527f416464726573733a2063616c6c20746f206e6f6e2d636f6e74726163740000006044820152606490fd5b82519091501561128b5750805190602001fd5b6040519062461bcd60e51b82528160208060048301528251908160248401526000935b8285106112d1575050604492506000838284010152601f80199101168101030190fd5b84810182015186860160440152938101938593506112ae56fe360894a13ba1a3210667c828492db98dca3e2076cc3735a920a3ca505d382bbca264697066735822122015b9ac54636f5ef960bb0ad54e51fb2bcf98ab44837e537d9ef42c0ca9e2d0f864736f6c63430008180033","opcodes":"PUSH1 0xA0 DUP1 PUSH1 0x40 MSTORE CALLVALUE PUSH2 0x31 JUMPI ADDRESS PUSH1 0x80 MSTORE PUSH2 0x1340 SWAP1 DUP2 PUSH2 0x37 DUP3 CODECOPY PUSH1 0x80 MLOAD DUP2 DUP2 DUP2 PUSH2 0x732 ADD MSTORE DUP2 DUP2 PUSH2 0x859 ADD MSTORE PUSH2 0xCDD ADD MSTORE RETURN JUMPDEST PUSH1 0x0 DUP1 REVERT INVALID PUSH1 0x80 PUSH1 0x40 DUP2 DUP2 MSTORE PUSH1 0x4 DUP1 CALLDATASIZE LT ISZERO PUSH2 0x15 JUMPI PUSH1 0x0 DUP1 REVERT JUMPDEST PUSH1 0x0 SWAP3 DUP4 CALLDATALOAD PUSH1 0xE0 SHR SWAP1 DUP2 PUSH4 0x13CF08B EQ PUSH2 0xEA7 JUMPI POP DUP1 PUSH4 0x3659CFE6 EQ PUSH2 0xCB6 JUMPI DUP1 PUSH4 0x3E413BEE EQ PUSH2 0xC8D JUMPI DUP1 PUSH4 0x44EF913C EQ PUSH2 0xC64 JUMPI DUP1 PUSH4 0x485CC955 EQ PUSH2 0xADC JUMPI DUP1 PUSH4 0x4F1EF286 EQ PUSH2 0x7DF JUMPI DUP1 PUSH4 0x52D1902D EQ PUSH2 0x71D JUMPI DUP1 PUSH4 0x715018A6 EQ PUSH2 0x6BD JUMPI DUP1 PUSH4 0x719F409C EQ PUSH2 0x482 JUMPI DUP1 PUSH4 0x86D6282C EQ PUSH2 0x361 JUMPI DUP1 PUSH4 0x8DA5CB5B EQ PUSH2 0x338 JUMPI DUP1 PUSH4 0xBCACC70A EQ PUSH2 0x319 JUMPI DUP1 PUSH4 0xD62AAD29 EQ PUSH2 0x2FC JUMPI DUP1 PUSH4 0xDA35C664 EQ PUSH2 0x2D9 JUMPI DUP1 PUSH4 0xF2FDE38B EQ PUSH2 0x248 JUMPI PUSH4 0xF6C85888 EQ PUSH2 0xD3 JUMPI PUSH1 0x0 DUP1 REVERT JUMPDEST CALLVALUE PUSH2 0x1FD JUMPI PUSH1 0x20 SWAP2 DUP3 PUSH1 0x3 NOT CALLDATASIZE ADD SLT PUSH2 0x244 JUMPI DUP2 CALLDATALOAD DUP5 MSTORE PUSH1 0xC9 DUP4 MSTORE DUP1 DUP5 KECCAK256 DUP3 DUP2 ADD SLOAD TIMESTAMP LT ISZERO DUP1 PUSH2 0x235 JUMPI JUMPDEST ISZERO PUSH2 0x201 JUMPI PUSH1 0x1 DUP1 PUSH1 0xA0 SHL SUB SWAP3 DUP4 DUP3 SLOAD AND SWAP4 DUP7 PUSH1 0x1 DUP5 ADD SWAP6 PUSH1 0xFF DUP8 SLOAD AND SWAP1 DUP1 EXTCODESIZE ISZERO PUSH2 0x1FD JUMPI PUSH1 0x24 DUP4 SWAP3 DUP9 MLOAD SWAP5 DUP6 SWAP4 DUP5 SWAP3 PUSH4 0x1B75218F PUSH1 0xE1 SHL DUP5 MSTORE DUP10 DUP5 ADD MSTORE GAS CALL DUP1 ISZERO PUSH2 0x1F3 JUMPI PUSH2 0x1C3 JUMPI JUMPDEST POP DUP6 SWAP3 SWAP2 DUP8 PUSH1 0x3 DUP4 PUSH1 0x44 SWAP5 PUSH1 0xCB SLOAD AND SWAP9 SLOAD PUSH1 0x8 SHR AND SWAP5 ADD SLOAD SWAP7 DUP7 MLOAD SWAP8 DUP9 SWAP6 DUP7 SWAP5 PUSH4 0xA9059CBB PUSH1 0xE0 SHL DUP7 MSTORE DUP6 ADD MSTORE PUSH1 0x24 DUP5 ADD MSTORE GAS CALL SWAP1 DUP2 ISZERO PUSH2 0x1BA JUMPI POP PUSH2 0x18D JUMPI DUP3 DUP1 RETURN JUMPDEST DUP2 PUSH2 0x1AC SWAP3 SWAP1 RETURNDATASIZE LT PUSH2 0x1B3 JUMPI JUMPDEST PUSH2 0x1A4 DUP2 DUP4 PUSH2 0xF6D JUMP JUMPDEST DUP2 ADD SWAP1 PUSH2 0x106D JUMP JUMPDEST POP CODESIZE DUP1 DUP3 DUP1 RETURN JUMPDEST POP RETURNDATASIZE PUSH2 0x19A JUMP JUMPDEST MLOAD RETURNDATASIZE DUP6 DUP3 RETURNDATACOPY RETURNDATASIZE SWAP1 REVERT JUMPDEST PUSH8 0xFFFFFFFFFFFFFFFF DUP2 SWAP9 SWAP3 SWAP4 SWAP9 GT PUSH2 0x1E0 JUMPI DUP5 MSTORE SWAP6 SWAP1 DUP6 PUSH2 0x149 JUMP JUMPDEST PUSH4 0x4E487B71 PUSH1 0xE0 SHL DUP3 MSTORE PUSH1 0x41 DUP9 MSTORE PUSH1 0x24 DUP3 REVERT JUMPDEST DUP6 MLOAD RETURNDATASIZE DUP11 DUP3 RETURNDATACOPY RETURNDATASIZE SWAP1 REVERT JUMPDEST DUP3 DUP1 REVERT JUMPDEST POP SWAP2 PUSH1 0x64 SWAP3 MLOAD SWAP2 PUSH3 0x461BCD PUSH1 0xE5 SHL DUP4 MSTORE DUP3 ADD MSTORE PUSH1 0xF PUSH1 0x24 DUP3 ADD MSTORE PUSH15 0x43616E6E6F742066696E616C697A65 PUSH1 0x88 SHL PUSH1 0x44 DUP3 ADD MSTORE REVERT JUMPDEST POP PUSH1 0xFF PUSH1 0x5 DUP3 ADD SLOAD AND ISZERO PUSH2 0xFE JUMP JUMPDEST DUP4 DUP1 REVERT JUMPDEST POP CALLVALUE PUSH2 0x1FD JUMPI PUSH1 0x20 CALLDATASIZE PUSH1 0x3 NOT ADD SLT PUSH2 0x1FD JUMPI PUSH2 0x262 PUSH2 0xF20 JUMP JUMPDEST SWAP2 PUSH2 0x26B PUSH2 0x10E5 JUMP JUMPDEST PUSH1 0x1 PUSH1 0x1 PUSH1 0xA0 SHL SUB DUP4 AND ISZERO PUSH2 0x287 JUMPI DUP4 PUSH2 0x284 DUP5 PUSH2 0x113D JUMP JUMPDEST DUP1 RETURN JUMPDEST SWAP1 PUSH1 0x20 PUSH1 0x84 SWAP3 MLOAD SWAP2 PUSH3 0x461BCD PUSH1 0xE5 SHL DUP4 MSTORE DUP3 ADD MSTORE PUSH1 0x26 PUSH1 0x24 DUP3 ADD MSTORE PUSH32 0x4F776E61626C653A206E6577206F776E657220697320746865207A65726F2061 PUSH1 0x44 DUP3 ADD MSTORE PUSH6 0x646472657373 PUSH1 0xD0 SHL PUSH1 0x64 DUP3 ADD MSTORE REVERT JUMPDEST POP POP CALLVALUE PUSH2 0x2F8 JUMPI DUP2 PUSH1 0x3 NOT CALLDATASIZE ADD SLT PUSH2 0x2F8 JUMPI PUSH1 0x20 SWAP1 PUSH1 0xCA SLOAD SWAP1 MLOAD SWAP1 DUP2 MSTORE RETURN JUMPDEST POP DUP1 REVERT JUMPDEST POP POP CALLVALUE PUSH2 0x2F8 JUMPI DUP2 PUSH1 0x3 NOT CALLDATASIZE ADD SLT PUSH2 0x2F8 JUMPI PUSH1 0x20 SWAP1 MLOAD PUSH2 0x1C20 DUP2 MSTORE RETURN JUMPDEST POP POP CALLVALUE PUSH2 0x2F8 JUMPI DUP2 PUSH1 0x3 NOT CALLDATASIZE ADD SLT PUSH2 0x2F8 JUMPI PUSH1 0x20 SWAP1 MLOAD PUSH4 0x3B9ACA00 DUP2 MSTORE RETURN JUMPDEST POP POP CALLVALUE PUSH2 0x2F8 JUMPI DUP2 PUSH1 0x3 NOT CALLDATASIZE ADD SLT PUSH2 0x2F8 JUMPI PUSH1 0x97 SLOAD SWAP1 MLOAD PUSH1 0x1 PUSH1 0x1 PUSH1 0xA0 SHL SUB SWAP1 SWAP2 AND DUP2 MSTORE PUSH1 0x20 SWAP1 RETURN JUMPDEST POP CALLVALUE PUSH2 0x1FD JUMPI PUSH1 0x20 DUP1 PUSH1 0x3 NOT CALLDATASIZE ADD SLT PUSH2 0x244 JUMPI DUP2 CALLDATALOAD SWAP2 DUP3 DUP6 MSTORE PUSH1 0xC9 DUP3 MSTORE DUP4 DUP6 KECCAK256 SWAP1 DUP1 DUP3 ADD SLOAD TIMESTAMP LT ISZERO PUSH2 0x44F JUMPI PUSH1 0xCB SLOAD PUSH1 0x3 DUP4 ADD SLOAD DUP7 MLOAD PUSH4 0x23B872DD PUSH1 0xE0 SHL DUP2 MSTORE CALLER SWAP4 DUP2 ADD SWAP4 SWAP1 SWAP4 MSTORE ADDRESS PUSH1 0x24 DUP5 ADD MSTORE PUSH1 0x44 DUP4 ADD MSTORE DUP4 SWAP1 DUP3 SWAP1 PUSH1 0x64 SWAP1 DUP3 SWAP1 DUP11 SWAP1 PUSH1 0x1 PUSH1 0x1 PUSH1 0xA0 SHL SUB AND GAS CALL DUP1 ISZERO PUSH2 0x445 JUMPI SWAP2 PUSH1 0x2 SWAP2 PUSH32 0xCDE8E21E97A7F6EC4BBF0EE44450212E0BA73BE8FDFBFB2B155E861D86756BAC SWAP6 SWAP7 SWAP4 PUSH2 0x428 JUMPI JUMPDEST POP PUSH1 0x5 DUP2 ADD PUSH1 0x1 PUSH1 0xFF NOT DUP3 SLOAD AND OR SWAP1 SSTORE ADD CALLER PUSH1 0x1 PUSH1 0x1 PUSH1 0x60 SHL SUB PUSH1 0xA0 SHL DUP3 SLOAD AND OR SWAP1 SSTORE MLOAD CALLER DUP2 MSTORE LOG2 DUP1 RETURN JUMPDEST PUSH2 0x43E SWAP1 DUP6 RETURNDATASIZE DUP8 GT PUSH2 0x1B3 JUMPI PUSH2 0x1A4 DUP2 DUP4 PUSH2 0xF6D JUMP JUMPDEST POP CODESIZE PUSH2 0x3FD JUMP JUMPDEST DUP6 MLOAD RETURNDATASIZE DUP9 DUP3 RETURNDATACOPY RETURNDATASIZE SWAP1 REVERT JUMPDEST DUP5 MLOAD PUSH3 0x461BCD PUSH1 0xE5 SHL DUP2 MSTORE SWAP1 DUP2 ADD DUP4 SWAP1 MSTORE PUSH1 0xD PUSH1 0x24 DUP3 ADD MSTORE PUSH13 0x15DA5B991BDDC818DB1BDCD959 PUSH1 0x9A SHL PUSH1 0x44 DUP3 ADD MSTORE PUSH1 0x64 SWAP1 REVERT JUMPDEST POP SWAP2 SWAP1 CALLVALUE PUSH2 0x2F8 JUMPI DUP1 PUSH1 0x3 NOT CALLDATASIZE ADD SLT PUSH2 0x2F8 JUMPI PUSH2 0x49D PUSH2 0xF20 JUMP JUMPDEST SWAP1 PUSH1 0x24 SWAP4 DUP5 CALLDATALOAD PUSH1 0xFF DUP2 AND DUP1 SWAP2 SUB PUSH2 0x6B9 JUMPI PUSH1 0x1 DUP2 EQ DUP1 ISZERO PUSH2 0x6AF JUMPI JUMPDEST ISZERO PUSH2 0x67B JUMPI DUP5 PUSH1 0x1 DUP1 PUSH1 0xA0 SHL SUB SWAP3 DUP4 PUSH1 0xCB SLOAD AND SWAP4 DUP6 MLOAD PUSH4 0x23B872DD PUSH1 0xE0 SHL DUP2 MSTORE CALLER DUP4 DUP3 ADD MSTORE ADDRESS DUP11 DUP3 ADD MSTORE PUSH4 0x3B9ACA00 SWAP6 DUP7 PUSH1 0x44 DUP4 ADD MSTORE DUP2 PUSH1 0x64 DUP2 PUSH1 0x20 SWAP8 DUP9 SWAP5 GAS CALL DUP1 ISZERO PUSH2 0x671 JUMPI PUSH2 0x654 JUMPI JUMPDEST POP PUSH1 0xCA SLOAD SWAP7 PUSH1 0x0 NOT DUP9 EQ PUSH2 0x642 JUMPI DUP2 SWAP1 PUSH1 0x1 DUP10 ADD PUSH1 0xCA SSTORE AND SWAP5 PUSH2 0x1C20 TIMESTAMP ADD SWAP2 DUP3 TIMESTAMP GT PUSH2 0x630 JUMPI DUP8 MLOAD SWAP11 PUSH1 0xE0 DUP13 ADD SWAP1 DUP13 DUP3 LT PUSH8 0xFFFFFFFFFFFFFFFF DUP4 GT OR PUSH2 0x61F JUMPI POP SWAP3 DUP11 SWAP12 SWAP3 DUP11 SWAP12 PUSH32 0x9269D301F16E15FA22CC98511A481FF00AB5B0D9E076522E330675D30D37A438 SWAP12 SWAP7 SWAP4 PUSH1 0x5 SWAP7 DUP13 MSTORE DUP11 DUP7 MSTORE DUP9 DUP7 ADD DUP11 DUP2 MSTORE DUP13 DUP8 ADD CALLER DUP2 MSTORE DUP14 PUSH1 0x60 DUP10 ADD SWAP5 DUP1 DUP7 MSTORE PUSH1 0x80 DUP11 ADD SWAP7 DUP8 MSTORE PUSH1 0xA0 DUP11 ADD SWAP8 DUP9 MSTORE PUSH1 0xC0 DUP11 ADD SWAP12 DUP2 DUP14 MSTORE DUP2 MSTORE PUSH1 0xC9 DUP14 MSTORE KECCAK256 SWAP8 MLOAD DUP9 SSTORE PUSH1 0xFF PUSH1 0x1 DUP10 ADD SWAP3 MLOAD AND DUP3 SLOAD SWAP2 PUSH2 0x100 PUSH1 0x1 PUSH1 0xA8 SHL SUB SWAP1 MLOAD PUSH1 0x8 SHL AND SWAP2 PUSH11 0xFFFFFFFFFFFFFFFFFFFFFF PUSH1 0xA8 SHL AND OR OR SWAP1 SSTORE PUSH1 0x2 DUP7 ADD SWAP2 MLOAD AND PUSH1 0x1 PUSH1 0x1 PUSH1 0x60 SHL SUB PUSH1 0xA0 SHL DUP3 SLOAD AND OR SWAP1 SSTORE MLOAD PUSH1 0x3 DUP5 ADD SSTORE MLOAD SWAP1 DUP3 ADD SSTORE ADD SWAP1 MLOAD ISZERO ISZERO PUSH1 0xFF DUP1 NOT DUP4 SLOAD AND SWAP2 AND OR SWAP1 SSTORE DUP4 MLOAD SWAP3 DUP4 MSTORE DUP3 ADD MSTORE LOG2 DUP1 RETURN JUMPDEST PUSH4 0x4E487B71 PUSH1 0xE0 SHL DUP13 MSTORE PUSH1 0x41 DUP7 MSTORE DUP12 REVERT JUMPDEST PUSH4 0x4E487B71 PUSH1 0xE0 SHL DUP11 MSTORE PUSH1 0x11 DUP5 MSTORE DUP11 DUP11 REVERT JUMPDEST PUSH4 0x4E487B71 PUSH1 0xE0 SHL DUP10 MSTORE PUSH1 0x11 DUP4 MSTORE DUP10 DUP10 REVERT JUMPDEST PUSH2 0x66A SWAP1 DUP5 RETURNDATASIZE DUP7 GT PUSH2 0x1B3 JUMPI PUSH2 0x1A4 DUP2 DUP4 PUSH2 0xF6D JUMP JUMPDEST POP CODESIZE PUSH2 0x505 JUMP JUMPDEST DUP8 MLOAD RETURNDATASIZE DUP12 DUP3 RETURNDATACOPY RETURNDATASIZE SWAP1 REVERT JUMPDEST POP PUSH1 0xF DUP6 PUSH1 0x20 PUSH1 0x64 SWAP5 MLOAD SWAP4 PUSH3 0x461BCD PUSH1 0xE5 SHL DUP6 MSTORE DUP5 ADD MSTORE DUP3 ADD MSTORE PUSH15 0x496E76616C6964206F7574636F6D65 PUSH1 0x88 SHL PUSH1 0x44 DUP3 ADD MSTORE REVERT JUMPDEST POP PUSH1 0x2 DUP2 EQ PUSH2 0x4B9 JUMP JUMPDEST DUP5 DUP1 REVERT JUMPDEST DUP4 CALLVALUE PUSH2 0x71A JUMPI DUP1 PUSH1 0x3 NOT CALLDATASIZE ADD SLT PUSH2 0x71A JUMPI PUSH2 0x6D6 PUSH2 0x10E5 JUMP JUMPDEST PUSH1 0x97 DUP1 SLOAD PUSH1 0x1 PUSH1 0x1 PUSH1 0xA0 SHL SUB NOT DUP2 AND SWAP1 SWAP2 SSTORE DUP2 SWAP1 PUSH1 0x1 PUSH1 0x1 PUSH1 0xA0 SHL SUB AND PUSH32 0x8BE0079C531659141344CD1FD0A4F28419497F9722A3DAAFE3B4186F6B6457E0 DUP3 DUP1 LOG3 DUP1 RETURN JUMPDEST DUP1 REVERT JUMPDEST POP DUP3 CALLVALUE PUSH2 0x71A JUMPI DUP1 PUSH1 0x3 NOT CALLDATASIZE ADD SLT PUSH2 0x71A JUMPI POP PUSH32 0x0 PUSH1 0x1 PUSH1 0x1 PUSH1 0xA0 SHL SUB AND ADDRESS SUB PUSH2 0x777 JUMPI PUSH1 0x20 DUP3 MLOAD PUSH1 0x0 DUP1 MLOAD PUSH1 0x20 PUSH2 0x12EB DUP4 CODECOPY DUP2 MLOAD SWAP2 MSTORE DUP2 MSTORE RETURN JUMPDEST PUSH1 0x20 PUSH1 0x84 SWAP3 MLOAD SWAP2 PUSH3 0x461BCD PUSH1 0xE5 SHL DUP4 MSTORE DUP3 ADD MSTORE PUSH1 0x38 PUSH1 0x24 DUP3 ADD MSTORE PUSH32 0x555550535570677261646561626C653A206D757374206E6F742062652063616C PUSH1 0x44 DUP3 ADD MSTORE PUSH32 0x6C6564207468726F7567682064656C656761746563616C6C0000000000000000 PUSH1 0x64 DUP3 ADD MSTORE REVERT JUMPDEST POP SWAP1 DUP1 PUSH1 0x3 NOT CALLDATASIZE ADD SLT PUSH2 0x1FD JUMPI PUSH2 0x7F4 PUSH2 0xF20 JUMP JUMPDEST SWAP1 PUSH1 0x24 CALLDATALOAD SWAP1 PUSH8 0xFFFFFFFFFFFFFFFF DUP3 GT PUSH2 0x6B9 JUMPI CALLDATASIZE PUSH1 0x23 DUP4 ADD SLT ISZERO PUSH2 0x6B9 JUMPI DUP2 DUP5 ADD CALLDATALOAD PUSH2 0x820 DUP2 PUSH2 0xF8F JUMP JUMPDEST PUSH2 0x82C DUP4 MLOAD SWAP2 DUP3 PUSH2 0xF6D JUMP JUMPDEST DUP2 DUP2 MSTORE DUP7 PUSH1 0x20 SWAP5 DUP6 DUP4 ADD SWAP4 CALLDATASIZE PUSH1 0x24 DUP3 DUP5 ADD ADD GT PUSH2 0x1FD JUMPI DUP1 PUSH1 0x24 DUP9 SWAP4 ADD DUP7 CALLDATACOPY DUP4 ADD ADD MSTORE PUSH1 0x1 PUSH1 0x1 PUSH1 0xA0 SHL SUB PUSH32 0x0 DUP2 AND SWAP1 PUSH2 0x887 ADDRESS DUP4 EQ ISZERO PUSH2 0xFAB JUMP JUMPDEST PUSH2 0x8A4 PUSH1 0x0 DUP1 MLOAD PUSH1 0x20 PUSH2 0x12EB DUP4 CODECOPY DUP2 MLOAD SWAP2 MSTORE SWAP3 DUP3 DUP5 SLOAD AND EQ PUSH2 0x100C JUMP JUMPDEST PUSH2 0x8AC PUSH2 0x10E5 JUMP JUMPDEST PUSH32 0x4910FDFA16FED3260ED0E7147F7CC6DA11A60208B5B9406D12A635614FFD9143 SLOAD PUSH1 0xFF AND ISZERO PUSH2 0x8E6 JUMPI POP POP POP POP POP POP PUSH2 0x284 SWAP2 POP PUSH2 0x1186 JUMP JUMPDEST DUP7 SWAP3 SWAP4 SWAP5 SWAP6 SWAP7 AND SWAP1 DUP6 MLOAD PUSH4 0x52D1902D PUSH1 0xE0 SHL DUP2 MSTORE DUP8 DUP2 DUP11 DUP2 DUP7 GAS STATICCALL DUP11 SWAP2 DUP2 PUSH2 0xAA9 JUMPI JUMPDEST POP PUSH2 0x968 JUMPI DUP7 MLOAD PUSH3 0x461BCD PUSH1 0xE5 SHL DUP2 MSTORE DUP1 DUP11 ADD DUP10 SWAP1 MSTORE PUSH1 0x2E PUSH1 0x24 DUP3 ADD MSTORE PUSH32 0x45524331393637557067726164653A206E657720696D706C656D656E74617469 PUSH1 0x44 DUP3 ADD MSTORE PUSH14 0x6F6E206973206E6F742055555053 PUSH1 0x90 SHL PUSH1 0x64 DUP3 ADD MSTORE PUSH1 0x84 SWAP1 REVERT JUMPDEST SWAP8 SWAP2 SWAP3 SWAP4 SWAP7 SWAP6 SWAP5 SWAP8 SUB PUSH2 0xA54 JUMPI POP PUSH2 0x97F DUP3 PUSH2 0x1186 JUMP JUMPDEST PUSH32 0xBC7CD75A20EE27FD9ADEBAB32041F755214DBC6BFFA90CC0225B39DA2E5C2D3B DUP8 DUP1 LOG2 DUP6 DUP5 MLOAD ISZERO DUP1 ISZERO SWAP1 PUSH2 0xA4C JUMPI JUMPDEST PUSH2 0x9BD JUMPI JUMPDEST POP POP POP POP POP POP DUP1 RETURN JUMPDEST DUP1 PUSH2 0xA36 SWAP7 DUP5 MLOAD SWAP7 PUSH2 0x9CE DUP9 PUSH2 0xF3B JUMP JUMPDEST PUSH1 0x27 DUP9 MSTORE PUSH32 0x416464726573733A206C6F772D6C6576656C2064656C65676174652063616C6C DUP8 DUP10 ADD MSTORE PUSH7 0x819985A5B1959 PUSH1 0xCA SHL DUP7 DUP10 ADD MSTORE MLOAD SWAP1 DUP5 GAS DELEGATECALL SWAP2 RETURNDATASIZE ISZERO PUSH2 0xA42 JUMPI RETURNDATASIZE PUSH2 0xA28 PUSH2 0xA1F DUP3 PUSH2 0xF8F JUMP JUMPDEST SWAP3 MLOAD SWAP3 DUP4 PUSH2 0xF6D JUMP JUMPDEST DUP2 MSTORE DUP7 DUP2 SWAP5 RETURNDATASIZE SWAP3 ADD RETURNDATACOPY PUSH2 0x1216 JUMP JUMPDEST POP CODESIZE DUP1 DUP1 DUP1 DUP1 DUP6 PUSH2 0x9B4 JUMP JUMPDEST POP PUSH1 0x60 SWAP3 POP PUSH2 0x1216 JUMP JUMPDEST POP PUSH1 0x1 PUSH2 0x9AF JUMP JUMPDEST DUP4 MLOAD PUSH3 0x461BCD PUSH1 0xE5 SHL DUP2 MSTORE SWAP1 DUP2 ADD DUP6 SWAP1 MSTORE PUSH1 0x29 PUSH1 0x24 DUP3 ADD MSTORE PUSH32 0x45524331393637557067726164653A20756E737570706F727465642070726F78 PUSH1 0x44 DUP3 ADD MSTORE PUSH9 0x1A58589B1955555251 PUSH1 0xBA SHL PUSH1 0x64 DUP3 ADD MSTORE PUSH1 0x84 SWAP1 REVERT JUMPDEST SWAP1 SWAP2 POP DUP9 DUP2 DUP2 RETURNDATASIZE DUP4 GT PUSH2 0xAD5 JUMPI JUMPDEST PUSH2 0xAC1 DUP2 DUP4 PUSH2 0xF6D JUMP JUMPDEST DUP2 ADD SUB SLT PUSH2 0xAD1 JUMPI MLOAD SWAP1 CODESIZE PUSH2 0x909 JUMP JUMPDEST DUP11 DUP1 REVERT JUMPDEST POP RETURNDATASIZE PUSH2 0xAB7 JUMP JUMPDEST POP CALLVALUE PUSH2 0x1FD JUMPI DUP2 PUSH1 0x3 NOT CALLDATASIZE ADD SLT PUSH2 0x1FD JUMPI PUSH2 0xAF5 PUSH2 0xF20 JUMP JUMPDEST PUSH1 0x1 PUSH1 0x1 PUSH1 0xA0 SHL SUB SWAP2 SWAP1 PUSH1 0x24 CALLDATALOAD DUP4 DUP2 AND SWAP2 SWAP1 DUP3 SWAP1 SUB PUSH2 0xC60 JUMPI DUP6 SLOAD PUSH1 0xFF DUP2 PUSH1 0x8 SHR AND ISZERO SWAP4 DUP5 DUP1 SWAP6 PUSH2 0xC53 JUMPI JUMPDEST DUP1 ISZERO PUSH2 0xC3C JUMPI JUMPDEST ISZERO PUSH2 0xBE2 JUMPI POP PUSH1 0xFF NOT DUP2 AND PUSH1 0x1 OR DUP8 SSTORE DUP4 PUSH2 0xBD1 JUMPI JUMPDEST POP PUSH2 0xB58 PUSH1 0xFF DUP8 SLOAD PUSH1 0x8 SHR AND PUSH2 0xB53 DUP2 PUSH2 0x1085 JUMP JUMPDEST PUSH2 0x1085 JUMP JUMPDEST PUSH2 0xB61 CALLER PUSH2 0x113D JUMP JUMPDEST DUP6 SLOAD SWAP4 PUSH2 0xB73 PUSH1 0xFF DUP7 PUSH1 0x8 SHR AND PUSH2 0x1085 JUMP JUMPDEST PUSH1 0x1 PUSH1 0x1 PUSH1 0x60 SHL SUB PUSH1 0xA0 SHL SWAP2 AND DUP2 PUSH1 0xCB SLOAD AND OR PUSH1 0xCB SSTORE PUSH1 0xCC SLOAD AND OR PUSH1 0xCC SSTORE PUSH2 0xB99 JUMPI DUP3 DUP1 RETURN JUMPDEST PUSH2 0xFF00 NOT AND DUP3 SSTORE MLOAD PUSH1 0x1 DUP2 MSTORE PUSH32 0x7F26B83FF96E1F2B6A682F133852F6798A09C465DA95921460CEFB3847402498 SWAP1 PUSH1 0x20 SWAP1 LOG1 CODESIZE DUP1 DUP3 DUP1 RETURN JUMPDEST PUSH2 0xFFFF NOT AND PUSH2 0x101 OR DUP7 SSTORE CODESIZE PUSH2 0xB3E JUMP JUMPDEST PUSH1 0x84 SWAP1 PUSH1 0x20 DUP9 MLOAD SWAP2 PUSH3 0x461BCD PUSH1 0xE5 SHL DUP4 MSTORE DUP3 ADD MSTORE PUSH1 0x2E PUSH1 0x24 DUP3 ADD MSTORE PUSH32 0x496E697469616C697A61626C653A20636F6E747261637420697320616C726561 PUSH1 0x44 DUP3 ADD MSTORE PUSH14 0x191E481A5B9A5D1A585B1A5E9959 PUSH1 0x92 SHL PUSH1 0x64 DUP3 ADD MSTORE REVERT JUMPDEST POP ADDRESS EXTCODESIZE ISZERO DUP1 ISZERO PUSH2 0xB28 JUMPI POP PUSH1 0x1 PUSH1 0xFF DUP4 AND EQ PUSH2 0xB28 JUMP JUMPDEST POP PUSH1 0x1 PUSH1 0xFF DUP4 AND LT PUSH2 0xB21 JUMP JUMPDEST DUP6 DUP1 REVERT JUMPDEST POP POP CALLVALUE PUSH2 0x2F8 JUMPI DUP2 PUSH1 0x3 NOT CALLDATASIZE ADD SLT PUSH2 0x2F8 JUMPI PUSH1 0xCC SLOAD SWAP1 MLOAD PUSH1 0x1 PUSH1 0x1 PUSH1 0xA0 SHL SUB SWAP1 SWAP2 AND DUP2 MSTORE PUSH1 0x20 SWAP1 RETURN JUMPDEST POP POP CALLVALUE PUSH2 0x2F8 JUMPI DUP2 PUSH1 0x3 NOT CALLDATASIZE ADD SLT PUSH2 0x2F8 JUMPI PUSH1 0xCB SLOAD SWAP1 MLOAD PUSH1 0x1 PUSH1 0x1 PUSH1 0xA0 SHL SUB SWAP1 SWAP2 AND DUP2 MSTORE PUSH1 0x20 SWAP1 RETURN JUMPDEST POP SWAP1 CALLVALUE PUSH2 0x1FD JUMPI PUSH1 0x20 DUP1 PUSH1 0x3 NOT CALLDATASIZE ADD SLT PUSH2 0x244 JUMPI PUSH2 0xCD2 PUSH2 0xF20 JUMP JUMPDEST SWAP2 PUSH1 0x1 PUSH1 0x1 PUSH1 0xA0 SHL SUB PUSH32 0x0 DUP2 AND PUSH2 0xD0A ADDRESS DUP3 EQ ISZERO PUSH2 0xFAB JUMP JUMPDEST PUSH2 0xD27 PUSH1 0x0 DUP1 MLOAD PUSH1 0x20 PUSH2 0x12EB DUP4 CODECOPY DUP2 MLOAD SWAP2 MSTORE SWAP2 DUP4 DUP4 SLOAD AND EQ PUSH2 0x100C JUMP JUMPDEST PUSH2 0xD2F PUSH2 0x10E5 JUMP JUMPDEST DUP3 MLOAD SWAP1 DUP5 DUP3 ADD SWAP3 DUP3 DUP5 LT PUSH8 0xFFFFFFFFFFFFFFFF DUP6 GT OR PUSH2 0xE94 JUMPI DUP4 DUP6 MSTORE DUP9 DUP4 MSTORE PUSH32 0x4910FDFA16FED3260ED0E7147F7CC6DA11A60208B5B9406D12A635614FFD9143 SLOAD PUSH1 0xFF AND ISZERO PUSH2 0xD89 JUMPI POP POP POP POP POP POP PUSH2 0x284 SWAP2 POP PUSH2 0x1186 JUMP JUMPDEST DUP7 SWAP3 SWAP4 SWAP5 SWAP6 SWAP7 AND SWAP1 DUP6 MLOAD PUSH4 0x52D1902D PUSH1 0xE0 SHL DUP2 MSTORE DUP8 DUP2 DUP11 DUP2 DUP7 GAS STATICCALL DUP11 SWAP2 DUP2 PUSH2 0xE65 JUMPI JUMPDEST POP PUSH2 0xE0B JUMPI DUP7 MLOAD PUSH3 0x461BCD PUSH1 0xE5 SHL DUP2 MSTORE DUP1 DUP11 ADD DUP10 SWAP1 MSTORE PUSH1 0x2E PUSH1 0x24 DUP3 ADD MSTORE PUSH32 0x45524331393637557067726164653A206E657720696D706C656D656E74617469 PUSH1 0x44 DUP3 ADD MSTORE PUSH14 0x6F6E206973206E6F742055555053 PUSH1 0x90 SHL PUSH1 0x64 DUP3 ADD MSTORE PUSH1 0x84 SWAP1 REVERT JUMPDEST SWAP8 SWAP2 SWAP3 SWAP4 SWAP7 SWAP6 SWAP5 SWAP8 SUB PUSH2 0xA54 JUMPI POP PUSH2 0xE22 DUP3 PUSH2 0x1186 JUMP JUMPDEST PUSH32 0xBC7CD75A20EE27FD9ADEBAB32041F755214DBC6BFFA90CC0225B39DA2E5C2D3B DUP8 DUP1 LOG2 DUP6 DUP5 MLOAD ISZERO DUP1 ISZERO SWAP1 PUSH2 0xE5E JUMPI PUSH2 0x9BD JUMPI POP POP POP POP POP POP DUP1 RETURN JUMPDEST POP DUP1 PUSH2 0x9AF JUMP JUMPDEST SWAP1 SWAP2 POP DUP9 DUP2 DUP2 RETURNDATASIZE DUP4 GT PUSH2 0xE8D JUMPI JUMPDEST PUSH2 0xE7D DUP2 DUP4 PUSH2 0xF6D JUMP JUMPDEST DUP2 ADD SUB SLT PUSH2 0xAD1 JUMPI MLOAD SWAP1 CODESIZE PUSH2 0xDAC JUMP JUMPDEST POP RETURNDATASIZE PUSH2 0xE73 JUMP JUMPDEST PUSH4 0x4E487B71 PUSH1 0xE0 SHL DUP10 MSTORE PUSH1 0x41 DUP9 MSTORE PUSH1 0x24 DUP10 REVERT JUMPDEST SWAP3 SWAP2 SWAP1 POP CALLVALUE PUSH2 0x244 JUMPI PUSH1 0x20 CALLDATASIZE PUSH1 0x3 NOT ADD SLT PUSH2 0x244 JUMPI DUP2 PUSH1 0xE0 SWAP5 DUP3 CALLDATALOAD DUP2 MSTORE PUSH1 0xC9 PUSH1 0x20 MSTORE KECCAK256 SWAP1 DUP2 SLOAD SWAP3 PUSH1 0x1 DUP4 ADD SLOAD SWAP1 PUSH1 0x1 DUP1 PUSH1 0xA0 SHL SUB DUP1 PUSH1 0x2 DUP7 ADD SLOAD AND SWAP3 PUSH1 0xFF PUSH1 0x5 PUSH1 0x3 DUP9 ADD SLOAD SWAP7 DUP9 ADD SLOAD SWAP8 ADD SLOAD AND SWAP7 DUP9 MSTORE PUSH1 0xFF DUP2 AND PUSH1 0x20 DUP10 ADD MSTORE PUSH1 0x8 SHR AND SWAP1 DUP7 ADD MSTORE PUSH1 0x60 DUP6 ADD MSTORE PUSH1 0x80 DUP5 ADD MSTORE PUSH1 0xA0 DUP4 ADD MSTORE ISZERO ISZERO PUSH1 0xC0 DUP3 ADD MSTORE RETURN JUMPDEST PUSH1 0x4 CALLDATALOAD SWAP1 PUSH1 0x1 PUSH1 0x1 PUSH1 0xA0 SHL SUB DUP3 AND DUP3 SUB PUSH2 0xF36 JUMPI JUMP JUMPDEST PUSH1 0x0 DUP1 REVERT JUMPDEST PUSH1 0x60 DUP2 ADD SWAP1 DUP2 LT PUSH8 0xFFFFFFFFFFFFFFFF DUP3 GT OR PUSH2 0xF57 JUMPI PUSH1 0x40 MSTORE JUMP JUMPDEST PUSH4 0x4E487B71 PUSH1 0xE0 SHL PUSH1 0x0 MSTORE PUSH1 0x41 PUSH1 0x4 MSTORE PUSH1 0x24 PUSH1 0x0 REVERT JUMPDEST SWAP1 PUSH1 0x1F DUP1 NOT SWAP2 ADD AND DUP2 ADD SWAP1 DUP2 LT PUSH8 0xFFFFFFFFFFFFFFFF DUP3 GT OR PUSH2 0xF57 JUMPI PUSH1 0x40 MSTORE JUMP JUMPDEST PUSH8 0xFFFFFFFFFFFFFFFF DUP2 GT PUSH2 0xF57 JUMPI PUSH1 0x1F ADD PUSH1 0x1F NOT AND PUSH1 0x20 ADD SWAP1 JUMP JUMPDEST ISZERO PUSH2 0xFB2 JUMPI JUMP JUMPDEST PUSH1 0x40 MLOAD PUSH3 0x461BCD PUSH1 0xE5 SHL DUP2 MSTORE PUSH1 0x20 PUSH1 0x4 DUP3 ADD MSTORE PUSH1 0x2C PUSH1 0x24 DUP3 ADD MSTORE PUSH32 0x46756E6374696F6E206D7573742062652063616C6C6564207468726F75676820 PUSH1 0x44 DUP3 ADD MSTORE PUSH12 0x19195B1959D85D1958D85B1B PUSH1 0xA2 SHL PUSH1 0x64 DUP3 ADD MSTORE PUSH1 0x84 SWAP1 REVERT JUMPDEST ISZERO PUSH2 0x1013 JUMPI JUMP JUMPDEST PUSH1 0x40 MLOAD PUSH3 0x461BCD PUSH1 0xE5 SHL DUP2 MSTORE PUSH1 0x20 PUSH1 0x4 DUP3 ADD MSTORE PUSH1 0x2C PUSH1 0x24 DUP3 ADD MSTORE PUSH32 0x46756E6374696F6E206D7573742062652063616C6C6564207468726F75676820 PUSH1 0x44 DUP3 ADD MSTORE PUSH12 0x6163746976652070726F7879 PUSH1 0xA0 SHL PUSH1 0x64 DUP3 ADD MSTORE PUSH1 0x84 SWAP1 REVERT JUMPDEST SWAP1 DUP2 PUSH1 0x20 SWAP2 SUB SLT PUSH2 0xF36 JUMPI MLOAD DUP1 ISZERO ISZERO DUP2 SUB PUSH2 0xF36 JUMPI SWAP1 JUMP JUMPDEST ISZERO PUSH2 0x108C JUMPI JUMP JUMPDEST PUSH1 0x40 MLOAD PUSH3 0x461BCD PUSH1 0xE5 SHL DUP2 MSTORE PUSH1 0x20 PUSH1 0x4 DUP3 ADD MSTORE PUSH1 0x2B PUSH1 0x24 DUP3 ADD MSTORE PUSH32 0x496E697469616C697A61626C653A20636F6E7472616374206973206E6F742069 PUSH1 0x44 DUP3 ADD MSTORE PUSH11 0x6E697469616C697A696E67 PUSH1 0xA8 SHL PUSH1 0x64 DUP3 ADD MSTORE PUSH1 0x84 SWAP1 REVERT JUMPDEST PUSH1 0x97 SLOAD PUSH1 0x1 PUSH1 0x1 PUSH1 0xA0 SHL SUB AND CALLER SUB PUSH2 0x10F9 JUMPI JUMP JUMPDEST PUSH1 0x64 PUSH1 0x40 MLOAD PUSH3 0x461BCD PUSH1 0xE5 SHL DUP2 MSTORE PUSH1 0x20 PUSH1 0x4 DUP3 ADD MSTORE PUSH1 0x20 PUSH1 0x24 DUP3 ADD MSTORE PUSH32 0x4F776E61626C653A2063616C6C6572206973206E6F7420746865206F776E6572 PUSH1 0x44 DUP3 ADD MSTORE REVERT JUMPDEST PUSH1 0x97 DUP1 SLOAD PUSH1 0x1 PUSH1 0x1 PUSH1 0xA0 SHL SUB SWAP3 DUP4 AND PUSH1 0x1 PUSH1 0x1 PUSH1 0xA0 SHL SUB NOT DUP3 AND DUP2 OR SWAP1 SWAP3 SSTORE SWAP1 SWAP2 AND PUSH32 0x8BE0079C531659141344CD1FD0A4F28419497F9722A3DAAFE3B4186F6B6457E0 PUSH1 0x0 DUP1 LOG3 JUMP JUMPDEST DUP1 EXTCODESIZE ISZERO PUSH2 0x11BB JUMPI PUSH1 0x0 DUP1 MLOAD PUSH1 0x20 PUSH2 0x12EB DUP4 CODECOPY DUP2 MLOAD SWAP2 MSTORE DUP1 SLOAD PUSH1 0x1 PUSH1 0x1 PUSH1 0xA0 SHL SUB NOT AND PUSH1 0x1 PUSH1 0x1 PUSH1 0xA0 SHL SUB SWAP1 SWAP3 AND SWAP2 SWAP1 SWAP2 OR SWAP1 SSTORE JUMP JUMPDEST PUSH1 0x40 MLOAD PUSH3 0x461BCD PUSH1 0xE5 SHL DUP2 MSTORE PUSH1 0x20 PUSH1 0x4 DUP3 ADD MSTORE PUSH1 0x2D PUSH1 0x24 DUP3 ADD MSTORE PUSH32 0x455243313936373A206E657720696D706C656D656E746174696F6E206973206E PUSH1 0x44 DUP3 ADD MSTORE PUSH13 0x1BDD08184818DBDB9D1C9858DD PUSH1 0x9A SHL PUSH1 0x64 DUP3 ADD MSTORE PUSH1 0x84 SWAP1 REVERT JUMPDEST SWAP2 SWAP3 SWAP1 ISZERO PUSH2 0x1278 JUMPI POP DUP2 MLOAD ISZERO PUSH2 0x122A JUMPI POP SWAP1 JUMP JUMPDEST EXTCODESIZE ISZERO PUSH2 0x1233 JUMPI SWAP1 JUMP JUMPDEST PUSH1 0x40 MLOAD PUSH3 0x461BCD PUSH1 0xE5 SHL DUP2 MSTORE PUSH1 0x20 PUSH1 0x4 DUP3 ADD MSTORE PUSH1 0x1D PUSH1 0x24 DUP3 ADD MSTORE PUSH32 0x416464726573733A2063616C6C20746F206E6F6E2D636F6E7472616374000000 PUSH1 0x44 DUP3 ADD MSTORE PUSH1 0x64 SWAP1 REVERT JUMPDEST DUP3 MLOAD SWAP1 SWAP2 POP ISZERO PUSH2 0x128B JUMPI POP DUP1 MLOAD SWAP1 PUSH1 0x20 ADD REVERT JUMPDEST PUSH1 0x40 MLOAD SWAP1 PUSH3 0x461BCD PUSH1 0xE5 SHL DUP3 MSTORE DUP2 PUSH1 0x20 DUP1 PUSH1 0x4 DUP4 ADD MSTORE DUP3 MLOAD SWAP1 DUP2 PUSH1 0x24 DUP5 ADD MSTORE PUSH1 0x0 SWAP4 JUMPDEST DUP3 DUP6 LT PUSH2 0x12D1 JUMPI POP POP PUSH1 0x44 SWAP3 POP PUSH1 0x0 DUP4 DUP3 DUP5 ADD ADD MSTORE PUSH1 0x1F DUP1 NOT SWAP2 ADD AND DUP2 ADD SUB ADD SWAP1 REVERT JUMPDEST DUP5 DUP2 ADD DUP3 ADD MLOAD DUP7 DUP7 ADD PUSH1 0x44 ADD MSTORE SWAP4 DUP2 ADD SWAP4 DUP6 SWAP4 POP PUSH2 0x12AE JUMP INVALID CALLDATASIZE ADDMOD SWAP5 LOG1 EXTCODESIZE LOG1 LOG3 0x21 MOD PUSH8 0xC828492DB98DCA3E KECCAK256 PUSH23 0xCC3735A920A3CA505D382BBCA264697066735822122015 0xB9 0xAC SLOAD PUSH4 0x6F5EF960 0xBB EXP 0xD5 0x4E MLOAD 0xFB 0x2B 0xCF SWAP9 0xAB PREVRANDAO DUP4 PUSH31 0x537D9EF42C0CA9E2D0F864736F6C6343000818003300000000000000000000 "},"methodIdentifiers":{"BOND_AMOUNT()":"bcacc70a","CHALLENGE_WINDOW()":"d62aad29","adminResolver()":"44ef913c","dispute(uint256)":"86d6282c","finalizeNoDispute(uint256)":"f6c85888","initialize(address,address)":"485cc955","owner()":"8da5cb5b","proposalCount()":"da35c664","proposals(uint256)":"013cf08b","proposeOutcome(address,uint8)":"719f409c","proxiableUUID()":"52d1902d","renounceOwnership()":"715018a6","transferOwnership(address)":"f2fde38b","upgradeTo(address)":"3659cfe6","upgradeToAndCall(address,bytes)":"4f1ef286","usdc()":"3e413bee"}}}}}