{"contracts/MarketFactoryUpgradable.sol":{"MarketFactoryUpgradeable":{"abi":[{"anonymous":false,"inputs":[{"indexed":false,"internalType":"address","name":"previousAdmin","type":"address"},{"indexed":false,"internalType":"address","name":"newAdmin","type":"address"}],"name":"AdminChanged","type":"event"},{"anonymous":false,"inputs":[{"indexed":true,"internalType":"address","name":"beacon","type":"address"}],"name":"BeaconUpgraded","type":"event"},{"anonymous":false,"inputs":[{"indexed":false,"internalType":"uint8","name":"version","type":"uint8"}],"name":"Initialized","type":"event"},{"anonymous":false,"inputs":[{"indexed":true,"internalType":"address","name":"market","type":"address"},{"indexed":false,"internalType":"string","name":"description","type":"string"},{"indexed":false,"internalType":"uint256","name":"endTime","type":"uint256"}],"name":"MarketCreated","type":"event"},{"anonymous":false,"inputs":[{"indexed":true,"internalType":"address","name":"previousOwner","type":"address"},{"indexed":true,"internalType":"address","name":"newOwner","type":"address"}],"name":"OwnershipTransferred","type":"event"},{"anonymous":false,"inputs":[{"indexed":true,"internalType":"address","name":"implementation","type":"address"}],"name":"Upgraded","type":"event"},{"inputs":[{"internalType":"string","name":"description","type":"string"},{"internalType":"uint256","name":"endTime","type":"uint256"}],"name":"createMarket","outputs":[],"stateMutability":"nonpayable","type":"function"},{"inputs":[{"internalType":"address","name":"_marketImplementation","type":"address"}],"name":"initialize","outputs":[],"stateMutability":"nonpayable","type":"function"},{"inputs":[],"name":"marketImplementation","outputs":[{"internalType":"address","name":"","type":"address"}],"stateMutability":"view","type":"function"},{"inputs":[{"internalType":"uint256","name":"","type":"uint256"}],"name":"markets","outputs":[{"internalType":"address","name":"","type":"address"}],"stateMutability":"view","type":"function"},{"inputs":[],"name":"owner","outputs":[{"internalType":"address","name":"","type":"address"}],"stateMutability":"view","type":"function"},{"inputs":[],"name":"proxiableUUID","outputs":[{"internalType":"bytes32","name":"","type":"bytes32"}],"stateMutability":"view","type":"function"},{"inputs":[],"name":"renounceOwnership","outputs":[],"stateMutability":"nonpayable","type":"function"},{"inputs":[{"internalType":"address","name":"newOwner","type":"address"}],"name":"transferOwnership","outputs":[],"stateMutability":"nonpayable","type":"function"},{"inputs":[{"internalType":"address","name":"newImplementation","type":"address"}],"name":"upgradeTo","outputs":[],"stateMutability":"nonpayable","type":"function"},{"inputs":[{"internalType":"address","name":"newImplementation","type":"address"},{"internalType":"bytes","name":"data","type":"bytes"}],"name":"upgradeToAndCall","outputs":[],"stateMutability":"payable","type":"function"}],"evm":{"bytecode":{"linkReferences":{},"object":"60a0806040523461003157306080526145f8908161003782396080518181816105240152818161062101526108f80152f35b600080fdfe6040608081526004908136101561001557600080fd5b600091823560e01c80633659cfe6146108d157806339cfc386146108a85780634f1ef286146105d157806352d1902d1461050f578063715018a6146104b2578063883c84c1146103025780638da5cb5b146102d5578063b1283e7714610292578063c4d66de8146101235763f2fde38b1461008f57600080fd5b3461011f57602036600319011261011f576100a8610b8b565b916100b1610d9c565b6001600160a01b038316156100cd57836100ca84610df4565b80f35b906020608492519162461bcd60e51b8352820152602660248201527f4f776e61626c653a206e6577206f776e657220697320746865207a65726f206160448201526564647265737360d01b6064820152fd5b8280fd5b503461011f57602036600319011261011f5761013d610b8b565b90835460ff8160081c161591828093610285575b801561026e575b15610214575060ff198116600117855581610203575b5061018860ff855460081c1661018381610e3d565b610e3d565b61019133610df4565b8354916101a360ff8460081c16610e3d565b60018060a01b03166bffffffffffffffffffffffff60a01b60c954161760c9556101cb578280f35b61ff001916825551600181527f7f26b83ff96e1f2b6a682f133852f6798a09c465da95921460cefb384740249890602090a138808280f35b61ffff19166101011784553861016e565b608490602086519162461bcd60e51b8352820152602e60248201527f496e697469616c697a61626c653a20636f6e747261637420697320616c72656160448201526d191e481a5b9a5d1a585b1a5e995960921b6064820152fd5b50303b1580156101585750600160ff831614610158565b50600160ff831610610151565b503461011f57602036600319011261011f57359160ca548310156102d257506102bc602092610c4d565b905491519160018060a01b039160031b1c168152f35b80fd5b5050346102fe57816003193601126102fe5760975490516001600160a01b039091168152602090f35b5080fd5b509190346102fe57806003193601126102fe5782359067ffffffffffffffff908183116104ae57366023840112156104ae57610348602493369085818901359101610c16565b91833590610354610d9c565b42821115610479578251634f3bddeb60e01b602082015260608682015261039d90806103836084820188610d5c565b8560448301523360648301520390601f1982018152610bd8565b8251906135d88083019182118383101761046757908291610fcb8339039086f0801561045d5760ca54966001600160a01b0391821695906801000000000000000089101561044c57505061041a8760017f722ae84a51a6ffda776101ab2fd15e847cc928f5e7d09adf73299ef5b12fb9469798990160ca55610c4d565b819291549060031b9188831b921b19161790556104408251938385948552840190610d5c565b9060208301520390a280f35b634e487b7160e01b88526041905286fd5b82513d87823e3d90fd5b634e487b7160e01b8852604189528688fd5b825162461bcd60e51b81526020818901526010818701526f496e76616c696420656e642074696d6560801b6044820152606490fd5b8380fd5b83346102d257806003193601126102d2576104cb610d9c565b609780546001600160a01b0319811690915581906001600160a01b03167f8be0079c531659141344cd1fd0a4f28419497f9722a3daafe3b4186f6b6457e08280a380f35b5082346102d257806003193601126102d257507f00000000000000000000000000000000000000000000000000000000000000006001600160a01b0316300361056957602082516000805160206145a38339815191528152f35b6020608492519162461bcd60e51b8352820152603860248201527f555550535570677261646561626c653a206d757374206e6f742062652063616c60448201527f6c6564207468726f7567682064656c656761746563616c6c00000000000000006064820152fd5b50908060031936011261011f576105e6610b8b565b9060243567ffffffffffffffff81116108a457366023820112156108a4576106179036906024818701359101610c16565b6001600160a01b037f0000000000000000000000000000000000000000000000000000000000000000811692919061065130851415610c9a565b61066e6000805160206145a3833981519152948286541614610cfb565b610676610d9c565b7f4910fdfa16fed3260ed0e7147f7cc6da11a60208b5b9406d12a635614ffd91435460ff16156106ae57505050506100ca9150610e9d565b82516352d1902d60e01b81526020959394918416919086818981865afa899181610871575b5061073257855162461bcd60e51b8152808901889052602e60248201527f45524331393637557067726164653a206e657720696d706c656d656e7461746960448201526d6f6e206973206e6f74205555505360901b6064820152608490fd5b969192959493960361081c575061074885610e9d565b7fbc7cd75a20ee27fd9adebab32041f755214dbc6bffa90cc0225b39da2e5c2d3b8680a2825115801590610814575b610783575b5050505080f35b61080093858083519561079587610ba6565b602787527f416464726573733a206c6f772d6c6576656c2064656c65676174652063616c6c86880152660819985a5b195960ca1b858801528581519101845af4913d1561080a573d6107f26107e982610bfa565b92519283610bd8565b81528681943d92013e610f2d565b503880808061077c565b5060609250610f2d565b506001610777565b825162461bcd60e51b8152908101849052602960248201527f45524331393637557067726164653a20756e737570706f727465642070726f786044820152681a58589b195555525160ba1b6064820152608490fd5b9091508781813d831161089d575b6108898183610bd8565b81010312610899575190386106d3565b8980fd5b503d61087f565b8480fd5b5050346102fe57816003193601126102fe5760c95490516001600160a01b039091168152602090f35b50903461011f576020806003193601126104ae576108ed610b8b565b916001600160a01b037f0000000000000000000000000000000000000000000000000000000000000000811661092530821415610c9a565b6109426000805160206145a3833981519152918383541614610cfb565b61094a610d9c565b8251908482019282841067ffffffffffffffff851117610b78578385528883527f4910fdfa16fed3260ed0e7147f7cc6da11a60208b5b9406d12a635614ffd91435460ff16156109a4575050505050506100ca9150610e9d565b869293949596169085516352d1902d60e01b815287818a81865afa8a9181610b45575b50610a2657865162461bcd60e51b8152808a01899052602e60248201527f45524331393637557067726164653a206e657720696d706c656d656e7461746960448201526d6f6e206973206e6f74205555505360901b6064820152608490fd5b979192939695949703610af05750610a3d82610e9d565b7fbc7cd75a20ee27fd9adebab32041f755214dbc6bffa90cc0225b39da2e5c2d3b8780a285845115801590610ae9575b610a7b575b50505050505080f35b80610add96845196610a8c88610ba6565b602788527f416464726573733a206c6f772d6c6576656c2064656c65676174652063616c6c87890152660819985a5b195960ca1b868901525190845af4913d1561080a573d6107f26107e982610bfa565b50388080808085610a72565b5080610a6d565b835162461bcd60e51b8152908101859052602960248201527f45524331393637557067726164653a20756e737570706f727465642070726f786044820152681a58589b195555525160ba1b6064820152608490fd5b9091508881813d8311610b71575b610b5d8183610bd8565b81010312610b6d575190386109c7565b8a80fd5b503d610b53565b634e487b7160e01b895260418852602489fd5b600435906001600160a01b0382168203610ba157565b600080fd5b6060810190811067ffffffffffffffff821117610bc257604052565b634e487b7160e01b600052604160045260246000fd5b90601f8019910116810190811067ffffffffffffffff821117610bc257604052565b67ffffffffffffffff8111610bc257601f01601f191660200190565b929192610c2282610bfa565b91610c306040519384610bd8565b829481845281830111610ba1578281602093846000960137010152565b60ca54811015610c845760ca6000527f42d72674974f694b5f5159593243114d38a5c39c89d6b62fee061ff523240ee10190600090565b634e487b7160e01b600052603260045260246000fd5b15610ca157565b60405162461bcd60e51b815260206004820152602c60248201527f46756e6374696f6e206d7573742062652063616c6c6564207468726f7567682060448201526b19195b1959d85d1958d85b1b60a21b6064820152608490fd5b15610d0257565b60405162461bcd60e51b815260206004820152602c60248201527f46756e6374696f6e206d7573742062652063616c6c6564207468726f7567682060448201526b6163746976652070726f787960a01b6064820152608490fd5b919082519283825260005b848110610d88575050826000602080949584010152601f8019910116010190565b602081830181015184830182015201610d67565b6097546001600160a01b03163303610db057565b606460405162461bcd60e51b815260206004820152602060248201527f4f776e61626c653a2063616c6c6572206973206e6f7420746865206f776e65726044820152fd5b609780546001600160a01b039283166001600160a01b0319821681179092559091167f8be0079c531659141344cd1fd0a4f28419497f9722a3daafe3b4186f6b6457e0600080a3565b15610e4457565b60405162461bcd60e51b815260206004820152602b60248201527f496e697469616c697a61626c653a20636f6e7472616374206973206e6f74206960448201526a6e697469616c697a696e6760a81b6064820152608490fd5b803b15610ed2576000805160206145a383398151915280546001600160a01b0319166001600160a01b03909216919091179055565b60405162461bcd60e51b815260206004820152602d60248201527f455243313936373a206e657720696d706c656d656e746174696f6e206973206e60448201526c1bdd08184818dbdb9d1c9858dd609a1b6064820152608490fd5b91929015610f8f5750815115610f41575090565b3b15610f4a5790565b60405162461bcd60e51b815260206004820152601d60248201527f416464726573733a2063616c6c20746f206e6f6e2d636f6e74726163740000006044820152606490fd5b825190915015610fa25750805190602001fd5b60405162461bcd60e51b815260206004820152908190610fc6906024830190610d5c565b0390fdfe60a0806040523461003157306080526135a1908161003782396080518181816107e501528181610f9e01526113d30152f35b600080fdfe60806040818152600491823610156200001757600080fd5b600092833560e01c91826327793f8714620016a9575081633197cbb614620016875781633659cfe614620013a757816336ea431e14620012975781633e413bee146200126b5781633f6fa65514620012445781634f1ef2861462000f465781634f3bddeb1462000ad25781635229a6fd146200089457816352d1902d14620007cd5781635c975abb14620007a75781636f1d4ea41462000777578163715018a614620007155781637284e416146200061d5781638da5cb5b14620005f2578163a3b5afb114620005c6578163b8811aa41462000578578163be040fb014620001e3578163f2fde38b1462000144575063fd38ca0f146200011657600080fd5b3462000140578160031936011262000140576101325490516001600160a01b039091168152602090f35b5080fd5b905034620001df576020366003190112620001df5762000163620016ce565b916200016e620019fb565b6001600160a01b038316156200018d57836200018a846200195b565b80f35b906020608492519162461bcd60e51b8352820152602660248201527f4f776e61626c653a206e6577206f776e657220697320746865207a65726f206160448201526564647265737360d01b6064820152fd5b8280fd5b91905034620001df5782600319360112620001df5762000202620019a4565b61012f80549260ff841615620005465760018060a01b038351926370a0823160e01b80855233848601526020968786602481878560101c165afa9586156200053c57899662000507575b506101309088858354169360248a51809681938252338b8301525afa928315620004fd578a93620004c2575b5060081c60ff166001811480620004b8575b15620003a457505061013154865163a9059cbb60e01b81523386820190815260208101889052909250889183918290036040019082908c9088165af180156200039a57916200031c9695939188959362000378575b505485516323b872dd60e01b81523393810193845230602085015260408401949094529295869360101c9190911691839189918391606090910190565b03925af19081156200036f57506200033a575b50505b600160655580f35b816200035e92903d1062000367575b62000355818362001718565b810190620018e0565b5038806200032f565b503d62000349565b513d85823e3d90fd5b6200039290863d8811620003675762000355818362001718565b5038620002df565b86513d8a823e3d90fd5b919550915060021480620004ae575b620003c5575b50505050505062000332565b61013154855163a9059cbb60e01b8152338582019081526020810187905290918891839186169082908c90829060400103925af180156200039a57916200044c969593918895936200048c575b505485516323b872dd60e01b8152339381019384523060208501526040840194909452929586939190911691839189918391606090910190565b03925af19081156200036f575062000469575b80808080620003b9565b816200048392903d10620003675762000355818362001718565b5038806200045f565b620004a690863d8811620003675762000355818362001718565b503862000412565b50831515620003b3565b508615156200028a565b9092508881813d8311620004f5575b620004dd818362001718565b81010312620004f057519160ff62000278565b600080fd5b503d620004d1565b88513d8c823e3d90fd5b9095508781813d831162000534575b62000522818362001718565b81010312620004f0575194386200024c565b503d62000516565b87513d8b823e3d90fd5b606490602084519162461bcd60e51b8352820152600c60248201526b139bdd081c995cdbdb1d995960a21b6044820152fd5b8334620005c3576020366003190112620005c35762000596620016ce565b620005a0620019fb565b61013280546001600160a01b0319166001600160a01b0390921691909117905580f35b80fd5b50503462000140578160031936011262000140576101305490516001600160a01b039091168152602090f35b505034620001405781600319360112620001405760fb5490516001600160a01b039091168152602090f35b828434620005c35780600319360112620005c3578151908061012d8054620006458162001794565b80865292602092600192808416908115620006e3575060011462000687575b62000683878962000678828a038362001718565b5191829182620017d1565b0390f35b815293507f193a3ae4da5049eb74cee39e4cf5827f7ce7b1d1d1775ef1c6311eb60558e6d55b838510620006cf57505050508101602001620006788262000683868062000664565b8054868601840152938201938101620006ad565b91505062000683979550869350602092506200067894915060ff191682840152151560051b8201019294868062000664565b8334620005c35780600319360112620005c35762000732620019fb565b60fb80546001600160a01b031981169091556000906001600160a01b03167f8be0079c531659141344cd1fd0a4f28419497f9722a3daafe3b4186f6b6457e08280a380f35b505034620001405781600319360112620001405761012f54905160109190911c6001600160a01b03168152602090f35b505034620001405781600319360112620001405760209060ff60c9541690519015158152f35b90508234620005c35780600319360112620005c357507f00000000000000000000000000000000000000000000000000000000000000006001600160a01b031630036200082c57602082516000805160206200354c8339815191528152f35b6020608492519162461bcd60e51b8352820152603860248201527f555550535570677261646561626c653a206d757374206e6f742062652063616c60448201527f6c6564207468726f7567682064656c656761746563616c6c00000000000000006064820152fd5b83833462000140578060031936011262000140578235908115159182810362000ace57602494853591620008c7620019a4565b60ff60c9541662000a995761012e5442101562000a685761012f60ff81541662000a34576101315485516323b872dd60e01b81523385820190815230602082810191909152604082018890526001600160a01b0395939091839187169082908d90829060600103925af180156200053c57908493929162000a10575b501562000a04575460101c165b16803b1562000a0057908580926044865180958193634ecfdfad60e01b83528887840152338d8401525af18015620009f657620009c2575b5050907fe57fa5a543ebcdebf2a7d7102ac913e14454cec006468e43a6916e95bdfcea9e91815193845260208401523392a2600160655580f35b67ffffffffffffffff8296939611620009e45750825292935083858062000988565b634e487b7160e01b8352604190528582fd5b84513d88823e3d90fd5b8580fd5b50610130541662000950565b62000a2c9060203d602011620003675762000355818362001718565b508a62000943565b845162461bcd60e51b8152602081850152600f818a01526e13585c9ad95d081c995cdbdb1d9959608a1b6044820152606490fd5b835162461bcd60e51b8152602081840152600c818901526b13585c9ad95d08195b99195960a21b6044820152606490fd5b835162461bcd60e51b81526020818401526010818901526f14185d5cd8589b194e881c185d5cd95960821b6044820152606490fd5b8380fd5b91905034620001df576060366003190112620001df5767ffffffffffffffff91803583811162000f42573660238201121562000f425762000b1e60249136908381860135910162001758565b91604435916001600160a01b0391828416840362000f3e5787549660ff8860081c16159586809762000f30575b801562000f17575b1562000ebe5760ff19808a1660019081178c55998862000eac575b5062000b8c60ff8c5460081c1662000b8681620018fa565b620018fa565b62000b97336200195b565b62000bd360ff8c5460081c1662000bae81620018fa565b62000bb981620018fa565b62000bc481620018fa565b8b60655562000b8681620018fa565b60c9541660c955805182811162000e9a578061012d9262000bf5845462001794565b601f811162000e23575b506020908d601f841160011462000da1579262000d95575b5050600019600383901b1c1916908a1b1790555b823561012e55610131805473036cbd53842c5426634e7929541ec2318f3dcf7e6001600160a01b03199182168117835589519195926119ca928381018181108782111762000d83579060608f928f908f91849262001b82988a8a86398352306020840152820152030191f0801562000d795761012f805462010000600160b01b03191660109290921b62010000600160b01b0316919091179055548a519583870195918916949186118787101762000d6857505091606093918593843981523060208201528a8982015203019088f091821562000d5e579062000d1c9392916101309216908254161790556200195b565b62000d25578280f35b825461ff0019168355519081527f7f26b83ff96e1f2b6a682f133852f6798a09c465da95921460cefb384740249890602090a138808280f35b85513d89823e3d90fd5b634e487b7160e01b8e52604190528cfd5b8b513d8f823e3d90fd5b634e487b7160e01b8f5260418852858ffd5b01519050388062000c17565b91908d9450601f1984168684527f193a3ae4da5049eb74cee39e4cf5827f7ce7b1d1d1775ef1c6311eb60558e6d5935b81811062000e0a5750841162000df0575b505050811b01905562000c2b565b015160001960f88460031b161c1916905538808062000de2565b8284015185558f96909401936020938401930162000dd1565b909150838d527f193a3ae4da5049eb74cee39e4cf5827f7ce7b1d1d1775ef1c6311eb60558e6d5601f840160051c8101916020851062000e8f575b8e859493928f92601f0160051c0192905b83821062000e805750505062000bff565b81558594508e91018f62000e6f565b909150819062000e5e565b634e487b7160e01b8b5260418452848bfd5b61ffff1916610101178b553862000b6e565b875162461bcd60e51b8152602081850152602e818601527f496e697469616c697a61626c653a20636f6e747261637420697320616c72656160448201526d191e481a5b9a5d1a585b1a5e995960921b6064820152608490fd5b50303b15801562000b535750600160ff8a161462000b53565b50600160ff8a161062000b4b565b8780fd5b8480fd5b91809150600319360112620001df5762000f5f620016ce565b9060243567ffffffffffffffff811162000f42573660238201121562000f425762000f94903690602481870135910162001758565b6001600160a01b037f0000000000000000000000000000000000000000000000000000000000000000811692919062000fd0308514156200181c565b62000ff06000805160206200354c8339815191529482865416146200187e565b62000ffa620019fb565b7f4910fdfa16fed3260ed0e7147f7cc6da11a60208b5b9406d12a635614ffd91435460ff16156200103557505050506200018a915062001a54565b82516352d1902d60e01b81526020959394918416919086818981865afa8991816200120b575b50620010bb57855162461bcd60e51b8152808901889052602e60248201527f45524331393637557067726164653a206e657720696d706c656d656e7461746960448201526d6f6e206973206e6f74205555505360901b6064820152608490fd5b9691929594939603620011b65750620010d48562001a54565b7fbc7cd75a20ee27fd9adebab32041f755214dbc6bffa90cc0225b39da2e5c2d3b8680a2825115801590620011ad575b62001111575b5050505080f35b620011979385808351956200112687620016e5565b602787527f416464726573733a206c6f772d6c6576656c2064656c65676174652063616c6c86880152660819985a5b195960ca1b858801528581519101845af4913d15620011a2573d620011886200117e826200173b565b9251928362001718565b81528681943d92013e62001ae6565b50388080806200110a565b506060925062001ae6565b50600162001104565b825162461bcd60e51b8152908101849052602960248201527f45524331393637557067726164653a20756e737570706f727465642070726f786044820152681a58589b195555525160ba1b6064820152608490fd5b9091508781813d83116200123c575b62001226818362001718565b8101031262001238575190386200105b565b8980fd5b503d6200121a565b505034620001405781600319360112620001405760209060ff61012f541690519015158152f35b50503462000140578160031936011262000140576101315490516001600160a01b039091168152602090f35b91905034620001df576020366003190112620001df57813560ff81169283820362000f4257610132546001600160a01b031633036200136b5760018414801562001360575b156200132b5750916020917faa0c29612666f8797dd6d975f12701ac6df3463e92528993b6df15419e7e4aff93600161012f9161ff0083549160081b169061ffff19161717905551908152a180f35b606490602084519162461bcd60e51b8352820152600f60248201526e496e76616c6964206f7574636f6d6560881b6044820152fd5b5060028414620012dc565b606490602084519162461bcd60e51b835282015260166024820152754f6e6c79207265736f6c7574696f6e206d6f64756c6560501b6044820152fd5b91905034620001df5760208060031936011262000ace57620013c8620016ce565b916001600160a01b037f0000000000000000000000000000000000000000000000000000000000000000811662001402308214156200181c565b620014226000805160206200354c8339815191529183835416146200187e565b6200142c620019fb565b8251908482019282841067ffffffffffffffff85111762001674578385528883527f4910fdfa16fed3260ed0e7147f7cc6da11a60208b5b9406d12a635614ffd91435460ff16156200148a575050505050506200018a915062001a54565b869293949596169085516352d1902d60e01b815287818a81865afa8a91816200163b575b506200150e57865162461bcd60e51b8152808a01899052602e60248201527f45524331393637557067726164653a206e657720696d706c656d656e7461746960448201526d6f6e206973206e6f74205555505360901b6064820152608490fd5b979192939695949703620015e65750620015288262001a54565b7fbc7cd75a20ee27fd9adebab32041f755214dbc6bffa90cc0225b39da2e5c2d3b8780a285845115801590620015de575b62001568575b50505050505080f35b80620015d1968451966200157c88620016e5565b602788527f416464726573733a206c6f772d6c6576656c2064656c65676174652063616c6c87890152660819985a5b195960ca1b868901525190845af4913d15620011a2573d620011886200117e826200173b565b503880808080856200155f565b508062001559565b835162461bcd60e51b8152908101859052602960248201527f45524331393637557067726164653a20756e737570706f727465642070726f786044820152681a58589b195555525160ba1b6064820152608490fd5b9091508881813d83116200166c575b62001656818362001718565b810103126200166857519038620014ae565b8a80fd5b503d6200164a565b634e487b7160e01b895260418852602489fd5b505034620001405781600319360112620001405760209061012e549051908152f35b849034620001405781600319360112620001405760209060ff61012f5460081c168152f35b600435906001600160a01b0382168203620004f057565b6060810190811067ffffffffffffffff8211176200170257604052565b634e487b7160e01b600052604160045260246000fd5b90601f8019910116810190811067ffffffffffffffff8211176200170257604052565b67ffffffffffffffff81116200170257601f01601f191660200190565b92919262001766826200173b565b9162001776604051938462001718565b829481845281830111620004f0578281602093846000960137010152565b90600182811c92168015620017c6575b6020831014620017b057565b634e487b7160e01b600052602260045260246000fd5b91607f1691620017a4565b6020808252825181830181905290939260005b8281106200180757505060409293506000838284010152601f8019910116010190565b818101860151848201604001528501620017e4565b156200182457565b60405162461bcd60e51b815260206004820152602c60248201527f46756e6374696f6e206d7573742062652063616c6c6564207468726f7567682060448201526b19195b1959d85d1958d85b1b60a21b6064820152608490fd5b156200188657565b60405162461bcd60e51b815260206004820152602c60248201527f46756e6374696f6e206d7573742062652063616c6c6564207468726f7567682060448201526b6163746976652070726f787960a01b6064820152608490fd5b90816020910312620004f057518015158103620004f05790565b156200190257565b60405162461bcd60e51b815260206004820152602b60248201527f496e697469616c697a61626c653a20636f6e7472616374206973206e6f74206960448201526a6e697469616c697a696e6760a81b6064820152608490fd5b60fb80546001600160a01b039283166001600160a01b0319821681179092559091167f8be0079c531659141344cd1fd0a4f28419497f9722a3daafe3b4186f6b6457e0600080a3565b600260655414620019b6576002606555565b60405162461bcd60e51b815260206004820152601f60248201527f5265656e7472616e637947756172643a207265656e7472616e742063616c6c006044820152606490fd5b60fb546001600160a01b0316330362001a1057565b606460405162461bcd60e51b815260206004820152602060248201527f4f776e61626c653a2063616c6c6572206973206e6f7420746865206f776e65726044820152fd5b803b1562001a8b576000805160206200354c83398151915280546001600160a01b0319166001600160a01b03909216919091179055565b60405162461bcd60e51b815260206004820152602d60248201527f455243313936373a206e657720696d706c656d656e746174696f6e206973206e60448201526c1bdd08184818dbdb9d1c9858dd609a1b6064820152608490fd5b9192901562001b4b575081511562001afc575090565b3b1562001b065790565b60405162461bcd60e51b815260206004820152601d60248201527f416464726573733a2063616c6c20746f206e6f6e2d636f6e74726163740000006044820152606490fd5b82519091501562001b5f5750805190602001fd5b60405162461bcd60e51b815290819062001b7d9060048301620017d1565b0390fdfe6080346200040d57601f601f196001600160401b03620019ca3881900384810184168601919083831187841017620002cc578087926060946040528339810103126200040d57620000508462000432565b9160209160406200006384880162000432565b96015194851515958681036200040d578015620003e7576200008462000412565b600a8152695945532053686172657360b01b86820152905b15620003c857620000ac62000412565b600381526259455360e81b86820152915b815192848411620002cc5760039384546001948582811c92168015620003bd575b8a831014620003a757818584931162000351575b508990858311600114620002ee57600092620002e2575b505060001982871b1c191690841b1784555b8051948511620002cc5760049687548481811c91168015620002c1575b82821014620002ac5783811162000261575b5080928611600114620001f5575084955090849291600095620001e9575b50501b92600019911b1c19161790555b60ff19600554166005556200018d3362000447565b620001983362000447565b600680546001600160a01b0319166001600160a01b03928316179055600780546001600160a81b031916939091169290921760a09190911b60ff60a01b161790556040516115269081620004a48239f35b01519350388062000168565b939295859081168860005285600020956000905b898383106200024657505050106200022b575b50505050811b01905562000178565b01519060f884600019921b161c19169055388080806200021c565b85870151895590970196948501948893509081019062000209565b88600052816000208480890160051c820192848a10620002a2575b0160051c019085905b828110620002955750506200014a565b6000815501859062000285565b925081926200027c565b602289634e487b7160e01b6000525260246000fd5b90607f169062000138565b634e487b7160e01b600052604160045260246000fd5b01519050388062000109565b908987941691886000528b6000209260005b8d8282106200033a575050841162000321575b505050811b0184556200011b565b015160001983891b60f8161c1916905538808062000313565b8385015186558a9790950194938401930162000300565b90915086600052896000208580850160051c8201928c86106200039d575b918891869594930160051c01915b8281106200038d575050620000f2565b600081558594508891016200037d565b925081926200036f565b634e487b7160e01b600052602260045260246000fd5b91607f1691620000de565b620003d262000412565b60028152614e4f60f01b8682015291620000bd565b620003f162000412565b60098152684e4f2053686172657360b81b86820152906200009c565b600080fd5b60408051919082016001600160401b03811183821017620002cc57604052565b51906001600160a01b03821682036200040d57565b60058054610100600160a81b03198116600884811b610100600160a81b0316919091179092556001600160a01b0392831692911c167f8be0079c531659141344cd1fd0a4f28419497f9722a3daafe3b4186f6b6457e0600080a356fe6080604081815260048036101561001557600080fd5b600092833560e01c90816306fdde0314610ee757508063095ea7b314610ebd57806318160ddd14610e9e57806323b872dd14610dd4578063313ce56714610db85780633950935114610d685780633e413bee14610d3f5780633f4ba83a14610caa5780634ecfdfad14610bde57806351c6590a14610af057806358c7aa0f14610ad15780635c975abb14610aad5780636382d9ad146108cd57806370a0823114610896578063715018a61461083557806380f556051461080c5780638456cb59146107b15780638da5cb5b1461078457806395d89b411461067e578063983babb41461065757806398d5fdca146106335780639c8f9f2314610392578063a457c2d7146102eb578063a9059cbb146102ba578063c57981b51461029e578063c87b502e1461027f578063dd62ed3e146102325763f2fde38b1461015757600080fd5b3461022e57602036600319011261022e57610170611026565b6101786113ae565b6001600160a01b038181169390929084156101dc57505060058054610100600160a81b03198116600893841b610100600160a81b031617909155901c167f8be0079c531659141344cd1fd0a4f28419497f9722a3daafe3b4186f6b6457e08380a380f35b906020608492519162461bcd60e51b8352820152602660248201527f4f776e61626c653a206e6577206f776e657220697320746865207a65726f206160448201526564647265737360d01b6064820152fd5b8280fd5b50503461027b578060031936011261027b5780602092610250611026565b610258611041565b6001600160a01b0391821683526001865283832091168252845220549051908152f35b5080fd5b50503461027b578160031936011261027b576020906008549051908152f35b50503461027b578160031936011261027b5760209051601e8152f35b50503461027b578060031936011261027b576020906102e46102da611026565b6024359033611240565b5160018152f35b50823461038f578260031936011261038f57610305611026565b918360243592338152600160205281812060018060a01b038616825260205220549082821061033e576020856102e4858503873361113e565b608490602086519162461bcd60e51b8352820152602560248201527f45524332303a2064656372656173656420616c6c6f77616e63652062656c6f77604482015264207a65726f60d81b6064820152fd5b80fd5b5091903461027b576020908160031936011261022e5783356103b26114ac565b80156105ff573384528383528082852054106105c3576103d4600854826110b2565b926103f76103e560025480966110c5565b946103f2600954856110b2565b6110c5565b91331561057657338652858252838620548181106105285786976104af9783859489943384528387520388832055806002540360025587519081527fddf252ad1be2c89b69c2b068fc378daa952ba7f163c4a11628f55a4df523b3ef853392a3610463826008546110e5565b600855610472856009546110e5565b600955600654865163a9059cbb60e01b8152339281019283526020830193909352919788926001600160a01b03169183918b918391604090910190565b03925af194851561051e577f96cd817c6329656790ef8fba7675405193677d39619571282f5e21f3a98cd05994956104f1575b5082519485528401523392a280f35b61051090823d8411610517575b6105088183611057565b8101906110f2565b50386104e2565b503d6104fe565b83513d88823e3d90fd5b845162461bcd60e51b8152808901849052602260248201527f45524332303a206275726e20616d6f756e7420657863656564732062616c616e604482015261636560f01b6064820152608490fd5b835162461bcd60e51b8152808801839052602160248201527f45524332303a206275726e2066726f6d20746865207a65726f206164647265736044820152607360f81b6064820152608490fd5b815162461bcd60e51b81528086018490526016602482015275496e73756666696369656e74204c5020746f6b656e7360501b6044820152606490fd5b815162461bcd60e51b8152808601849052600e60248201526d125b9d985b1a5908185b5bdd5b9d60921b6044820152606490fd5b50503461027b578160031936011261027b5760209061065061110a565b9051908152f35b50503461027b578160031936011261027b5760209060ff60075460a01c1690519015158152f35b5091903461027b578160031936011261027b5780519180938054916001908360011c926001851694851561077a575b60209586861081146107675785895290811561074357506001146106eb575b6106e787876106dd828c0383611057565b5191829182610fdd565b0390f35b81529295507f8a35acfbc15ff81a39ae7d344fd709f28e8600b4aa8c65c6b64bfe7fe36bd19b5b82841061073057505050826106e7946106dd928201019438806106cc565b8054868501880152928601928101610712565b60ff19168887015250505050151560051b83010192506106dd826106e738806106cc565b634e487b7160e01b845260228352602484fd5b93607f16936106ad565b50503461027b578160031936011261027b57600554905160089190911c6001600160a01b03168152602090f35b50503461027b578160031936011261027b5760207f62e78cea01bee320cd4e420270b5ea74000d11b0c9f74754ebdbfc544b05a258916107ef6113ae565b6107f76114ac565b600160ff19600554161760055551338152a180f35b50503461027b578160031936011261027b5760075490516001600160a01b039091168152602090f35b833461038f578060031936011261038f5761084e6113ae565b60058054610100600160a81b03198116909155819060081c6001600160a01b03167f8be0079c531659141344cd1fd0a4f28419497f9722a3daafe3b4186f6b6457e08280a380f35b50503461027b57602036600319011261027b5760209181906001600160a01b036108be611026565b16815280845220549051908152f35b503461022e578160031936011261022e576108e6611026565b6108ee611041565b916108f76113ae565b60ff6005541615610a795783516370a0823160e01b81523081830152906020906001600160a01b038416908284602481855afa938415610a6f578894610a3c575b508315610a0157865163a9059cbb60e01b81526001600160a01b0387169181019182526020820185905291839183919082908b90829060400103925af180156109f757917f457e4fe0c9f161a0c6f3bfb8d7809a4ac19f6291bd81b03b86b0d00f9af3717b96916109d394936109d9575b5050516001600160a01b039384168152939092166020840152604083019190915281906060820190565b0390a180f35b816109ef92903d10610517576105088183611057565b5038806109a9565b86513d89823e3d90fd5b865162461bcd60e51b815290810183905260156024820152744e6f20746f6b656e7320746f20776974686472617760581b6044820152606490fd5b9093508281813d8311610a68575b610a548183611057565b81010312610a6457519238610938565b8780fd5b503d610a4a565b87513d8a823e3d90fd5b606490602085519162461bcd60e51b8352820152600e60248201526d135d5cdd081899481c185d5cd95960921b6044820152fd5b50503461027b578160031936011261027b5760209060ff6005541690519015158152f35b50503461027b578160031936011261027b576020906009549051908152f35b503461022e57602036600319011261022e57610b53602082358093610b136114ac565b60065486516323b872dd60e01b8152339281019283523060208401526040830193909352919384926001600160a01b031691839189918391606090910190565b03925af18015610bd157610b939350610bb2575b5060085480610b995750610b88815b610b808333611409565b60085461108f565b60085560095461108f565b60095580f35b610bac610b88916103f2600954856110b2565b91610b76565b610bca9060203d602011610517576105088183611057565b5038610b67565b50505051903d90823e3d90fd5b5091903461027b578060031936011261027b578235610bfb611041565b6007549092906001600160a01b03163303610c7a5750601e8102818104601e1482151715610c6757610c39610b939392612710610b889304906110e5565b60085480610c4d5750610b80818094611409565b610c60610b80916103f2600954856110b2565b8094611409565b634e487b7160e01b845260118552602484fd5b5162461bcd60e51b8152602081860152600b60248201526a13db9b1e481b585c9ad95d60aa1b6044820152606490fd5b503461022e578260031936011261022e57610cc36113ae565b6005549060ff821615610d05575060ff1916600555513381527f5db9ee0a495bf2e6ff9c91a7834c1ba4fdd244a5e8aa4e537bd38aeae4b073aa90602090a180f35b606490602084519162461bcd60e51b8352820152601460248201527314185d5cd8589b194e881b9bdd081c185d5cd95960621b6044820152fd5b50503461027b578160031936011261027b5760065490516001600160a01b039091168152602090f35b50503461027b578060031936011261027b576102e4602092610db1610d8b611026565b338352600186528483206001600160a01b0382168452865291849020546024359061108f565b903361113e565b50503461027b578160031936011261027b576020905160128152f35b5082903461027b57606036600319011261027b57610df0611026565b610df8611041565b91846044359460018060a01b038416815260016020528181203382526020522054906000198203610e32575b6020866102e4878787611240565b848210610e5b5750918391610e50602096956102e49503338361113e565b919394819350610e24565b606490602087519162461bcd60e51b8352820152601d60248201527f45524332303a20696e73756666696369656e7420616c6c6f77616e63650000006044820152fd5b50503461027b578160031936011261027b576020906002549051908152f35b50503461027b578060031936011261027b576020906102e4610edd611026565b602435903361113e565b9291905034610fd95783600319360112610fd957600354600181811c9186908281168015610fcf575b6020958686108214610fbc5750848852908115610f9a5750600114610f41575b6106e786866106dd828b0383611057565b929550600383527fc2575a0e9e593c00f959f8c92f12db2869c3395a3b0502d05e2516446f71f85b5b828410610f8757505050826106e7946106dd928201019438610f30565b8054868501880152928601928101610f6a565b60ff191687860152505050151560051b83010192506106dd826106e738610f30565b634e487b7160e01b845260229052602483fd5b93607f1693610f10565b8380fd5b6020808252825181830181905290939260005b82811061101257505060409293506000838284010152601f8019910116010190565b818101860151848201604001528501610ff0565b600435906001600160a01b038216820361103c57565b600080fd5b602435906001600160a01b038216820361103c57565b90601f8019910116810190811067ffffffffffffffff82111761107957604052565b634e487b7160e01b600052604160045260246000fd5b9190820180921161109c57565b634e487b7160e01b600052601160045260246000fd5b8181029291811591840414171561109c57565b81156110cf570490565b634e487b7160e01b600052601260045260246000fd5b9190820391821161109c57565b9081602091031261103c5751801515810361103c5790565b60085480156111385760095490670de0b6b3a7640000918083029283040361109c57611135916110c5565b90565b50600090565b6001600160a01b039081169182156111ef571691821561119f5760207f8c5be1e5ebec7d5bd14f71427d1e84f3dd0314c0f7b2291e5b200ac8c7c3b925918360005260018252604060002085600052825280604060002055604051908152a3565b60405162461bcd60e51b815260206004820152602260248201527f45524332303a20617070726f766520746f20746865207a65726f206164647265604482015261737360f01b6064820152608490fd5b60405162461bcd60e51b8152602060048201526024808201527f45524332303a20617070726f76652066726f6d20746865207a65726f206164646044820152637265737360e01b6064820152608490fd5b6001600160a01b0390811691821561135b571691821561130a576000828152806020526040812054918083106112b657604082827fddf252ad1be2c89b69c2b068fc378daa952ba7f163c4a11628f55a4df523b3ef958760209652828652038282205586815220818154019055604051908152a3565b60405162461bcd60e51b815260206004820152602660248201527f45524332303a207472616e7366657220616d6f756e7420657863656564732062604482015265616c616e636560d01b6064820152608490fd5b60405162461bcd60e51b815260206004820152602360248201527f45524332303a207472616e7366657220746f20746865207a65726f206164647260448201526265737360e81b6064820152608490fd5b60405162461bcd60e51b815260206004820152602560248201527f45524332303a207472616e736665722066726f6d20746865207a65726f206164604482015264647265737360d81b6064820152608490fd5b60055460081c6001600160a01b031633036113c557565b606460405162461bcd60e51b815260206004820152602060248201527f4f776e61626c653a2063616c6c6572206973206e6f7420746865206f776e65726044820152fd5b6001600160a01b0316908115611467577fddf252ad1be2c89b69c2b068fc378daa952ba7f163c4a11628f55a4df523b3ef60208261144b60009460025461108f565b60025584845283825260408420818154019055604051908152a3565b60405162461bcd60e51b815260206004820152601f60248201527f45524332303a206d696e7420746f20746865207a65726f2061646472657373006044820152606490fd5b60ff600554166114b857565b60405162461bcd60e51b815260206004820152601060248201526f14185d5cd8589b194e881c185d5cd95960821b6044820152606490fdfea26469706673582212208a3c84fb00df66ba23880bb730812a41a1886e2c63cb4ec2632b61b774ddeeab64736f6c63430008180033360894a13ba1a3210667c828492db98dca3e2076cc3735a920a3ca505d382bbca264697066735822122054f1dde96781197381e9e5df20186d0539357201b830311fb203567211bd9ef564736f6c63430008180033360894a13ba1a3210667c828492db98dca3e2076cc3735a920a3ca505d382bbca264697066735822122004b551b4e3b3276af4744384b02af3f37eb618dd11f0937cdb4ab607b22495c864736f6c63430008180033","opcodes":"PUSH1 0xA0 DUP1 PUSH1 0x40 MSTORE CALLVALUE PUSH2 0x31 JUMPI ADDRESS PUSH1 0x80 MSTORE PUSH2 0x45F8 SWAP1 DUP2 PUSH2 0x37 DUP3 CODECOPY PUSH1 0x80 MLOAD DUP2 DUP2 DUP2 PUSH2 0x524 ADD MSTORE DUP2 DUP2 PUSH2 0x621 ADD MSTORE PUSH2 0x8F8 ADD MSTORE RETURN JUMPDEST PUSH1 0x0 DUP1 REVERT INVALID PUSH1 0x40 PUSH1 0x80 DUP2 MSTORE PUSH1 0x4 SWAP1 DUP2 CALLDATASIZE LT ISZERO PUSH2 0x15 JUMPI PUSH1 0x0 DUP1 REVERT JUMPDEST PUSH1 0x0 SWAP2 DUP3 CALLDATALOAD PUSH1 0xE0 SHR DUP1 PUSH4 0x3659CFE6 EQ PUSH2 0x8D1 JUMPI DUP1 PUSH4 0x39CFC386 EQ PUSH2 0x8A8 JUMPI DUP1 PUSH4 0x4F1EF286 EQ PUSH2 0x5D1 JUMPI DUP1 PUSH4 0x52D1902D EQ PUSH2 0x50F JUMPI DUP1 PUSH4 0x715018A6 EQ PUSH2 0x4B2 JUMPI DUP1 PUSH4 0x883C84C1 EQ PUSH2 0x302 JUMPI DUP1 PUSH4 0x8DA5CB5B EQ PUSH2 0x2D5 JUMPI DUP1 PUSH4 0xB1283E77 EQ PUSH2 0x292 JUMPI DUP1 PUSH4 0xC4D66DE8 EQ PUSH2 0x123 JUMPI PUSH4 0xF2FDE38B EQ PUSH2 0x8F JUMPI PUSH1 0x0 DUP1 REVERT JUMPDEST CALLVALUE PUSH2 0x11F JUMPI PUSH1 0x20 CALLDATASIZE PUSH1 0x3 NOT ADD SLT PUSH2 0x11F JUMPI PUSH2 0xA8 PUSH2 0xB8B JUMP JUMPDEST SWAP2 PUSH2 0xB1 PUSH2 0xD9C JUMP JUMPDEST PUSH1 0x1 PUSH1 0x1 PUSH1 0xA0 SHL SUB DUP4 AND ISZERO PUSH2 0xCD JUMPI DUP4 PUSH2 0xCA DUP5 PUSH2 0xDF4 JUMP JUMPDEST DUP1 RETURN JUMPDEST SWAP1 PUSH1 0x20 PUSH1 0x84 SWAP3 MLOAD SWAP2 PUSH3 0x461BCD PUSH1 0xE5 SHL DUP4 MSTORE DUP3 ADD MSTORE PUSH1 0x26 PUSH1 0x24 DUP3 ADD MSTORE PUSH32 0x4F776E61626C653A206E6577206F776E657220697320746865207A65726F2061 PUSH1 0x44 DUP3 ADD MSTORE PUSH6 0x646472657373 PUSH1 0xD0 SHL PUSH1 0x64 DUP3 ADD MSTORE REVERT JUMPDEST DUP3 DUP1 REVERT JUMPDEST POP CALLVALUE PUSH2 0x11F JUMPI PUSH1 0x20 CALLDATASIZE PUSH1 0x3 NOT ADD SLT PUSH2 0x11F JUMPI PUSH2 0x13D PUSH2 0xB8B JUMP JUMPDEST SWAP1 DUP4 SLOAD PUSH1 0xFF DUP2 PUSH1 0x8 SHR AND ISZERO SWAP2 DUP3 DUP1 SWAP4 PUSH2 0x285 JUMPI JUMPDEST DUP1 ISZERO PUSH2 0x26E JUMPI JUMPDEST ISZERO PUSH2 0x214 JUMPI POP PUSH1 0xFF NOT DUP2 AND PUSH1 0x1 OR DUP6 SSTORE DUP2 PUSH2 0x203 JUMPI JUMPDEST POP PUSH2 0x188 PUSH1 0xFF DUP6 SLOAD PUSH1 0x8 SHR AND PUSH2 0x183 DUP2 PUSH2 0xE3D JUMP JUMPDEST PUSH2 0xE3D JUMP JUMPDEST PUSH2 0x191 CALLER PUSH2 0xDF4 JUMP JUMPDEST DUP4 SLOAD SWAP2 PUSH2 0x1A3 PUSH1 0xFF DUP5 PUSH1 0x8 SHR AND PUSH2 0xE3D JUMP JUMPDEST PUSH1 0x1 DUP1 PUSH1 0xA0 SHL SUB AND PUSH12 0xFFFFFFFFFFFFFFFFFFFFFFFF PUSH1 0xA0 SHL PUSH1 0xC9 SLOAD AND OR PUSH1 0xC9 SSTORE PUSH2 0x1CB JUMPI DUP3 DUP1 RETURN JUMPDEST PUSH2 0xFF00 NOT AND DUP3 SSTORE MLOAD PUSH1 0x1 DUP2 MSTORE PUSH32 0x7F26B83FF96E1F2B6A682F133852F6798A09C465DA95921460CEFB3847402498 SWAP1 PUSH1 0x20 SWAP1 LOG1 CODESIZE DUP1 DUP3 DUP1 RETURN JUMPDEST PUSH2 0xFFFF NOT AND PUSH2 0x101 OR DUP5 SSTORE CODESIZE PUSH2 0x16E JUMP JUMPDEST PUSH1 0x84 SWAP1 PUSH1 0x20 DUP7 MLOAD SWAP2 PUSH3 0x461BCD PUSH1 0xE5 SHL DUP4 MSTORE DUP3 ADD MSTORE PUSH1 0x2E PUSH1 0x24 DUP3 ADD MSTORE PUSH32 0x496E697469616C697A61626C653A20636F6E747261637420697320616C726561 PUSH1 0x44 DUP3 ADD MSTORE PUSH14 0x191E481A5B9A5D1A585B1A5E9959 PUSH1 0x92 SHL PUSH1 0x64 DUP3 ADD MSTORE REVERT JUMPDEST POP ADDRESS EXTCODESIZE ISZERO DUP1 ISZERO PUSH2 0x158 JUMPI POP PUSH1 0x1 PUSH1 0xFF DUP4 AND EQ PUSH2 0x158 JUMP JUMPDEST POP PUSH1 0x1 PUSH1 0xFF DUP4 AND LT PUSH2 0x151 JUMP JUMPDEST POP CALLVALUE PUSH2 0x11F JUMPI PUSH1 0x20 CALLDATASIZE PUSH1 0x3 NOT ADD SLT PUSH2 0x11F JUMPI CALLDATALOAD SWAP2 PUSH1 0xCA SLOAD DUP4 LT ISZERO PUSH2 0x2D2 JUMPI POP PUSH2 0x2BC PUSH1 0x20 SWAP3 PUSH2 0xC4D JUMP JUMPDEST SWAP1 SLOAD SWAP2 MLOAD SWAP2 PUSH1 0x1 DUP1 PUSH1 0xA0 SHL SUB SWAP2 PUSH1 0x3 SHL SHR AND DUP2 MSTORE RETURN JUMPDEST DUP1 REVERT JUMPDEST POP POP CALLVALUE PUSH2 0x2FE JUMPI DUP2 PUSH1 0x3 NOT CALLDATASIZE ADD SLT PUSH2 0x2FE JUMPI PUSH1 0x97 SLOAD SWAP1 MLOAD PUSH1 0x1 PUSH1 0x1 PUSH1 0xA0 SHL SUB SWAP1 SWAP2 AND DUP2 MSTORE PUSH1 0x20 SWAP1 RETURN JUMPDEST POP DUP1 REVERT JUMPDEST POP SWAP2 SWAP1 CALLVALUE PUSH2 0x2FE JUMPI DUP1 PUSH1 0x3 NOT CALLDATASIZE ADD SLT PUSH2 0x2FE JUMPI DUP3 CALLDATALOAD SWAP1 PUSH8 0xFFFFFFFFFFFFFFFF SWAP1 DUP2 DUP4 GT PUSH2 0x4AE JUMPI CALLDATASIZE PUSH1 0x23 DUP5 ADD SLT ISZERO PUSH2 0x4AE JUMPI PUSH2 0x348 PUSH1 0x24 SWAP4 CALLDATASIZE SWAP1 DUP6 DUP2 DUP10 ADD CALLDATALOAD SWAP2 ADD PUSH2 0xC16 JUMP JUMPDEST SWAP2 DUP4 CALLDATALOAD SWAP1 PUSH2 0x354 PUSH2 0xD9C JUMP JUMPDEST TIMESTAMP DUP3 GT ISZERO PUSH2 0x479 JUMPI DUP3 MLOAD PUSH4 0x4F3BDDEB PUSH1 0xE0 SHL PUSH1 0x20 DUP3 ADD MSTORE PUSH1 0x60 DUP7 DUP3 ADD MSTORE PUSH2 0x39D SWAP1 DUP1 PUSH2 0x383 PUSH1 0x84 DUP3 ADD DUP9 PUSH2 0xD5C JUMP JUMPDEST DUP6 PUSH1 0x44 DUP4 ADD MSTORE CALLER PUSH1 0x64 DUP4 ADD MSTORE SUB SWAP1 PUSH1 0x1F NOT DUP3 ADD DUP2 MSTORE PUSH2 0xBD8 JUMP JUMPDEST DUP3 MLOAD SWAP1 PUSH2 0x35D8 DUP1 DUP4 ADD SWAP2 DUP3 GT DUP4 DUP4 LT OR PUSH2 0x467 JUMPI SWAP1 DUP3 SWAP2 PUSH2 0xFCB DUP4 CODECOPY SUB SWAP1 DUP7 CREATE DUP1 ISZERO PUSH2 0x45D JUMPI PUSH1 0xCA SLOAD SWAP7 PUSH1 0x1 PUSH1 0x1 PUSH1 0xA0 SHL SUB SWAP2 DUP3 AND SWAP6 SWAP1 PUSH9 0x10000000000000000 DUP10 LT ISZERO PUSH2 0x44C JUMPI POP POP PUSH2 0x41A DUP8 PUSH1 0x1 PUSH32 0x722AE84A51A6FFDA776101AB2FD15E847CC928F5E7D09ADF73299EF5B12FB946 SWAP8 SWAP9 SWAP10 ADD PUSH1 0xCA SSTORE PUSH2 0xC4D JUMP JUMPDEST DUP2 SWAP3 SWAP2 SLOAD SWAP1 PUSH1 0x3 SHL SWAP2 DUP9 DUP4 SHL SWAP3 SHL NOT AND OR SWAP1 SSTORE PUSH2 0x440 DUP3 MLOAD SWAP4 DUP4 DUP6 SWAP5 DUP6 MSTORE DUP5 ADD SWAP1 PUSH2 0xD5C JUMP JUMPDEST SWAP1 PUSH1 0x20 DUP4 ADD MSTORE SUB SWAP1 LOG2 DUP1 RETURN JUMPDEST PUSH4 0x4E487B71 PUSH1 0xE0 SHL DUP9 MSTORE PUSH1 0x41 SWAP1 MSTORE DUP7 REVERT JUMPDEST DUP3 MLOAD RETURNDATASIZE DUP8 DUP3 RETURNDATACOPY RETURNDATASIZE SWAP1 REVERT JUMPDEST PUSH4 0x4E487B71 PUSH1 0xE0 SHL DUP9 MSTORE PUSH1 0x41 DUP10 MSTORE DUP7 DUP9 REVERT JUMPDEST DUP3 MLOAD PUSH3 0x461BCD PUSH1 0xE5 SHL DUP2 MSTORE PUSH1 0x20 DUP2 DUP10 ADD MSTORE PUSH1 0x10 DUP2 DUP8 ADD MSTORE PUSH16 0x496E76616C696420656E642074696D65 PUSH1 0x80 SHL PUSH1 0x44 DUP3 ADD MSTORE PUSH1 0x64 SWAP1 REVERT JUMPDEST DUP4 DUP1 REVERT JUMPDEST DUP4 CALLVALUE PUSH2 0x2D2 JUMPI DUP1 PUSH1 0x3 NOT CALLDATASIZE ADD SLT PUSH2 0x2D2 JUMPI PUSH2 0x4CB PUSH2 0xD9C JUMP JUMPDEST PUSH1 0x97 DUP1 SLOAD PUSH1 0x1 PUSH1 0x1 PUSH1 0xA0 SHL SUB NOT DUP2 AND SWAP1 SWAP2 SSTORE DUP2 SWAP1 PUSH1 0x1 PUSH1 0x1 PUSH1 0xA0 SHL SUB AND PUSH32 0x8BE0079C531659141344CD1FD0A4F28419497F9722A3DAAFE3B4186F6B6457E0 DUP3 DUP1 LOG3 DUP1 RETURN JUMPDEST POP DUP3 CALLVALUE PUSH2 0x2D2 JUMPI DUP1 PUSH1 0x3 NOT CALLDATASIZE ADD SLT PUSH2 0x2D2 JUMPI POP PUSH32 0x0 PUSH1 0x1 PUSH1 0x1 PUSH1 0xA0 SHL SUB AND ADDRESS SUB PUSH2 0x569 JUMPI PUSH1 0x20 DUP3 MLOAD PUSH1 0x0 DUP1 MLOAD PUSH1 0x20 PUSH2 0x45A3 DUP4 CODECOPY DUP2 MLOAD SWAP2 MSTORE DUP2 MSTORE RETURN JUMPDEST PUSH1 0x20 PUSH1 0x84 SWAP3 MLOAD SWAP2 PUSH3 0x461BCD PUSH1 0xE5 SHL DUP4 MSTORE DUP3 ADD MSTORE PUSH1 0x38 PUSH1 0x24 DUP3 ADD MSTORE PUSH32 0x555550535570677261646561626C653A206D757374206E6F742062652063616C PUSH1 0x44 DUP3 ADD MSTORE PUSH32 0x6C6564207468726F7567682064656C656761746563616C6C0000000000000000 PUSH1 0x64 DUP3 ADD MSTORE REVERT JUMPDEST POP SWAP1 DUP1 PUSH1 0x3 NOT CALLDATASIZE ADD SLT PUSH2 0x11F JUMPI PUSH2 0x5E6 PUSH2 0xB8B JUMP JUMPDEST SWAP1 PUSH1 0x24 CALLDATALOAD PUSH8 0xFFFFFFFFFFFFFFFF DUP2 GT PUSH2 0x8A4 JUMPI CALLDATASIZE PUSH1 0x23 DUP3 ADD SLT ISZERO PUSH2 0x8A4 JUMPI PUSH2 0x617 SWAP1 CALLDATASIZE SWAP1 PUSH1 0x24 DUP2 DUP8 ADD CALLDATALOAD SWAP2 ADD PUSH2 0xC16 JUMP JUMPDEST PUSH1 0x1 PUSH1 0x1 PUSH1 0xA0 SHL SUB PUSH32 0x0 DUP2 AND SWAP3 SWAP2 SWAP1 PUSH2 0x651 ADDRESS DUP6 EQ ISZERO PUSH2 0xC9A JUMP JUMPDEST PUSH2 0x66E PUSH1 0x0 DUP1 MLOAD PUSH1 0x20 PUSH2 0x45A3 DUP4 CODECOPY DUP2 MLOAD SWAP2 MSTORE SWAP5 DUP3 DUP7 SLOAD AND EQ PUSH2 0xCFB JUMP JUMPDEST PUSH2 0x676 PUSH2 0xD9C JUMP JUMPDEST PUSH32 0x4910FDFA16FED3260ED0E7147F7CC6DA11A60208B5B9406D12A635614FFD9143 SLOAD PUSH1 0xFF AND ISZERO PUSH2 0x6AE JUMPI POP POP POP POP PUSH2 0xCA SWAP2 POP PUSH2 0xE9D JUMP JUMPDEST DUP3 MLOAD PUSH4 0x52D1902D PUSH1 0xE0 SHL DUP2 MSTORE PUSH1 0x20 SWAP6 SWAP4 SWAP5 SWAP2 DUP5 AND SWAP2 SWAP1 DUP7 DUP2 DUP10 DUP2 DUP7 GAS STATICCALL DUP10 SWAP2 DUP2 PUSH2 0x871 JUMPI JUMPDEST POP PUSH2 0x732 JUMPI DUP6 MLOAD PUSH3 0x461BCD PUSH1 0xE5 SHL DUP2 MSTORE DUP1 DUP10 ADD DUP9 SWAP1 MSTORE PUSH1 0x2E PUSH1 0x24 DUP3 ADD MSTORE PUSH32 0x45524331393637557067726164653A206E657720696D706C656D656E74617469 PUSH1 0x44 DUP3 ADD MSTORE PUSH14 0x6F6E206973206E6F742055555053 PUSH1 0x90 SHL PUSH1 0x64 DUP3 ADD MSTORE PUSH1 0x84 SWAP1 REVERT JUMPDEST SWAP7 SWAP2 SWAP3 SWAP6 SWAP5 SWAP4 SWAP7 SUB PUSH2 0x81C JUMPI POP PUSH2 0x748 DUP6 PUSH2 0xE9D JUMP JUMPDEST PUSH32 0xBC7CD75A20EE27FD9ADEBAB32041F755214DBC6BFFA90CC0225B39DA2E5C2D3B DUP7 DUP1 LOG2 DUP3 MLOAD ISZERO DUP1 ISZERO SWAP1 PUSH2 0x814 JUMPI JUMPDEST PUSH2 0x783 JUMPI JUMPDEST POP POP POP POP DUP1 RETURN JUMPDEST PUSH2 0x800 SWAP4 DUP6 DUP1 DUP4 MLOAD SWAP6 PUSH2 0x795 DUP8 PUSH2 0xBA6 JUMP JUMPDEST PUSH1 0x27 DUP8 MSTORE PUSH32 0x416464726573733A206C6F772D6C6576656C2064656C65676174652063616C6C DUP7 DUP9 ADD MSTORE PUSH7 0x819985A5B1959 PUSH1 0xCA SHL DUP6 DUP9 ADD MSTORE DUP6 DUP2 MLOAD SWAP2 ADD DUP5 GAS DELEGATECALL SWAP2 RETURNDATASIZE ISZERO PUSH2 0x80A JUMPI RETURNDATASIZE PUSH2 0x7F2 PUSH2 0x7E9 DUP3 PUSH2 0xBFA JUMP JUMPDEST SWAP3 MLOAD SWAP3 DUP4 PUSH2 0xBD8 JUMP JUMPDEST DUP2 MSTORE DUP7 DUP2 SWAP5 RETURNDATASIZE SWAP3 ADD RETURNDATACOPY PUSH2 0xF2D JUMP JUMPDEST POP CODESIZE DUP1 DUP1 DUP1 PUSH2 0x77C JUMP JUMPDEST POP PUSH1 0x60 SWAP3 POP PUSH2 0xF2D JUMP JUMPDEST POP PUSH1 0x1 PUSH2 0x777 JUMP JUMPDEST DUP3 MLOAD PUSH3 0x461BCD PUSH1 0xE5 SHL DUP2 MSTORE SWAP1 DUP2 ADD DUP5 SWAP1 MSTORE PUSH1 0x29 PUSH1 0x24 DUP3 ADD MSTORE PUSH32 0x45524331393637557067726164653A20756E737570706F727465642070726F78 PUSH1 0x44 DUP3 ADD MSTORE PUSH9 0x1A58589B1955555251 PUSH1 0xBA SHL PUSH1 0x64 DUP3 ADD MSTORE PUSH1 0x84 SWAP1 REVERT JUMPDEST SWAP1 SWAP2 POP DUP8 DUP2 DUP2 RETURNDATASIZE DUP4 GT PUSH2 0x89D JUMPI JUMPDEST PUSH2 0x889 DUP2 DUP4 PUSH2 0xBD8 JUMP JUMPDEST DUP2 ADD SUB SLT PUSH2 0x899 JUMPI MLOAD SWAP1 CODESIZE PUSH2 0x6D3 JUMP JUMPDEST DUP10 DUP1 REVERT JUMPDEST POP RETURNDATASIZE PUSH2 0x87F JUMP JUMPDEST DUP5 DUP1 REVERT JUMPDEST POP POP CALLVALUE PUSH2 0x2FE JUMPI DUP2 PUSH1 0x3 NOT CALLDATASIZE ADD SLT PUSH2 0x2FE JUMPI PUSH1 0xC9 SLOAD SWAP1 MLOAD PUSH1 0x1 PUSH1 0x1 PUSH1 0xA0 SHL SUB SWAP1 SWAP2 AND DUP2 MSTORE PUSH1 0x20 SWAP1 RETURN JUMPDEST POP SWAP1 CALLVALUE PUSH2 0x11F JUMPI PUSH1 0x20 DUP1 PUSH1 0x3 NOT CALLDATASIZE ADD SLT PUSH2 0x4AE JUMPI PUSH2 0x8ED PUSH2 0xB8B JUMP JUMPDEST SWAP2 PUSH1 0x1 PUSH1 0x1 PUSH1 0xA0 SHL SUB PUSH32 0x0 DUP2 AND PUSH2 0x925 ADDRESS DUP3 EQ ISZERO PUSH2 0xC9A JUMP JUMPDEST PUSH2 0x942 PUSH1 0x0 DUP1 MLOAD PUSH1 0x20 PUSH2 0x45A3 DUP4 CODECOPY DUP2 MLOAD SWAP2 MSTORE SWAP2 DUP4 DUP4 SLOAD AND EQ PUSH2 0xCFB JUMP JUMPDEST PUSH2 0x94A PUSH2 0xD9C JUMP JUMPDEST DUP3 MLOAD SWAP1 DUP5 DUP3 ADD SWAP3 DUP3 DUP5 LT PUSH8 0xFFFFFFFFFFFFFFFF DUP6 GT OR PUSH2 0xB78 JUMPI DUP4 DUP6 MSTORE DUP9 DUP4 MSTORE PUSH32 0x4910FDFA16FED3260ED0E7147F7CC6DA11A60208B5B9406D12A635614FFD9143 SLOAD PUSH1 0xFF AND ISZERO PUSH2 0x9A4 JUMPI POP POP POP POP POP POP PUSH2 0xCA SWAP2 POP PUSH2 0xE9D JUMP JUMPDEST DUP7 SWAP3 SWAP4 SWAP5 SWAP6 SWAP7 AND SWAP1 DUP6 MLOAD PUSH4 0x52D1902D PUSH1 0xE0 SHL DUP2 MSTORE DUP8 DUP2 DUP11 DUP2 DUP7 GAS STATICCALL DUP11 SWAP2 DUP2 PUSH2 0xB45 JUMPI JUMPDEST POP PUSH2 0xA26 JUMPI DUP7 MLOAD PUSH3 0x461BCD PUSH1 0xE5 SHL DUP2 MSTORE DUP1 DUP11 ADD DUP10 SWAP1 MSTORE PUSH1 0x2E PUSH1 0x24 DUP3 ADD MSTORE PUSH32 0x45524331393637557067726164653A206E657720696D706C656D656E74617469 PUSH1 0x44 DUP3 ADD MSTORE PUSH14 0x6F6E206973206E6F742055555053 PUSH1 0x90 SHL PUSH1 0x64 DUP3 ADD MSTORE PUSH1 0x84 SWAP1 REVERT JUMPDEST SWAP8 SWAP2 SWAP3 SWAP4 SWAP7 SWAP6 SWAP5 SWAP8 SUB PUSH2 0xAF0 JUMPI POP PUSH2 0xA3D DUP3 PUSH2 0xE9D JUMP JUMPDEST PUSH32 0xBC7CD75A20EE27FD9ADEBAB32041F755214DBC6BFFA90CC0225B39DA2E5C2D3B DUP8 DUP1 LOG2 DUP6 DUP5 MLOAD ISZERO DUP1 ISZERO SWAP1 PUSH2 0xAE9 JUMPI JUMPDEST PUSH2 0xA7B JUMPI JUMPDEST POP POP POP POP POP POP DUP1 RETURN JUMPDEST DUP1 PUSH2 0xADD SWAP7 DUP5 MLOAD SWAP7 PUSH2 0xA8C DUP9 PUSH2 0xBA6 JUMP JUMPDEST PUSH1 0x27 DUP9 MSTORE PUSH32 0x416464726573733A206C6F772D6C6576656C2064656C65676174652063616C6C DUP8 DUP10 ADD MSTORE PUSH7 0x819985A5B1959 PUSH1 0xCA SHL DUP7 DUP10 ADD MSTORE MLOAD SWAP1 DUP5 GAS DELEGATECALL SWAP2 RETURNDATASIZE ISZERO PUSH2 0x80A JUMPI RETURNDATASIZE PUSH2 0x7F2 PUSH2 0x7E9 DUP3 PUSH2 0xBFA JUMP JUMPDEST POP CODESIZE DUP1 DUP1 DUP1 DUP1 DUP6 PUSH2 0xA72 JUMP JUMPDEST POP DUP1 PUSH2 0xA6D JUMP JUMPDEST DUP4 MLOAD PUSH3 0x461BCD PUSH1 0xE5 SHL DUP2 MSTORE SWAP1 DUP2 ADD DUP6 SWAP1 MSTORE PUSH1 0x29 PUSH1 0x24 DUP3 ADD MSTORE PUSH32 0x45524331393637557067726164653A20756E737570706F727465642070726F78 PUSH1 0x44 DUP3 ADD MSTORE PUSH9 0x1A58589B1955555251 PUSH1 0xBA SHL PUSH1 0x64 DUP3 ADD MSTORE PUSH1 0x84 SWAP1 REVERT JUMPDEST SWAP1 SWAP2 POP DUP9 DUP2 DUP2 RETURNDATASIZE DUP4 GT PUSH2 0xB71 JUMPI JUMPDEST PUSH2 0xB5D DUP2 DUP4 PUSH2 0xBD8 JUMP JUMPDEST DUP2 ADD SUB SLT PUSH2 0xB6D JUMPI MLOAD SWAP1 CODESIZE PUSH2 0x9C7 JUMP JUMPDEST DUP11 DUP1 REVERT JUMPDEST POP RETURNDATASIZE PUSH2 0xB53 JUMP JUMPDEST PUSH4 0x4E487B71 PUSH1 0xE0 SHL DUP10 MSTORE PUSH1 0x41 DUP9 MSTORE PUSH1 0x24 DUP10 REVERT JUMPDEST PUSH1 0x4 CALLDATALOAD SWAP1 PUSH1 0x1 PUSH1 0x1 PUSH1 0xA0 SHL SUB DUP3 AND DUP3 SUB PUSH2 0xBA1 JUMPI JUMP JUMPDEST PUSH1 0x0 DUP1 REVERT JUMPDEST PUSH1 0x60 DUP2 ADD SWAP1 DUP2 LT PUSH8 0xFFFFFFFFFFFFFFFF DUP3 GT OR PUSH2 0xBC2 JUMPI PUSH1 0x40 MSTORE JUMP JUMPDEST PUSH4 0x4E487B71 PUSH1 0xE0 SHL PUSH1 0x0 MSTORE PUSH1 0x41 PUSH1 0x4 MSTORE PUSH1 0x24 PUSH1 0x0 REVERT JUMPDEST SWAP1 PUSH1 0x1F DUP1 NOT SWAP2 ADD AND DUP2 ADD SWAP1 DUP2 LT PUSH8 0xFFFFFFFFFFFFFFFF DUP3 GT OR PUSH2 0xBC2 JUMPI PUSH1 0x40 MSTORE JUMP JUMPDEST PUSH8 0xFFFFFFFFFFFFFFFF DUP2 GT PUSH2 0xBC2 JUMPI PUSH1 0x1F ADD PUSH1 0x1F NOT AND PUSH1 0x20 ADD SWAP1 JUMP JUMPDEST SWAP3 SWAP2 SWAP3 PUSH2 0xC22 DUP3 PUSH2 0xBFA JUMP JUMPDEST SWAP2 PUSH2 0xC30 PUSH1 0x40 MLOAD SWAP4 DUP5 PUSH2 0xBD8 JUMP JUMPDEST DUP3 SWAP5 DUP2 DUP5 MSTORE DUP2 DUP4 ADD GT PUSH2 0xBA1 JUMPI DUP3 DUP2 PUSH1 0x20 SWAP4 DUP5 PUSH1 0x0 SWAP7 ADD CALLDATACOPY ADD ADD MSTORE JUMP JUMPDEST PUSH1 0xCA SLOAD DUP2 LT ISZERO PUSH2 0xC84 JUMPI PUSH1 0xCA PUSH1 0x0 MSTORE PUSH32 0x42D72674974F694B5F5159593243114D38A5C39C89D6B62FEE061FF523240EE1 ADD SWAP1 PUSH1 0x0 SWAP1 JUMP JUMPDEST PUSH4 0x4E487B71 PUSH1 0xE0 SHL PUSH1 0x0 MSTORE PUSH1 0x32 PUSH1 0x4 MSTORE PUSH1 0x24 PUSH1 0x0 REVERT JUMPDEST ISZERO PUSH2 0xCA1 JUMPI JUMP JUMPDEST PUSH1 0x40 MLOAD PUSH3 0x461BCD PUSH1 0xE5 SHL DUP2 MSTORE PUSH1 0x20 PUSH1 0x4 DUP3 ADD MSTORE PUSH1 0x2C PUSH1 0x24 DUP3 ADD MSTORE PUSH32 0x46756E6374696F6E206D7573742062652063616C6C6564207468726F75676820 PUSH1 0x44 DUP3 ADD MSTORE PUSH12 0x19195B1959D85D1958D85B1B PUSH1 0xA2 SHL PUSH1 0x64 DUP3 ADD MSTORE PUSH1 0x84 SWAP1 REVERT JUMPDEST ISZERO PUSH2 0xD02 JUMPI JUMP JUMPDEST PUSH1 0x40 MLOAD PUSH3 0x461BCD PUSH1 0xE5 SHL DUP2 MSTORE PUSH1 0x20 PUSH1 0x4 DUP3 ADD MSTORE PUSH1 0x2C PUSH1 0x24 DUP3 ADD MSTORE PUSH32 0x46756E6374696F6E206D7573742062652063616C6C6564207468726F75676820 PUSH1 0x44 DUP3 ADD MSTORE PUSH12 0x6163746976652070726F7879 PUSH1 0xA0 SHL PUSH1 0x64 DUP3 ADD MSTORE PUSH1 0x84 SWAP1 REVERT JUMPDEST SWAP2 SWAP1 DUP3 MLOAD SWAP3 DUP4 DUP3 MSTORE PUSH1 0x0 JUMPDEST DUP5 DUP2 LT PUSH2 0xD88 JUMPI POP POP DUP3 PUSH1 0x0 PUSH1 0x20 DUP1 SWAP5 SWAP6 DUP5 ADD ADD MSTORE PUSH1 0x1F DUP1 NOT SWAP2 ADD AND ADD ADD SWAP1 JUMP JUMPDEST PUSH1 0x20 DUP2 DUP4 ADD DUP2 ADD MLOAD DUP5 DUP4 ADD DUP3 ADD MSTORE ADD PUSH2 0xD67 JUMP JUMPDEST PUSH1 0x97 SLOAD PUSH1 0x1 PUSH1 0x1 PUSH1 0xA0 SHL SUB AND CALLER SUB PUSH2 0xDB0 JUMPI JUMP JUMPDEST PUSH1 0x64 PUSH1 0x40 MLOAD PUSH3 0x461BCD PUSH1 0xE5 SHL DUP2 MSTORE PUSH1 0x20 PUSH1 0x4 DUP3 ADD MSTORE PUSH1 0x20 PUSH1 0x24 DUP3 ADD MSTORE PUSH32 0x4F776E61626C653A2063616C6C6572206973206E6F7420746865206F776E6572 PUSH1 0x44 DUP3 ADD MSTORE REVERT JUMPDEST PUSH1 0x97 DUP1 SLOAD PUSH1 0x1 PUSH1 0x1 PUSH1 0xA0 SHL SUB SWAP3 DUP4 AND PUSH1 0x1 PUSH1 0x1 PUSH1 0xA0 SHL SUB NOT DUP3 AND DUP2 OR SWAP1 SWAP3 SSTORE SWAP1 SWAP2 AND PUSH32 0x8BE0079C531659141344CD1FD0A4F28419497F9722A3DAAFE3B4186F6B6457E0 PUSH1 0x0 DUP1 LOG3 JUMP JUMPDEST ISZERO PUSH2 0xE44 JUMPI JUMP JUMPDEST PUSH1 0x40 MLOAD PUSH3 0x461BCD PUSH1 0xE5 SHL DUP2 MSTORE PUSH1 0x20 PUSH1 0x4 DUP3 ADD MSTORE PUSH1 0x2B PUSH1 0x24 DUP3 ADD MSTORE PUSH32 0x496E697469616C697A61626C653A20636F6E7472616374206973206E6F742069 PUSH1 0x44 DUP3 ADD MSTORE PUSH11 0x6E697469616C697A696E67 PUSH1 0xA8 SHL PUSH1 0x64 DUP3 ADD MSTORE PUSH1 0x84 SWAP1 REVERT JUMPDEST DUP1 EXTCODESIZE ISZERO PUSH2 0xED2 JUMPI PUSH1 0x0 DUP1 MLOAD PUSH1 0x20 PUSH2 0x45A3 DUP4 CODECOPY DUP2 MLOAD SWAP2 MSTORE DUP1 SLOAD PUSH1 0x1 PUSH1 0x1 PUSH1 0xA0 SHL SUB NOT AND PUSH1 0x1 PUSH1 0x1 PUSH1 0xA0 SHL SUB SWAP1 SWAP3 AND SWAP2 SWAP1 SWAP2 OR SWAP1 SSTORE JUMP JUMPDEST PUSH1 0x40 MLOAD PUSH3 0x461BCD PUSH1 0xE5 SHL DUP2 MSTORE PUSH1 0x20 PUSH1 0x4 DUP3 ADD MSTORE PUSH1 0x2D PUSH1 0x24 DUP3 ADD MSTORE PUSH32 0x455243313936373A206E657720696D706C656D656E746174696F6E206973206E PUSH1 0x44 DUP3 ADD MSTORE PUSH13 0x1BDD08184818DBDB9D1C9858DD PUSH1 0x9A SHL PUSH1 0x64 DUP3 ADD MSTORE PUSH1 0x84 SWAP1 REVERT JUMPDEST SWAP2 SWAP3 SWAP1 ISZERO PUSH2 0xF8F JUMPI POP DUP2 MLOAD ISZERO PUSH2 0xF41 JUMPI POP SWAP1 JUMP JUMPDEST EXTCODESIZE ISZERO PUSH2 0xF4A JUMPI SWAP1 JUMP JUMPDEST PUSH1 0x40 MLOAD PUSH3 0x461BCD PUSH1 0xE5 SHL DUP2 MSTORE PUSH1 0x20 PUSH1 0x4 DUP3 ADD MSTORE PUSH1 0x1D PUSH1 0x24 DUP3 ADD MSTORE PUSH32 0x416464726573733A2063616C6C20746F206E6F6E2D636F6E7472616374000000 PUSH1 0x44 DUP3 ADD MSTORE PUSH1 0x64 SWAP1 REVERT JUMPDEST DUP3 MLOAD SWAP1 SWAP2 POP ISZERO PUSH2 0xFA2 JUMPI POP DUP1 MLOAD SWAP1 PUSH1 0x20 ADD REVERT JUMPDEST PUSH1 0x40 MLOAD PUSH3 0x461BCD PUSH1 0xE5 SHL DUP2 MSTORE PUSH1 0x20 PUSH1 0x4 DUP3 ADD MSTORE SWAP1 DUP2 SWAP1 PUSH2 0xFC6 SWAP1 PUSH1 0x24 DUP4 ADD SWAP1 PUSH2 0xD5C JUMP JUMPDEST SUB SWAP1 REVERT INVALID PUSH1 0xA0 DUP1 PUSH1 0x40 MSTORE CALLVALUE PUSH2 0x31 JUMPI ADDRESS PUSH1 0x80 MSTORE PUSH2 0x35A1 SWAP1 DUP2 PUSH2 0x37 DUP3 CODECOPY PUSH1 0x80 MLOAD DUP2 DUP2 DUP2 PUSH2 0x7E5 ADD MSTORE DUP2 DUP2 PUSH2 0xF9E ADD MSTORE PUSH2 0x13D3 ADD MSTORE RETURN JUMPDEST PUSH1 0x0 DUP1 REVERT INVALID PUSH1 0x80 PUSH1 0x40 DUP2 DUP2 MSTORE PUSH1 0x4 SWAP2 DUP3 CALLDATASIZE LT ISZERO PUSH3 0x17 JUMPI PUSH1 0x0 DUP1 REVERT JUMPDEST PUSH1 0x0 SWAP3 DUP4 CALLDATALOAD PUSH1 0xE0 SHR SWAP2 DUP3 PUSH4 0x27793F87 EQ PUSH3 0x16A9 JUMPI POP DUP2 PUSH4 0x3197CBB6 EQ PUSH3 0x1687 JUMPI DUP2 PUSH4 0x3659CFE6 EQ PUSH3 0x13A7 JUMPI DUP2 PUSH4 0x36EA431E EQ PUSH3 0x1297 JUMPI DUP2 PUSH4 0x3E413BEE EQ PUSH3 0x126B JUMPI DUP2 PUSH4 0x3F6FA655 EQ PUSH3 0x1244 JUMPI DUP2 PUSH4 0x4F1EF286 EQ PUSH3 0xF46 JUMPI DUP2 PUSH4 0x4F3BDDEB EQ PUSH3 0xAD2 JUMPI DUP2 PUSH4 0x5229A6FD EQ PUSH3 0x894 JUMPI DUP2 PUSH4 0x52D1902D EQ PUSH3 0x7CD JUMPI DUP2 PUSH4 0x5C975ABB EQ PUSH3 0x7A7 JUMPI DUP2 PUSH4 0x6F1D4EA4 EQ PUSH3 0x777 JUMPI DUP2 PUSH4 0x715018A6 EQ PUSH3 0x715 JUMPI DUP2 PUSH4 0x7284E416 EQ PUSH3 0x61D JUMPI DUP2 PUSH4 0x8DA5CB5B EQ PUSH3 0x5F2 JUMPI DUP2 PUSH4 0xA3B5AFB1 EQ PUSH3 0x5C6 JUMPI DUP2 PUSH4 0xB8811AA4 EQ PUSH3 0x578 JUMPI DUP2 PUSH4 0xBE040FB0 EQ PUSH3 0x1E3 JUMPI DUP2 PUSH4 0xF2FDE38B EQ PUSH3 0x144 JUMPI POP PUSH4 0xFD38CA0F EQ PUSH3 0x116 JUMPI PUSH1 0x0 DUP1 REVERT JUMPDEST CALLVALUE PUSH3 0x140 JUMPI DUP2 PUSH1 0x3 NOT CALLDATASIZE ADD SLT PUSH3 0x140 JUMPI PUSH2 0x132 SLOAD SWAP1 MLOAD PUSH1 0x1 PUSH1 0x1 PUSH1 0xA0 SHL SUB SWAP1 SWAP2 AND DUP2 MSTORE PUSH1 0x20 SWAP1 RETURN JUMPDEST POP DUP1 REVERT JUMPDEST SWAP1 POP CALLVALUE PUSH3 0x1DF JUMPI PUSH1 0x20 CALLDATASIZE PUSH1 0x3 NOT ADD SLT PUSH3 0x1DF JUMPI PUSH3 0x163 PUSH3 0x16CE JUMP JUMPDEST SWAP2 PUSH3 0x16E PUSH3 0x19FB JUMP JUMPDEST PUSH1 0x1 PUSH1 0x1 PUSH1 0xA0 SHL SUB DUP4 AND ISZERO PUSH3 0x18D JUMPI DUP4 PUSH3 0x18A DUP5 PUSH3 0x195B JUMP JUMPDEST DUP1 RETURN JUMPDEST SWAP1 PUSH1 0x20 PUSH1 0x84 SWAP3 MLOAD SWAP2 PUSH3 0x461BCD PUSH1 0xE5 SHL DUP4 MSTORE DUP3 ADD MSTORE PUSH1 0x26 PUSH1 0x24 DUP3 ADD MSTORE PUSH32 0x4F776E61626C653A206E6577206F776E657220697320746865207A65726F2061 PUSH1 0x44 DUP3 ADD MSTORE PUSH6 0x646472657373 PUSH1 0xD0 SHL PUSH1 0x64 DUP3 ADD MSTORE REVERT JUMPDEST DUP3 DUP1 REVERT JUMPDEST SWAP2 SWAP1 POP CALLVALUE PUSH3 0x1DF JUMPI DUP3 PUSH1 0x3 NOT CALLDATASIZE ADD SLT PUSH3 0x1DF JUMPI PUSH3 0x202 PUSH3 0x19A4 JUMP JUMPDEST PUSH2 0x12F DUP1 SLOAD SWAP3 PUSH1 0xFF DUP5 AND ISZERO PUSH3 0x546 JUMPI PUSH1 0x1 DUP1 PUSH1 0xA0 SHL SUB DUP4 MLOAD SWAP3 PUSH4 0x70A08231 PUSH1 0xE0 SHL DUP1 DUP6 MSTORE CALLER DUP5 DUP7 ADD MSTORE PUSH1 0x20 SWAP7 DUP8 DUP7 PUSH1 0x24 DUP2 DUP8 DUP6 PUSH1 0x10 SHR AND GAS STATICCALL SWAP6 DUP7 ISZERO PUSH3 0x53C JUMPI DUP10 SWAP7 PUSH3 0x507 JUMPI JUMPDEST POP PUSH2 0x130 SWAP1 DUP9 DUP6 DUP4 SLOAD AND SWAP4 PUSH1 0x24 DUP11 MLOAD DUP1 SWAP7 DUP2 SWAP4 DUP3 MSTORE CALLER DUP12 DUP4 ADD MSTORE GAS STATICCALL SWAP3 DUP4 ISZERO PUSH3 0x4FD JUMPI DUP11 SWAP4 PUSH3 0x4C2 JUMPI JUMPDEST POP PUSH1 0x8 SHR PUSH1 0xFF AND PUSH1 0x1 DUP2 EQ DUP1 PUSH3 0x4B8 JUMPI JUMPDEST ISZERO PUSH3 0x3A4 JUMPI POP POP PUSH2 0x131 SLOAD DUP7 MLOAD PUSH4 0xA9059CBB PUSH1 0xE0 SHL DUP2 MSTORE CALLER DUP7 DUP3 ADD SWAP1 DUP2 MSTORE PUSH1 0x20 DUP2 ADD DUP9 SWAP1 MSTORE SWAP1 SWAP3 POP DUP9 SWAP2 DUP4 SWAP2 DUP3 SWAP1 SUB PUSH1 0x40 ADD SWAP1 DUP3 SWAP1 DUP13 SWAP1 DUP9 AND GAS CALL DUP1 ISZERO PUSH3 0x39A JUMPI SWAP2 PUSH3 0x31C SWAP7 SWAP6 SWAP4 SWAP2 DUP9 SWAP6 SWAP4 PUSH3 0x378 JUMPI JUMPDEST POP SLOAD DUP6 MLOAD PUSH4 0x23B872DD PUSH1 0xE0 SHL DUP2 MSTORE CALLER SWAP4 DUP2 ADD SWAP4 DUP5 MSTORE ADDRESS PUSH1 0x20 DUP6 ADD MSTORE PUSH1 0x40 DUP5 ADD SWAP5 SWAP1 SWAP5 MSTORE SWAP3 SWAP6 DUP7 SWAP4 PUSH1 0x10 SHR SWAP2 SWAP1 SWAP2 AND SWAP2 DUP4 SWAP2 DUP10 SWAP2 DUP4 SWAP2 PUSH1 0x60 SWAP1 SWAP2 ADD SWAP1 JUMP JUMPDEST SUB SWAP3 GAS CALL SWAP1 DUP2 ISZERO PUSH3 0x36F JUMPI POP PUSH3 0x33A JUMPI JUMPDEST POP POP JUMPDEST PUSH1 0x1 PUSH1 0x65 SSTORE DUP1 RETURN JUMPDEST DUP2 PUSH3 0x35E SWAP3 SWAP1 RETURNDATASIZE LT PUSH3 0x367 JUMPI JUMPDEST PUSH3 0x355 DUP2 DUP4 PUSH3 0x1718 JUMP JUMPDEST DUP2 ADD SWAP1 PUSH3 0x18E0 JUMP JUMPDEST POP CODESIZE DUP1 PUSH3 0x32F JUMP JUMPDEST POP RETURNDATASIZE PUSH3 0x349 JUMP JUMPDEST MLOAD RETURNDATASIZE DUP6 DUP3 RETURNDATACOPY RETURNDATASIZE SWAP1 REVERT JUMPDEST PUSH3 0x392 SWAP1 DUP7 RETURNDATASIZE DUP9 GT PUSH3 0x367 JUMPI PUSH3 0x355 DUP2 DUP4 PUSH3 0x1718 JUMP JUMPDEST POP CODESIZE PUSH3 0x2DF JUMP JUMPDEST DUP7 MLOAD RETURNDATASIZE DUP11 DUP3 RETURNDATACOPY RETURNDATASIZE SWAP1 REVERT JUMPDEST SWAP2 SWAP6 POP SWAP2 POP PUSH1 0x2 EQ DUP1 PUSH3 0x4AE JUMPI JUMPDEST PUSH3 0x3C5 JUMPI JUMPDEST POP POP POP POP POP POP PUSH3 0x332 JUMP JUMPDEST PUSH2 0x131 SLOAD DUP6 MLOAD PUSH4 0xA9059CBB PUSH1 0xE0 SHL DUP2 MSTORE CALLER DUP6 DUP3 ADD SWAP1 DUP2 MSTORE PUSH1 0x20 DUP2 ADD DUP8 SWAP1 MSTORE SWAP1 SWAP2 DUP9 SWAP2 DUP4 SWAP2 DUP7 AND SWAP1 DUP3 SWAP1 DUP13 SWAP1 DUP3 SWAP1 PUSH1 0x40 ADD SUB SWAP3 GAS CALL DUP1 ISZERO PUSH3 0x39A JUMPI SWAP2 PUSH3 0x44C SWAP7 SWAP6 SWAP4 SWAP2 DUP9 SWAP6 SWAP4 PUSH3 0x48C JUMPI JUMPDEST POP SLOAD DUP6 MLOAD PUSH4 0x23B872DD PUSH1 0xE0 SHL DUP2 MSTORE CALLER SWAP4 DUP2 ADD SWAP4 DUP5 MSTORE ADDRESS PUSH1 0x20 DUP6 ADD MSTORE PUSH1 0x40 DUP5 ADD SWAP5 SWAP1 SWAP5 MSTORE SWAP3 SWAP6 DUP7 SWAP4 SWAP2 SWAP1 SWAP2 AND SWAP2 DUP4 SWAP2 DUP10 SWAP2 DUP4 SWAP2 PUSH1 0x60 SWAP1 SWAP2 ADD SWAP1 JUMP JUMPDEST SUB SWAP3 GAS CALL SWAP1 DUP2 ISZERO PUSH3 0x36F JUMPI POP PUSH3 0x469 JUMPI JUMPDEST DUP1 DUP1 DUP1 DUP1 PUSH3 0x3B9 JUMP JUMPDEST DUP2 PUSH3 0x483 SWAP3 SWAP1 RETURNDATASIZE LT PUSH3 0x367 JUMPI PUSH3 0x355 DUP2 DUP4 PUSH3 0x1718 JUMP JUMPDEST POP CODESIZE DUP1 PUSH3 0x45F JUMP JUMPDEST PUSH3 0x4A6 SWAP1 DUP7 RETURNDATASIZE DUP9 GT PUSH3 0x367 JUMPI PUSH3 0x355 DUP2 DUP4 PUSH3 0x1718 JUMP JUMPDEST POP CODESIZE PUSH3 0x412 JUMP JUMPDEST POP DUP4 ISZERO ISZERO PUSH3 0x3B3 JUMP JUMPDEST POP DUP7 ISZERO ISZERO PUSH3 0x28A JUMP JUMPDEST SWAP1 SWAP3 POP DUP9 DUP2 DUP2 RETURNDATASIZE DUP4 GT PUSH3 0x4F5 JUMPI JUMPDEST PUSH3 0x4DD DUP2 DUP4 PUSH3 0x1718 JUMP JUMPDEST DUP2 ADD SUB SLT PUSH3 0x4F0 JUMPI MLOAD SWAP2 PUSH1 0xFF PUSH3 0x278 JUMP JUMPDEST PUSH1 0x0 DUP1 REVERT JUMPDEST POP RETURNDATASIZE PUSH3 0x4D1 JUMP JUMPDEST DUP9 MLOAD RETURNDATASIZE DUP13 DUP3 RETURNDATACOPY RETURNDATASIZE SWAP1 REVERT JUMPDEST SWAP1 SWAP6 POP DUP8 DUP2 DUP2 RETURNDATASIZE DUP4 GT PUSH3 0x534 JUMPI JUMPDEST PUSH3 0x522 DUP2 DUP4 PUSH3 0x1718 JUMP JUMPDEST DUP2 ADD SUB SLT PUSH3 0x4F0 JUMPI MLOAD SWAP5 CODESIZE PUSH3 0x24C JUMP JUMPDEST POP RETURNDATASIZE PUSH3 0x516 JUMP JUMPDEST DUP8 MLOAD RETURNDATASIZE DUP12 DUP3 RETURNDATACOPY RETURNDATASIZE SWAP1 REVERT JUMPDEST PUSH1 0x64 SWAP1 PUSH1 0x20 DUP5 MLOAD SWAP2 PUSH3 0x461BCD PUSH1 0xE5 SHL DUP4 MSTORE DUP3 ADD MSTORE PUSH1 0xC PUSH1 0x24 DUP3 ADD MSTORE PUSH12 0x139BDD081C995CDBDB1D9959 PUSH1 0xA2 SHL PUSH1 0x44 DUP3 ADD MSTORE REVERT JUMPDEST DUP4 CALLVALUE PUSH3 0x5C3 JUMPI PUSH1 0x20 CALLDATASIZE PUSH1 0x3 NOT ADD SLT PUSH3 0x5C3 JUMPI PUSH3 0x596 PUSH3 0x16CE JUMP JUMPDEST PUSH3 0x5A0 PUSH3 0x19FB JUMP JUMPDEST PUSH2 0x132 DUP1 SLOAD PUSH1 0x1 PUSH1 0x1 PUSH1 0xA0 SHL SUB NOT AND PUSH1 0x1 PUSH1 0x1 PUSH1 0xA0 SHL SUB SWAP1 SWAP3 AND SWAP2 SWAP1 SWAP2 OR SWAP1 SSTORE DUP1 RETURN JUMPDEST DUP1 REVERT JUMPDEST POP POP CALLVALUE PUSH3 0x140 JUMPI DUP2 PUSH1 0x3 NOT CALLDATASIZE ADD SLT PUSH3 0x140 JUMPI PUSH2 0x130 SLOAD SWAP1 MLOAD PUSH1 0x1 PUSH1 0x1 PUSH1 0xA0 SHL SUB SWAP1 SWAP2 AND DUP2 MSTORE PUSH1 0x20 SWAP1 RETURN JUMPDEST POP POP CALLVALUE PUSH3 0x140 JUMPI DUP2 PUSH1 0x3 NOT CALLDATASIZE ADD SLT PUSH3 0x140 JUMPI PUSH1 0xFB SLOAD SWAP1 MLOAD PUSH1 0x1 PUSH1 0x1 PUSH1 0xA0 SHL SUB SWAP1 SWAP2 AND DUP2 MSTORE PUSH1 0x20 SWAP1 RETURN JUMPDEST DUP3 DUP5 CALLVALUE PUSH3 0x5C3 JUMPI DUP1 PUSH1 0x3 NOT CALLDATASIZE ADD SLT PUSH3 0x5C3 JUMPI DUP2 MLOAD SWAP1 DUP1 PUSH2 0x12D DUP1 SLOAD PUSH3 0x645 DUP2 PUSH3 0x1794 JUMP JUMPDEST DUP1 DUP7 MSTORE SWAP3 PUSH1 0x20 SWAP3 PUSH1 0x1 SWAP3 DUP1 DUP5 AND SWAP1 DUP2 ISZERO PUSH3 0x6E3 JUMPI POP PUSH1 0x1 EQ PUSH3 0x687 JUMPI JUMPDEST PUSH3 0x683 DUP8 DUP10 PUSH3 0x678 DUP3 DUP11 SUB DUP4 PUSH3 0x1718 JUMP JUMPDEST MLOAD SWAP2 DUP3 SWAP2 DUP3 PUSH3 0x17D1 JUMP JUMPDEST SUB SWAP1 RETURN JUMPDEST DUP2 MSTORE SWAP4 POP PUSH32 0x193A3AE4DA5049EB74CEE39E4CF5827F7CE7B1D1D1775EF1C6311EB60558E6D5 JUMPDEST DUP4 DUP6 LT PUSH3 0x6CF JUMPI POP POP POP POP DUP2 ADD PUSH1 0x20 ADD PUSH3 0x678 DUP3 PUSH3 0x683 DUP7 DUP1 PUSH3 0x664 JUMP JUMPDEST DUP1 SLOAD DUP7 DUP7 ADD DUP5 ADD MSTORE SWAP4 DUP3 ADD SWAP4 DUP2 ADD PUSH3 0x6AD JUMP JUMPDEST SWAP2 POP POP PUSH3 0x683 SWAP8 SWAP6 POP DUP7 SWAP4 POP PUSH1 0x20 SWAP3 POP PUSH3 0x678 SWAP5 SWAP2 POP PUSH1 0xFF NOT AND DUP3 DUP5 ADD MSTORE ISZERO ISZERO PUSH1 0x5 SHL DUP3 ADD ADD SWAP3 SWAP5 DUP7 DUP1 PUSH3 0x664 JUMP JUMPDEST DUP4 CALLVALUE PUSH3 0x5C3 JUMPI DUP1 PUSH1 0x3 NOT CALLDATASIZE ADD SLT PUSH3 0x5C3 JUMPI PUSH3 0x732 PUSH3 0x19FB JUMP JUMPDEST PUSH1 0xFB DUP1 SLOAD PUSH1 0x1 PUSH1 0x1 PUSH1 0xA0 SHL SUB NOT DUP2 AND SWAP1 SWAP2 SSTORE PUSH1 0x0 SWAP1 PUSH1 0x1 PUSH1 0x1 PUSH1 0xA0 SHL SUB AND PUSH32 0x8BE0079C531659141344CD1FD0A4F28419497F9722A3DAAFE3B4186F6B6457E0 DUP3 DUP1 LOG3 DUP1 RETURN JUMPDEST POP POP CALLVALUE PUSH3 0x140 JUMPI DUP2 PUSH1 0x3 NOT CALLDATASIZE ADD SLT PUSH3 0x140 JUMPI PUSH2 0x12F SLOAD SWAP1 MLOAD PUSH1 0x10 SWAP2 SWAP1 SWAP2 SHR PUSH1 0x1 PUSH1 0x1 PUSH1 0xA0 SHL SUB AND DUP2 MSTORE PUSH1 0x20 SWAP1 RETURN JUMPDEST POP POP CALLVALUE PUSH3 0x140 JUMPI DUP2 PUSH1 0x3 NOT CALLDATASIZE ADD SLT PUSH3 0x140 JUMPI PUSH1 0x20 SWAP1 PUSH1 0xFF PUSH1 0xC9 SLOAD AND SWAP1 MLOAD SWAP1 ISZERO ISZERO DUP2 MSTORE RETURN JUMPDEST SWAP1 POP DUP3 CALLVALUE PUSH3 0x5C3 JUMPI DUP1 PUSH1 0x3 NOT CALLDATASIZE ADD SLT PUSH3 0x5C3 JUMPI POP PUSH32 0x0 PUSH1 0x1 PUSH1 0x1 PUSH1 0xA0 SHL SUB AND ADDRESS SUB PUSH3 0x82C JUMPI PUSH1 0x20 DUP3 MLOAD PUSH1 0x0 DUP1 MLOAD PUSH1 0x20 PUSH3 0x354C DUP4 CODECOPY DUP2 MLOAD SWAP2 MSTORE DUP2 MSTORE RETURN JUMPDEST PUSH1 0x20 PUSH1 0x84 SWAP3 MLOAD SWAP2 PUSH3 0x461BCD PUSH1 0xE5 SHL DUP4 MSTORE DUP3 ADD MSTORE PUSH1 0x38 PUSH1 0x24 DUP3 ADD MSTORE PUSH32 0x555550535570677261646561626C653A206D757374206E6F742062652063616C PUSH1 0x44 DUP3 ADD MSTORE PUSH32 0x6C6564207468726F7567682064656C656761746563616C6C0000000000000000 PUSH1 0x64 DUP3 ADD MSTORE REVERT JUMPDEST DUP4 DUP4 CALLVALUE PUSH3 0x140 JUMPI DUP1 PUSH1 0x3 NOT CALLDATASIZE ADD SLT PUSH3 0x140 JUMPI DUP3 CALLDATALOAD SWAP1 DUP2 ISZERO ISZERO SWAP2 DUP3 DUP2 SUB PUSH3 0xACE JUMPI PUSH1 0x24 SWAP5 DUP6 CALLDATALOAD SWAP2 PUSH3 0x8C7 PUSH3 0x19A4 JUMP JUMPDEST PUSH1 0xFF PUSH1 0xC9 SLOAD AND PUSH3 0xA99 JUMPI PUSH2 0x12E SLOAD TIMESTAMP LT ISZERO PUSH3 0xA68 JUMPI PUSH2 0x12F PUSH1 0xFF DUP2 SLOAD AND PUSH3 0xA34 JUMPI PUSH2 0x131 SLOAD DUP6 MLOAD PUSH4 0x23B872DD PUSH1 0xE0 SHL DUP2 MSTORE CALLER DUP6 DUP3 ADD SWAP1 DUP2 MSTORE ADDRESS PUSH1 0x20 DUP3 DUP2 ADD SWAP2 SWAP1 SWAP2 MSTORE PUSH1 0x40 DUP3 ADD DUP9 SWAP1 MSTORE PUSH1 0x1 PUSH1 0x1 PUSH1 0xA0 SHL SUB SWAP6 SWAP4 SWAP1 SWAP2 DUP4 SWAP2 DUP8 AND SWAP1 DUP3 SWAP1 DUP14 SWAP1 DUP3 SWAP1 PUSH1 0x60 ADD SUB SWAP3 GAS CALL DUP1 ISZERO PUSH3 0x53C JUMPI SWAP1 DUP5 SWAP4 SWAP3 SWAP2 PUSH3 0xA10 JUMPI JUMPDEST POP ISZERO PUSH3 0xA04 JUMPI SLOAD PUSH1 0x10 SHR AND JUMPDEST AND DUP1 EXTCODESIZE ISZERO PUSH3 0xA00 JUMPI SWAP1 DUP6 DUP1 SWAP3 PUSH1 0x44 DUP7 MLOAD DUP1 SWAP6 DUP2 SWAP4 PUSH4 0x4ECFDFAD PUSH1 0xE0 SHL DUP4 MSTORE DUP9 DUP8 DUP5 ADD MSTORE CALLER DUP14 DUP5 ADD MSTORE GAS CALL DUP1 ISZERO PUSH3 0x9F6 JUMPI PUSH3 0x9C2 JUMPI JUMPDEST POP POP SWAP1 PUSH32 0xE57FA5A543EBCDEBF2A7D7102AC913E14454CEC006468E43A6916E95BDFCEA9E SWAP2 DUP2 MLOAD SWAP4 DUP5 MSTORE PUSH1 0x20 DUP5 ADD MSTORE CALLER SWAP3 LOG2 PUSH1 0x1 PUSH1 0x65 SSTORE DUP1 RETURN JUMPDEST PUSH8 0xFFFFFFFFFFFFFFFF DUP3 SWAP7 SWAP4 SWAP7 GT PUSH3 0x9E4 JUMPI POP DUP3 MSTORE SWAP3 SWAP4 POP DUP4 DUP6 DUP1 PUSH3 0x988 JUMP JUMPDEST PUSH4 0x4E487B71 PUSH1 0xE0 SHL DUP4 MSTORE PUSH1 0x41 SWAP1 MSTORE DUP6 DUP3 REVERT JUMPDEST DUP5 MLOAD RETURNDATASIZE DUP9 DUP3 RETURNDATACOPY RETURNDATASIZE SWAP1 REVERT JUMPDEST DUP6 DUP1 REVERT JUMPDEST POP PUSH2 0x130 SLOAD AND PUSH3 0x950 JUMP JUMPDEST PUSH3 0xA2C SWAP1 PUSH1 0x20 RETURNDATASIZE PUSH1 0x20 GT PUSH3 0x367 JUMPI PUSH3 0x355 DUP2 DUP4 PUSH3 0x1718 JUMP JUMPDEST POP DUP11 PUSH3 0x943 JUMP JUMPDEST DUP5 MLOAD PUSH3 0x461BCD PUSH1 0xE5 SHL DUP2 MSTORE PUSH1 0x20 DUP2 DUP6 ADD MSTORE PUSH1 0xF DUP2 DUP11 ADD MSTORE PUSH15 0x13585C9AD95D081C995CDBDB1D9959 PUSH1 0x8A SHL PUSH1 0x44 DUP3 ADD MSTORE PUSH1 0x64 SWAP1 REVERT JUMPDEST DUP4 MLOAD PUSH3 0x461BCD PUSH1 0xE5 SHL DUP2 MSTORE PUSH1 0x20 DUP2 DUP5 ADD MSTORE PUSH1 0xC DUP2 DUP10 ADD MSTORE PUSH12 0x13585C9AD95D08195B991959 PUSH1 0xA2 SHL PUSH1 0x44 DUP3 ADD MSTORE PUSH1 0x64 SWAP1 REVERT JUMPDEST DUP4 MLOAD PUSH3 0x461BCD PUSH1 0xE5 SHL DUP2 MSTORE PUSH1 0x20 DUP2 DUP5 ADD MSTORE PUSH1 0x10 DUP2 DUP10 ADD MSTORE PUSH16 0x14185D5CD8589B194E881C185D5CD959 PUSH1 0x82 SHL PUSH1 0x44 DUP3 ADD MSTORE PUSH1 0x64 SWAP1 REVERT JUMPDEST DUP4 DUP1 REVERT JUMPDEST SWAP2 SWAP1 POP CALLVALUE PUSH3 0x1DF JUMPI PUSH1 0x60 CALLDATASIZE PUSH1 0x3 NOT ADD SLT PUSH3 0x1DF JUMPI PUSH8 0xFFFFFFFFFFFFFFFF SWAP2 DUP1 CALLDATALOAD DUP4 DUP2 GT PUSH3 0xF42 JUMPI CALLDATASIZE PUSH1 0x23 DUP3 ADD SLT ISZERO PUSH3 0xF42 JUMPI PUSH3 0xB1E PUSH1 0x24 SWAP2 CALLDATASIZE SWAP1 DUP4 DUP2 DUP7 ADD CALLDATALOAD SWAP2 ADD PUSH3 0x1758 JUMP JUMPDEST SWAP2 PUSH1 0x44 CALLDATALOAD SWAP2 PUSH1 0x1 PUSH1 0x1 PUSH1 0xA0 SHL SUB SWAP2 DUP3 DUP5 AND DUP5 SUB PUSH3 0xF3E JUMPI DUP8 SLOAD SWAP7 PUSH1 0xFF DUP9 PUSH1 0x8 SHR AND ISZERO SWAP6 DUP7 DUP1 SWAP8 PUSH3 0xF30 JUMPI JUMPDEST DUP1 ISZERO PUSH3 0xF17 JUMPI JUMPDEST ISZERO PUSH3 0xEBE JUMPI PUSH1 0xFF NOT DUP1 DUP11 AND PUSH1 0x1 SWAP1 DUP2 OR DUP13 SSTORE SWAP10 DUP9 PUSH3 0xEAC JUMPI JUMPDEST POP PUSH3 0xB8C PUSH1 0xFF DUP13 SLOAD PUSH1 0x8 SHR AND PUSH3 0xB86 DUP2 PUSH3 0x18FA JUMP JUMPDEST PUSH3 0x18FA JUMP JUMPDEST PUSH3 0xB97 CALLER PUSH3 0x195B JUMP JUMPDEST PUSH3 0xBD3 PUSH1 0xFF DUP13 SLOAD PUSH1 0x8 SHR AND PUSH3 0xBAE DUP2 PUSH3 0x18FA JUMP JUMPDEST PUSH3 0xBB9 DUP2 PUSH3 0x18FA JUMP JUMPDEST PUSH3 0xBC4 DUP2 PUSH3 0x18FA JUMP JUMPDEST DUP12 PUSH1 0x65 SSTORE PUSH3 0xB86 DUP2 PUSH3 0x18FA JUMP JUMPDEST PUSH1 0xC9 SLOAD AND PUSH1 0xC9 SSTORE DUP1 MLOAD DUP3 DUP2 GT PUSH3 0xE9A JUMPI DUP1 PUSH2 0x12D SWAP3 PUSH3 0xBF5 DUP5 SLOAD PUSH3 0x1794 JUMP JUMPDEST PUSH1 0x1F DUP2 GT PUSH3 0xE23 JUMPI JUMPDEST POP PUSH1 0x20 SWAP1 DUP14 PUSH1 0x1F DUP5 GT PUSH1 0x1 EQ PUSH3 0xDA1 JUMPI SWAP3 PUSH3 0xD95 JUMPI JUMPDEST POP POP PUSH1 0x0 NOT PUSH1 0x3 DUP4 SWAP1 SHL SHR NOT AND SWAP1 DUP11 SHL OR SWAP1 SSTORE JUMPDEST DUP3 CALLDATALOAD PUSH2 0x12E SSTORE PUSH2 0x131 DUP1 SLOAD PUSH20 0x36CBD53842C5426634E7929541EC2318F3DCF7E PUSH1 0x1 PUSH1 0x1 PUSH1 0xA0 SHL SUB NOT SWAP2 DUP3 AND DUP2 OR DUP4 SSTORE DUP10 MLOAD SWAP2 SWAP6 SWAP3 PUSH2 0x19CA SWAP3 DUP4 DUP2 ADD DUP2 DUP2 LT DUP8 DUP3 GT OR PUSH3 0xD83 JUMPI SWAP1 PUSH1 0x60 DUP16 SWAP3 DUP16 SWAP1 DUP16 SWAP2 DUP5 SWAP3 PUSH3 0x1B82 SWAP9 DUP11 DUP11 DUP7 CODECOPY DUP4 MSTORE ADDRESS PUSH1 0x20 DUP5 ADD MSTORE DUP3 ADD MSTORE SUB ADD SWAP2 CREATE DUP1 ISZERO PUSH3 0xD79 JUMPI PUSH2 0x12F DUP1 SLOAD PUSH3 0x10000 PUSH1 0x1 PUSH1 0xB0 SHL SUB NOT AND PUSH1 0x10 SWAP3 SWAP1 SWAP3 SHL PUSH3 0x10000 PUSH1 0x1 PUSH1 0xB0 SHL SUB AND SWAP2 SWAP1 SWAP2 OR SWAP1 SSTORE SLOAD DUP11 MLOAD SWAP6 DUP4 DUP8 ADD SWAP6 SWAP2 DUP10 AND SWAP5 SWAP2 DUP7 GT DUP8 DUP8 LT OR PUSH3 0xD68 JUMPI POP POP SWAP2 PUSH1 0x60 SWAP4 SWAP2 DUP6 SWAP4 DUP5 CODECOPY DUP2 MSTORE ADDRESS PUSH1 0x20 DUP3 ADD MSTORE DUP11 DUP10 DUP3 ADD MSTORE SUB ADD SWAP1 DUP9 CREATE SWAP2 DUP3 ISZERO PUSH3 0xD5E JUMPI SWAP1 PUSH3 0xD1C SWAP4 SWAP3 SWAP2 PUSH2 0x130 SWAP3 AND SWAP1 DUP3 SLOAD AND OR SWAP1 SSTORE PUSH3 0x195B JUMP JUMPDEST PUSH3 0xD25 JUMPI DUP3 DUP1 RETURN JUMPDEST DUP3 SLOAD PUSH2 0xFF00 NOT AND DUP4 SSTORE MLOAD SWAP1 DUP2 MSTORE PUSH32 0x7F26B83FF96E1F2B6A682F133852F6798A09C465DA95921460CEFB3847402498 SWAP1 PUSH1 0x20 SWAP1 LOG1 CODESIZE DUP1 DUP3 DUP1 RETURN JUMPDEST DUP6 MLOAD RETURNDATASIZE DUP10 DUP3 RETURNDATACOPY RETURNDATASIZE SWAP1 REVERT JUMPDEST PUSH4 0x4E487B71 PUSH1 0xE0 SHL DUP15 MSTORE PUSH1 0x41 SWAP1 MSTORE DUP13 REVERT JUMPDEST DUP12 MLOAD RETURNDATASIZE DUP16 DUP3 RETURNDATACOPY RETURNDATASIZE SWAP1 REVERT JUMPDEST PUSH4 0x4E487B71 PUSH1 0xE0 SHL DUP16 MSTORE PUSH1 0x41 DUP9 MSTORE DUP6 DUP16 REVERT JUMPDEST ADD MLOAD SWAP1 POP CODESIZE DUP1 PUSH3 0xC17 JUMP JUMPDEST SWAP2 SWAP1 DUP14 SWAP5 POP PUSH1 0x1F NOT DUP5 AND DUP7 DUP5 MSTORE PUSH32 0x193A3AE4DA5049EB74CEE39E4CF5827F7CE7B1D1D1775EF1C6311EB60558E6D5 SWAP4 JUMPDEST DUP2 DUP2 LT PUSH3 0xE0A JUMPI POP DUP5 GT PUSH3 0xDF0 JUMPI JUMPDEST POP POP POP DUP2 SHL ADD SWAP1 SSTORE PUSH3 0xC2B JUMP JUMPDEST ADD MLOAD PUSH1 0x0 NOT PUSH1 0xF8 DUP5 PUSH1 0x3 SHL AND SHR NOT AND SWAP1 SSTORE CODESIZE DUP1 DUP1 PUSH3 0xDE2 JUMP JUMPDEST DUP3 DUP5 ADD MLOAD DUP6 SSTORE DUP16 SWAP7 SWAP1 SWAP5 ADD SWAP4 PUSH1 0x20 SWAP4 DUP5 ADD SWAP4 ADD PUSH3 0xDD1 JUMP JUMPDEST SWAP1 SWAP2 POP DUP4 DUP14 MSTORE PUSH32 0x193A3AE4DA5049EB74CEE39E4CF5827F7CE7B1D1D1775EF1C6311EB60558E6D5 PUSH1 0x1F DUP5 ADD PUSH1 0x5 SHR DUP2 ADD SWAP2 PUSH1 0x20 DUP6 LT PUSH3 0xE8F JUMPI JUMPDEST DUP15 DUP6 SWAP5 SWAP4 SWAP3 DUP16 SWAP3 PUSH1 0x1F ADD PUSH1 0x5 SHR ADD SWAP3 SWAP1 JUMPDEST DUP4 DUP3 LT PUSH3 0xE80 JUMPI POP POP POP PUSH3 0xBFF JUMP JUMPDEST DUP2 SSTORE DUP6 SWAP5 POP DUP15 SWAP2 ADD DUP16 PUSH3 0xE6F JUMP JUMPDEST SWAP1 SWAP2 POP DUP2 SWAP1 PUSH3 0xE5E JUMP JUMPDEST PUSH4 0x4E487B71 PUSH1 0xE0 SHL DUP12 MSTORE PUSH1 0x41 DUP5 MSTORE DUP5 DUP12 REVERT JUMPDEST PUSH2 0xFFFF NOT AND PUSH2 0x101 OR DUP12 SSTORE CODESIZE PUSH3 0xB6E JUMP JUMPDEST DUP8 MLOAD PUSH3 0x461BCD PUSH1 0xE5 SHL DUP2 MSTORE PUSH1 0x20 DUP2 DUP6 ADD MSTORE PUSH1 0x2E DUP2 DUP7 ADD MSTORE PUSH32 0x496E697469616C697A61626C653A20636F6E747261637420697320616C726561 PUSH1 0x44 DUP3 ADD MSTORE PUSH14 0x191E481A5B9A5D1A585B1A5E9959 PUSH1 0x92 SHL PUSH1 0x64 DUP3 ADD MSTORE PUSH1 0x84 SWAP1 REVERT JUMPDEST POP ADDRESS EXTCODESIZE ISZERO DUP1 ISZERO PUSH3 0xB53 JUMPI POP PUSH1 0x1 PUSH1 0xFF DUP11 AND EQ PUSH3 0xB53 JUMP JUMPDEST POP PUSH1 0x1 PUSH1 0xFF DUP11 AND LT PUSH3 0xB4B JUMP JUMPDEST DUP8 DUP1 REVERT JUMPDEST DUP5 DUP1 REVERT JUMPDEST SWAP2 DUP1 SWAP2 POP PUSH1 0x3 NOT CALLDATASIZE ADD SLT PUSH3 0x1DF JUMPI PUSH3 0xF5F PUSH3 0x16CE JUMP JUMPDEST SWAP1 PUSH1 0x24 CALLDATALOAD PUSH8 0xFFFFFFFFFFFFFFFF DUP2 GT PUSH3 0xF42 JUMPI CALLDATASIZE PUSH1 0x23 DUP3 ADD SLT ISZERO PUSH3 0xF42 JUMPI PUSH3 0xF94 SWAP1 CALLDATASIZE SWAP1 PUSH1 0x24 DUP2 DUP8 ADD CALLDATALOAD SWAP2 ADD PUSH3 0x1758 JUMP JUMPDEST PUSH1 0x1 PUSH1 0x1 PUSH1 0xA0 SHL SUB PUSH32 0x0 DUP2 AND SWAP3 SWAP2 SWAP1 PUSH3 0xFD0 ADDRESS DUP6 EQ ISZERO PUSH3 0x181C JUMP JUMPDEST PUSH3 0xFF0 PUSH1 0x0 DUP1 MLOAD PUSH1 0x20 PUSH3 0x354C DUP4 CODECOPY DUP2 MLOAD SWAP2 MSTORE SWAP5 DUP3 DUP7 SLOAD AND EQ PUSH3 0x187E JUMP JUMPDEST PUSH3 0xFFA PUSH3 0x19FB JUMP JUMPDEST PUSH32 0x4910FDFA16FED3260ED0E7147F7CC6DA11A60208B5B9406D12A635614FFD9143 SLOAD PUSH1 0xFF AND ISZERO PUSH3 0x1035 JUMPI POP POP POP POP PUSH3 0x18A SWAP2 POP PUSH3 0x1A54 JUMP JUMPDEST DUP3 MLOAD PUSH4 0x52D1902D PUSH1 0xE0 SHL DUP2 MSTORE PUSH1 0x20 SWAP6 SWAP4 SWAP5 SWAP2 DUP5 AND SWAP2 SWAP1 DUP7 DUP2 DUP10 DUP2 DUP7 GAS STATICCALL DUP10 SWAP2 DUP2 PUSH3 0x120B JUMPI JUMPDEST POP PUSH3 0x10BB JUMPI DUP6 MLOAD PUSH3 0x461BCD PUSH1 0xE5 SHL DUP2 MSTORE DUP1 DUP10 ADD DUP9 SWAP1 MSTORE PUSH1 0x2E PUSH1 0x24 DUP3 ADD MSTORE PUSH32 0x45524331393637557067726164653A206E657720696D706C656D656E74617469 PUSH1 0x44 DUP3 ADD MSTORE PUSH14 0x6F6E206973206E6F742055555053 PUSH1 0x90 SHL PUSH1 0x64 DUP3 ADD MSTORE PUSH1 0x84 SWAP1 REVERT JUMPDEST SWAP7 SWAP2 SWAP3 SWAP6 SWAP5 SWAP4 SWAP7 SUB PUSH3 0x11B6 JUMPI POP PUSH3 0x10D4 DUP6 PUSH3 0x1A54 JUMP JUMPDEST PUSH32 0xBC7CD75A20EE27FD9ADEBAB32041F755214DBC6BFFA90CC0225B39DA2E5C2D3B DUP7 DUP1 LOG2 DUP3 MLOAD ISZERO DUP1 ISZERO SWAP1 PUSH3 0x11AD JUMPI JUMPDEST PUSH3 0x1111 JUMPI JUMPDEST POP POP POP POP DUP1 RETURN JUMPDEST PUSH3 0x1197 SWAP4 DUP6 DUP1 DUP4 MLOAD SWAP6 PUSH3 0x1126 DUP8 PUSH3 0x16E5 JUMP JUMPDEST PUSH1 0x27 DUP8 MSTORE PUSH32 0x416464726573733A206C6F772D6C6576656C2064656C65676174652063616C6C DUP7 DUP9 ADD MSTORE PUSH7 0x819985A5B1959 PUSH1 0xCA SHL DUP6 DUP9 ADD MSTORE DUP6 DUP2 MLOAD SWAP2 ADD DUP5 GAS DELEGATECALL SWAP2 RETURNDATASIZE ISZERO PUSH3 0x11A2 JUMPI RETURNDATASIZE PUSH3 0x1188 PUSH3 0x117E DUP3 PUSH3 0x173B JUMP JUMPDEST SWAP3 MLOAD SWAP3 DUP4 PUSH3 0x1718 JUMP JUMPDEST DUP2 MSTORE DUP7 DUP2 SWAP5 RETURNDATASIZE SWAP3 ADD RETURNDATACOPY PUSH3 0x1AE6 JUMP JUMPDEST POP CODESIZE DUP1 DUP1 DUP1 PUSH3 0x110A JUMP JUMPDEST POP PUSH1 0x60 SWAP3 POP PUSH3 0x1AE6 JUMP JUMPDEST POP PUSH1 0x1 PUSH3 0x1104 JUMP JUMPDEST DUP3 MLOAD PUSH3 0x461BCD PUSH1 0xE5 SHL DUP2 MSTORE SWAP1 DUP2 ADD DUP5 SWAP1 MSTORE PUSH1 0x29 PUSH1 0x24 DUP3 ADD MSTORE PUSH32 0x45524331393637557067726164653A20756E737570706F727465642070726F78 PUSH1 0x44 DUP3 ADD MSTORE PUSH9 0x1A58589B1955555251 PUSH1 0xBA SHL PUSH1 0x64 DUP3 ADD MSTORE PUSH1 0x84 SWAP1 REVERT JUMPDEST SWAP1 SWAP2 POP DUP8 DUP2 DUP2 RETURNDATASIZE DUP4 GT PUSH3 0x123C JUMPI JUMPDEST PUSH3 0x1226 DUP2 DUP4 PUSH3 0x1718 JUMP JUMPDEST DUP2 ADD SUB SLT PUSH3 0x1238 JUMPI MLOAD SWAP1 CODESIZE PUSH3 0x105B JUMP JUMPDEST DUP10 DUP1 REVERT JUMPDEST POP RETURNDATASIZE PUSH3 0x121A JUMP JUMPDEST POP POP CALLVALUE PUSH3 0x140 JUMPI DUP2 PUSH1 0x3 NOT CALLDATASIZE ADD SLT PUSH3 0x140 JUMPI PUSH1 0x20 SWAP1 PUSH1 0xFF PUSH2 0x12F SLOAD AND SWAP1 MLOAD SWAP1 ISZERO ISZERO DUP2 MSTORE RETURN JUMPDEST POP POP CALLVALUE PUSH3 0x140 JUMPI DUP2 PUSH1 0x3 NOT CALLDATASIZE ADD SLT PUSH3 0x140 JUMPI PUSH2 0x131 SLOAD SWAP1 MLOAD PUSH1 0x1 PUSH1 0x1 PUSH1 0xA0 SHL SUB SWAP1 SWAP2 AND DUP2 MSTORE PUSH1 0x20 SWAP1 RETURN JUMPDEST SWAP2 SWAP1 POP CALLVALUE PUSH3 0x1DF JUMPI PUSH1 0x20 CALLDATASIZE PUSH1 0x3 NOT ADD SLT PUSH3 0x1DF JUMPI DUP2 CALLDATALOAD PUSH1 0xFF DUP2 AND SWAP3 DUP4 DUP3 SUB PUSH3 0xF42 JUMPI PUSH2 0x132 SLOAD PUSH1 0x1 PUSH1 0x1 PUSH1 0xA0 SHL SUB AND CALLER SUB PUSH3 0x136B JUMPI PUSH1 0x1 DUP5 EQ DUP1 ISZERO PUSH3 0x1360 JUMPI JUMPDEST ISZERO PUSH3 0x132B JUMPI POP SWAP2 PUSH1 0x20 SWAP2 PUSH32 0xAA0C29612666F8797DD6D975F12701AC6DF3463E92528993B6DF15419E7E4AFF SWAP4 PUSH1 0x1 PUSH2 0x12F SWAP2 PUSH2 0xFF00 DUP4 SLOAD SWAP2 PUSH1 0x8 SHL AND SWAP1 PUSH2 0xFFFF NOT AND OR OR SWAP1 SSTORE MLOAD SWAP1 DUP2 MSTORE LOG1 DUP1 RETURN JUMPDEST PUSH1 0x64 SWAP1 PUSH1 0x20 DUP5 MLOAD SWAP2 PUSH3 0x461BCD PUSH1 0xE5 SHL DUP4 MSTORE DUP3 ADD MSTORE PUSH1 0xF PUSH1 0x24 DUP3 ADD MSTORE PUSH15 0x496E76616C6964206F7574636F6D65 PUSH1 0x88 SHL PUSH1 0x44 DUP3 ADD MSTORE REVERT JUMPDEST POP PUSH1 0x2 DUP5 EQ PUSH3 0x12DC JUMP JUMPDEST PUSH1 0x64 SWAP1 PUSH1 0x20 DUP5 MLOAD SWAP2 PUSH3 0x461BCD PUSH1 0xE5 SHL DUP4 MSTORE DUP3 ADD MSTORE PUSH1 0x16 PUSH1 0x24 DUP3 ADD MSTORE PUSH22 0x4F6E6C79207265736F6C7574696F6E206D6F64756C65 PUSH1 0x50 SHL PUSH1 0x44 DUP3 ADD MSTORE REVERT JUMPDEST SWAP2 SWAP1 POP CALLVALUE PUSH3 0x1DF JUMPI PUSH1 0x20 DUP1 PUSH1 0x3 NOT CALLDATASIZE ADD SLT PUSH3 0xACE JUMPI PUSH3 0x13C8 PUSH3 0x16CE JUMP JUMPDEST SWAP2 PUSH1 0x1 PUSH1 0x1 PUSH1 0xA0 SHL SUB PUSH32 0x0 DUP2 AND PUSH3 0x1402 ADDRESS DUP3 EQ ISZERO PUSH3 0x181C JUMP JUMPDEST PUSH3 0x1422 PUSH1 0x0 DUP1 MLOAD PUSH1 0x20 PUSH3 0x354C DUP4 CODECOPY DUP2 MLOAD SWAP2 MSTORE SWAP2 DUP4 DUP4 SLOAD AND EQ PUSH3 0x187E JUMP JUMPDEST PUSH3 0x142C PUSH3 0x19FB JUMP JUMPDEST DUP3 MLOAD SWAP1 DUP5 DUP3 ADD SWAP3 DUP3 DUP5 LT PUSH8 0xFFFFFFFFFFFFFFFF DUP6 GT OR PUSH3 0x1674 JUMPI DUP4 DUP6 MSTORE DUP9 DUP4 MSTORE PUSH32 0x4910FDFA16FED3260ED0E7147F7CC6DA11A60208B5B9406D12A635614FFD9143 SLOAD PUSH1 0xFF AND ISZERO PUSH3 0x148A JUMPI POP POP POP POP POP POP PUSH3 0x18A SWAP2 POP PUSH3 0x1A54 JUMP JUMPDEST DUP7 SWAP3 SWAP4 SWAP5 SWAP6 SWAP7 AND SWAP1 DUP6 MLOAD PUSH4 0x52D1902D PUSH1 0xE0 SHL DUP2 MSTORE DUP8 DUP2 DUP11 DUP2 DUP7 GAS STATICCALL DUP11 SWAP2 DUP2 PUSH3 0x163B JUMPI JUMPDEST POP PUSH3 0x150E JUMPI DUP7 MLOAD PUSH3 0x461BCD PUSH1 0xE5 SHL DUP2 MSTORE DUP1 DUP11 ADD DUP10 SWAP1 MSTORE PUSH1 0x2E PUSH1 0x24 DUP3 ADD MSTORE PUSH32 0x45524331393637557067726164653A206E657720696D706C656D656E74617469 PUSH1 0x44 DUP3 ADD MSTORE PUSH14 0x6F6E206973206E6F742055555053 PUSH1 0x90 SHL PUSH1 0x64 DUP3 ADD MSTORE PUSH1 0x84 SWAP1 REVERT JUMPDEST SWAP8 SWAP2 SWAP3 SWAP4 SWAP7 SWAP6 SWAP5 SWAP8 SUB PUSH3 0x15E6 JUMPI POP PUSH3 0x1528 DUP3 PUSH3 0x1A54 JUMP JUMPDEST PUSH32 0xBC7CD75A20EE27FD9ADEBAB32041F755214DBC6BFFA90CC0225B39DA2E5C2D3B DUP8 DUP1 LOG2 DUP6 DUP5 MLOAD ISZERO DUP1 ISZERO SWAP1 PUSH3 0x15DE JUMPI JUMPDEST PUSH3 0x1568 JUMPI JUMPDEST POP POP POP POP POP POP DUP1 RETURN JUMPDEST DUP1 PUSH3 0x15D1 SWAP7 DUP5 MLOAD SWAP7 PUSH3 0x157C DUP9 PUSH3 0x16E5 JUMP JUMPDEST PUSH1 0x27 DUP9 MSTORE PUSH32 0x416464726573733A206C6F772D6C6576656C2064656C65676174652063616C6C DUP8 DUP10 ADD MSTORE PUSH7 0x819985A5B1959 PUSH1 0xCA SHL DUP7 DUP10 ADD MSTORE MLOAD SWAP1 DUP5 GAS DELEGATECALL SWAP2 RETURNDATASIZE ISZERO PUSH3 0x11A2 JUMPI RETURNDATASIZE PUSH3 0x1188 PUSH3 0x117E DUP3 PUSH3 0x173B JUMP JUMPDEST POP CODESIZE DUP1 DUP1 DUP1 DUP1 DUP6 PUSH3 0x155F JUMP JUMPDEST POP DUP1 PUSH3 0x1559 JUMP JUMPDEST DUP4 MLOAD PUSH3 0x461BCD PUSH1 0xE5 SHL DUP2 MSTORE SWAP1 DUP2 ADD DUP6 SWAP1 MSTORE PUSH1 0x29 PUSH1 0x24 DUP3 ADD MSTORE PUSH32 0x45524331393637557067726164653A20756E737570706F727465642070726F78 PUSH1 0x44 DUP3 ADD MSTORE PUSH9 0x1A58589B1955555251 PUSH1 0xBA SHL PUSH1 0x64 DUP3 ADD MSTORE PUSH1 0x84 SWAP1 REVERT JUMPDEST SWAP1 SWAP2 POP DUP9 DUP2 DUP2 RETURNDATASIZE DUP4 GT PUSH3 0x166C JUMPI JUMPDEST PUSH3 0x1656 DUP2 DUP4 PUSH3 0x1718 JUMP JUMPDEST DUP2 ADD SUB SLT PUSH3 0x1668 JUMPI MLOAD SWAP1 CODESIZE PUSH3 0x14AE JUMP JUMPDEST DUP11 DUP1 REVERT JUMPDEST POP RETURNDATASIZE PUSH3 0x164A JUMP JUMPDEST PUSH4 0x4E487B71 PUSH1 0xE0 SHL DUP10 MSTORE PUSH1 0x41 DUP9 MSTORE PUSH1 0x24 DUP10 REVERT JUMPDEST POP POP CALLVALUE PUSH3 0x140 JUMPI DUP2 PUSH1 0x3 NOT CALLDATASIZE ADD SLT PUSH3 0x140 JUMPI PUSH1 0x20 SWAP1 PUSH2 0x12E SLOAD SWAP1 MLOAD SWAP1 DUP2 MSTORE RETURN JUMPDEST DUP5 SWAP1 CALLVALUE PUSH3 0x140 JUMPI DUP2 PUSH1 0x3 NOT CALLDATASIZE ADD SLT PUSH3 0x140 JUMPI PUSH1 0x20 SWAP1 PUSH1 0xFF PUSH2 0x12F SLOAD PUSH1 0x8 SHR AND DUP2 MSTORE RETURN JUMPDEST PUSH1 0x4 CALLDATALOAD SWAP1 PUSH1 0x1 PUSH1 0x1 PUSH1 0xA0 SHL SUB DUP3 AND DUP3 SUB PUSH3 0x4F0 JUMPI JUMP JUMPDEST PUSH1 0x60 DUP2 ADD SWAP1 DUP2 LT PUSH8 0xFFFFFFFFFFFFFFFF DUP3 GT OR PUSH3 0x1702 JUMPI PUSH1 0x40 MSTORE JUMP JUMPDEST PUSH4 0x4E487B71 PUSH1 0xE0 SHL PUSH1 0x0 MSTORE PUSH1 0x41 PUSH1 0x4 MSTORE PUSH1 0x24 PUSH1 0x0 REVERT JUMPDEST SWAP1 PUSH1 0x1F DUP1 NOT SWAP2 ADD AND DUP2 ADD SWAP1 DUP2 LT PUSH8 0xFFFFFFFFFFFFFFFF DUP3 GT OR PUSH3 0x1702 JUMPI PUSH1 0x40 MSTORE JUMP JUMPDEST PUSH8 0xFFFFFFFFFFFFFFFF DUP2 GT PUSH3 0x1702 JUMPI PUSH1 0x1F ADD PUSH1 0x1F NOT AND PUSH1 0x20 ADD SWAP1 JUMP JUMPDEST SWAP3 SWAP2 SWAP3 PUSH3 0x1766 DUP3 PUSH3 0x173B JUMP JUMPDEST SWAP2 PUSH3 0x1776 PUSH1 0x40 MLOAD SWAP4 DUP5 PUSH3 0x1718 JUMP JUMPDEST DUP3 SWAP5 DUP2 DUP5 MSTORE DUP2 DUP4 ADD GT PUSH3 0x4F0 JUMPI DUP3 DUP2 PUSH1 0x20 SWAP4 DUP5 PUSH1 0x0 SWAP7 ADD CALLDATACOPY ADD ADD MSTORE JUMP JUMPDEST SWAP1 PUSH1 0x1 DUP3 DUP2 SHR SWAP3 AND DUP1 ISZERO PUSH3 0x17C6 JUMPI JUMPDEST PUSH1 0x20 DUP4 LT EQ PUSH3 0x17B0 JUMPI JUMP JUMPDEST PUSH4 0x4E487B71 PUSH1 0xE0 SHL PUSH1 0x0 MSTORE PUSH1 0x22 PUSH1 0x4 MSTORE PUSH1 0x24 PUSH1 0x0 REVERT JUMPDEST SWAP2 PUSH1 0x7F AND SWAP2 PUSH3 0x17A4 JUMP JUMPDEST PUSH1 0x20 DUP1 DUP3 MSTORE DUP3 MLOAD DUP2 DUP4 ADD DUP2 SWAP1 MSTORE SWAP1 SWAP4 SWAP3 PUSH1 0x0 JUMPDEST DUP3 DUP2 LT PUSH3 0x1807 JUMPI POP POP PUSH1 0x40 SWAP3 SWAP4 POP PUSH1 0x0 DUP4 DUP3 DUP5 ADD ADD MSTORE PUSH1 0x1F DUP1 NOT SWAP2 ADD AND ADD ADD SWAP1 JUMP JUMPDEST DUP2 DUP2 ADD DUP7 ADD MLOAD DUP5 DUP3 ADD PUSH1 0x40 ADD MSTORE DUP6 ADD PUSH3 0x17E4 JUMP JUMPDEST ISZERO PUSH3 0x1824 JUMPI JUMP JUMPDEST PUSH1 0x40 MLOAD PUSH3 0x461BCD PUSH1 0xE5 SHL DUP2 MSTORE PUSH1 0x20 PUSH1 0x4 DUP3 ADD MSTORE PUSH1 0x2C PUSH1 0x24 DUP3 ADD MSTORE PUSH32 0x46756E6374696F6E206D7573742062652063616C6C6564207468726F75676820 PUSH1 0x44 DUP3 ADD MSTORE PUSH12 0x19195B1959D85D1958D85B1B PUSH1 0xA2 SHL PUSH1 0x64 DUP3 ADD MSTORE PUSH1 0x84 SWAP1 REVERT JUMPDEST ISZERO PUSH3 0x1886 JUMPI JUMP JUMPDEST PUSH1 0x40 MLOAD PUSH3 0x461BCD PUSH1 0xE5 SHL DUP2 MSTORE PUSH1 0x20 PUSH1 0x4 DUP3 ADD MSTORE PUSH1 0x2C PUSH1 0x24 DUP3 ADD MSTORE PUSH32 0x46756E6374696F6E206D7573742062652063616C6C6564207468726F75676820 PUSH1 0x44 DUP3 ADD MSTORE PUSH12 0x6163746976652070726F7879 PUSH1 0xA0 SHL PUSH1 0x64 DUP3 ADD MSTORE PUSH1 0x84 SWAP1 REVERT JUMPDEST SWAP1 DUP2 PUSH1 0x20 SWAP2 SUB SLT PUSH3 0x4F0 JUMPI MLOAD DUP1 ISZERO ISZERO DUP2 SUB PUSH3 0x4F0 JUMPI SWAP1 JUMP JUMPDEST ISZERO PUSH3 0x1902 JUMPI JUMP JUMPDEST PUSH1 0x40 MLOAD PUSH3 0x461BCD PUSH1 0xE5 SHL DUP2 MSTORE PUSH1 0x20 PUSH1 0x4 DUP3 ADD MSTORE PUSH1 0x2B PUSH1 0x24 DUP3 ADD MSTORE PUSH32 0x496E697469616C697A61626C653A20636F6E7472616374206973206E6F742069 PUSH1 0x44 DUP3 ADD MSTORE PUSH11 0x6E697469616C697A696E67 PUSH1 0xA8 SHL PUSH1 0x64 DUP3 ADD MSTORE PUSH1 0x84 SWAP1 REVERT JUMPDEST PUSH1 0xFB DUP1 SLOAD PUSH1 0x1 PUSH1 0x1 PUSH1 0xA0 SHL SUB SWAP3 DUP4 AND PUSH1 0x1 PUSH1 0x1 PUSH1 0xA0 SHL SUB NOT DUP3 AND DUP2 OR SWAP1 SWAP3 SSTORE SWAP1 SWAP2 AND PUSH32 0x8BE0079C531659141344CD1FD0A4F28419497F9722A3DAAFE3B4186F6B6457E0 PUSH1 0x0 DUP1 LOG3 JUMP JUMPDEST PUSH1 0x2 PUSH1 0x65 SLOAD EQ PUSH3 0x19B6 JUMPI PUSH1 0x2 PUSH1 0x65 SSTORE JUMP JUMPDEST PUSH1 0x40 MLOAD PUSH3 0x461BCD PUSH1 0xE5 SHL DUP2 MSTORE PUSH1 0x20 PUSH1 0x4 DUP3 ADD MSTORE PUSH1 0x1F PUSH1 0x24 DUP3 ADD MSTORE PUSH32 0x5265656E7472616E637947756172643A207265656E7472616E742063616C6C00 PUSH1 0x44 DUP3 ADD MSTORE PUSH1 0x64 SWAP1 REVERT JUMPDEST PUSH1 0xFB SLOAD PUSH1 0x1 PUSH1 0x1 PUSH1 0xA0 SHL SUB AND CALLER SUB PUSH3 0x1A10 JUMPI JUMP JUMPDEST PUSH1 0x64 PUSH1 0x40 MLOAD PUSH3 0x461BCD PUSH1 0xE5 SHL DUP2 MSTORE PUSH1 0x20 PUSH1 0x4 DUP3 ADD MSTORE PUSH1 0x20 PUSH1 0x24 DUP3 ADD MSTORE PUSH32 0x4F776E61626C653A2063616C6C6572206973206E6F7420746865206F776E6572 PUSH1 0x44 DUP3 ADD MSTORE REVERT JUMPDEST DUP1 EXTCODESIZE ISZERO PUSH3 0x1A8B JUMPI PUSH1 0x0 DUP1 MLOAD PUSH1 0x20 PUSH3 0x354C DUP4 CODECOPY DUP2 MLOAD SWAP2 MSTORE DUP1 SLOAD PUSH1 0x1 PUSH1 0x1 PUSH1 0xA0 SHL SUB NOT AND PUSH1 0x1 PUSH1 0x1 PUSH1 0xA0 SHL SUB SWAP1 SWAP3 AND SWAP2 SWAP1 SWAP2 OR SWAP1 SSTORE JUMP JUMPDEST PUSH1 0x40 MLOAD PUSH3 0x461BCD PUSH1 0xE5 SHL DUP2 MSTORE PUSH1 0x20 PUSH1 0x4 DUP3 ADD MSTORE PUSH1 0x2D PUSH1 0x24 DUP3 ADD MSTORE PUSH32 0x455243313936373A206E657720696D706C656D656E746174696F6E206973206E PUSH1 0x44 DUP3 ADD MSTORE PUSH13 0x1BDD08184818DBDB9D1C9858DD PUSH1 0x9A SHL PUSH1 0x64 DUP3 ADD MSTORE PUSH1 0x84 SWAP1 REVERT JUMPDEST SWAP2 SWAP3 SWAP1 ISZERO PUSH3 0x1B4B JUMPI POP DUP2 MLOAD ISZERO PUSH3 0x1AFC JUMPI POP SWAP1 JUMP JUMPDEST EXTCODESIZE ISZERO PUSH3 0x1B06 JUMPI SWAP1 JUMP JUMPDEST PUSH1 0x40 MLOAD PUSH3 0x461BCD PUSH1 0xE5 SHL DUP2 MSTORE PUSH1 0x20 PUSH1 0x4 DUP3 ADD MSTORE PUSH1 0x1D PUSH1 0x24 DUP3 ADD MSTORE PUSH32 0x416464726573733A2063616C6C20746F206E6F6E2D636F6E7472616374000000 PUSH1 0x44 DUP3 ADD MSTORE PUSH1 0x64 SWAP1 REVERT JUMPDEST DUP3 MLOAD SWAP1 SWAP2 POP ISZERO PUSH3 0x1B5F JUMPI POP DUP1 MLOAD SWAP1 PUSH1 0x20 ADD REVERT JUMPDEST PUSH1 0x40 MLOAD PUSH3 0x461BCD PUSH1 0xE5 SHL DUP2 MSTORE SWAP1 DUP2 SWAP1 PUSH3 0x1B7D SWAP1 PUSH1 0x4 DUP4 ADD PUSH3 0x17D1 JUMP JUMPDEST SUB SWAP1 REVERT INVALID PUSH1 0x80 CALLVALUE PUSH3 0x40D JUMPI PUSH1 0x1F PUSH1 0x1F NOT PUSH1 0x1 PUSH1 0x1 PUSH1 0x40 SHL SUB PUSH3 0x19CA CODESIZE DUP2 SWAP1 SUB DUP5 DUP2 ADD DUP5 AND DUP7 ADD SWAP2 SWAP1 DUP4 DUP4 GT DUP8 DUP5 LT OR PUSH3 0x2CC JUMPI DUP1 DUP8 SWAP3 PUSH1 0x60 SWAP5 PUSH1 0x40 MSTORE DUP4 CODECOPY DUP2 ADD SUB SLT PUSH3 0x40D JUMPI PUSH3 0x50 DUP5 PUSH3 0x432 JUMP JUMPDEST SWAP2 PUSH1 0x20 SWAP2 PUSH1 0x40 PUSH3 0x63 DUP5 DUP9 ADD PUSH3 0x432 JUMP JUMPDEST SWAP7 ADD MLOAD SWAP5 DUP6 ISZERO ISZERO SWAP6 DUP7 DUP2 SUB PUSH3 0x40D JUMPI DUP1 ISZERO PUSH3 0x3E7 JUMPI PUSH3 0x84 PUSH3 0x412 JUMP JUMPDEST PUSH1 0xA DUP2 MSTORE PUSH10 0x59455320536861726573 PUSH1 0xB0 SHL DUP7 DUP3 ADD MSTORE SWAP1 JUMPDEST ISZERO PUSH3 0x3C8 JUMPI PUSH3 0xAC PUSH3 0x412 JUMP JUMPDEST PUSH1 0x3 DUP2 MSTORE PUSH3 0x594553 PUSH1 0xE8 SHL DUP7 DUP3 ADD MSTORE SWAP2 JUMPDEST DUP2 MLOAD SWAP3 DUP5 DUP5 GT PUSH3 0x2CC JUMPI PUSH1 0x3 SWAP4 DUP5 SLOAD PUSH1 0x1 SWAP5 DUP6 DUP3 DUP2 SHR SWAP3 AND DUP1 ISZERO PUSH3 0x3BD JUMPI JUMPDEST DUP11 DUP4 LT EQ PUSH3 0x3A7 JUMPI DUP2 DUP6 DUP5 SWAP4 GT PUSH3 0x351 JUMPI JUMPDEST POP DUP10 SWAP1 DUP6 DUP4 GT PUSH1 0x1 EQ PUSH3 0x2EE JUMPI PUSH1 0x0 SWAP3 PUSH3 0x2E2 JUMPI JUMPDEST POP POP PUSH1 0x0 NOT DUP3 DUP8 SHL SHR NOT AND SWAP1 DUP5 SHL OR DUP5 SSTORE JUMPDEST DUP1 MLOAD SWAP5 DUP6 GT PUSH3 0x2CC JUMPI PUSH1 0x4 SWAP7 DUP8 SLOAD DUP5 DUP2 DUP2 SHR SWAP2 AND DUP1 ISZERO PUSH3 0x2C1 JUMPI JUMPDEST DUP3 DUP3 LT EQ PUSH3 0x2AC JUMPI DUP4 DUP2 GT PUSH3 0x261 JUMPI JUMPDEST POP DUP1 SWAP3 DUP7 GT PUSH1 0x1 EQ PUSH3 0x1F5 JUMPI POP DUP5 SWAP6 POP SWAP1 DUP5 SWAP3 SWAP2 PUSH1 0x0 SWAP6 PUSH3 0x1E9 JUMPI JUMPDEST POP POP SHL SWAP3 PUSH1 0x0 NOT SWAP2 SHL SHR NOT AND OR SWAP1 SSTORE JUMPDEST PUSH1 0xFF NOT PUSH1 0x5 SLOAD AND PUSH1 0x5 SSTORE PUSH3 0x18D CALLER PUSH3 0x447 JUMP JUMPDEST PUSH3 0x198 CALLER PUSH3 0x447 JUMP JUMPDEST PUSH1 0x6 DUP1 SLOAD PUSH1 0x1 PUSH1 0x1 PUSH1 0xA0 SHL SUB NOT AND PUSH1 0x1 PUSH1 0x1 PUSH1 0xA0 SHL SUB SWAP3 DUP4 AND OR SWAP1 SSTORE PUSH1 0x7 DUP1 SLOAD PUSH1 0x1 PUSH1 0x1 PUSH1 0xA8 SHL SUB NOT AND SWAP4 SWAP1 SWAP2 AND SWAP3 SWAP1 SWAP3 OR PUSH1 0xA0 SWAP2 SWAP1 SWAP2 SHL PUSH1 0xFF PUSH1 0xA0 SHL AND OR SWAP1 SSTORE PUSH1 0x40 MLOAD PUSH2 0x1526 SWAP1 DUP2 PUSH3 0x4A4 DUP3 CODECOPY RETURN JUMPDEST ADD MLOAD SWAP4 POP CODESIZE DUP1 PUSH3 0x168 JUMP JUMPDEST SWAP4 SWAP3 SWAP6 DUP6 SWAP1 DUP2 AND DUP9 PUSH1 0x0 MSTORE DUP6 PUSH1 0x0 KECCAK256 SWAP6 PUSH1 0x0 SWAP1 JUMPDEST DUP10 DUP4 DUP4 LT PUSH3 0x246 JUMPI POP POP POP LT PUSH3 0x22B JUMPI JUMPDEST POP POP POP POP DUP2 SHL ADD SWAP1 SSTORE PUSH3 0x178 JUMP JUMPDEST ADD MLOAD SWAP1 PUSH1 0xF8 DUP5 PUSH1 0x0 NOT SWAP3 SHL AND SHR NOT AND SWAP1 SSTORE CODESIZE DUP1 DUP1 DUP1 PUSH3 0x21C JUMP JUMPDEST DUP6 DUP8 ADD MLOAD DUP10 SSTORE SWAP1 SWAP8 ADD SWAP7 SWAP5 DUP6 ADD SWAP5 DUP9 SWAP4 POP SWAP1 DUP2 ADD SWAP1 PUSH3 0x209 JUMP JUMPDEST DUP9 PUSH1 0x0 MSTORE DUP2 PUSH1 0x0 KECCAK256 DUP5 DUP1 DUP10 ADD PUSH1 0x5 SHR DUP3 ADD SWAP3 DUP5 DUP11 LT PUSH3 0x2A2 JUMPI JUMPDEST ADD PUSH1 0x5 SHR ADD SWAP1 DUP6 SWAP1 JUMPDEST DUP3 DUP2 LT PUSH3 0x295 JUMPI POP POP PUSH3 0x14A JUMP JUMPDEST PUSH1 0x0 DUP2 SSTORE ADD DUP6 SWAP1 PUSH3 0x285 JUMP JUMPDEST SWAP3 POP DUP2 SWAP3 PUSH3 0x27C JUMP JUMPDEST PUSH1 0x22 DUP10 PUSH4 0x4E487B71 PUSH1 0xE0 SHL PUSH1 0x0 MSTORE MSTORE PUSH1 0x24 PUSH1 0x0 REVERT JUMPDEST SWAP1 PUSH1 0x7F AND SWAP1 PUSH3 0x138 JUMP JUMPDEST PUSH4 0x4E487B71 PUSH1 0xE0 SHL PUSH1 0x0 MSTORE PUSH1 0x41 PUSH1 0x4 MSTORE PUSH1 0x24 PUSH1 0x0 REVERT JUMPDEST ADD MLOAD SWAP1 POP CODESIZE DUP1 PUSH3 0x109 JUMP JUMPDEST SWAP1 DUP10 DUP8 SWAP5 AND SWAP2 DUP9 PUSH1 0x0 MSTORE DUP12 PUSH1 0x0 KECCAK256 SWAP3 PUSH1 0x0 JUMPDEST DUP14 DUP3 DUP3 LT PUSH3 0x33A JUMPI POP POP DUP5 GT PUSH3 0x321 JUMPI JUMPDEST POP POP POP DUP2 SHL ADD DUP5 SSTORE PUSH3 0x11B JUMP JUMPDEST ADD MLOAD PUSH1 0x0 NOT DUP4 DUP10 SHL PUSH1 0xF8 AND SHR NOT AND SWAP1 SSTORE CODESIZE DUP1 DUP1 PUSH3 0x313 JUMP JUMPDEST DUP4 DUP6 ADD MLOAD DUP7 SSTORE DUP11 SWAP8 SWAP1 SWAP6 ADD SWAP5 SWAP4 DUP5 ADD SWAP4 ADD PUSH3 0x300 JUMP JUMPDEST SWAP1 SWAP2 POP DUP7 PUSH1 0x0 MSTORE DUP10 PUSH1 0x0 KECCAK256 DUP6 DUP1 DUP6 ADD PUSH1 0x5 SHR DUP3 ADD SWAP3 DUP13 DUP7 LT PUSH3 0x39D JUMPI JUMPDEST SWAP2 DUP9 SWAP2 DUP7 SWAP6 SWAP5 SWAP4 ADD PUSH1 0x5 SHR ADD SWAP2 JUMPDEST DUP3 DUP2 LT PUSH3 0x38D JUMPI POP POP PUSH3 0xF2 JUMP JUMPDEST PUSH1 0x0 DUP2 SSTORE DUP6 SWAP5 POP DUP9 SWAP2 ADD PUSH3 0x37D JUMP JUMPDEST SWAP3 POP DUP2 SWAP3 PUSH3 0x36F JUMP JUMPDEST PUSH4 0x4E487B71 PUSH1 0xE0 SHL PUSH1 0x0 MSTORE PUSH1 0x22 PUSH1 0x4 MSTORE PUSH1 0x24 PUSH1 0x0 REVERT JUMPDEST SWAP2 PUSH1 0x7F AND SWAP2 PUSH3 0xDE JUMP JUMPDEST PUSH3 0x3D2 PUSH3 0x412 JUMP JUMPDEST PUSH1 0x2 DUP2 MSTORE PUSH2 0x4E4F PUSH1 0xF0 SHL DUP7 DUP3 ADD MSTORE SWAP2 PUSH3 0xBD JUMP JUMPDEST PUSH3 0x3F1 PUSH3 0x412 JUMP JUMPDEST PUSH1 0x9 DUP2 MSTORE PUSH9 0x4E4F20536861726573 PUSH1 0xB8 SHL DUP7 DUP3 ADD MSTORE SWAP1 PUSH3 0x9C JUMP JUMPDEST PUSH1 0x0 DUP1 REVERT JUMPDEST PUSH1 0x40 DUP1 MLOAD SWAP2 SWAP1 DUP3 ADD PUSH1 0x1 PUSH1 0x1 PUSH1 0x40 SHL SUB DUP2 GT DUP4 DUP3 LT OR PUSH3 0x2CC JUMPI PUSH1 0x40 MSTORE JUMP JUMPDEST MLOAD SWAP1 PUSH1 0x1 PUSH1 0x1 PUSH1 0xA0 SHL SUB DUP3 AND DUP3 SUB PUSH3 0x40D JUMPI JUMP JUMPDEST PUSH1 0x5 DUP1 SLOAD PUSH2 0x100 PUSH1 0x1 PUSH1 0xA8 SHL SUB NOT DUP2 AND PUSH1 0x8 DUP5 DUP2 SHL PUSH2 0x100 PUSH1 0x1 PUSH1 0xA8 SHL SUB AND SWAP2 SWAP1 SWAP2 OR SWAP1 SWAP3 SSTORE PUSH1 0x1 PUSH1 0x1 PUSH1 0xA0 SHL SUB SWAP3 DUP4 AND SWAP3 SWAP2 SHR AND PUSH32 0x8BE0079C531659141344CD1FD0A4F28419497F9722A3DAAFE3B4186F6B6457E0 PUSH1 0x0 DUP1 LOG3 JUMP INVALID PUSH1 0x80 PUSH1 0x40 DUP2 DUP2 MSTORE PUSH1 0x4 DUP1 CALLDATASIZE LT ISZERO PUSH2 0x15 JUMPI PUSH1 0x0 DUP1 REVERT JUMPDEST PUSH1 0x0 SWAP3 DUP4 CALLDATALOAD PUSH1 0xE0 SHR SWAP1 DUP2 PUSH4 0x6FDDE03 EQ PUSH2 0xEE7 JUMPI POP DUP1 PUSH4 0x95EA7B3 EQ PUSH2 0xEBD JUMPI DUP1 PUSH4 0x18160DDD EQ PUSH2 0xE9E JUMPI DUP1 PUSH4 0x23B872DD EQ PUSH2 0xDD4 JUMPI DUP1 PUSH4 0x313CE567 EQ PUSH2 0xDB8 JUMPI DUP1 PUSH4 0x39509351 EQ PUSH2 0xD68 JUMPI DUP1 PUSH4 0x3E413BEE EQ PUSH2 0xD3F JUMPI DUP1 PUSH4 0x3F4BA83A EQ PUSH2 0xCAA JUMPI DUP1 PUSH4 0x4ECFDFAD EQ PUSH2 0xBDE JUMPI DUP1 PUSH4 0x51C6590A EQ PUSH2 0xAF0 JUMPI DUP1 PUSH4 0x58C7AA0F EQ PUSH2 0xAD1 JUMPI DUP1 PUSH4 0x5C975ABB EQ PUSH2 0xAAD JUMPI DUP1 PUSH4 0x6382D9AD EQ PUSH2 0x8CD JUMPI DUP1 PUSH4 0x70A08231 EQ PUSH2 0x896 JUMPI DUP1 PUSH4 0x715018A6 EQ PUSH2 0x835 JUMPI DUP1 PUSH4 0x80F55605 EQ PUSH2 0x80C JUMPI DUP1 PUSH4 0x8456CB59 EQ PUSH2 0x7B1 JUMPI DUP1 PUSH4 0x8DA5CB5B EQ PUSH2 0x784 JUMPI DUP1 PUSH4 0x95D89B41 EQ PUSH2 0x67E JUMPI DUP1 PUSH4 0x983BABB4 EQ PUSH2 0x657 JUMPI DUP1 PUSH4 0x98D5FDCA EQ PUSH2 0x633 JUMPI DUP1 PUSH4 0x9C8F9F23 EQ PUSH2 0x392 JUMPI DUP1 PUSH4 0xA457C2D7 EQ PUSH2 0x2EB JUMPI DUP1 PUSH4 0xA9059CBB EQ PUSH2 0x2BA JUMPI DUP1 PUSH4 0xC57981B5 EQ PUSH2 0x29E JUMPI DUP1 PUSH4 0xC87B502E EQ PUSH2 0x27F JUMPI DUP1 PUSH4 0xDD62ED3E EQ PUSH2 0x232 JUMPI PUSH4 0xF2FDE38B EQ PUSH2 0x157 JUMPI PUSH1 0x0 DUP1 REVERT JUMPDEST CALLVALUE PUSH2 0x22E JUMPI PUSH1 0x20 CALLDATASIZE PUSH1 0x3 NOT ADD SLT PUSH2 0x22E JUMPI PUSH2 0x170 PUSH2 0x1026 JUMP JUMPDEST PUSH2 0x178 PUSH2 0x13AE JUMP JUMPDEST PUSH1 0x1 PUSH1 0x1 PUSH1 0xA0 SHL SUB DUP2 DUP2 AND SWAP4 SWAP1 SWAP3 SWAP1 DUP5 ISZERO PUSH2 0x1DC JUMPI POP POP PUSH1 0x5 DUP1 SLOAD PUSH2 0x100 PUSH1 0x1 PUSH1 0xA8 SHL SUB NOT DUP2 AND PUSH1 0x8 SWAP4 DUP5 SHL PUSH2 0x100 PUSH1 0x1 PUSH1 0xA8 SHL SUB AND OR SWAP1 SWAP2 SSTORE SWAP1 SHR AND PUSH32 0x8BE0079C531659141344CD1FD0A4F28419497F9722A3DAAFE3B4186F6B6457E0 DUP4 DUP1 LOG3 DUP1 RETURN JUMPDEST SWAP1 PUSH1 0x20 PUSH1 0x84 SWAP3 MLOAD SWAP2 PUSH3 0x461BCD PUSH1 0xE5 SHL DUP4 MSTORE DUP3 ADD MSTORE PUSH1 0x26 PUSH1 0x24 DUP3 ADD MSTORE PUSH32 0x4F776E61626C653A206E6577206F776E657220697320746865207A65726F2061 PUSH1 0x44 DUP3 ADD MSTORE PUSH6 0x646472657373 PUSH1 0xD0 SHL PUSH1 0x64 DUP3 ADD MSTORE REVERT JUMPDEST DUP3 DUP1 REVERT JUMPDEST POP POP CALLVALUE PUSH2 0x27B JUMPI DUP1 PUSH1 0x3 NOT CALLDATASIZE ADD SLT PUSH2 0x27B JUMPI DUP1 PUSH1 0x20 SWAP3 PUSH2 0x250 PUSH2 0x1026 JUMP JUMPDEST PUSH2 0x258 PUSH2 0x1041 JUMP JUMPDEST PUSH1 0x1 PUSH1 0x1 PUSH1 0xA0 SHL SUB SWAP2 DUP3 AND DUP4 MSTORE PUSH1 0x1 DUP7 MSTORE DUP4 DUP4 KECCAK256 SWAP2 AND DUP3 MSTORE DUP5 MSTORE KECCAK256 SLOAD SWAP1 MLOAD SWAP1 DUP2 MSTORE RETURN JUMPDEST POP DUP1 REVERT JUMPDEST POP POP CALLVALUE PUSH2 0x27B JUMPI DUP2 PUSH1 0x3 NOT CALLDATASIZE ADD SLT PUSH2 0x27B JUMPI PUSH1 0x20 SWAP1 PUSH1 0x8 SLOAD SWAP1 MLOAD SWAP1 DUP2 MSTORE RETURN JUMPDEST POP POP CALLVALUE PUSH2 0x27B JUMPI DUP2 PUSH1 0x3 NOT CALLDATASIZE ADD SLT PUSH2 0x27B JUMPI PUSH1 0x20 SWAP1 MLOAD PUSH1 0x1E DUP2 MSTORE RETURN JUMPDEST POP POP CALLVALUE PUSH2 0x27B JUMPI DUP1 PUSH1 0x3 NOT CALLDATASIZE ADD SLT PUSH2 0x27B JUMPI PUSH1 0x20 SWAP1 PUSH2 0x2E4 PUSH2 0x2DA PUSH2 0x1026 JUMP JUMPDEST PUSH1 0x24 CALLDATALOAD SWAP1 CALLER PUSH2 0x1240 JUMP JUMPDEST MLOAD PUSH1 0x1 DUP2 MSTORE RETURN JUMPDEST POP DUP3 CALLVALUE PUSH2 0x38F JUMPI DUP3 PUSH1 0x3 NOT CALLDATASIZE ADD SLT PUSH2 0x38F JUMPI PUSH2 0x305 PUSH2 0x1026 JUMP JUMPDEST SWAP2 DUP4 PUSH1 0x24 CALLDATALOAD SWAP3 CALLER DUP2 MSTORE PUSH1 0x1 PUSH1 0x20 MSTORE DUP2 DUP2 KECCAK256 PUSH1 0x1 DUP1 PUSH1 0xA0 SHL SUB DUP7 AND DUP3 MSTORE PUSH1 0x20 MSTORE KECCAK256 SLOAD SWAP1 DUP3 DUP3 LT PUSH2 0x33E JUMPI PUSH1 0x20 DUP6 PUSH2 0x2E4 DUP6 DUP6 SUB DUP8 CALLER PUSH2 0x113E JUMP JUMPDEST PUSH1 0x84 SWAP1 PUSH1 0x20 DUP7 MLOAD SWAP2 PUSH3 0x461BCD PUSH1 0xE5 SHL DUP4 MSTORE DUP3 ADD MSTORE PUSH1 0x25 PUSH1 0x24 DUP3 ADD MSTORE PUSH32 0x45524332303A2064656372656173656420616C6C6F77616E63652062656C6F77 PUSH1 0x44 DUP3 ADD MSTORE PUSH5 0x207A65726F PUSH1 0xD8 SHL PUSH1 0x64 DUP3 ADD MSTORE REVERT JUMPDEST DUP1 REVERT JUMPDEST POP SWAP2 SWAP1 CALLVALUE PUSH2 0x27B JUMPI PUSH1 0x20 SWAP1 DUP2 PUSH1 0x3 NOT CALLDATASIZE ADD SLT PUSH2 0x22E JUMPI DUP4 CALLDATALOAD PUSH2 0x3B2 PUSH2 0x14AC JUMP JUMPDEST DUP1 ISZERO PUSH2 0x5FF JUMPI CALLER DUP5 MSTORE DUP4 DUP4 MSTORE DUP1 DUP3 DUP6 KECCAK256 SLOAD LT PUSH2 0x5C3 JUMPI PUSH2 0x3D4 PUSH1 0x8 SLOAD DUP3 PUSH2 0x10B2 JUMP JUMPDEST SWAP3 PUSH2 0x3F7 PUSH2 0x3E5 PUSH1 0x2 SLOAD DUP1 SWAP7 PUSH2 0x10C5 JUMP JUMPDEST SWAP5 PUSH2 0x3F2 PUSH1 0x9 SLOAD DUP6 PUSH2 0x10B2 JUMP JUMPDEST PUSH2 0x10C5 JUMP JUMPDEST SWAP2 CALLER ISZERO PUSH2 0x576 JUMPI CALLER DUP7 MSTORE DUP6 DUP3 MSTORE DUP4 DUP7 KECCAK256 SLOAD DUP2 DUP2 LT PUSH2 0x528 JUMPI DUP7 SWAP8 PUSH2 0x4AF SWAP8 DUP4 DUP6 SWAP5 DUP10 SWAP5 CALLER DUP5 MSTORE DUP4 DUP8 MSTORE SUB DUP9 DUP4 KECCAK256 SSTORE DUP1 PUSH1 0x2 SLOAD SUB PUSH1 0x2 SSTORE DUP8 MLOAD SWAP1 DUP2 MSTORE PUSH32 0xDDF252AD1BE2C89B69C2B068FC378DAA952BA7F163C4A11628F55A4DF523B3EF DUP6 CALLER SWAP3 LOG3 PUSH2 0x463 DUP3 PUSH1 0x8 SLOAD PUSH2 0x10E5 JUMP JUMPDEST PUSH1 0x8 SSTORE PUSH2 0x472 DUP6 PUSH1 0x9 SLOAD PUSH2 0x10E5 JUMP JUMPDEST PUSH1 0x9 SSTORE PUSH1 0x6 SLOAD DUP7 MLOAD PUSH4 0xA9059CBB PUSH1 0xE0 SHL DUP2 MSTORE CALLER SWAP3 DUP2 ADD SWAP3 DUP4 MSTORE PUSH1 0x20 DUP4 ADD SWAP4 SWAP1 SWAP4 MSTORE SWAP2 SWAP8 DUP9 SWAP3 PUSH1 0x1 PUSH1 0x1 PUSH1 0xA0 SHL SUB AND SWAP2 DUP4 SWAP2 DUP12 SWAP2 DUP4 SWAP2 PUSH1 0x40 SWAP1 SWAP2 ADD SWAP1 JUMP JUMPDEST SUB SWAP3 GAS CALL SWAP5 DUP6 ISZERO PUSH2 0x51E JUMPI PUSH32 0x96CD817C6329656790EF8FBA7675405193677D39619571282F5E21F3A98CD059 SWAP5 SWAP6 PUSH2 0x4F1 JUMPI JUMPDEST POP DUP3 MLOAD SWAP5 DUP6 MSTORE DUP5 ADD MSTORE CALLER SWAP3 LOG2 DUP1 RETURN JUMPDEST PUSH2 0x510 SWAP1 DUP3 RETURNDATASIZE DUP5 GT PUSH2 0x517 JUMPI JUMPDEST PUSH2 0x508 DUP2 DUP4 PUSH2 0x1057 JUMP JUMPDEST DUP2 ADD SWAP1 PUSH2 0x10F2 JUMP JUMPDEST POP CODESIZE PUSH2 0x4E2 JUMP JUMPDEST POP RETURNDATASIZE PUSH2 0x4FE JUMP JUMPDEST DUP4 MLOAD RETURNDATASIZE DUP9 DUP3 RETURNDATACOPY RETURNDATASIZE SWAP1 REVERT JUMPDEST DUP5 MLOAD PUSH3 0x461BCD PUSH1 0xE5 SHL DUP2 MSTORE DUP1 DUP10 ADD DUP5 SWAP1 MSTORE PUSH1 0x22 PUSH1 0x24 DUP3 ADD MSTORE PUSH32 0x45524332303A206275726E20616D6F756E7420657863656564732062616C616E PUSH1 0x44 DUP3 ADD MSTORE PUSH2 0x6365 PUSH1 0xF0 SHL PUSH1 0x64 DUP3 ADD MSTORE PUSH1 0x84 SWAP1 REVERT JUMPDEST DUP4 MLOAD PUSH3 0x461BCD PUSH1 0xE5 SHL DUP2 MSTORE DUP1 DUP9 ADD DUP4 SWAP1 MSTORE PUSH1 0x21 PUSH1 0x24 DUP3 ADD MSTORE PUSH32 0x45524332303A206275726E2066726F6D20746865207A65726F20616464726573 PUSH1 0x44 DUP3 ADD MSTORE PUSH1 0x73 PUSH1 0xF8 SHL PUSH1 0x64 DUP3 ADD MSTORE PUSH1 0x84 SWAP1 REVERT JUMPDEST DUP2 MLOAD PUSH3 0x461BCD PUSH1 0xE5 SHL DUP2 MSTORE DUP1 DUP7 ADD DUP5 SWAP1 MSTORE PUSH1 0x16 PUSH1 0x24 DUP3 ADD MSTORE PUSH22 0x496E73756666696369656E74204C5020746F6B656E73 PUSH1 0x50 SHL PUSH1 0x44 DUP3 ADD MSTORE PUSH1 0x64 SWAP1 REVERT JUMPDEST DUP2 MLOAD PUSH3 0x461BCD PUSH1 0xE5 SHL DUP2 MSTORE DUP1 DUP7 ADD DUP5 SWAP1 MSTORE PUSH1 0xE PUSH1 0x24 DUP3 ADD MSTORE PUSH14 0x125B9D985B1A5908185B5BDD5B9D PUSH1 0x92 SHL PUSH1 0x44 DUP3 ADD MSTORE PUSH1 0x64 SWAP1 REVERT JUMPDEST POP POP CALLVALUE PUSH2 0x27B JUMPI DUP2 PUSH1 0x3 NOT CALLDATASIZE ADD SLT PUSH2 0x27B JUMPI PUSH1 0x20 SWAP1 PUSH2 0x650 PUSH2 0x110A JUMP JUMPDEST SWAP1 MLOAD SWAP1 DUP2 MSTORE RETURN JUMPDEST POP POP CALLVALUE PUSH2 0x27B JUMPI DUP2 PUSH1 0x3 NOT CALLDATASIZE ADD SLT PUSH2 0x27B JUMPI PUSH1 0x20 SWAP1 PUSH1 0xFF PUSH1 0x7 SLOAD PUSH1 0xA0 SHR AND SWAP1 MLOAD SWAP1 ISZERO ISZERO DUP2 MSTORE RETURN JUMPDEST POP SWAP2 SWAP1 CALLVALUE PUSH2 0x27B JUMPI DUP2 PUSH1 0x3 NOT CALLDATASIZE ADD SLT PUSH2 0x27B JUMPI DUP1 MLOAD SWAP2 DUP1 SWAP4 DUP1 SLOAD SWAP2 PUSH1 0x1 SWAP1 DUP4 PUSH1 0x1 SHR SWAP3 PUSH1 0x1 DUP6 AND SWAP5 DUP6 ISZERO PUSH2 0x77A JUMPI JUMPDEST PUSH1 0x20 SWAP6 DUP7 DUP7 LT DUP2 EQ PUSH2 0x767 JUMPI DUP6 DUP10 MSTORE SWAP1 DUP2 ISZERO PUSH2 0x743 JUMPI POP PUSH1 0x1 EQ PUSH2 0x6EB JUMPI JUMPDEST PUSH2 0x6E7 DUP8 DUP8 PUSH2 0x6DD DUP3 DUP13 SUB DUP4 PUSH2 0x1057 JUMP JUMPDEST MLOAD SWAP2 DUP3 SWAP2 DUP3 PUSH2 0xFDD JUMP JUMPDEST SUB SWAP1 RETURN JUMPDEST DUP2 MSTORE SWAP3 SWAP6 POP PUSH32 0x8A35ACFBC15FF81A39AE7D344FD709F28E8600B4AA8C65C6B64BFE7FE36BD19B JUMPDEST DUP3 DUP5 LT PUSH2 0x730 JUMPI POP POP POP DUP3 PUSH2 0x6E7 SWAP5 PUSH2 0x6DD SWAP3 DUP3 ADD ADD SWAP5 CODESIZE DUP1 PUSH2 0x6CC JUMP JUMPDEST DUP1 SLOAD DUP7 DUP6 ADD DUP9 ADD MSTORE SWAP3 DUP7 ADD SWAP3 DUP2 ADD PUSH2 0x712 JUMP JUMPDEST PUSH1 0xFF NOT AND DUP9 DUP8 ADD MSTORE POP POP POP POP ISZERO ISZERO PUSH1 0x5 SHL DUP4 ADD ADD SWAP3 POP PUSH2 0x6DD DUP3 PUSH2 0x6E7 CODESIZE DUP1 PUSH2 0x6CC JUMP JUMPDEST PUSH4 0x4E487B71 PUSH1 0xE0 SHL DUP5 MSTORE PUSH1 0x22 DUP4 MSTORE PUSH1 0x24 DUP5 REVERT JUMPDEST SWAP4 PUSH1 0x7F AND SWAP4 PUSH2 0x6AD JUMP JUMPDEST POP POP CALLVALUE PUSH2 0x27B JUMPI DUP2 PUSH1 0x3 NOT CALLDATASIZE ADD SLT PUSH2 0x27B JUMPI PUSH1 0x5 SLOAD SWAP1 MLOAD PUSH1 0x8 SWAP2 SWAP1 SWAP2 SHR PUSH1 0x1 PUSH1 0x1 PUSH1 0xA0 SHL SUB AND DUP2 MSTORE PUSH1 0x20 SWAP1 RETURN JUMPDEST POP POP CALLVALUE PUSH2 0x27B JUMPI DUP2 PUSH1 0x3 NOT CALLDATASIZE ADD SLT PUSH2 0x27B JUMPI PUSH1 0x20 PUSH32 0x62E78CEA01BEE320CD4E420270B5EA74000D11B0C9F74754EBDBFC544B05A258 SWAP2 PUSH2 0x7EF PUSH2 0x13AE JUMP JUMPDEST PUSH2 0x7F7 PUSH2 0x14AC JUMP JUMPDEST PUSH1 0x1 PUSH1 0xFF NOT PUSH1 0x5 SLOAD AND OR PUSH1 0x5 SSTORE MLOAD CALLER DUP2 MSTORE LOG1 DUP1 RETURN JUMPDEST POP POP CALLVALUE PUSH2 0x27B JUMPI DUP2 PUSH1 0x3 NOT CALLDATASIZE ADD SLT PUSH2 0x27B JUMPI PUSH1 0x7 SLOAD SWAP1 MLOAD PUSH1 0x1 PUSH1 0x1 PUSH1 0xA0 SHL SUB SWAP1 SWAP2 AND DUP2 MSTORE PUSH1 0x20 SWAP1 RETURN JUMPDEST DUP4 CALLVALUE PUSH2 0x38F JUMPI DUP1 PUSH1 0x3 NOT CALLDATASIZE ADD SLT PUSH2 0x38F JUMPI PUSH2 0x84E PUSH2 0x13AE JUMP JUMPDEST PUSH1 0x5 DUP1 SLOAD PUSH2 0x100 PUSH1 0x1 PUSH1 0xA8 SHL SUB NOT DUP2 AND SWAP1 SWAP2 SSTORE DUP2 SWAP1 PUSH1 0x8 SHR PUSH1 0x1 PUSH1 0x1 PUSH1 0xA0 SHL SUB AND PUSH32 0x8BE0079C531659141344CD1FD0A4F28419497F9722A3DAAFE3B4186F6B6457E0 DUP3 DUP1 LOG3 DUP1 RETURN JUMPDEST POP POP CALLVALUE PUSH2 0x27B JUMPI PUSH1 0x20 CALLDATASIZE PUSH1 0x3 NOT ADD SLT PUSH2 0x27B JUMPI PUSH1 0x20 SWAP2 DUP2 SWAP1 PUSH1 0x1 PUSH1 0x1 PUSH1 0xA0 SHL SUB PUSH2 0x8BE PUSH2 0x1026 JUMP JUMPDEST AND DUP2 MSTORE DUP1 DUP5 MSTORE KECCAK256 SLOAD SWAP1 MLOAD SWAP1 DUP2 MSTORE RETURN JUMPDEST POP CALLVALUE PUSH2 0x22E JUMPI DUP2 PUSH1 0x3 NOT CALLDATASIZE ADD SLT PUSH2 0x22E JUMPI PUSH2 0x8E6 PUSH2 0x1026 JUMP JUMPDEST PUSH2 0x8EE PUSH2 0x1041 JUMP JUMPDEST SWAP2 PUSH2 0x8F7 PUSH2 0x13AE JUMP JUMPDEST PUSH1 0xFF PUSH1 0x5 SLOAD AND ISZERO PUSH2 0xA79 JUMPI DUP4 MLOAD PUSH4 0x70A08231 PUSH1 0xE0 SHL DUP2 MSTORE ADDRESS DUP2 DUP4 ADD MSTORE SWAP1 PUSH1 0x20 SWAP1 PUSH1 0x1 PUSH1 0x1 PUSH1 0xA0 SHL SUB DUP5 AND SWAP1 DUP3 DUP5 PUSH1 0x24 DUP2 DUP6 GAS STATICCALL SWAP4 DUP5 ISZERO PUSH2 0xA6F JUMPI DUP9 SWAP5 PUSH2 0xA3C JUMPI JUMPDEST POP DUP4 ISZERO PUSH2 0xA01 JUMPI DUP7 MLOAD PUSH4 0xA9059CBB PUSH1 0xE0 SHL DUP2 MSTORE PUSH1 0x1 PUSH1 0x1 PUSH1 0xA0 SHL SUB DUP8 AND SWAP2 DUP2 ADD SWAP2 DUP3 MSTORE PUSH1 0x20 DUP3 ADD DUP6 SWAP1 MSTORE SWAP2 DUP4 SWAP2 DUP4 SWAP2 SWAP1 DUP3 SWAP1 DUP12 SWAP1 DUP3 SWAP1 PUSH1 0x40 ADD SUB SWAP3 GAS CALL DUP1 ISZERO PUSH2 0x9F7 JUMPI SWAP2 PUSH32 0x457E4FE0C9F161A0C6F3BFB8D7809A4AC19F6291BD81B03B86B0D00F9AF3717B SWAP7 SWAP2 PUSH2 0x9D3 SWAP5 SWAP4 PUSH2 0x9D9 JUMPI JUMPDEST POP POP MLOAD PUSH1 0x1 PUSH1 0x1 PUSH1 0xA0 SHL SUB SWAP4 DUP5 AND DUP2 MSTORE SWAP4 SWAP1 SWAP3 AND PUSH1 0x20 DUP5 ADD MSTORE PUSH1 0x40 DUP4 ADD SWAP2 SWAP1 SWAP2 MSTORE DUP2 SWAP1 PUSH1 0x60 DUP3 ADD SWAP1 JUMP JUMPDEST SUB SWAP1 LOG1 DUP1 RETURN JUMPDEST DUP2 PUSH2 0x9EF SWAP3 SWAP1 RETURNDATASIZE LT PUSH2 0x517 JUMPI PUSH2 0x508 DUP2 DUP4 PUSH2 0x1057 JUMP JUMPDEST POP CODESIZE DUP1 PUSH2 0x9A9 JUMP JUMPDEST DUP7 MLOAD RETURNDATASIZE DUP10 DUP3 RETURNDATACOPY RETURNDATASIZE SWAP1 REVERT JUMPDEST DUP7 MLOAD PUSH3 0x461BCD PUSH1 0xE5 SHL DUP2 MSTORE SWAP1 DUP2 ADD DUP4 SWAP1 MSTORE PUSH1 0x15 PUSH1 0x24 DUP3 ADD MSTORE PUSH21 0x4E6F20746F6B656E7320746F207769746864726177 PUSH1 0x58 SHL PUSH1 0x44 DUP3 ADD MSTORE PUSH1 0x64 SWAP1 REVERT JUMPDEST SWAP1 SWAP4 POP DUP3 DUP2 DUP2 RETURNDATASIZE DUP4 GT PUSH2 0xA68 JUMPI JUMPDEST PUSH2 0xA54 DUP2 DUP4 PUSH2 0x1057 JUMP JUMPDEST DUP2 ADD SUB SLT PUSH2 0xA64 JUMPI MLOAD SWAP3 CODESIZE PUSH2 0x938 JUMP JUMPDEST DUP8 DUP1 REVERT JUMPDEST POP RETURNDATASIZE PUSH2 0xA4A JUMP JUMPDEST DUP8 MLOAD RETURNDATASIZE DUP11 DUP3 RETURNDATACOPY RETURNDATASIZE SWAP1 REVERT JUMPDEST PUSH1 0x64 SWAP1 PUSH1 0x20 DUP6 MLOAD SWAP2 PUSH3 0x461BCD PUSH1 0xE5 SHL DUP4 MSTORE DUP3 ADD MSTORE PUSH1 0xE PUSH1 0x24 DUP3 ADD MSTORE PUSH14 0x135D5CDD081899481C185D5CD959 PUSH1 0x92 SHL PUSH1 0x44 DUP3 ADD MSTORE REVERT JUMPDEST POP POP CALLVALUE PUSH2 0x27B JUMPI DUP2 PUSH1 0x3 NOT CALLDATASIZE ADD SLT PUSH2 0x27B JUMPI PUSH1 0x20 SWAP1 PUSH1 0xFF PUSH1 0x5 SLOAD AND SWAP1 MLOAD SWAP1 ISZERO ISZERO DUP2 MSTORE RETURN JUMPDEST POP POP CALLVALUE PUSH2 0x27B JUMPI DUP2 PUSH1 0x3 NOT CALLDATASIZE ADD SLT PUSH2 0x27B JUMPI PUSH1 0x20 SWAP1 PUSH1 0x9 SLOAD SWAP1 MLOAD SWAP1 DUP2 MSTORE RETURN JUMPDEST POP CALLVALUE PUSH2 0x22E JUMPI PUSH1 0x20 CALLDATASIZE PUSH1 0x3 NOT ADD SLT PUSH2 0x22E JUMPI PUSH2 0xB53 PUSH1 0x20 DUP3 CALLDATALOAD DUP1 SWAP4 PUSH2 0xB13 PUSH2 0x14AC JUMP JUMPDEST PUSH1 0x6 SLOAD DUP7 MLOAD PUSH4 0x23B872DD PUSH1 0xE0 SHL DUP2 MSTORE CALLER SWAP3 DUP2 ADD SWAP3 DUP4 MSTORE ADDRESS PUSH1 0x20 DUP5 ADD MSTORE PUSH1 0x40 DUP4 ADD SWAP4 SWAP1 SWAP4 MSTORE SWAP2 SWAP4 DUP5 SWAP3 PUSH1 0x1 PUSH1 0x1 PUSH1 0xA0 SHL SUB AND SWAP2 DUP4 SWAP2 DUP10 SWAP2 DUP4 SWAP2 PUSH1 0x60 SWAP1 SWAP2 ADD SWAP1 JUMP JUMPDEST SUB SWAP3 GAS CALL DUP1 ISZERO PUSH2 0xBD1 JUMPI PUSH2 0xB93 SWAP4 POP PUSH2 0xBB2 JUMPI JUMPDEST POP PUSH1 0x8 SLOAD DUP1 PUSH2 0xB99 JUMPI POP PUSH2 0xB88 DUP2 JUMPDEST PUSH2 0xB80 DUP4 CALLER PUSH2 0x1409 JUMP JUMPDEST PUSH1 0x8 SLOAD PUSH2 0x108F JUMP JUMPDEST PUSH1 0x8 SSTORE PUSH1 0x9 SLOAD PUSH2 0x108F JUMP JUMPDEST PUSH1 0x9 SSTORE DUP1 RETURN JUMPDEST PUSH2 0xBAC PUSH2 0xB88 SWAP2 PUSH2 0x3F2 PUSH1 0x9 SLOAD DUP6 PUSH2 0x10B2 JUMP JUMPDEST SWAP2 PUSH2 0xB76 JUMP JUMPDEST PUSH2 0xBCA SWAP1 PUSH1 0x20 RETURNDATASIZE PUSH1 0x20 GT PUSH2 0x517 JUMPI PUSH2 0x508 DUP2 DUP4 PUSH2 0x1057 JUMP JUMPDEST POP CODESIZE PUSH2 0xB67 JUMP JUMPDEST POP POP POP MLOAD SWAP1 RETURNDATASIZE SWAP1 DUP3 RETURNDATACOPY RETURNDATASIZE SWAP1 REVERT JUMPDEST POP SWAP2 SWAP1 CALLVALUE PUSH2 0x27B JUMPI DUP1 PUSH1 0x3 NOT CALLDATASIZE ADD SLT PUSH2 0x27B JUMPI DUP3 CALLDATALOAD PUSH2 0xBFB PUSH2 0x1041 JUMP JUMPDEST PUSH1 0x7 SLOAD SWAP1 SWAP3 SWAP1 PUSH1 0x1 PUSH1 0x1 PUSH1 0xA0 SHL SUB AND CALLER SUB PUSH2 0xC7A JUMPI POP PUSH1 0x1E DUP2 MUL DUP2 DUP2 DIV PUSH1 0x1E EQ DUP3 ISZERO OR ISZERO PUSH2 0xC67 JUMPI PUSH2 0xC39 PUSH2 0xB93 SWAP4 SWAP3 PUSH2 0x2710 PUSH2 0xB88 SWAP4 DIV SWAP1 PUSH2 0x10E5 JUMP JUMPDEST PUSH1 0x8 SLOAD DUP1 PUSH2 0xC4D JUMPI POP PUSH2 0xB80 DUP2 DUP1 SWAP5 PUSH2 0x1409 JUMP JUMPDEST PUSH2 0xC60 PUSH2 0xB80 SWAP2 PUSH2 0x3F2 PUSH1 0x9 SLOAD DUP6 PUSH2 0x10B2 JUMP JUMPDEST DUP1 SWAP5 PUSH2 0x1409 JUMP JUMPDEST PUSH4 0x4E487B71 PUSH1 0xE0 SHL DUP5 MSTORE PUSH1 0x11 DUP6 MSTORE PUSH1 0x24 DUP5 REVERT JUMPDEST MLOAD PUSH3 0x461BCD PUSH1 0xE5 SHL DUP2 MSTORE PUSH1 0x20 DUP2 DUP7 ADD MSTORE PUSH1 0xB PUSH1 0x24 DUP3 ADD MSTORE PUSH11 0x13DB9B1E481B585C9AD95D PUSH1 0xAA SHL PUSH1 0x44 DUP3 ADD MSTORE PUSH1 0x64 SWAP1 REVERT JUMPDEST POP CALLVALUE PUSH2 0x22E JUMPI DUP3 PUSH1 0x3 NOT CALLDATASIZE ADD SLT PUSH2 0x22E JUMPI PUSH2 0xCC3 PUSH2 0x13AE JUMP JUMPDEST PUSH1 0x5 SLOAD SWAP1 PUSH1 0xFF DUP3 AND ISZERO PUSH2 0xD05 JUMPI POP PUSH1 0xFF NOT AND PUSH1 0x5 SSTORE MLOAD CALLER DUP2 MSTORE PUSH32 0x5DB9EE0A495BF2E6FF9C91A7834C1BA4FDD244A5E8AA4E537BD38AEAE4B073AA SWAP1 PUSH1 0x20 SWAP1 LOG1 DUP1 RETURN JUMPDEST PUSH1 0x64 SWAP1 PUSH1 0x20 DUP5 MLOAD SWAP2 PUSH3 0x461BCD PUSH1 0xE5 SHL DUP4 MSTORE DUP3 ADD MSTORE PUSH1 0x14 PUSH1 0x24 DUP3 ADD MSTORE PUSH20 0x14185D5CD8589B194E881B9BDD081C185D5CD959 PUSH1 0x62 SHL PUSH1 0x44 DUP3 ADD MSTORE REVERT JUMPDEST POP POP CALLVALUE PUSH2 0x27B JUMPI DUP2 PUSH1 0x3 NOT CALLDATASIZE ADD SLT PUSH2 0x27B JUMPI PUSH1 0x6 SLOAD SWAP1 MLOAD PUSH1 0x1 PUSH1 0x1 PUSH1 0xA0 SHL SUB SWAP1 SWAP2 AND DUP2 MSTORE PUSH1 0x20 SWAP1 RETURN JUMPDEST POP POP CALLVALUE PUSH2 0x27B JUMPI DUP1 PUSH1 0x3 NOT CALLDATASIZE ADD SLT PUSH2 0x27B JUMPI PUSH2 0x2E4 PUSH1 0x20 SWAP3 PUSH2 0xDB1 PUSH2 0xD8B PUSH2 0x1026 JUMP JUMPDEST CALLER DUP4 MSTORE PUSH1 0x1 DUP7 MSTORE DUP5 DUP4 KECCAK256 PUSH1 0x1 PUSH1 0x1 PUSH1 0xA0 SHL SUB DUP3 AND DUP5 MSTORE DUP7 MSTORE SWAP2 DUP5 SWAP1 KECCAK256 SLOAD PUSH1 0x24 CALLDATALOAD SWAP1 PUSH2 0x108F JUMP JUMPDEST SWAP1 CALLER PUSH2 0x113E JUMP JUMPDEST POP POP CALLVALUE PUSH2 0x27B JUMPI DUP2 PUSH1 0x3 NOT CALLDATASIZE ADD SLT PUSH2 0x27B JUMPI PUSH1 0x20 SWAP1 MLOAD PUSH1 0x12 DUP2 MSTORE RETURN JUMPDEST POP DUP3 SWAP1 CALLVALUE PUSH2 0x27B JUMPI PUSH1 0x60 CALLDATASIZE PUSH1 0x3 NOT ADD SLT PUSH2 0x27B JUMPI PUSH2 0xDF0 PUSH2 0x1026 JUMP JUMPDEST PUSH2 0xDF8 PUSH2 0x1041 JUMP JUMPDEST SWAP2 DUP5 PUSH1 0x44 CALLDATALOAD SWAP5 PUSH1 0x1 DUP1 PUSH1 0xA0 SHL SUB DUP5 AND DUP2 MSTORE PUSH1 0x1 PUSH1 0x20 MSTORE DUP2 DUP2 KECCAK256 CALLER DUP3 MSTORE PUSH1 0x20 MSTORE KECCAK256 SLOAD SWAP1 PUSH1 0x0 NOT DUP3 SUB PUSH2 0xE32 JUMPI JUMPDEST PUSH1 0x20 DUP7 PUSH2 0x2E4 DUP8 DUP8 DUP8 PUSH2 0x1240 JUMP JUMPDEST DUP5 DUP3 LT PUSH2 0xE5B JUMPI POP SWAP2 DUP4 SWAP2 PUSH2 0xE50 PUSH1 0x20 SWAP7 SWAP6 PUSH2 0x2E4 SWAP6 SUB CALLER DUP4 PUSH2 0x113E JUMP JUMPDEST SWAP2 SWAP4 SWAP5 DUP2 SWAP4 POP PUSH2 0xE24 JUMP JUMPDEST PUSH1 0x64 SWAP1 PUSH1 0x20 DUP8 MLOAD SWAP2 PUSH3 0x461BCD PUSH1 0xE5 SHL DUP4 MSTORE DUP3 ADD MSTORE PUSH1 0x1D PUSH1 0x24 DUP3 ADD MSTORE PUSH32 0x45524332303A20696E73756666696369656E7420616C6C6F77616E6365000000 PUSH1 0x44 DUP3 ADD MSTORE REVERT JUMPDEST POP POP CALLVALUE PUSH2 0x27B JUMPI DUP2 PUSH1 0x3 NOT CALLDATASIZE ADD SLT PUSH2 0x27B JUMPI PUSH1 0x20 SWAP1 PUSH1 0x2 SLOAD SWAP1 MLOAD SWAP1 DUP2 MSTORE RETURN JUMPDEST POP POP CALLVALUE PUSH2 0x27B JUMPI DUP1 PUSH1 0x3 NOT CALLDATASIZE ADD SLT PUSH2 0x27B JUMPI PUSH1 0x20 SWAP1 PUSH2 0x2E4 PUSH2 0xEDD PUSH2 0x1026 JUMP JUMPDEST PUSH1 0x24 CALLDATALOAD SWAP1 CALLER PUSH2 0x113E JUMP JUMPDEST SWAP3 SWAP2 SWAP1 POP CALLVALUE PUSH2 0xFD9 JUMPI DUP4 PUSH1 0x3 NOT CALLDATASIZE ADD SLT PUSH2 0xFD9 JUMPI PUSH1 0x3 SLOAD PUSH1 0x1 DUP2 DUP2 SHR SWAP2 DUP7 SWAP1 DUP3 DUP2 AND DUP1 ISZERO PUSH2 0xFCF JUMPI JUMPDEST PUSH1 0x20 SWAP6 DUP7 DUP7 LT DUP3 EQ PUSH2 0xFBC JUMPI POP DUP5 DUP9 MSTORE SWAP1 DUP2 ISZERO PUSH2 0xF9A JUMPI POP PUSH1 0x1 EQ PUSH2 0xF41 JUMPI JUMPDEST PUSH2 0x6E7 DUP7 DUP7 PUSH2 0x6DD DUP3 DUP12 SUB DUP4 PUSH2 0x1057 JUMP JUMPDEST SWAP3 SWAP6 POP PUSH1 0x3 DUP4 MSTORE PUSH32 0xC2575A0E9E593C00F959F8C92F12DB2869C3395A3B0502D05E2516446F71F85B JUMPDEST DUP3 DUP5 LT PUSH2 0xF87 JUMPI POP POP POP DUP3 PUSH2 0x6E7 SWAP5 PUSH2 0x6DD SWAP3 DUP3 ADD ADD SWAP5 CODESIZE PUSH2 0xF30 JUMP JUMPDEST DUP1 SLOAD DUP7 DUP6 ADD DUP9 ADD MSTORE SWAP3 DUP7 ADD SWAP3 DUP2 ADD PUSH2 0xF6A JUMP JUMPDEST PUSH1 0xFF NOT AND DUP8 DUP7 ADD MSTORE POP POP POP ISZERO ISZERO PUSH1 0x5 SHL DUP4 ADD ADD SWAP3 POP PUSH2 0x6DD DUP3 PUSH2 0x6E7 CODESIZE PUSH2 0xF30 JUMP JUMPDEST PUSH4 0x4E487B71 PUSH1 0xE0 SHL DUP5 MSTORE PUSH1 0x22 SWAP1 MSTORE PUSH1 0x24 DUP4 REVERT JUMPDEST SWAP4 PUSH1 0x7F AND SWAP4 PUSH2 0xF10 JUMP JUMPDEST DUP4 DUP1 REVERT JUMPDEST PUSH1 0x20 DUP1 DUP3 MSTORE DUP3 MLOAD DUP2 DUP4 ADD DUP2 SWAP1 MSTORE SWAP1 SWAP4 SWAP3 PUSH1 0x0 JUMPDEST DUP3 DUP2 LT PUSH2 0x1012 JUMPI POP POP PUSH1 0x40 SWAP3 SWAP4 POP PUSH1 0x0 DUP4 DUP3 DUP5 ADD ADD MSTORE PUSH1 0x1F DUP1 NOT SWAP2 ADD AND ADD ADD SWAP1 JUMP JUMPDEST DUP2 DUP2 ADD DUP7 ADD MLOAD DUP5 DUP3 ADD PUSH1 0x40 ADD MSTORE DUP6 ADD PUSH2 0xFF0 JUMP JUMPDEST PUSH1 0x4 CALLDATALOAD SWAP1 PUSH1 0x1 PUSH1 0x1 PUSH1 0xA0 SHL SUB DUP3 AND DUP3 SUB PUSH2 0x103C JUMPI JUMP JUMPDEST PUSH1 0x0 DUP1 REVERT JUMPDEST PUSH1 0x24 CALLDATALOAD SWAP1 PUSH1 0x1 PUSH1 0x1 PUSH1 0xA0 SHL SUB DUP3 AND DUP3 SUB PUSH2 0x103C JUMPI JUMP JUMPDEST SWAP1 PUSH1 0x1F DUP1 NOT SWAP2 ADD AND DUP2 ADD SWAP1 DUP2 LT PUSH8 0xFFFFFFFFFFFFFFFF DUP3 GT OR PUSH2 0x1079 JUMPI PUSH1 0x40 MSTORE JUMP JUMPDEST PUSH4 0x4E487B71 PUSH1 0xE0 SHL PUSH1 0x0 MSTORE PUSH1 0x41 PUSH1 0x4 MSTORE PUSH1 0x24 PUSH1 0x0 REVERT JUMPDEST SWAP2 SWAP1 DUP3 ADD DUP1 SWAP3 GT PUSH2 0x109C JUMPI JUMP JUMPDEST PUSH4 0x4E487B71 PUSH1 0xE0 SHL PUSH1 0x0 MSTORE PUSH1 0x11 PUSH1 0x4 MSTORE PUSH1 0x24 PUSH1 0x0 REVERT JUMPDEST DUP2 DUP2 MUL SWAP3 SWAP2 DUP2 ISZERO SWAP2 DUP5 DIV EQ OR ISZERO PUSH2 0x109C JUMPI JUMP JUMPDEST DUP2 ISZERO PUSH2 0x10CF JUMPI DIV SWAP1 JUMP JUMPDEST PUSH4 0x4E487B71 PUSH1 0xE0 SHL PUSH1 0x0 MSTORE PUSH1 0x12 PUSH1 0x4 MSTORE PUSH1 0x24 PUSH1 0x0 REVERT JUMPDEST SWAP2 SWAP1 DUP3 SUB SWAP2 DUP3 GT PUSH2 0x109C JUMPI JUMP JUMPDEST SWAP1 DUP2 PUSH1 0x20 SWAP2 SUB SLT PUSH2 0x103C JUMPI MLOAD DUP1 ISZERO ISZERO DUP2 SUB PUSH2 0x103C JUMPI SWAP1 JUMP JUMPDEST PUSH1 0x8 SLOAD DUP1 ISZERO PUSH2 0x1138 JUMPI PUSH1 0x9 SLOAD SWAP1 PUSH8 0xDE0B6B3A7640000 SWAP2 DUP1 DUP4 MUL SWAP3 DUP4 DIV SUB PUSH2 0x109C JUMPI PUSH2 0x1135 SWAP2 PUSH2 0x10C5 JUMP JUMPDEST SWAP1 JUMP JUMPDEST POP PUSH1 0x0 SWAP1 JUMP JUMPDEST PUSH1 0x1 PUSH1 0x1 PUSH1 0xA0 SHL SUB SWAP1 DUP2 AND SWAP2 DUP3 ISZERO PUSH2 0x11EF JUMPI AND SWAP2 DUP3 ISZERO PUSH2 0x119F JUMPI PUSH1 0x20 PUSH32 0x8C5BE1E5EBEC7D5BD14F71427D1E84F3DD0314C0F7B2291E5B200AC8C7C3B925 SWAP2 DUP4 PUSH1 0x0 MSTORE PUSH1 0x1 DUP3 MSTORE PUSH1 0x40 PUSH1 0x0 KECCAK256 DUP6 PUSH1 0x0 MSTORE DUP3 MSTORE DUP1 PUSH1 0x40 PUSH1 0x0 KECCAK256 SSTORE PUSH1 0x40 MLOAD SWAP1 DUP2 MSTORE LOG3 JUMP JUMPDEST PUSH1 0x40 MLOAD PUSH3 0x461BCD PUSH1 0xE5 SHL DUP2 MSTORE PUSH1 0x20 PUSH1 0x4 DUP3 ADD MSTORE PUSH1 0x22 PUSH1 0x24 DUP3 ADD MSTORE PUSH32 0x45524332303A20617070726F766520746F20746865207A65726F206164647265 PUSH1 0x44 DUP3 ADD MSTORE PUSH2 0x7373 PUSH1 0xF0 SHL PUSH1 0x64 DUP3 ADD MSTORE PUSH1 0x84 SWAP1 REVERT JUMPDEST PUSH1 0x40 MLOAD PUSH3 0x461BCD PUSH1 0xE5 SHL DUP2 MSTORE PUSH1 0x20 PUSH1 0x4 DUP3 ADD MSTORE PUSH1 0x24 DUP1 DUP3 ADD MSTORE PUSH32 0x45524332303A20617070726F76652066726F6D20746865207A65726F20616464 PUSH1 0x44 DUP3 ADD MSTORE PUSH4 0x72657373 PUSH1 0xE0 SHL PUSH1 0x64 DUP3 ADD MSTORE PUSH1 0x84 SWAP1 REVERT JUMPDEST PUSH1 0x1 PUSH1 0x1 PUSH1 0xA0 SHL SUB SWAP1 DUP2 AND SWAP2 DUP3 ISZERO PUSH2 0x135B JUMPI AND SWAP2 DUP3 ISZERO PUSH2 0x130A JUMPI PUSH1 0x0 DUP3 DUP2 MSTORE DUP1 PUSH1 0x20 MSTORE PUSH1 0x40 DUP2 KECCAK256 SLOAD SWAP2 DUP1 DUP4 LT PUSH2 0x12B6 JUMPI PUSH1 0x40 DUP3 DUP3 PUSH32 0xDDF252AD1BE2C89B69C2B068FC378DAA952BA7F163C4A11628F55A4DF523B3EF SWAP6 DUP8 PUSH1 0x20 SWAP7 MSTORE DUP3 DUP7 MSTORE SUB DUP3 DUP3 KECCAK256 SSTORE DUP7 DUP2 MSTORE KECCAK256 DUP2 DUP2 SLOAD ADD SWAP1 SSTORE PUSH1 0x40 MLOAD SWAP1 DUP2 MSTORE LOG3 JUMP JUMPDEST PUSH1 0x40 MLOAD PUSH3 0x461BCD PUSH1 0xE5 SHL DUP2 MSTORE PUSH1 0x20 PUSH1 0x4 DUP3 ADD MSTORE PUSH1 0x26 PUSH1 0x24 DUP3 ADD MSTORE PUSH32 0x45524332303A207472616E7366657220616D6F756E7420657863656564732062 PUSH1 0x44 DUP3 ADD MSTORE PUSH6 0x616C616E6365 PUSH1 0xD0 SHL PUSH1 0x64 DUP3 ADD MSTORE PUSH1 0x84 SWAP1 REVERT JUMPDEST PUSH1 0x40 MLOAD PUSH3 0x461BCD PUSH1 0xE5 SHL DUP2 MSTORE PUSH1 0x20 PUSH1 0x4 DUP3 ADD MSTORE PUSH1 0x23 PUSH1 0x24 DUP3 ADD MSTORE PUSH32 0x45524332303A207472616E7366657220746F20746865207A65726F2061646472 PUSH1 0x44 DUP3 ADD MSTORE PUSH3 0x657373 PUSH1 0xE8 SHL PUSH1 0x64 DUP3 ADD MSTORE PUSH1 0x84 SWAP1 REVERT JUMPDEST PUSH1 0x40 MLOAD PUSH3 0x461BCD PUSH1 0xE5 SHL DUP2 MSTORE PUSH1 0x20 PUSH1 0x4 DUP3 ADD MSTORE PUSH1 0x25 PUSH1 0x24 DUP3 ADD MSTORE PUSH32 0x45524332303A207472616E736665722066726F6D20746865207A65726F206164 PUSH1 0x44 DUP3 ADD MSTORE PUSH5 0x6472657373 PUSH1 0xD8 SHL PUSH1 0x64 DUP3 ADD MSTORE PUSH1 0x84 SWAP1 REVERT JUMPDEST PUSH1 0x5 SLOAD PUSH1 0x8 SHR PUSH1 0x1 PUSH1 0x1 PUSH1 0xA0 SHL SUB AND CALLER SUB PUSH2 0x13C5 JUMPI JUMP JUMPDEST PUSH1 0x64 PUSH1 0x40 MLOAD PUSH3 0x461BCD PUSH1 0xE5 SHL DUP2 MSTORE PUSH1 0x20 PUSH1 0x4 DUP3 ADD MSTORE PUSH1 0x20 PUSH1 0x24 DUP3 ADD MSTORE PUSH32 0x4F776E61626C653A2063616C6C6572206973206E6F7420746865206F776E6572 PUSH1 0x44 DUP3 ADD MSTORE REVERT JUMPDEST PUSH1 0x1 PUSH1 0x1 PUSH1 0xA0 SHL SUB AND SWAP1 DUP2 ISZERO PUSH2 0x1467 JUMPI PUSH32 0xDDF252AD1BE2C89B69C2B068FC378DAA952BA7F163C4A11628F55A4DF523B3EF PUSH1 0x20 DUP3 PUSH2 0x144B PUSH1 0x0 SWAP5 PUSH1 0x2 SLOAD PUSH2 0x108F JUMP JUMPDEST PUSH1 0x2 SSTORE DUP5 DUP5 MSTORE DUP4 DUP3 MSTORE PUSH1 0x40 DUP5 KECCAK256 DUP2 DUP2 SLOAD ADD SWAP1 SSTORE PUSH1 0x40 MLOAD SWAP1 DUP2 MSTORE LOG3 JUMP JUMPDEST PUSH1 0x40 MLOAD PUSH3 0x461BCD PUSH1 0xE5 SHL DUP2 MSTORE PUSH1 0x20 PUSH1 0x4 DUP3 ADD MSTORE PUSH1 0x1F PUSH1 0x24 DUP3 ADD MSTORE PUSH32 0x45524332303A206D696E7420746F20746865207A65726F206164647265737300 PUSH1 0x44 DUP3 ADD MSTORE PUSH1 0x64 SWAP1 REVERT JUMPDEST PUSH1 0xFF PUSH1 0x5 SLOAD AND PUSH2 0x14B8 JUMPI JUMP JUMPDEST PUSH1 0x40 MLOAD PUSH3 0x461BCD PUSH1 0xE5 SHL DUP2 MSTORE PUSH1 0x20 PUSH1 0x4 DUP3 ADD MSTORE PUSH1 0x10 PUSH1 0x24 DUP3 ADD MSTORE PUSH16 0x14185D5CD8589B194E881C185D5CD959 PUSH1 0x82 SHL PUSH1 0x44 DUP3 ADD MSTORE PUSH1 0x64 SWAP1 REVERT INVALID LOG2 PUSH5 0x6970667358 0x22 SLT KECCAK256 DUP11 EXTCODECOPY DUP5 0xFB STOP 0xDF PUSH7 0xBA23880BB73081 0x2A COINBASE LOG1 DUP9 PUSH15 0x2C63CB4EC2632B61B774DDEEAB6473 PUSH16 0x6C63430008180033360894A13BA1A321 MOD PUSH8 0xC828492DB98DCA3E KECCAK256 PUSH23 0xCC3735A920A3CA505D382BBCA264697066735822122054 CALL 0xDD 0xE9 PUSH8 0x81197381E9E5DF20 XOR PUSH14 0x539357201B830311FB203567211 0xBD SWAP15 CREATE2 PUSH5 0x736F6C6343 STOP ADDMOD XOR STOP CALLER CALLDATASIZE ADDMOD SWAP5 LOG1 EXTCODESIZE LOG1 LOG3 0x21 MOD PUSH8 0xC828492DB98DCA3E KECCAK256 PUSH23 0xCC3735A920A3CA505D382BBCA264697066735822122004 0xB5 MLOAD 0xB4 0xE3 0xB3 0x27 PUSH11 0xF4744384B02AF3F37EB618 0xDD GT CREATE SWAP4 PUSH29 0xDB4AB607B22495C864736F6C6343000818003300000000000000000000 "},"methodIdentifiers":{"createMarket(string,uint256)":"883c84c1","initialize(address)":"c4d66de8","marketImplementation()":"39cfc386","markets(uint256)":"b1283e77","owner()":"8da5cb5b","proxiableUUID()":"52d1902d","renounceOwnership()":"715018a6","transferOwnership(address)":"f2fde38b","upgradeTo(address)":"3659cfe6","upgradeToAndCall(address,bytes)":"4f1ef286"}}}}}