{"contracts/AdminResolver.sol":{"AdminResolver":{"abi":[{"anonymous":false,"inputs":[{"indexed":false,"internalType":"uint256","name":"proposalId","type":"uint256"},{"indexed":false,"internalType":"address","name":"winner","type":"address"},{"indexed":false,"internalType":"address","name":"loser","type":"address"},{"indexed":false,"internalType":"uint256","name":"amount","type":"uint256"}],"name":"BondsDistributed","type":"event"},{"anonymous":false,"inputs":[{"indexed":true,"internalType":"address","name":"previousOwner","type":"address"},{"indexed":true,"internalType":"address","name":"newOwner","type":"address"}],"name":"OwnershipTransferred","type":"event"},{"inputs":[],"name":"owner","outputs":[{"internalType":"address","name":"","type":"address"}],"stateMutability":"view","type":"function"},{"inputs":[],"name":"renounceOwnership","outputs":[],"stateMutability":"nonpayable","type":"function"},{"inputs":[{"internalType":"uint256","name":"proposalId","type":"uint256"},{"internalType":"uint8","name":"finalOutcome","type":"uint8"},{"internalType":"address","name":"resolutionModule","type":"address"}],"name":"resolveDispute","outputs":[],"stateMutability":"nonpayable","type":"function"},{"inputs":[{"internalType":"address","name":"newOwner","type":"address"}],"name":"transferOwnership","outputs":[],"stateMutability":"nonpayable","type":"function"}],"evm":{"bytecode":{"linkReferences":{},"object":"6080806040523461005b5760008054336001600160a01b0319821681178355916001600160a01b03909116907f8be0079c531659141344cd1fd0a4f28419497f9722a3daafe3b4186f6b6457e09080a36105cb90816100618239f35b600080fdfe60406080815260048036101561001457600080fd5b600091823560e01c8063715018a6146104875780638da5cb5b1461045f578063a8aa57eb146101235763f2fde38b1461004c57600080fd5b3461011f57602036600319011261011f576001600160a01b0382358181169391929084900361011a5761007d61053d565b83156100c8575050600054826bffffffffffffffffffffffff60a01b821617600055167f8be0079c531659141344cd1fd0a4f28419497f9722a3daafe3b4186f6b6457e0600080a380f35b906020608492519162461bcd60e51b8352820152602660248201527f4f776e61626c653a206e6577206f776e657220697320746865207a65726f206160448201526564647265737360d01b6064820152fd5b600080fd5b8280fd5b503461011f57606036600319011261011f57828235916024803560ff811680910361045b576001600160a01b03604435818116979193908890036104575761016961053d565b845163013cf08b60e01b815282810188905260e08183818c5afa93841561044d5787889089968a948b916103d4575b50156103a357878d9116803b1561039f578190868b5180948193631b75218f60e11b8352888c8401525af1801561039557610367575b5060ff16149384156103605780945b156103585750925b85518099631f209df760e11b8252818560209c8d935afa90811561034e578b91610315575b508760011b97808904600214901517156103035760448a928c8880948c8c51988997889663a9059cbb60e01b885216809b870152850152165af180156102f957610290575b50908392917f733a19d1ca389f4706a15f67e1f85d1989aec8fa9cf01e91a76fb0fff1f0741f9760809796955196875286015216908301526060820152a180f35b9594939291908787813d83116102f2575b6102ab81836104e4565b810103126102ee577f733a19d1ca389f4706a15f67e1f85d1989aec8fa9cf01e91a76fb0fff1f0741f976102e0608098610530565b50975090919293949561024f565b8880fd5b503d6102a1565b85513d8b823e3d90fd5b634e487b7160e01b8b5260118452828bfd5b90508981813d8311610347575b61032c81836104e4565b810103126103435761033d9061051c565b3861020a565b8a80fd5b503d610322565b87513d8d823e3d90fd5b9050926101e5565b81946101dd565b67ffffffffffffffff819d929d116103835788529a60ff6101ce565b634e487b7160e01b8252604186528482fd5b89513d8f823e3d90fd5b5080fd5b885162461bcd60e51b8152602081880152600c818701526b139bdd08191a5cdc1d5d195960a21b6044820152606490fd5b9a5050505093505060e0863d60e011610445575b816103f560e093836104e4565b810103126102ee5785519560208101519360ff851685036103435761041b87830161051c565b6104276060840161051c565b9561043960c060808601519501610530565b99909196939938610198565b3d91506103e8565b86513d89823e3d90fd5b8580fd5b8380fd5b83823461039f578160031936011261039f57905490516001600160a01b039091168152602090f35b83346104e157806003193601126104e1576104a061053d565b80546001600160a01b03198116825581906001600160a01b03167f8be0079c531659141344cd1fd0a4f28419497f9722a3daafe3b4186f6b6457e08280a380f35b80fd5b90601f8019910116810190811067ffffffffffffffff82111761050657604052565b634e487b7160e01b600052604160045260246000fd5b51906001600160a01b038216820361011a57565b5190811515820361011a57565b6000546001600160a01b0316330361055157565b606460405162461bcd60e51b815260206004820152602060248201527f4f776e61626c653a2063616c6c6572206973206e6f7420746865206f776e65726044820152fdfea264697066735822122026da6760674c774aea76104431a41b6949180c4ec8d7d5dc1e00f8e5fafbc1ae64736f6c63430008180033","opcodes":"PUSH1 0x80 DUP1 PUSH1 0x40 MSTORE CALLVALUE PUSH2 0x5B JUMPI PUSH1 0x0 DUP1 SLOAD CALLER PUSH1 0x1 PUSH1 0x1 PUSH1 0xA0 SHL SUB NOT DUP3 AND DUP2 OR DUP4 SSTORE SWAP2 PUSH1 0x1 PUSH1 0x1 PUSH1 0xA0 SHL SUB SWAP1 SWAP2 AND SWAP1 PUSH32 0x8BE0079C531659141344CD1FD0A4F28419497F9722A3DAAFE3B4186F6B6457E0 SWAP1 DUP1 LOG3 PUSH2 0x5CB SWAP1 DUP2 PUSH2 0x61 DUP3 CODECOPY RETURN JUMPDEST PUSH1 0x0 DUP1 REVERT INVALID PUSH1 0x40 PUSH1 0x80 DUP2 MSTORE PUSH1 0x4 DUP1 CALLDATASIZE LT ISZERO PUSH2 0x14 JUMPI PUSH1 0x0 DUP1 REVERT JUMPDEST PUSH1 0x0 SWAP2 DUP3 CALLDATALOAD PUSH1 0xE0 SHR DUP1 PUSH4 0x715018A6 EQ PUSH2 0x487 JUMPI DUP1 PUSH4 0x8DA5CB5B EQ PUSH2 0x45F JUMPI DUP1 PUSH4 0xA8AA57EB EQ PUSH2 0x123 JUMPI PUSH4 0xF2FDE38B EQ PUSH2 0x4C JUMPI PUSH1 0x0 DUP1 REVERT JUMPDEST CALLVALUE PUSH2 0x11F JUMPI PUSH1 0x20 CALLDATASIZE PUSH1 0x3 NOT ADD SLT PUSH2 0x11F JUMPI PUSH1 0x1 PUSH1 0x1 PUSH1 0xA0 SHL SUB DUP3 CALLDATALOAD DUP2 DUP2 AND SWAP4 SWAP2 SWAP3 SWAP1 DUP5 SWAP1 SUB PUSH2 0x11A JUMPI PUSH2 0x7D PUSH2 0x53D JUMP JUMPDEST DUP4 ISZERO PUSH2 0xC8 JUMPI POP POP PUSH1 0x0 SLOAD DUP3 PUSH12 0xFFFFFFFFFFFFFFFFFFFFFFFF PUSH1 0xA0 SHL DUP3 AND OR PUSH1 0x0 SSTORE AND PUSH32 0x8BE0079C531659141344CD1FD0A4F28419497F9722A3DAAFE3B4186F6B6457E0 PUSH1 0x0 DUP1 LOG3 DUP1 RETURN JUMPDEST SWAP1 PUSH1 0x20 PUSH1 0x84 SWAP3 MLOAD SWAP2 PUSH3 0x461BCD PUSH1 0xE5 SHL DUP4 MSTORE DUP3 ADD MSTORE PUSH1 0x26 PUSH1 0x24 DUP3 ADD MSTORE PUSH32 0x4F776E61626C653A206E6577206F776E657220697320746865207A65726F2061 PUSH1 0x44 DUP3 ADD MSTORE PUSH6 0x646472657373 PUSH1 0xD0 SHL PUSH1 0x64 DUP3 ADD MSTORE REVERT JUMPDEST PUSH1 0x0 DUP1 REVERT JUMPDEST DUP3 DUP1 REVERT JUMPDEST POP CALLVALUE PUSH2 0x11F JUMPI PUSH1 0x60 CALLDATASIZE PUSH1 0x3 NOT ADD SLT PUSH2 0x11F JUMPI DUP3 DUP3 CALLDATALOAD SWAP2 PUSH1 0x24 DUP1 CALLDATALOAD PUSH1 0xFF DUP2 AND DUP1 SWAP2 SUB PUSH2 0x45B JUMPI PUSH1 0x1 PUSH1 0x1 PUSH1 0xA0 SHL SUB PUSH1 0x44 CALLDATALOAD DUP2 DUP2 AND SWAP8 SWAP2 SWAP4 SWAP1 DUP9 SWAP1 SUB PUSH2 0x457 JUMPI PUSH2 0x169 PUSH2 0x53D JUMP JUMPDEST DUP5 MLOAD PUSH4 0x13CF08B PUSH1 0xE0 SHL DUP2 MSTORE DUP3 DUP2 ADD DUP9 SWAP1 MSTORE PUSH1 0xE0 DUP2 DUP4 DUP2 DUP13 GAS STATICCALL SWAP4 DUP5 ISZERO PUSH2 0x44D JUMPI DUP8 DUP9 SWAP1 DUP10 SWAP7 DUP11 SWAP5 DUP12 SWAP2 PUSH2 0x3D4 JUMPI JUMPDEST POP ISZERO PUSH2 0x3A3 JUMPI DUP8 DUP14 SWAP2 AND DUP1 EXTCODESIZE ISZERO PUSH2 0x39F JUMPI DUP2 SWAP1 DUP7 DUP12 MLOAD DUP1 SWAP5 DUP2 SWAP4 PUSH4 0x1B75218F PUSH1 0xE1 SHL DUP4 MSTORE DUP9 DUP13 DUP5 ADD MSTORE GAS CALL DUP1 ISZERO PUSH2 0x395 JUMPI PUSH2 0x367 JUMPI JUMPDEST POP PUSH1 0xFF AND EQ SWAP4 DUP5 ISZERO PUSH2 0x360 JUMPI DUP1 SWAP5 JUMPDEST ISZERO PUSH2 0x358 JUMPI POP SWAP3 JUMPDEST DUP6 MLOAD DUP1 SWAP10 PUSH4 0x1F209DF7 PUSH1 0xE1 SHL DUP3 MSTORE DUP2 DUP6 PUSH1 0x20 SWAP13 DUP14 SWAP4 GAS STATICCALL SWAP1 DUP2 ISZERO PUSH2 0x34E JUMPI DUP12 SWAP2 PUSH2 0x315 JUMPI JUMPDEST POP DUP8 PUSH1 0x1 SHL SWAP8 DUP1 DUP10 DIV PUSH1 0x2 EQ SWAP1 ISZERO OR ISZERO PUSH2 0x303 JUMPI PUSH1 0x44 DUP11 SWAP3 DUP13 DUP9 DUP1 SWAP5 DUP13 DUP13 MLOAD SWAP9 DUP10 SWAP8 DUP9 SWAP7 PUSH4 0xA9059CBB PUSH1 0xE0 SHL DUP9 MSTORE AND DUP1 SWAP12 DUP8 ADD MSTORE DUP6 ADD MSTORE AND GAS CALL DUP1 ISZERO PUSH2 0x2F9 JUMPI PUSH2 0x290 JUMPI JUMPDEST POP SWAP1 DUP4 SWAP3 SWAP2 PUSH32 0x733A19D1CA389F4706A15F67E1F85D1989AEC8FA9CF01E91A76FB0FFF1F0741F SWAP8 PUSH1 0x80 SWAP8 SWAP7 SWAP6 MLOAD SWAP7 DUP8 MSTORE DUP7 ADD MSTORE AND SWAP1 DUP4 ADD MSTORE PUSH1 0x60 DUP3 ADD MSTORE LOG1 DUP1 RETURN JUMPDEST SWAP6 SWAP5 SWAP4 SWAP3 SWAP2 SWAP1 DUP8 DUP8 DUP2 RETURNDATASIZE DUP4 GT PUSH2 0x2F2 JUMPI JUMPDEST PUSH2 0x2AB DUP2 DUP4 PUSH2 0x4E4 JUMP JUMPDEST DUP2 ADD SUB SLT PUSH2 0x2EE JUMPI PUSH32 0x733A19D1CA389F4706A15F67E1F85D1989AEC8FA9CF01E91A76FB0FFF1F0741F SWAP8 PUSH2 0x2E0 PUSH1 0x80 SWAP9 PUSH2 0x530 JUMP JUMPDEST POP SWAP8 POP SWAP1 SWAP2 SWAP3 SWAP4 SWAP5 SWAP6 PUSH2 0x24F JUMP JUMPDEST DUP9 DUP1 REVERT JUMPDEST POP RETURNDATASIZE PUSH2 0x2A1 JUMP JUMPDEST DUP6 MLOAD RETURNDATASIZE DUP12 DUP3 RETURNDATACOPY RETURNDATASIZE SWAP1 REVERT JUMPDEST PUSH4 0x4E487B71 PUSH1 0xE0 SHL DUP12 MSTORE PUSH1 0x11 DUP5 MSTORE DUP3 DUP12 REVERT JUMPDEST SWAP1 POP DUP10 DUP2 DUP2 RETURNDATASIZE DUP4 GT PUSH2 0x347 JUMPI JUMPDEST PUSH2 0x32C DUP2 DUP4 PUSH2 0x4E4 JUMP JUMPDEST DUP2 ADD SUB SLT PUSH2 0x343 JUMPI PUSH2 0x33D SWAP1 PUSH2 0x51C JUMP JUMPDEST CODESIZE PUSH2 0x20A JUMP JUMPDEST DUP11 DUP1 REVERT JUMPDEST POP RETURNDATASIZE PUSH2 0x322 JUMP JUMPDEST DUP8 MLOAD RETURNDATASIZE DUP14 DUP3 RETURNDATACOPY RETURNDATASIZE SWAP1 REVERT JUMPDEST SWAP1 POP SWAP3 PUSH2 0x1E5 JUMP JUMPDEST DUP2 SWAP5 PUSH2 0x1DD JUMP JUMPDEST PUSH8 0xFFFFFFFFFFFFFFFF DUP2 SWAP14 SWAP3 SWAP14 GT PUSH2 0x383 JUMPI DUP9 MSTORE SWAP11 PUSH1 0xFF PUSH2 0x1CE JUMP JUMPDEST PUSH4 0x4E487B71 PUSH1 0xE0 SHL DUP3 MSTORE PUSH1 0x41 DUP7 MSTORE DUP5 DUP3 REVERT JUMPDEST DUP10 MLOAD RETURNDATASIZE DUP16 DUP3 RETURNDATACOPY RETURNDATASIZE SWAP1 REVERT JUMPDEST POP DUP1 REVERT JUMPDEST DUP9 MLOAD PUSH3 0x461BCD PUSH1 0xE5 SHL DUP2 MSTORE PUSH1 0x20 DUP2 DUP9 ADD MSTORE PUSH1 0xC DUP2 DUP8 ADD MSTORE PUSH12 0x139BDD08191A5CDC1D5D1959 PUSH1 0xA2 SHL PUSH1 0x44 DUP3 ADD MSTORE PUSH1 0x64 SWAP1 REVERT JUMPDEST SWAP11 POP POP POP POP SWAP4 POP POP PUSH1 0xE0 DUP7 RETURNDATASIZE PUSH1 0xE0 GT PUSH2 0x445 JUMPI JUMPDEST DUP2 PUSH2 0x3F5 PUSH1 0xE0 SWAP4 DUP4 PUSH2 0x4E4 JUMP JUMPDEST DUP2 ADD SUB SLT PUSH2 0x2EE JUMPI DUP6 MLOAD SWAP6 PUSH1 0x20 DUP2 ADD MLOAD SWAP4 PUSH1 0xFF DUP6 AND DUP6 SUB PUSH2 0x343 JUMPI PUSH2 0x41B DUP8 DUP4 ADD PUSH2 0x51C JUMP JUMPDEST PUSH2 0x427 PUSH1 0x60 DUP5 ADD PUSH2 0x51C JUMP JUMPDEST SWAP6 PUSH2 0x439 PUSH1 0xC0 PUSH1 0x80 DUP7 ADD MLOAD SWAP6 ADD PUSH2 0x530 JUMP JUMPDEST SWAP10 SWAP1 SWAP2 SWAP7 SWAP4 SWAP10 CODESIZE PUSH2 0x198 JUMP JUMPDEST RETURNDATASIZE SWAP2 POP PUSH2 0x3E8 JUMP JUMPDEST DUP7 MLOAD RETURNDATASIZE DUP10 DUP3 RETURNDATACOPY RETURNDATASIZE SWAP1 REVERT JUMPDEST DUP6 DUP1 REVERT JUMPDEST DUP4 DUP1 REVERT JUMPDEST DUP4 DUP3 CALLVALUE PUSH2 0x39F JUMPI DUP2 PUSH1 0x3 NOT CALLDATASIZE ADD SLT PUSH2 0x39F JUMPI SWAP1 SLOAD SWAP1 MLOAD PUSH1 0x1 PUSH1 0x1 PUSH1 0xA0 SHL SUB SWAP1 SWAP2 AND DUP2 MSTORE PUSH1 0x20 SWAP1 RETURN JUMPDEST DUP4 CALLVALUE PUSH2 0x4E1 JUMPI DUP1 PUSH1 0x3 NOT CALLDATASIZE ADD SLT PUSH2 0x4E1 JUMPI PUSH2 0x4A0 PUSH2 0x53D JUMP JUMPDEST DUP1 SLOAD PUSH1 0x1 PUSH1 0x1 PUSH1 0xA0 SHL SUB NOT DUP2 AND DUP3 SSTORE DUP2 SWAP1 PUSH1 0x1 PUSH1 0x1 PUSH1 0xA0 SHL SUB AND PUSH32 0x8BE0079C531659141344CD1FD0A4F28419497F9722A3DAAFE3B4186F6B6457E0 DUP3 DUP1 LOG3 DUP1 RETURN JUMPDEST DUP1 REVERT JUMPDEST SWAP1 PUSH1 0x1F DUP1 NOT SWAP2 ADD AND DUP2 ADD SWAP1 DUP2 LT PUSH8 0xFFFFFFFFFFFFFFFF DUP3 GT OR PUSH2 0x506 JUMPI PUSH1 0x40 MSTORE JUMP JUMPDEST PUSH4 0x4E487B71 PUSH1 0xE0 SHL PUSH1 0x0 MSTORE PUSH1 0x41 PUSH1 0x4 MSTORE PUSH1 0x24 PUSH1 0x0 REVERT JUMPDEST MLOAD SWAP1 PUSH1 0x1 PUSH1 0x1 PUSH1 0xA0 SHL SUB DUP3 AND DUP3 SUB PUSH2 0x11A JUMPI JUMP JUMPDEST MLOAD SWAP1 DUP2 ISZERO ISZERO DUP3 SUB PUSH2 0x11A JUMPI JUMP JUMPDEST PUSH1 0x0 SLOAD PUSH1 0x1 PUSH1 0x1 PUSH1 0xA0 SHL SUB AND CALLER SUB PUSH2 0x551 JUMPI JUMP JUMPDEST PUSH1 0x64 PUSH1 0x40 MLOAD PUSH3 0x461BCD PUSH1 0xE5 SHL DUP2 MSTORE PUSH1 0x20 PUSH1 0x4 DUP3 ADD MSTORE PUSH1 0x20 PUSH1 0x24 DUP3 ADD MSTORE PUSH32 0x4F776E61626C653A2063616C6C6572206973206E6F7420746865206F776E6572 PUSH1 0x44 DUP3 ADD MSTORE REVERT INVALID LOG2 PUSH5 0x6970667358 0x22 SLT KECCAK256 0x26 0xDA PUSH8 0x60674C774AEA7610 PREVRANDAO BALANCE LOG4 SHL PUSH10 0x49180C4EC8D7D5DC1E00 0xF8 0xE5 STATICCALL 0xFB 0xC1 0xAE PUSH5 0x736F6C6343 STOP ADDMOD XOR STOP CALLER "},"methodIdentifiers":{"owner()":"8da5cb5b","renounceOwnership()":"715018a6","resolveDispute(uint256,uint8,address)":"a8aa57eb","transferOwnership(address)":"f2fde38b"}}}}}