{"contracts/Contract.sol":{"Contract":{"abi":[{"inputs":[{"internalType":"string","name":"_name","type":"string"},{"internalType":"uint256","name":"_initialValue","type":"uint256"}],"stateMutability":"nonpayable","type":"constructor"},{"anonymous":false,"inputs":[{"indexed":false,"internalType":"uint256","name":"newValue","type":"uint256"}],"name":"ValueChanged","type":"event"},{"inputs":[],"name":"getValue","outputs":[{"internalType":"uint256","name":"","type":"uint256"}],"stateMutability":"view","type":"function"},{"inputs":[],"name":"name","outputs":[{"internalType":"string","name":"","type":"string"}],"stateMutability":"view","type":"function"},{"inputs":[{"internalType":"uint256","name":"_value","type":"uint256"}],"name":"setValue","outputs":[],"stateMutability":"nonpayable","type":"function"},{"inputs":[],"name":"value","outputs":[{"internalType":"uint256","name":"","type":"uint256"}],"stateMutability":"view","type":"function"}],"evm":{"bytecode":{"linkReferences":{},"object":"6080604052346101fb576104798038038061001981610200565b9283398101906040818303126101fb5780516001600160401b03908181116101fb57820190601f8481840112156101fb578251938285116101d157602094601f199461006a84830187168801610200565b978289528783830101116101fb579086929160005b8281106101e7575050826000918901015201519385519283116101d157600054936001948581811c911680156101c7575b838210146101b15783811161016b575b508192841160011461010a575050819293946000926100ff575b5050600019600383901b1c191690821b176000555b5560405161025390816102268239f35b0151905038806100da565b6000808052828120918516979193925b888210610154575050838596971061013b575b505050811b016000556100ef565b015160001960f88460031b161c1916905538808061012d565b80878596829496860151815501950193019061011a565b60008052826000208480870160051c8201928588106101a8575b0160051c019086905b82811061019c5750506100c0565b6000815501869061018e565b92508192610185565b634e487b7160e01b600052602260045260246000fd5b90607f16906100b0565b634e487b7160e01b600052604160045260246000fd5b8181018501518a820186015288940161007f565b600080fd5b6040519190601f01601f191682016001600160401b038111838210176101d15760405256fe60806040818152600436101561001457600080fd5b600091823560e01c90816306fdde03146100b55750806320965255146100975780633fa4f245146100975763552410771461004e57600080fd5b346100935760203660031901126100935760207f93fe6d397c74fdf1402a8b72e47b68512f0510d7b98a4bc4cbdf6ac7108b3c5991600435908160015551908152a180f35b5080fd5b50346100935781600319360112610093576020906001549051908152f35b9190503461021957826003193601126102195782918354936001938560011c946001871696871561020f575b60209788881081146101fb5787865288929181156101dc5750600114610187575b505082939450601f801994859203011682019482861067ffffffffffffffff8711176101735785929391838652818452845191828186015281955b83871061015b5750508394508582601f949501015201168101030190f35b8681018201518988018901529581019588955061013d565b634e487b7160e01b82526041600452602482fd5b83805290915082907f290decd9548b62a8d60345a988386fc84ba6bc95484008f6362f93160ef3e5635b8783106101c957509495508594508301018538610102565b80548684018501529183019181016101b1565b60ff191683870152509495869550151560051b84010190508538610102565b634e487b7160e01b85526022600452602485fd5b95607f16956100e1565b8280fdfea264697066735822122003e12c614a4cc04d7b9a66650de26e963c87ecb4cd1b7205d39a063788bf596164736f6c63430008180033","opcodes":"PUSH1 0x80 PUSH1 0x40 MSTORE CALLVALUE PUSH2 0x1FB JUMPI PUSH2 0x479 DUP1 CODESIZE SUB DUP1 PUSH2 0x19 DUP2 PUSH2 0x200 JUMP JUMPDEST SWAP3 DUP4 CODECOPY DUP2 ADD SWAP1 PUSH1 0x40 DUP2 DUP4 SUB SLT PUSH2 0x1FB JUMPI DUP1 MLOAD PUSH1 0x1 PUSH1 0x1 PUSH1 0x40 SHL SUB SWAP1 DUP2 DUP2 GT PUSH2 0x1FB JUMPI DUP3 ADD SWAP1 PUSH1 0x1F DUP5 DUP2 DUP5 ADD SLT ISZERO PUSH2 0x1FB JUMPI DUP3 MLOAD SWAP4 DUP3 DUP6 GT PUSH2 0x1D1 JUMPI PUSH1 0x20 SWAP5 PUSH1 0x1F NOT SWAP5 PUSH2 0x6A DUP5 DUP4 ADD DUP8 AND DUP9 ADD PUSH2 0x200 JUMP JUMPDEST SWAP8 DUP3 DUP10 MSTORE DUP8 DUP4 DUP4 ADD ADD GT PUSH2 0x1FB JUMPI SWAP1 DUP7 SWAP3 SWAP2 PUSH1 0x0 JUMPDEST DUP3 DUP2 LT PUSH2 0x1E7 JUMPI POP POP DUP3 PUSH1 0x0 SWAP2 DUP10 ADD ADD MSTORE ADD MLOAD SWAP4 DUP6 MLOAD SWAP3 DUP4 GT PUSH2 0x1D1 JUMPI PUSH1 0x0 SLOAD SWAP4 PUSH1 0x1 SWAP5 DUP6 DUP2 DUP2 SHR SWAP2 AND DUP1 ISZERO PUSH2 0x1C7 JUMPI JUMPDEST DUP4 DUP3 LT EQ PUSH2 0x1B1 JUMPI DUP4 DUP2 GT PUSH2 0x16B JUMPI JUMPDEST POP DUP2 SWAP3 DUP5 GT PUSH1 0x1 EQ PUSH2 0x10A JUMPI POP POP DUP2 SWAP3 SWAP4 SWAP5 PUSH1 0x0 SWAP3 PUSH2 0xFF JUMPI JUMPDEST POP POP PUSH1 0x0 NOT PUSH1 0x3 DUP4 SWAP1 SHL SHR NOT AND SWAP1 DUP3 SHL OR PUSH1 0x0 SSTORE JUMPDEST SSTORE PUSH1 0x40 MLOAD PUSH2 0x253 SWAP1 DUP2 PUSH2 0x226 DUP3 CODECOPY RETURN JUMPDEST ADD MLOAD SWAP1 POP CODESIZE DUP1 PUSH2 0xDA JUMP JUMPDEST PUSH1 0x0 DUP1 DUP1 MSTORE DUP3 DUP2 KECCAK256 SWAP2 DUP6 AND SWAP8 SWAP2 SWAP4 SWAP3 JUMPDEST DUP9 DUP3 LT PUSH2 0x154 JUMPI POP POP DUP4 DUP6 SWAP7 SWAP8 LT PUSH2 0x13B JUMPI JUMPDEST POP POP POP DUP2 SHL ADD PUSH1 0x0 SSTORE PUSH2 0xEF JUMP JUMPDEST ADD MLOAD PUSH1 0x0 NOT PUSH1 0xF8 DUP5 PUSH1 0x3 SHL AND SHR NOT AND SWAP1 SSTORE CODESIZE DUP1 DUP1 PUSH2 0x12D JUMP JUMPDEST DUP1 DUP8 DUP6 SWAP7 DUP3 SWAP5 SWAP7 DUP7 ADD MLOAD DUP2 SSTORE ADD SWAP6 ADD SWAP4 ADD SWAP1 PUSH2 0x11A JUMP JUMPDEST PUSH1 0x0 DUP1 MSTORE DUP3 PUSH1 0x0 KECCAK256 DUP5 DUP1 DUP8 ADD PUSH1 0x5 SHR DUP3 ADD SWAP3 DUP6 DUP9 LT PUSH2 0x1A8 JUMPI JUMPDEST ADD PUSH1 0x5 SHR ADD SWAP1 DUP7 SWAP1 JUMPDEST DUP3 DUP2 LT PUSH2 0x19C JUMPI POP POP PUSH2 0xC0 JUMP JUMPDEST PUSH1 0x0 DUP2 SSTORE ADD DUP7 SWAP1 PUSH2 0x18E JUMP JUMPDEST SWAP3 POP DUP2 SWAP3 PUSH2 0x185 JUMP JUMPDEST PUSH4 0x4E487B71 PUSH1 0xE0 SHL PUSH1 0x0 MSTORE PUSH1 0x22 PUSH1 0x4 MSTORE PUSH1 0x24 PUSH1 0x0 REVERT JUMPDEST SWAP1 PUSH1 0x7F AND SWAP1 PUSH2 0xB0 JUMP JUMPDEST PUSH4 0x4E487B71 PUSH1 0xE0 SHL PUSH1 0x0 MSTORE PUSH1 0x41 PUSH1 0x4 MSTORE PUSH1 0x24 PUSH1 0x0 REVERT JUMPDEST DUP2 DUP2 ADD DUP6 ADD MLOAD DUP11 DUP3 ADD DUP7 ADD MSTORE DUP9 SWAP5 ADD PUSH2 0x7F JUMP JUMPDEST PUSH1 0x0 DUP1 REVERT JUMPDEST PUSH1 0x40 MLOAD SWAP2 SWAP1 PUSH1 0x1F ADD PUSH1 0x1F NOT AND DUP3 ADD PUSH1 0x1 PUSH1 0x1 PUSH1 0x40 SHL SUB DUP2 GT DUP4 DUP3 LT OR PUSH2 0x1D1 JUMPI PUSH1 0x40 MSTORE JUMP INVALID PUSH1 0x80 PUSH1 0x40 DUP2 DUP2 MSTORE PUSH1 0x4 CALLDATASIZE LT ISZERO PUSH2 0x14 JUMPI PUSH1 0x0 DUP1 REVERT JUMPDEST PUSH1 0x0 SWAP2 DUP3 CALLDATALOAD PUSH1 0xE0 SHR SWAP1 DUP2 PUSH4 0x6FDDE03 EQ PUSH2 0xB5 JUMPI POP DUP1 PUSH4 0x20965255 EQ PUSH2 0x97 JUMPI DUP1 PUSH4 0x3FA4F245 EQ PUSH2 0x97 JUMPI PUSH4 0x55241077 EQ PUSH2 0x4E JUMPI PUSH1 0x0 DUP1 REVERT JUMPDEST CALLVALUE PUSH2 0x93 JUMPI PUSH1 0x20 CALLDATASIZE PUSH1 0x3 NOT ADD SLT PUSH2 0x93 JUMPI PUSH1 0x20 PUSH32 0x93FE6D397C74FDF1402A8B72E47B68512F0510D7B98A4BC4CBDF6AC7108B3C59 SWAP2 PUSH1 0x4 CALLDATALOAD SWAP1 DUP2 PUSH1 0x1 SSTORE MLOAD SWAP1 DUP2 MSTORE LOG1 DUP1 RETURN JUMPDEST POP DUP1 REVERT JUMPDEST POP CALLVALUE PUSH2 0x93 JUMPI DUP2 PUSH1 0x3 NOT CALLDATASIZE ADD SLT PUSH2 0x93 JUMPI PUSH1 0x20 SWAP1 PUSH1 0x1 SLOAD SWAP1 MLOAD SWAP1 DUP2 MSTORE RETURN JUMPDEST SWAP2 SWAP1 POP CALLVALUE PUSH2 0x219 JUMPI DUP3 PUSH1 0x3 NOT CALLDATASIZE ADD SLT PUSH2 0x219 JUMPI DUP3 SWAP2 DUP4 SLOAD SWAP4 PUSH1 0x1 SWAP4 DUP6 PUSH1 0x1 SHR SWAP5 PUSH1 0x1 DUP8 AND SWAP7 DUP8 ISZERO PUSH2 0x20F JUMPI JUMPDEST PUSH1 0x20 SWAP8 DUP9 DUP9 LT DUP2 EQ PUSH2 0x1FB JUMPI DUP8 DUP7 MSTORE DUP9 SWAP3 SWAP2 DUP2 ISZERO PUSH2 0x1DC JUMPI POP PUSH1 0x1 EQ PUSH2 0x187 JUMPI JUMPDEST POP POP DUP3 SWAP4 SWAP5 POP PUSH1 0x1F DUP1 NOT SWAP5 DUP6 SWAP3 SUB ADD AND DUP3 ADD SWAP5 DUP3 DUP7 LT PUSH8 0xFFFFFFFFFFFFFFFF DUP8 GT OR PUSH2 0x173 JUMPI DUP6 SWAP3 SWAP4 SWAP2 DUP4 DUP7 MSTORE DUP2 DUP5 MSTORE DUP5 MLOAD SWAP2 DUP3 DUP2 DUP7 ADD MSTORE DUP2 SWAP6 JUMPDEST DUP4 DUP8 LT PUSH2 0x15B JUMPI POP POP DUP4 SWAP5 POP DUP6 DUP3 PUSH1 0x1F SWAP5 SWAP6 ADD ADD MSTORE ADD AND DUP2 ADD SUB ADD SWAP1 RETURN JUMPDEST DUP7 DUP2 ADD DUP3 ADD MLOAD DUP10 DUP9 ADD DUP10 ADD MSTORE SWAP6 DUP2 ADD SWAP6 DUP9 SWAP6 POP PUSH2 0x13D JUMP JUMPDEST PUSH4 0x4E487B71 PUSH1 0xE0 SHL DUP3 MSTORE PUSH1 0x41 PUSH1 0x4 MSTORE PUSH1 0x24 DUP3 REVERT JUMPDEST DUP4 DUP1 MSTORE SWAP1 SWAP2 POP DUP3 SWAP1 PUSH32 0x290DECD9548B62A8D60345A988386FC84BA6BC95484008F6362F93160EF3E563 JUMPDEST DUP8 DUP4 LT PUSH2 0x1C9 JUMPI POP SWAP5 SWAP6 POP DUP6 SWAP5 POP DUP4 ADD ADD DUP6 CODESIZE PUSH2 0x102 JUMP JUMPDEST DUP1 SLOAD DUP7 DUP5 ADD DUP6 ADD MSTORE SWAP2 DUP4 ADD SWAP2 DUP2 ADD PUSH2 0x1B1 JUMP JUMPDEST PUSH1 0xFF NOT AND DUP4 DUP8 ADD MSTORE POP SWAP5 SWAP6 DUP7 SWAP6 POP ISZERO ISZERO PUSH1 0x5 SHL DUP5 ADD ADD SWAP1 POP DUP6 CODESIZE PUSH2 0x102 JUMP JUMPDEST PUSH4 0x4E487B71 PUSH1 0xE0 SHL DUP6 MSTORE PUSH1 0x22 PUSH1 0x4 MSTORE PUSH1 0x24 DUP6 REVERT JUMPDEST SWAP6 PUSH1 0x7F AND SWAP6 PUSH2 0xE1 JUMP JUMPDEST DUP3 DUP1 REVERT INVALID LOG2 PUSH5 0x6970667358 0x22 SLT KECCAK256 SUB 0xE1 0x2C PUSH2 0x4A4C 0xC0 0x4D PUSH28 0x9A66650DE26E963C87ECB4CD1B7205D39A063788BF596164736F6C63 NUMBER STOP ADDMOD XOR STOP CALLER "},"methodIdentifiers":{"getValue()":"20965255","name()":"06fdde03","setValue(uint256)":"55241077","value()":"3fa4f245"}}}}}