{"contracts/ResolutionModuleUpgradeable.sol":{"ResolutionModuleUpgradeable":{"abi":[{"anonymous":false,"inputs":[{"indexed":false,"internalType":"address","name":"previousAdmin","type":"address"},{"indexed":false,"internalType":"address","name":"newAdmin","type":"address"}],"name":"AdminChanged","type":"event"},{"anonymous":false,"inputs":[{"indexed":true,"internalType":"address","name":"beacon","type":"address"}],"name":"BeaconUpgraded","type":"event"},{"anonymous":false,"inputs":[{"indexed":true,"internalType":"uint256","name":"proposalId","type":"uint256"},{"indexed":false,"internalType":"address","name":"winner","type":"address"},{"indexed":false,"internalType":"uint256","name":"amount","type":"uint256"}],"name":"BondsDistributed","type":"event"},{"anonymous":false,"inputs":[{"indexed":true,"internalType":"uint256","name":"proposalId","type":"uint256"},{"indexed":false,"internalType":"address","name":"disputer","type":"address"}],"name":"Disputed","type":"event"},{"anonymous":false,"inputs":[{"indexed":false,"internalType":"uint8","name":"version","type":"uint8"}],"name":"Initialized","type":"event"},{"anonymous":false,"inputs":[{"indexed":true,"internalType":"uint256","name":"proposalId","type":"uint256"},{"indexed":false,"internalType":"uint256","name":"marketId","type":"uint256"},{"indexed":false,"internalType":"uint8","name":"outcome","type":"uint8"}],"name":"OutcomeProposed","type":"event"},{"anonymous":false,"inputs":[{"indexed":true,"internalType":"address","name":"previousOwner","type":"address"},{"indexed":true,"internalType":"address","name":"newOwner","type":"address"}],"name":"OwnershipTransferred","type":"event"},{"anonymous":false,"inputs":[{"indexed":true,"internalType":"address","name":"implementation","type":"address"}],"name":"Upgraded","type":"event"},{"inputs":[],"name":"BOND_AMOUNT","outputs":[{"internalType":"uint256","name":"","type":"uint256"}],"stateMutability":"view","type":"function"},{"inputs":[],"name":"CHALLENGE_WINDOW","outputs":[{"internalType":"uint256","name":"","type":"uint256"}],"stateMutability":"view","type":"function"},{"inputs":[],"name":"adminResolver","outputs":[{"internalType":"address","name":"","type":"address"}],"stateMutability":"view","type":"function"},{"inputs":[{"internalType":"uint256","name":"proposalId","type":"uint256"}],"name":"dispute","outputs":[],"stateMutability":"nonpayable","type":"function"},{"inputs":[{"internalType":"uint256","name":"proposalId","type":"uint256"},{"internalType":"address","name":"winner","type":"address"}],"name":"distributeBonds","outputs":[],"stateMutability":"nonpayable","type":"function"},{"inputs":[{"internalType":"uint256","name":"proposalId","type":"uint256"}],"name":"finalizeNoDispute","outputs":[],"stateMutability":"nonpayable","type":"function"},{"inputs":[{"internalType":"address","name":"_usdc","type":"address"},{"internalType":"address","name":"_adminResolver","type":"address"}],"name":"initialize","outputs":[],"stateMutability":"nonpayable","type":"function"},{"inputs":[],"name":"owner","outputs":[{"internalType":"address","name":"","type":"address"}],"stateMutability":"view","type":"function"},{"inputs":[],"name":"proposalCount","outputs":[{"internalType":"uint256","name":"","type":"uint256"}],"stateMutability":"view","type":"function"},{"inputs":[{"internalType":"uint256","name":"","type":"uint256"}],"name":"proposals","outputs":[{"internalType":"uint256","name":"marketId","type":"uint256"},{"internalType":"uint8","name":"outcome","type":"uint8"},{"internalType":"address","name":"proposer","type":"address"},{"internalType":"address","name":"disputer","type":"address"},{"internalType":"uint256","name":"bond","type":"uint256"},{"internalType":"uint256","name":"challengeEnd","type":"uint256"},{"internalType":"bool","name":"disputed","type":"bool"},{"internalType":"bool","name":"finalized","type":"bool"}],"stateMutability":"view","type":"function"},{"inputs":[{"internalType":"address","name":"market","type":"address"},{"internalType":"uint8","name":"outcome","type":"uint8"}],"name":"proposeOutcome","outputs":[],"stateMutability":"nonpayable","type":"function"},{"inputs":[],"name":"proxiableUUID","outputs":[{"internalType":"bytes32","name":"","type":"bytes32"}],"stateMutability":"view","type":"function"},{"inputs":[],"name":"renounceOwnership","outputs":[],"stateMutability":"nonpayable","type":"function"},{"inputs":[{"internalType":"uint256","name":"proposalId","type":"uint256"},{"internalType":"uint8","name":"finalOutcome","type":"uint8"}],"name":"resolveDisputedProposal","outputs":[],"stateMutability":"nonpayable","type":"function"},{"inputs":[{"internalType":"address","name":"newOwner","type":"address"}],"name":"transferOwnership","outputs":[],"stateMutability":"nonpayable","type":"function"},{"inputs":[{"internalType":"address","name":"newImplementation","type":"address"}],"name":"upgradeTo","outputs":[],"stateMutability":"nonpayable","type":"function"},{"inputs":[{"internalType":"address","name":"newImplementation","type":"address"},{"internalType":"bytes","name":"data","type":"bytes"}],"name":"upgradeToAndCall","outputs":[],"stateMutability":"payable","type":"function"},{"inputs":[],"name":"usdc","outputs":[{"internalType":"address","name":"","type":"address"}],"stateMutability":"view","type":"function"}],"evm":{"bytecode":{"linkReferences":{},"object":"60a0806040523461003157306080526117399081610037823960805181818161097d01528181610aa50152610f280152f35b600080fdfe60806040908082526004918236101561001757600080fd5b600091823560e01c908163013cf08b1461119f575080633242597e146110f55780633659cfe614610f005780633e413bee14610ed857806344ef913c14610eb0578063485cc95514610d2f5780634f1ef28614610a2a57806352d1902d14610967578063715018a614610906578063719f409c146106b557806386d6282c1461054e5780638da5cb5b14610526578063bcacc70a14610508578063c25432d4146103af578063d62aad2914610393578063da35c66414610375578063f2fde38b146102e35763f6c85888146100eb57600080fd5b346102df57602090816003193601126102db578335835260c982528083209084820154421061029957600582019485549560ff871661024d576101008761013960ff899a60081c1615611364565b61ff00191617905582546001840180546001600160a01b0395919286169060ff16813b156102495788916024839288519b8c938492631b75218f60e11b84528a8401525af197881561023d5787989795969761021f575b506003876101d59860cb5416945460081c169201549386519788958694859363a9059cbb60e01b8552840160209093929193604081019460018060a01b031681520152565b03925af190811561021657506101e9578280f35b8161020892903d1061020f575b61020081836112a9565b810190611466565b5038808280f35b503d6101f6565b513d85823e3d90fd5b8197955061022c90611263565b6102395786939538610190565b8580fd5b508451903d90823e3d90fd5b8880fd5b5083608492519162461bcd60e51b8352820152602160248201527f43616e6e6f742066696e616c697a652064697370757465642070726f706f73616044820152601b60fa1b6064820152fd5b5162461bcd60e51b8152808501839052601a60248201527f4368616c6c656e67652077696e646f77206e6f7420656e6465640000000000006044820152606490fd5b8280fd5b5080fd5b5082346102db5760203660031901126102db576102fe611237565b916103076114de565b6001600160a01b03831615610323578361032084611536565b80f35b906020608492519162461bcd60e51b8352820152602660248201527f4f776e61626c653a206e6577206f776e657220697320746865207a65726f206160448201526564647265737360d01b6064820152fd5b50346102df57816003193601126102df5760209060ca549051908152f35b50346102df57816003193601126102df5760209051611c208152f35b5082346102db57816003193601126102db578035906103cc61124d565b60cc546001600160a01b0392906103e690841633146112e7565b83865260c9602052600385872060058101610100815461040860ff8216611329565b61041860ff8260081c1615611364565b61ff0019161790550154928360011b93808504600214901517156104f55760cb54865163a9059cbb60e01b81526001600160a01b0385169381019384526020848101879052909390928492169082908a90829060400103925af180156104eb57946104c6917f59234baae61fccb633663f7eb364a027f745ea9f20591ae9ef6858f705b5fa2295966104cc575b50516001600160a01b03909216825260208201929092529081906040820190565b0390a280f35b6104e49060203d60201161020f5761020081836112a9565b50876104a5565b85513d88823e3d90fd5b634e487b7160e01b875260118252602487fd5b50346102df57816003193601126102df5760209051633b9aca008152f35b50346102df57816003193601126102df5760975490516001600160a01b039091168152602090f35b5082346102db576020806003193601126106b15781359182855260c98252838520908082015442101561067e57600582019060ff8254166106485760cb54600384015487516323b872dd60e01b8152339381019390935230602484015260448301528490829060649082908b906001600160a01b03165af1801561063e57917fcde8e21e97a7f6ec4bbf0ee44450212e0ba73be8fdfbfb2b155e861d86756bac95969391600293610621575b50600160ff1982541617905501336001600160601b0360a01b82541617905551338152a280f35b61063790863d881161020f5761020081836112a9565b50886105fa565b86513d89823e3d90fd5b855162461bcd60e51b8152908101849052601060248201526f105b1c9958591e48191a5cdc1d5d195960821b6044820152606490fd5b845162461bcd60e51b8152908101839052600d60248201526c15da5b991bddc818db1bdcd959609a1b6044820152606490fd5b8380fd5b5082346102db57816003193601126102db576106cf611237565b9160ff6106da611227565b166001811480156108fc575b156108c7578460018060a01b038060cb54169484516323b872dd60e01b81523382820152306024820152633b9aca00968760448301528160648160209788945af180156108bd576108a0575b5060ca5496600019881461088d5782906001890160ca551695611c2042019081421161087a57865193610100850185811067ffffffffffffffff82111761086557918b9593918b95938a528a8552878501908982528a86019133835260608701928984526080880194855260a088019586528c60c089019a808c5260e08a019a818c52815260c98d52209751885560018801915160ff16825491600160a81b6101009003905160081b16916affffffffffffffffffffff60a81b1617179055600286019151166001600160601b0360a01b8254161790555160038401555190820155600501915115159082549051151560081b61ff00169160ff169061ffff19161717905582519384528301527f9269d301f16e15fa22cc98511a481ff00ab5b0d9e076522e330675d30d37a43891a280f35b604185634e487b7160e01b6000525260246000fd5b634e487b7160e01b8a526011835260248afd5b634e487b7160e01b895260118252602489fd5b6108b690843d861161020f5761020081836112a9565b5088610732565b86513d8b823e3d90fd5b815162461bcd60e51b8152602081850152600f60248201526e496e76616c6964206f7574636f6d6560881b6044820152606490fd5b50600281146106e6565b823461096457806003193601126109645761091f6114de565b609780546001600160a01b031981169091556000906001600160a01b03167f8be0079c531659141344cd1fd0a4f28419497f9722a3daafe3b4186f6b6457e08280a380f35b80fd5b50919034610964578060031936011261096457507f00000000000000000000000000000000000000000000000000000000000000006001600160a01b031630036109c257602082516000805160206116e48339815191528152f35b6020608492519162461bcd60e51b8352820152603860248201527f555550535570677261646561626c653a206d757374206e6f742062652063616c60448201527f6c6564207468726f7567682064656c656761746563616c6c00000000000000006064820152fd5b508083916003193601126102db57610a40611237565b906024359067ffffffffffffffff8211610d2b5736602383011215610d2b5781840135610a6c816112cb565b610a78835191826112a9565b818152866020948583019336602482840101116102db578060248893018637830101526001600160a01b037f0000000000000000000000000000000000000000000000000000000000000000811690610ad3308314156113a4565b610af06000805160206116e4833981519152928284541614611405565b610af86114de565b7f4910fdfa16fed3260ed0e7147f7cc6da11a60208b5b9406d12a635614ffd91435460ff1615610b3257505050505050610320915061157f565b869293949596169085516352d1902d60e01b815287818a81865afa60009181610cf7575b50610bb557865162461bcd60e51b8152808a01899052602e60248201527f45524331393637557067726164653a206e657720696d706c656d656e7461746960448201526d6f6e206973206e6f74205555505360901b6064820152608490fd5b979192939695949703610ca25750610bcc8261157f565b7fbc7cd75a20ee27fd9adebab32041f755214dbc6bffa90cc0225b39da2e5c2d3b600080a2835115801590610c9a575b610c09575b505050505080f35b600080610c8596845196610c1c8861128d565b602788527f416464726573733a206c6f772d6c6576656c2064656c65676174652063616c6c87890152660819985a5b195960ca1b868901525190845af4913d15610c90573d610c76610c6d826112cb565b925192836112a9565b8152600081943d92013e61160f565b508180808080610c01565b506060925061160f565b506001610bfc565b835162461bcd60e51b8152908101859052602960248201527f45524331393637557067726164653a20756e737570706f727465642070726f786044820152681a58589b195555525160ba1b6064820152608490fd5b9091508881813d8311610d24575b610d0f81836112a9565b81010312610d1f5751908b610b56565b600080fd5b503d610d05565b8480fd5b5082346102db57816003193601126102db57610d49611237565b90610d5261124d565b91845460ff8160081c161592838094610ea3575b8015610e8c575b15610e32575060ff198116600117865582610e21575b50610d9d60ff865460081c16610d988161147e565b61147e565b610da633611536565b845492610db860ff8560081c1661147e565b60018060a01b0390816001600160601b0360a01b93168360cb54161760cb55169060cc54161760cc55610de9578280f35b61ff001916825551600181527f7f26b83ff96e1f2b6a682f133852f6798a09c465da95921460cefb384740249890602090a181808280f35b61ffff191661010117855585610d83565b608490602087519162461bcd60e51b8352820152602e60248201527f496e697469616c697a61626c653a20636f6e747261637420697320616c72656160448201526d191e481a5b9a5d1a585b1a5e995960921b6064820152fd5b50303b158015610d6d5750600160ff831614610d6d565b50600160ff831610610d66565b50346102df57816003193601126102df5760cc5490516001600160a01b039091168152602090f35b50346102df57816003193601126102df5760cb5490516001600160a01b039091168152602090f35b508290346102db576020806003193601126106b157610f1d611237565b916001600160a01b037f00000000000000000000000000000000000000000000000000000000000000008116610f55308214156113a4565b610f726000805160206116e4833981519152918383541614611405565b610f7a6114de565b8251908482019282841067ffffffffffffffff8511176110e0578385528883527f4910fdfa16fed3260ed0e7147f7cc6da11a60208b5b9406d12a635614ffd91435460ff1615610fd457505050505050610320915061157f565b869293949596169085516352d1902d60e01b815287818a81865afa600091816110b1575b5061105757865162461bcd60e51b8152808a01899052602e60248201527f45524331393637557067726164653a206e657720696d706c656d656e7461746960448201526d6f6e206973206e6f74205555505360901b6064820152608490fd5b979192939695949703610ca2575061106e8261157f565b7fbc7cd75a20ee27fd9adebab32041f755214dbc6bffa90cc0225b39da2e5c2d3b600080a28351158015906110a957610c0957505050505080f35b506000610bfc565b9091508881813d83116110d9575b6110c981836112a9565b81010312610d1f5751908b610ff8565b503d6110bf565b604188634e487b7160e01b6000525260246000fd5b508290346102db57806003193601126102db5782611111611227565b60cc546001600160a01b039061112a90821633146112e7565b8435835260c960205283832061115560ff600583015461114b828216611329565b60081c1615611364565b5416803b156102db5760ff918360249286519788958694631b75218f60e11b865216908401525af1908115611196575061118d575080f35b61032090611263565b513d84823e3d90fd5b92939050346106b15760203660031901126106b1579081816101009560ff9435815260c9602052209081549260018301549060018060a01b038060028601541692600560038701549587015496015496895287811660208a015260081c16908701526060860152608085015260a0840152818116151560c084015260081c16151560e0820152f35b6024359060ff82168203610d1f57565b600435906001600160a01b0382168203610d1f57565b602435906001600160a01b0382168203610d1f57565b67ffffffffffffffff811161127757604052565b634e487b7160e01b600052604160045260246000fd5b6060810190811067ffffffffffffffff82111761127757604052565b90601f8019910116810190811067ffffffffffffffff82111761127757604052565b67ffffffffffffffff811161127757601f01601f191660200190565b156112ee57565b60405162461bcd60e51b815260206004820152601360248201527227b7363c9030b236b4b7103932b9b7b63b32b960691b6044820152606490fd5b1561133057565b60405162461bcd60e51b815260206004820152600c60248201526b139bdd08191a5cdc1d5d195960a21b6044820152606490fd5b1561136b57565b60405162461bcd60e51b8152602060048201526011602482015270105b1c9958591e48199a5b985b1a5e9959607a1b6044820152606490fd5b156113ab57565b60405162461bcd60e51b815260206004820152602c60248201527f46756e6374696f6e206d7573742062652063616c6c6564207468726f7567682060448201526b19195b1959d85d1958d85b1b60a21b6064820152608490fd5b1561140c57565b60405162461bcd60e51b815260206004820152602c60248201527f46756e6374696f6e206d7573742062652063616c6c6564207468726f7567682060448201526b6163746976652070726f787960a01b6064820152608490fd5b90816020910312610d1f57518015158103610d1f5790565b1561148557565b60405162461bcd60e51b815260206004820152602b60248201527f496e697469616c697a61626c653a20636f6e7472616374206973206e6f74206960448201526a6e697469616c697a696e6760a81b6064820152608490fd5b6097546001600160a01b031633036114f257565b606460405162461bcd60e51b815260206004820152602060248201527f4f776e61626c653a2063616c6c6572206973206e6f7420746865206f776e65726044820152fd5b609780546001600160a01b039283166001600160a01b0319821681179092559091167f8be0079c531659141344cd1fd0a4f28419497f9722a3daafe3b4186f6b6457e0600080a3565b803b156115b4576000805160206116e483398151915280546001600160a01b0319166001600160a01b03909216919091179055565b60405162461bcd60e51b815260206004820152602d60248201527f455243313936373a206e657720696d706c656d656e746174696f6e206973206e60448201526c1bdd08184818dbdb9d1c9858dd609a1b6064820152608490fd5b919290156116715750815115611623575090565b3b1561162c5790565b60405162461bcd60e51b815260206004820152601d60248201527f416464726573733a2063616c6c20746f206e6f6e2d636f6e74726163740000006044820152606490fd5b8251909150156116845750805190602001fd5b6040519062461bcd60e51b82528160208060048301528251908160248401526000935b8285106116ca575050604492506000838284010152601f80199101168101030190fd5b84810182015186860160440152938101938593506116a756fe360894a13ba1a3210667c828492db98dca3e2076cc3735a920a3ca505d382bbca2646970667358221220900b005db6d709164d64e5c959daea50754f4c525be842505182d473555675d964736f6c63430008180033","opcodes":"PUSH1 0xA0 DUP1 PUSH1 0x40 MSTORE CALLVALUE PUSH2 0x31 JUMPI ADDRESS PUSH1 0x80 MSTORE PUSH2 0x1739 SWAP1 DUP2 PUSH2 0x37 DUP3 CODECOPY PUSH1 0x80 MLOAD DUP2 DUP2 DUP2 PUSH2 0x97D ADD MSTORE DUP2 DUP2 PUSH2 0xAA5 ADD MSTORE PUSH2 0xF28 ADD MSTORE RETURN JUMPDEST PUSH1 0x0 DUP1 REVERT INVALID PUSH1 0x80 PUSH1 0x40 SWAP1 DUP1 DUP3 MSTORE PUSH1 0x4 SWAP2 DUP3 CALLDATASIZE LT ISZERO PUSH2 0x17 JUMPI PUSH1 0x0 DUP1 REVERT JUMPDEST PUSH1 0x0 SWAP2 DUP3 CALLDATALOAD PUSH1 0xE0 SHR SWAP1 DUP2 PUSH4 0x13CF08B EQ PUSH2 0x119F JUMPI POP DUP1 PUSH4 0x3242597E EQ PUSH2 0x10F5 JUMPI DUP1 PUSH4 0x3659CFE6 EQ PUSH2 0xF00 JUMPI DUP1 PUSH4 0x3E413BEE EQ PUSH2 0xED8 JUMPI DUP1 PUSH4 0x44EF913C EQ PUSH2 0xEB0 JUMPI DUP1 PUSH4 0x485CC955 EQ PUSH2 0xD2F JUMPI DUP1 PUSH4 0x4F1EF286 EQ PUSH2 0xA2A JUMPI DUP1 PUSH4 0x52D1902D EQ PUSH2 0x967 JUMPI DUP1 PUSH4 0x715018A6 EQ PUSH2 0x906 JUMPI DUP1 PUSH4 0x719F409C EQ PUSH2 0x6B5 JUMPI DUP1 PUSH4 0x86D6282C EQ PUSH2 0x54E JUMPI DUP1 PUSH4 0x8DA5CB5B EQ PUSH2 0x526 JUMPI DUP1 PUSH4 0xBCACC70A EQ PUSH2 0x508 JUMPI DUP1 PUSH4 0xC25432D4 EQ PUSH2 0x3AF JUMPI DUP1 PUSH4 0xD62AAD29 EQ PUSH2 0x393 JUMPI DUP1 PUSH4 0xDA35C664 EQ PUSH2 0x375 JUMPI DUP1 PUSH4 0xF2FDE38B EQ PUSH2 0x2E3 JUMPI PUSH4 0xF6C85888 EQ PUSH2 0xEB JUMPI PUSH1 0x0 DUP1 REVERT JUMPDEST CALLVALUE PUSH2 0x2DF JUMPI PUSH1 0x20 SWAP1 DUP2 PUSH1 0x3 NOT CALLDATASIZE ADD SLT PUSH2 0x2DB JUMPI DUP4 CALLDATALOAD DUP4 MSTORE PUSH1 0xC9 DUP3 MSTORE DUP1 DUP4 KECCAK256 SWAP1 DUP5 DUP3 ADD SLOAD TIMESTAMP LT PUSH2 0x299 JUMPI PUSH1 0x5 DUP3 ADD SWAP5 DUP6 SLOAD SWAP6 PUSH1 0xFF DUP8 AND PUSH2 0x24D JUMPI PUSH2 0x100 DUP8 PUSH2 0x139 PUSH1 0xFF DUP10 SWAP11 PUSH1 0x8 SHR AND ISZERO PUSH2 0x1364 JUMP JUMPDEST PUSH2 0xFF00 NOT AND OR SWAP1 SSTORE DUP3 SLOAD PUSH1 0x1 DUP5 ADD DUP1 SLOAD PUSH1 0x1 PUSH1 0x1 PUSH1 0xA0 SHL SUB SWAP6 SWAP2 SWAP3 DUP7 AND SWAP1 PUSH1 0xFF AND DUP2 EXTCODESIZE ISZERO PUSH2 0x249 JUMPI DUP9 SWAP2 PUSH1 0x24 DUP4 SWAP3 DUP9 MLOAD SWAP12 DUP13 SWAP4 DUP5 SWAP3 PUSH4 0x1B75218F PUSH1 0xE1 SHL DUP5 MSTORE DUP11 DUP5 ADD MSTORE GAS CALL SWAP8 DUP9 ISZERO PUSH2 0x23D JUMPI DUP8 SWAP9 SWAP8 SWAP6 SWAP7 SWAP8 PUSH2 0x21F JUMPI JUMPDEST POP PUSH1 0x3 DUP8 PUSH2 0x1D5 SWAP9 PUSH1 0xCB SLOAD AND SWAP5 SLOAD PUSH1 0x8 SHR AND SWAP3 ADD SLOAD SWAP4 DUP7 MLOAD SWAP8 DUP9 SWAP6 DUP7 SWAP5 DUP6 SWAP4 PUSH4 0xA9059CBB PUSH1 0xE0 SHL DUP6 MSTORE DUP5 ADD PUSH1 0x20 SWAP1 SWAP4 SWAP3 SWAP2 SWAP4 PUSH1 0x40 DUP2 ADD SWAP5 PUSH1 0x1 DUP1 PUSH1 0xA0 SHL SUB AND DUP2 MSTORE ADD MSTORE JUMP JUMPDEST SUB SWAP3 GAS CALL SWAP1 DUP2 ISZERO PUSH2 0x216 JUMPI POP PUSH2 0x1E9 JUMPI DUP3 DUP1 RETURN JUMPDEST DUP2 PUSH2 0x208 SWAP3 SWAP1 RETURNDATASIZE LT PUSH2 0x20F JUMPI JUMPDEST PUSH2 0x200 DUP2 DUP4 PUSH2 0x12A9 JUMP JUMPDEST DUP2 ADD SWAP1 PUSH2 0x1466 JUMP JUMPDEST POP CODESIZE DUP1 DUP3 DUP1 RETURN JUMPDEST POP RETURNDATASIZE PUSH2 0x1F6 JUMP JUMPDEST MLOAD RETURNDATASIZE DUP6 DUP3 RETURNDATACOPY RETURNDATASIZE SWAP1 REVERT JUMPDEST DUP2 SWAP8 SWAP6 POP PUSH2 0x22C SWAP1 PUSH2 0x1263 JUMP JUMPDEST PUSH2 0x239 JUMPI DUP7 SWAP4 SWAP6 CODESIZE PUSH2 0x190 JUMP JUMPDEST DUP6 DUP1 REVERT JUMPDEST POP DUP5 MLOAD SWAP1 RETURNDATASIZE SWAP1 DUP3 RETURNDATACOPY RETURNDATASIZE SWAP1 REVERT JUMPDEST DUP9 DUP1 REVERT JUMPDEST POP DUP4 PUSH1 0x84 SWAP3 MLOAD SWAP2 PUSH3 0x461BCD PUSH1 0xE5 SHL DUP4 MSTORE DUP3 ADD MSTORE PUSH1 0x21 PUSH1 0x24 DUP3 ADD MSTORE PUSH32 0x43616E6E6F742066696E616C697A652064697370757465642070726F706F7361 PUSH1 0x44 DUP3 ADD MSTORE PUSH1 0x1B PUSH1 0xFA SHL PUSH1 0x64 DUP3 ADD MSTORE REVERT JUMPDEST MLOAD PUSH3 0x461BCD PUSH1 0xE5 SHL DUP2 MSTORE DUP1 DUP6 ADD DUP4 SWAP1 MSTORE PUSH1 0x1A PUSH1 0x24 DUP3 ADD MSTORE PUSH32 0x4368616C6C656E67652077696E646F77206E6F7420656E646564000000000000 PUSH1 0x44 DUP3 ADD MSTORE PUSH1 0x64 SWAP1 REVERT JUMPDEST DUP3 DUP1 REVERT JUMPDEST POP DUP1 REVERT JUMPDEST POP DUP3 CALLVALUE PUSH2 0x2DB JUMPI PUSH1 0x20 CALLDATASIZE PUSH1 0x3 NOT ADD SLT PUSH2 0x2DB JUMPI PUSH2 0x2FE PUSH2 0x1237 JUMP JUMPDEST SWAP2 PUSH2 0x307 PUSH2 0x14DE JUMP JUMPDEST PUSH1 0x1 PUSH1 0x1 PUSH1 0xA0 SHL SUB DUP4 AND ISZERO PUSH2 0x323 JUMPI DUP4 PUSH2 0x320 DUP5 PUSH2 0x1536 JUMP JUMPDEST DUP1 RETURN JUMPDEST SWAP1 PUSH1 0x20 PUSH1 0x84 SWAP3 MLOAD SWAP2 PUSH3 0x461BCD PUSH1 0xE5 SHL DUP4 MSTORE DUP3 ADD MSTORE PUSH1 0x26 PUSH1 0x24 DUP3 ADD MSTORE PUSH32 0x4F776E61626C653A206E6577206F776E657220697320746865207A65726F2061 PUSH1 0x44 DUP3 ADD MSTORE PUSH6 0x646472657373 PUSH1 0xD0 SHL PUSH1 0x64 DUP3 ADD MSTORE REVERT JUMPDEST POP CALLVALUE PUSH2 0x2DF JUMPI DUP2 PUSH1 0x3 NOT CALLDATASIZE ADD SLT PUSH2 0x2DF JUMPI PUSH1 0x20 SWAP1 PUSH1 0xCA SLOAD SWAP1 MLOAD SWAP1 DUP2 MSTORE RETURN JUMPDEST POP CALLVALUE PUSH2 0x2DF JUMPI DUP2 PUSH1 0x3 NOT CALLDATASIZE ADD SLT PUSH2 0x2DF JUMPI PUSH1 0x20 SWAP1 MLOAD PUSH2 0x1C20 DUP2 MSTORE RETURN JUMPDEST POP DUP3 CALLVALUE PUSH2 0x2DB JUMPI DUP2 PUSH1 0x3 NOT CALLDATASIZE ADD SLT PUSH2 0x2DB JUMPI DUP1 CALLDATALOAD SWAP1 PUSH2 0x3CC PUSH2 0x124D JUMP JUMPDEST PUSH1 0xCC SLOAD PUSH1 0x1 PUSH1 0x1 PUSH1 0xA0 SHL SUB SWAP3 SWAP1 PUSH2 0x3E6 SWAP1 DUP5 AND CALLER EQ PUSH2 0x12E7 JUMP JUMPDEST DUP4 DUP7 MSTORE PUSH1 0xC9 PUSH1 0x20 MSTORE PUSH1 0x3 DUP6 DUP8 KECCAK256 PUSH1 0x5 DUP2 ADD PUSH2 0x100 DUP2 SLOAD PUSH2 0x408 PUSH1 0xFF DUP3 AND PUSH2 0x1329 JUMP JUMPDEST PUSH2 0x418 PUSH1 0xFF DUP3 PUSH1 0x8 SHR AND ISZERO PUSH2 0x1364 JUMP JUMPDEST PUSH2 0xFF00 NOT AND OR SWAP1 SSTORE ADD SLOAD SWAP3 DUP4 PUSH1 0x1 SHL SWAP4 DUP1 DUP6 DIV PUSH1 0x2 EQ SWAP1 ISZERO OR ISZERO PUSH2 0x4F5 JUMPI PUSH1 0xCB SLOAD DUP7 MLOAD PUSH4 0xA9059CBB PUSH1 0xE0 SHL DUP2 MSTORE PUSH1 0x1 PUSH1 0x1 PUSH1 0xA0 SHL SUB DUP6 AND SWAP4 DUP2 ADD SWAP4 DUP5 MSTORE PUSH1 0x20 DUP5 DUP2 ADD DUP8 SWAP1 MSTORE SWAP1 SWAP4 SWAP1 SWAP3 DUP5 SWAP3 AND SWAP1 DUP3 SWAP1 DUP11 SWAP1 DUP3 SWAP1 PUSH1 0x40 ADD SUB SWAP3 GAS CALL DUP1 ISZERO PUSH2 0x4EB JUMPI SWAP5 PUSH2 0x4C6 SWAP2 PUSH32 0x59234BAAE61FCCB633663F7EB364A027F745EA9F20591AE9EF6858F705B5FA22 SWAP6 SWAP7 PUSH2 0x4CC JUMPI JUMPDEST POP MLOAD PUSH1 0x1 PUSH1 0x1 PUSH1 0xA0 SHL SUB SWAP1 SWAP3 AND DUP3 MSTORE PUSH1 0x20 DUP3 ADD SWAP3 SWAP1 SWAP3 MSTORE SWAP1 DUP2 SWAP1 PUSH1 0x40 DUP3 ADD SWAP1 JUMP JUMPDEST SUB SWAP1 LOG2 DUP1 RETURN JUMPDEST PUSH2 0x4E4 SWAP1 PUSH1 0x20 RETURNDATASIZE PUSH1 0x20 GT PUSH2 0x20F JUMPI PUSH2 0x200 DUP2 DUP4 PUSH2 0x12A9 JUMP JUMPDEST POP DUP8 PUSH2 0x4A5 JUMP JUMPDEST DUP6 MLOAD RETURNDATASIZE DUP9 DUP3 RETURNDATACOPY RETURNDATASIZE SWAP1 REVERT JUMPDEST PUSH4 0x4E487B71 PUSH1 0xE0 SHL DUP8 MSTORE PUSH1 0x11 DUP3 MSTORE PUSH1 0x24 DUP8 REVERT JUMPDEST POP CALLVALUE PUSH2 0x2DF JUMPI DUP2 PUSH1 0x3 NOT CALLDATASIZE ADD SLT PUSH2 0x2DF JUMPI PUSH1 0x20 SWAP1 MLOAD PUSH4 0x3B9ACA00 DUP2 MSTORE RETURN JUMPDEST POP CALLVALUE PUSH2 0x2DF JUMPI DUP2 PUSH1 0x3 NOT CALLDATASIZE ADD SLT PUSH2 0x2DF JUMPI PUSH1 0x97 SLOAD SWAP1 MLOAD PUSH1 0x1 PUSH1 0x1 PUSH1 0xA0 SHL SUB SWAP1 SWAP2 AND DUP2 MSTORE PUSH1 0x20 SWAP1 RETURN JUMPDEST POP DUP3 CALLVALUE PUSH2 0x2DB JUMPI PUSH1 0x20 DUP1 PUSH1 0x3 NOT CALLDATASIZE ADD SLT PUSH2 0x6B1 JUMPI DUP2 CALLDATALOAD SWAP2 DUP3 DUP6 MSTORE PUSH1 0xC9 DUP3 MSTORE DUP4 DUP6 KECCAK256 SWAP1 DUP1 DUP3 ADD SLOAD TIMESTAMP LT ISZERO PUSH2 0x67E JUMPI PUSH1 0x5 DUP3 ADD SWAP1 PUSH1 0xFF DUP3 SLOAD AND PUSH2 0x648 JUMPI PUSH1 0xCB SLOAD PUSH1 0x3 DUP5 ADD SLOAD DUP8 MLOAD PUSH4 0x23B872DD PUSH1 0xE0 SHL DUP2 MSTORE CALLER SWAP4 DUP2 ADD SWAP4 SWAP1 SWAP4 MSTORE ADDRESS PUSH1 0x24 DUP5 ADD MSTORE PUSH1 0x44 DUP4 ADD MSTORE DUP5 SWAP1 DUP3 SWAP1 PUSH1 0x64 SWAP1 DUP3 SWAP1 DUP12 SWAP1 PUSH1 0x1 PUSH1 0x1 PUSH1 0xA0 SHL SUB AND GAS CALL DUP1 ISZERO PUSH2 0x63E JUMPI SWAP2 PUSH32 0xCDE8E21E97A7F6EC4BBF0EE44450212E0BA73BE8FDFBFB2B155E861D86756BAC SWAP6 SWAP7 SWAP4 SWAP2 PUSH1 0x2 SWAP4 PUSH2 0x621 JUMPI JUMPDEST POP PUSH1 0x1 PUSH1 0xFF NOT DUP3 SLOAD AND OR SWAP1 SSTORE ADD CALLER PUSH1 0x1 PUSH1 0x1 PUSH1 0x60 SHL SUB PUSH1 0xA0 SHL DUP3 SLOAD AND OR SWAP1 SSTORE MLOAD CALLER DUP2 MSTORE LOG2 DUP1 RETURN JUMPDEST PUSH2 0x637 SWAP1 DUP7 RETURNDATASIZE DUP9 GT PUSH2 0x20F JUMPI PUSH2 0x200 DUP2 DUP4 PUSH2 0x12A9 JUMP JUMPDEST POP DUP9 PUSH2 0x5FA JUMP JUMPDEST DUP7 MLOAD RETURNDATASIZE DUP10 DUP3 RETURNDATACOPY RETURNDATASIZE SWAP1 REVERT JUMPDEST DUP6 MLOAD PUSH3 0x461BCD PUSH1 0xE5 SHL DUP2 MSTORE SWAP1 DUP2 ADD DUP5 SWAP1 MSTORE PUSH1 0x10 PUSH1 0x24 DUP3 ADD MSTORE PUSH16 0x105B1C9958591E48191A5CDC1D5D1959 PUSH1 0x82 SHL PUSH1 0x44 DUP3 ADD MSTORE PUSH1 0x64 SWAP1 REVERT JUMPDEST DUP5 MLOAD PUSH3 0x461BCD PUSH1 0xE5 SHL DUP2 MSTORE SWAP1 DUP2 ADD DUP4 SWAP1 MSTORE PUSH1 0xD PUSH1 0x24 DUP3 ADD MSTORE PUSH13 0x15DA5B991BDDC818DB1BDCD959 PUSH1 0x9A SHL PUSH1 0x44 DUP3 ADD MSTORE PUSH1 0x64 SWAP1 REVERT JUMPDEST DUP4 DUP1 REVERT JUMPDEST POP DUP3 CALLVALUE PUSH2 0x2DB JUMPI DUP2 PUSH1 0x3 NOT CALLDATASIZE ADD SLT PUSH2 0x2DB JUMPI PUSH2 0x6CF PUSH2 0x1237 JUMP JUMPDEST SWAP2 PUSH1 0xFF PUSH2 0x6DA PUSH2 0x1227 JUMP JUMPDEST AND PUSH1 0x1 DUP2 EQ DUP1 ISZERO PUSH2 0x8FC JUMPI JUMPDEST ISZERO PUSH2 0x8C7 JUMPI DUP5 PUSH1 0x1 DUP1 PUSH1 0xA0 SHL SUB DUP1 PUSH1 0xCB SLOAD AND SWAP5 DUP5 MLOAD PUSH4 0x23B872DD PUSH1 0xE0 SHL DUP2 MSTORE CALLER DUP3 DUP3 ADD MSTORE ADDRESS PUSH1 0x24 DUP3 ADD MSTORE PUSH4 0x3B9ACA00 SWAP7 DUP8 PUSH1 0x44 DUP4 ADD MSTORE DUP2 PUSH1 0x64 DUP2 PUSH1 0x20 SWAP8 DUP9 SWAP5 GAS CALL DUP1 ISZERO PUSH2 0x8BD JUMPI PUSH2 0x8A0 JUMPI JUMPDEST POP PUSH1 0xCA SLOAD SWAP7 PUSH1 0x0 NOT DUP9 EQ PUSH2 0x88D JUMPI DUP3 SWAP1 PUSH1 0x1 DUP10 ADD PUSH1 0xCA SSTORE AND SWAP6 PUSH2 0x1C20 TIMESTAMP ADD SWAP1 DUP2 TIMESTAMP GT PUSH2 0x87A JUMPI DUP7 MLOAD SWAP4 PUSH2 0x100 DUP6 ADD DUP6 DUP2 LT PUSH8 0xFFFFFFFFFFFFFFFF DUP3 GT OR PUSH2 0x865 JUMPI SWAP2 DUP12 SWAP6 SWAP4 SWAP2 DUP12 SWAP6 SWAP4 DUP11 MSTORE DUP11 DUP6 MSTORE DUP8 DUP6 ADD SWAP1 DUP10 DUP3 MSTORE DUP11 DUP7 ADD SWAP2 CALLER DUP4 MSTORE PUSH1 0x60 DUP8 ADD SWAP3 DUP10 DUP5 MSTORE PUSH1 0x80 DUP9 ADD SWAP5 DUP6 MSTORE PUSH1 0xA0 DUP9 ADD SWAP6 DUP7 MSTORE DUP13 PUSH1 0xC0 DUP10 ADD SWAP11 DUP1 DUP13 MSTORE PUSH1 0xE0 DUP11 ADD SWAP11 DUP2 DUP13 MSTORE DUP2 MSTORE PUSH1 0xC9 DUP14 MSTORE KECCAK256 SWAP8 MLOAD DUP9 SSTORE PUSH1 0x1 DUP9 ADD SWAP2 MLOAD PUSH1 0xFF AND DUP3 SLOAD SWAP2 PUSH1 0x1 PUSH1 0xA8 SHL PUSH2 0x100 SWAP1 SUB SWAP1 MLOAD PUSH1 0x8 SHL AND SWAP2 PUSH11 0xFFFFFFFFFFFFFFFFFFFFFF PUSH1 0xA8 SHL AND OR OR SWAP1 SSTORE PUSH1 0x2 DUP7 ADD SWAP2 MLOAD AND PUSH1 0x1 PUSH1 0x1 PUSH1 0x60 SHL SUB PUSH1 0xA0 SHL DUP3 SLOAD AND OR SWAP1 SSTORE MLOAD PUSH1 0x3 DUP5 ADD SSTORE MLOAD SWAP1 DUP3 ADD SSTORE PUSH1 0x5 ADD SWAP2 MLOAD ISZERO ISZERO SWAP1 DUP3 SLOAD SWAP1 MLOAD ISZERO ISZERO PUSH1 0x8 SHL PUSH2 0xFF00 AND SWAP2 PUSH1 0xFF AND SWAP1 PUSH2 0xFFFF NOT AND OR OR SWAP1 SSTORE DUP3 MLOAD SWAP4 DUP5 MSTORE DUP4 ADD MSTORE PUSH32 0x9269D301F16E15FA22CC98511A481FF00AB5B0D9E076522E330675D30D37A438 SWAP2 LOG2 DUP1 RETURN JUMPDEST PUSH1 0x41 DUP6 PUSH4 0x4E487B71 PUSH1 0xE0 SHL PUSH1 0x0 MSTORE MSTORE PUSH1 0x24 PUSH1 0x0 REVERT JUMPDEST PUSH4 0x4E487B71 PUSH1 0xE0 SHL DUP11 MSTORE PUSH1 0x11 DUP4 MSTORE PUSH1 0x24 DUP11 REVERT JUMPDEST PUSH4 0x4E487B71 PUSH1 0xE0 SHL DUP10 MSTORE PUSH1 0x11 DUP3 MSTORE PUSH1 0x24 DUP10 REVERT JUMPDEST PUSH2 0x8B6 SWAP1 DUP5 RETURNDATASIZE DUP7 GT PUSH2 0x20F JUMPI PUSH2 0x200 DUP2 DUP4 PUSH2 0x12A9 JUMP JUMPDEST POP DUP9 PUSH2 0x732 JUMP JUMPDEST DUP7 MLOAD RETURNDATASIZE DUP12 DUP3 RETURNDATACOPY RETURNDATASIZE SWAP1 REVERT JUMPDEST DUP2 MLOAD PUSH3 0x461BCD PUSH1 0xE5 SHL DUP2 MSTORE PUSH1 0x20 DUP2 DUP6 ADD MSTORE PUSH1 0xF PUSH1 0x24 DUP3 ADD MSTORE PUSH15 0x496E76616C6964206F7574636F6D65 PUSH1 0x88 SHL PUSH1 0x44 DUP3 ADD MSTORE PUSH1 0x64 SWAP1 REVERT JUMPDEST POP PUSH1 0x2 DUP2 EQ PUSH2 0x6E6 JUMP JUMPDEST DUP3 CALLVALUE PUSH2 0x964 JUMPI DUP1 PUSH1 0x3 NOT CALLDATASIZE ADD SLT PUSH2 0x964 JUMPI PUSH2 0x91F PUSH2 0x14DE JUMP JUMPDEST PUSH1 0x97 DUP1 SLOAD PUSH1 0x1 PUSH1 0x1 PUSH1 0xA0 SHL SUB NOT DUP2 AND SWAP1 SWAP2 SSTORE PUSH1 0x0 SWAP1 PUSH1 0x1 PUSH1 0x1 PUSH1 0xA0 SHL SUB AND PUSH32 0x8BE0079C531659141344CD1FD0A4F28419497F9722A3DAAFE3B4186F6B6457E0 DUP3 DUP1 LOG3 DUP1 RETURN JUMPDEST DUP1 REVERT JUMPDEST POP SWAP2 SWAP1 CALLVALUE PUSH2 0x964 JUMPI DUP1 PUSH1 0x3 NOT CALLDATASIZE ADD SLT PUSH2 0x964 JUMPI POP PUSH32 0x0 PUSH1 0x1 PUSH1 0x1 PUSH1 0xA0 SHL SUB AND ADDRESS SUB PUSH2 0x9C2 JUMPI PUSH1 0x20 DUP3 MLOAD PUSH1 0x0 DUP1 MLOAD PUSH1 0x20 PUSH2 0x16E4 DUP4 CODECOPY DUP2 MLOAD SWAP2 MSTORE DUP2 MSTORE RETURN JUMPDEST PUSH1 0x20 PUSH1 0x84 SWAP3 MLOAD SWAP2 PUSH3 0x461BCD PUSH1 0xE5 SHL DUP4 MSTORE DUP3 ADD MSTORE PUSH1 0x38 PUSH1 0x24 DUP3 ADD MSTORE PUSH32 0x555550535570677261646561626C653A206D757374206E6F742062652063616C PUSH1 0x44 DUP3 ADD MSTORE PUSH32 0x6C6564207468726F7567682064656C656761746563616C6C0000000000000000 PUSH1 0x64 DUP3 ADD MSTORE REVERT JUMPDEST POP DUP1 DUP4 SWAP2 PUSH1 0x3 NOT CALLDATASIZE ADD SLT PUSH2 0x2DB JUMPI PUSH2 0xA40 PUSH2 0x1237 JUMP JUMPDEST SWAP1 PUSH1 0x24 CALLDATALOAD SWAP1 PUSH8 0xFFFFFFFFFFFFFFFF DUP3 GT PUSH2 0xD2B JUMPI CALLDATASIZE PUSH1 0x23 DUP4 ADD SLT ISZERO PUSH2 0xD2B JUMPI DUP2 DUP5 ADD CALLDATALOAD PUSH2 0xA6C DUP2 PUSH2 0x12CB JUMP JUMPDEST PUSH2 0xA78 DUP4 MLOAD SWAP2 DUP3 PUSH2 0x12A9 JUMP JUMPDEST DUP2 DUP2 MSTORE DUP7 PUSH1 0x20 SWAP5 DUP6 DUP4 ADD SWAP4 CALLDATASIZE PUSH1 0x24 DUP3 DUP5 ADD ADD GT PUSH2 0x2DB JUMPI DUP1 PUSH1 0x24 DUP9 SWAP4 ADD DUP7 CALLDATACOPY DUP4 ADD ADD MSTORE PUSH1 0x1 PUSH1 0x1 PUSH1 0xA0 SHL SUB PUSH32 0x0 DUP2 AND SWAP1 PUSH2 0xAD3 ADDRESS DUP4 EQ ISZERO PUSH2 0x13A4 JUMP JUMPDEST PUSH2 0xAF0 PUSH1 0x0 DUP1 MLOAD PUSH1 0x20 PUSH2 0x16E4 DUP4 CODECOPY DUP2 MLOAD SWAP2 MSTORE SWAP3 DUP3 DUP5 SLOAD AND EQ PUSH2 0x1405 JUMP JUMPDEST PUSH2 0xAF8 PUSH2 0x14DE JUMP JUMPDEST PUSH32 0x4910FDFA16FED3260ED0E7147F7CC6DA11A60208B5B9406D12A635614FFD9143 SLOAD PUSH1 0xFF AND ISZERO PUSH2 0xB32 JUMPI POP POP POP POP POP POP PUSH2 0x320 SWAP2 POP PUSH2 0x157F JUMP JUMPDEST DUP7 SWAP3 SWAP4 SWAP5 SWAP6 SWAP7 AND SWAP1 DUP6 MLOAD PUSH4 0x52D1902D PUSH1 0xE0 SHL DUP2 MSTORE DUP8 DUP2 DUP11 DUP2 DUP7 GAS STATICCALL PUSH1 0x0 SWAP2 DUP2 PUSH2 0xCF7 JUMPI JUMPDEST POP PUSH2 0xBB5 JUMPI DUP7 MLOAD PUSH3 0x461BCD PUSH1 0xE5 SHL DUP2 MSTORE DUP1 DUP11 ADD DUP10 SWAP1 MSTORE PUSH1 0x2E PUSH1 0x24 DUP3 ADD MSTORE PUSH32 0x45524331393637557067726164653A206E657720696D706C656D656E74617469 PUSH1 0x44 DUP3 ADD MSTORE PUSH14 0x6F6E206973206E6F742055555053 PUSH1 0x90 SHL PUSH1 0x64 DUP3 ADD MSTORE PUSH1 0x84 SWAP1 REVERT JUMPDEST SWAP8 SWAP2 SWAP3 SWAP4 SWAP7 SWAP6 SWAP5 SWAP8 SUB PUSH2 0xCA2 JUMPI POP PUSH2 0xBCC DUP3 PUSH2 0x157F JUMP JUMPDEST PUSH32 0xBC7CD75A20EE27FD9ADEBAB32041F755214DBC6BFFA90CC0225B39DA2E5C2D3B PUSH1 0x0 DUP1 LOG2 DUP4 MLOAD ISZERO DUP1 ISZERO SWAP1 PUSH2 0xC9A JUMPI JUMPDEST PUSH2 0xC09 JUMPI JUMPDEST POP POP POP POP POP DUP1 RETURN JUMPDEST PUSH1 0x0 DUP1 PUSH2 0xC85 SWAP7 DUP5 MLOAD SWAP7 PUSH2 0xC1C DUP9 PUSH2 0x128D JUMP JUMPDEST PUSH1 0x27 DUP9 MSTORE PUSH32 0x416464726573733A206C6F772D6C6576656C2064656C65676174652063616C6C DUP8 DUP10 ADD MSTORE PUSH7 0x819985A5B1959 PUSH1 0xCA SHL DUP7 DUP10 ADD MSTORE MLOAD SWAP1 DUP5 GAS DELEGATECALL SWAP2 RETURNDATASIZE ISZERO PUSH2 0xC90 JUMPI RETURNDATASIZE PUSH2 0xC76 PUSH2 0xC6D DUP3 PUSH2 0x12CB JUMP JUMPDEST SWAP3 MLOAD SWAP3 DUP4 PUSH2 0x12A9 JUMP JUMPDEST DUP2 MSTORE PUSH1 0x0 DUP2 SWAP5 RETURNDATASIZE SWAP3 ADD RETURNDATACOPY PUSH2 0x160F JUMP JUMPDEST POP DUP2 DUP1 DUP1 DUP1 DUP1 PUSH2 0xC01 JUMP JUMPDEST POP PUSH1 0x60 SWAP3 POP PUSH2 0x160F JUMP JUMPDEST POP PUSH1 0x1 PUSH2 0xBFC JUMP JUMPDEST DUP4 MLOAD PUSH3 0x461BCD PUSH1 0xE5 SHL DUP2 MSTORE SWAP1 DUP2 ADD DUP6 SWAP1 MSTORE PUSH1 0x29 PUSH1 0x24 DUP3 ADD MSTORE PUSH32 0x45524331393637557067726164653A20756E737570706F727465642070726F78 PUSH1 0x44 DUP3 ADD MSTORE PUSH9 0x1A58589B1955555251 PUSH1 0xBA SHL PUSH1 0x64 DUP3 ADD MSTORE PUSH1 0x84 SWAP1 REVERT JUMPDEST SWAP1 SWAP2 POP DUP9 DUP2 DUP2 RETURNDATASIZE DUP4 GT PUSH2 0xD24 JUMPI JUMPDEST PUSH2 0xD0F DUP2 DUP4 PUSH2 0x12A9 JUMP JUMPDEST DUP2 ADD SUB SLT PUSH2 0xD1F JUMPI MLOAD SWAP1 DUP12 PUSH2 0xB56 JUMP JUMPDEST PUSH1 0x0 DUP1 REVERT JUMPDEST POP RETURNDATASIZE PUSH2 0xD05 JUMP JUMPDEST DUP5 DUP1 REVERT JUMPDEST POP DUP3 CALLVALUE PUSH2 0x2DB JUMPI DUP2 PUSH1 0x3 NOT CALLDATASIZE ADD SLT PUSH2 0x2DB JUMPI PUSH2 0xD49 PUSH2 0x1237 JUMP JUMPDEST SWAP1 PUSH2 0xD52 PUSH2 0x124D JUMP JUMPDEST SWAP2 DUP5 SLOAD PUSH1 0xFF DUP2 PUSH1 0x8 SHR AND ISZERO SWAP3 DUP4 DUP1 SWAP5 PUSH2 0xEA3 JUMPI JUMPDEST DUP1 ISZERO PUSH2 0xE8C JUMPI JUMPDEST ISZERO PUSH2 0xE32 JUMPI POP PUSH1 0xFF NOT DUP2 AND PUSH1 0x1 OR DUP7 SSTORE DUP3 PUSH2 0xE21 JUMPI JUMPDEST POP PUSH2 0xD9D PUSH1 0xFF DUP7 SLOAD PUSH1 0x8 SHR AND PUSH2 0xD98 DUP2 PUSH2 0x147E JUMP JUMPDEST PUSH2 0x147E JUMP JUMPDEST PUSH2 0xDA6 CALLER PUSH2 0x1536 JUMP JUMPDEST DUP5 SLOAD SWAP3 PUSH2 0xDB8 PUSH1 0xFF DUP6 PUSH1 0x8 SHR AND PUSH2 0x147E JUMP JUMPDEST PUSH1 0x1 DUP1 PUSH1 0xA0 SHL SUB SWAP1 DUP2 PUSH1 0x1 PUSH1 0x1 PUSH1 0x60 SHL SUB PUSH1 0xA0 SHL SWAP4 AND DUP4 PUSH1 0xCB SLOAD AND OR PUSH1 0xCB SSTORE AND SWAP1 PUSH1 0xCC SLOAD AND OR PUSH1 0xCC SSTORE PUSH2 0xDE9 JUMPI DUP3 DUP1 RETURN JUMPDEST PUSH2 0xFF00 NOT AND DUP3 SSTORE MLOAD PUSH1 0x1 DUP2 MSTORE PUSH32 0x7F26B83FF96E1F2B6A682F133852F6798A09C465DA95921460CEFB3847402498 SWAP1 PUSH1 0x20 SWAP1 LOG1 DUP2 DUP1 DUP3 DUP1 RETURN JUMPDEST PUSH2 0xFFFF NOT AND PUSH2 0x101 OR DUP6 SSTORE DUP6 PUSH2 0xD83 JUMP JUMPDEST PUSH1 0x84 SWAP1 PUSH1 0x20 DUP8 MLOAD SWAP2 PUSH3 0x461BCD PUSH1 0xE5 SHL DUP4 MSTORE DUP3 ADD MSTORE PUSH1 0x2E PUSH1 0x24 DUP3 ADD MSTORE PUSH32 0x496E697469616C697A61626C653A20636F6E747261637420697320616C726561 PUSH1 0x44 DUP3 ADD MSTORE PUSH14 0x191E481A5B9A5D1A585B1A5E9959 PUSH1 0x92 SHL PUSH1 0x64 DUP3 ADD MSTORE REVERT JUMPDEST POP ADDRESS EXTCODESIZE ISZERO DUP1 ISZERO PUSH2 0xD6D JUMPI POP PUSH1 0x1 PUSH1 0xFF DUP4 AND EQ PUSH2 0xD6D JUMP JUMPDEST POP PUSH1 0x1 PUSH1 0xFF DUP4 AND LT PUSH2 0xD66 JUMP JUMPDEST POP CALLVALUE PUSH2 0x2DF JUMPI DUP2 PUSH1 0x3 NOT CALLDATASIZE ADD SLT PUSH2 0x2DF JUMPI PUSH1 0xCC SLOAD SWAP1 MLOAD PUSH1 0x1 PUSH1 0x1 PUSH1 0xA0 SHL SUB SWAP1 SWAP2 AND DUP2 MSTORE PUSH1 0x20 SWAP1 RETURN JUMPDEST POP CALLVALUE PUSH2 0x2DF JUMPI DUP2 PUSH1 0x3 NOT CALLDATASIZE ADD SLT PUSH2 0x2DF JUMPI PUSH1 0xCB SLOAD SWAP1 MLOAD PUSH1 0x1 PUSH1 0x1 PUSH1 0xA0 SHL SUB SWAP1 SWAP2 AND DUP2 MSTORE PUSH1 0x20 SWAP1 RETURN JUMPDEST POP DUP3 SWAP1 CALLVALUE PUSH2 0x2DB JUMPI PUSH1 0x20 DUP1 PUSH1 0x3 NOT CALLDATASIZE ADD SLT PUSH2 0x6B1 JUMPI PUSH2 0xF1D PUSH2 0x1237 JUMP JUMPDEST SWAP2 PUSH1 0x1 PUSH1 0x1 PUSH1 0xA0 SHL SUB PUSH32 0x0 DUP2 AND PUSH2 0xF55 ADDRESS DUP3 EQ ISZERO PUSH2 0x13A4 JUMP JUMPDEST PUSH2 0xF72 PUSH1 0x0 DUP1 MLOAD PUSH1 0x20 PUSH2 0x16E4 DUP4 CODECOPY DUP2 MLOAD SWAP2 MSTORE SWAP2 DUP4 DUP4 SLOAD AND EQ PUSH2 0x1405 JUMP JUMPDEST PUSH2 0xF7A PUSH2 0x14DE JUMP JUMPDEST DUP3 MLOAD SWAP1 DUP5 DUP3 ADD SWAP3 DUP3 DUP5 LT PUSH8 0xFFFFFFFFFFFFFFFF DUP6 GT OR PUSH2 0x10E0 JUMPI DUP4 DUP6 MSTORE DUP9 DUP4 MSTORE PUSH32 0x4910FDFA16FED3260ED0E7147F7CC6DA11A60208B5B9406D12A635614FFD9143 SLOAD PUSH1 0xFF AND ISZERO PUSH2 0xFD4 JUMPI POP POP POP POP POP POP PUSH2 0x320 SWAP2 POP PUSH2 0x157F JUMP JUMPDEST DUP7 SWAP3 SWAP4 SWAP5 SWAP6 SWAP7 AND SWAP1 DUP6 MLOAD PUSH4 0x52D1902D PUSH1 0xE0 SHL DUP2 MSTORE DUP8 DUP2 DUP11 DUP2 DUP7 GAS STATICCALL PUSH1 0x0 SWAP2 DUP2 PUSH2 0x10B1 JUMPI JUMPDEST POP PUSH2 0x1057 JUMPI DUP7 MLOAD PUSH3 0x461BCD PUSH1 0xE5 SHL DUP2 MSTORE DUP1 DUP11 ADD DUP10 SWAP1 MSTORE PUSH1 0x2E PUSH1 0x24 DUP3 ADD MSTORE PUSH32 0x45524331393637557067726164653A206E657720696D706C656D656E74617469 PUSH1 0x44 DUP3 ADD MSTORE PUSH14 0x6F6E206973206E6F742055555053 PUSH1 0x90 SHL PUSH1 0x64 DUP3 ADD MSTORE PUSH1 0x84 SWAP1 REVERT JUMPDEST SWAP8 SWAP2 SWAP3 SWAP4 SWAP7 SWAP6 SWAP5 SWAP8 SUB PUSH2 0xCA2 JUMPI POP PUSH2 0x106E DUP3 PUSH2 0x157F JUMP JUMPDEST PUSH32 0xBC7CD75A20EE27FD9ADEBAB32041F755214DBC6BFFA90CC0225B39DA2E5C2D3B PUSH1 0x0 DUP1 LOG2 DUP4 MLOAD ISZERO DUP1 ISZERO SWAP1 PUSH2 0x10A9 JUMPI PUSH2 0xC09 JUMPI POP POP POP POP POP DUP1 RETURN JUMPDEST POP PUSH1 0x0 PUSH2 0xBFC JUMP JUMPDEST SWAP1 SWAP2 POP DUP9 DUP2 DUP2 RETURNDATASIZE DUP4 GT PUSH2 0x10D9 JUMPI JUMPDEST PUSH2 0x10C9 DUP2 DUP4 PUSH2 0x12A9 JUMP JUMPDEST DUP2 ADD SUB SLT PUSH2 0xD1F JUMPI MLOAD SWAP1 DUP12 PUSH2 0xFF8 JUMP JUMPDEST POP RETURNDATASIZE PUSH2 0x10BF JUMP JUMPDEST PUSH1 0x41 DUP9 PUSH4 0x4E487B71 PUSH1 0xE0 SHL PUSH1 0x0 MSTORE MSTORE PUSH1 0x24 PUSH1 0x0 REVERT JUMPDEST POP DUP3 SWAP1 CALLVALUE PUSH2 0x2DB JUMPI DUP1 PUSH1 0x3 NOT CALLDATASIZE ADD SLT PUSH2 0x2DB JUMPI DUP3 PUSH2 0x1111 PUSH2 0x1227 JUMP JUMPDEST PUSH1 0xCC SLOAD PUSH1 0x1 PUSH1 0x1 PUSH1 0xA0 SHL SUB SWAP1 PUSH2 0x112A SWAP1 DUP3 AND CALLER EQ PUSH2 0x12E7 JUMP JUMPDEST DUP5 CALLDATALOAD DUP4 MSTORE PUSH1 0xC9 PUSH1 0x20 MSTORE DUP4 DUP4 KECCAK256 PUSH2 0x1155 PUSH1 0xFF PUSH1 0x5 DUP4 ADD SLOAD PUSH2 0x114B DUP3 DUP3 AND PUSH2 0x1329 JUMP JUMPDEST PUSH1 0x8 SHR AND ISZERO PUSH2 0x1364 JUMP JUMPDEST SLOAD AND DUP1 EXTCODESIZE ISZERO PUSH2 0x2DB JUMPI PUSH1 0xFF SWAP2 DUP4 PUSH1 0x24 SWAP3 DUP7 MLOAD SWAP8 DUP9 SWAP6 DUP7 SWAP5 PUSH4 0x1B75218F PUSH1 0xE1 SHL DUP7 MSTORE AND SWAP1 DUP5 ADD MSTORE GAS CALL SWAP1 DUP2 ISZERO PUSH2 0x1196 JUMPI POP PUSH2 0x118D JUMPI POP DUP1 RETURN JUMPDEST PUSH2 0x320 SWAP1 PUSH2 0x1263 JUMP JUMPDEST MLOAD RETURNDATASIZE DUP5 DUP3 RETURNDATACOPY RETURNDATASIZE SWAP1 REVERT JUMPDEST SWAP3 SWAP4 SWAP1 POP CALLVALUE PUSH2 0x6B1 JUMPI PUSH1 0x20 CALLDATASIZE PUSH1 0x3 NOT ADD SLT PUSH2 0x6B1 JUMPI SWAP1 DUP2 DUP2 PUSH2 0x100 SWAP6 PUSH1 0xFF SWAP5 CALLDATALOAD DUP2 MSTORE PUSH1 0xC9 PUSH1 0x20 MSTORE KECCAK256 SWAP1 DUP2 SLOAD SWAP3 PUSH1 0x1 DUP4 ADD SLOAD SWAP1 PUSH1 0x1 DUP1 PUSH1 0xA0 SHL SUB DUP1 PUSH1 0x2 DUP7 ADD SLOAD AND SWAP3 PUSH1 0x5 PUSH1 0x3 DUP8 ADD SLOAD SWAP6 DUP8 ADD SLOAD SWAP7 ADD SLOAD SWAP7 DUP10 MSTORE DUP8 DUP2 AND PUSH1 0x20 DUP11 ADD MSTORE PUSH1 0x8 SHR AND SWAP1 DUP8 ADD MSTORE PUSH1 0x60 DUP7 ADD MSTORE PUSH1 0x80 DUP6 ADD MSTORE PUSH1 0xA0 DUP5 ADD MSTORE DUP2 DUP2 AND ISZERO ISZERO PUSH1 0xC0 DUP5 ADD MSTORE PUSH1 0x8 SHR AND ISZERO ISZERO PUSH1 0xE0 DUP3 ADD MSTORE RETURN JUMPDEST PUSH1 0x24 CALLDATALOAD SWAP1 PUSH1 0xFF DUP3 AND DUP3 SUB PUSH2 0xD1F JUMPI JUMP JUMPDEST PUSH1 0x4 CALLDATALOAD SWAP1 PUSH1 0x1 PUSH1 0x1 PUSH1 0xA0 SHL SUB DUP3 AND DUP3 SUB PUSH2 0xD1F JUMPI JUMP JUMPDEST PUSH1 0x24 CALLDATALOAD SWAP1 PUSH1 0x1 PUSH1 0x1 PUSH1 0xA0 SHL SUB DUP3 AND DUP3 SUB PUSH2 0xD1F JUMPI JUMP JUMPDEST PUSH8 0xFFFFFFFFFFFFFFFF DUP2 GT PUSH2 0x1277 JUMPI PUSH1 0x40 MSTORE JUMP JUMPDEST PUSH4 0x4E487B71 PUSH1 0xE0 SHL PUSH1 0x0 MSTORE PUSH1 0x41 PUSH1 0x4 MSTORE PUSH1 0x24 PUSH1 0x0 REVERT JUMPDEST PUSH1 0x60 DUP2 ADD SWAP1 DUP2 LT PUSH8 0xFFFFFFFFFFFFFFFF DUP3 GT OR PUSH2 0x1277 JUMPI PUSH1 0x40 MSTORE JUMP JUMPDEST SWAP1 PUSH1 0x1F DUP1 NOT SWAP2 ADD AND DUP2 ADD SWAP1 DUP2 LT PUSH8 0xFFFFFFFFFFFFFFFF DUP3 GT OR PUSH2 0x1277 JUMPI PUSH1 0x40 MSTORE JUMP JUMPDEST PUSH8 0xFFFFFFFFFFFFFFFF DUP2 GT PUSH2 0x1277 JUMPI PUSH1 0x1F ADD PUSH1 0x1F NOT AND PUSH1 0x20 ADD SWAP1 JUMP JUMPDEST ISZERO PUSH2 0x12EE JUMPI JUMP JUMPDEST PUSH1 0x40 MLOAD PUSH3 0x461BCD PUSH1 0xE5 SHL DUP2 MSTORE PUSH1 0x20 PUSH1 0x4 DUP3 ADD MSTORE PUSH1 0x13 PUSH1 0x24 DUP3 ADD MSTORE PUSH19 0x27B7363C9030B236B4B7103932B9B7B63B32B9 PUSH1 0x69 SHL PUSH1 0x44 DUP3 ADD MSTORE PUSH1 0x64 SWAP1 REVERT JUMPDEST ISZERO PUSH2 0x1330 JUMPI JUMP JUMPDEST PUSH1 0x40 MLOAD PUSH3 0x461BCD PUSH1 0xE5 SHL DUP2 MSTORE PUSH1 0x20 PUSH1 0x4 DUP3 ADD MSTORE PUSH1 0xC PUSH1 0x24 DUP3 ADD MSTORE PUSH12 0x139BDD08191A5CDC1D5D1959 PUSH1 0xA2 SHL PUSH1 0x44 DUP3 ADD MSTORE PUSH1 0x64 SWAP1 REVERT JUMPDEST ISZERO PUSH2 0x136B JUMPI JUMP JUMPDEST PUSH1 0x40 MLOAD PUSH3 0x461BCD PUSH1 0xE5 SHL DUP2 MSTORE PUSH1 0x20 PUSH1 0x4 DUP3 ADD MSTORE PUSH1 0x11 PUSH1 0x24 DUP3 ADD MSTORE PUSH17 0x105B1C9958591E48199A5B985B1A5E9959 PUSH1 0x7A SHL PUSH1 0x44 DUP3 ADD MSTORE PUSH1 0x64 SWAP1 REVERT JUMPDEST ISZERO PUSH2 0x13AB JUMPI JUMP JUMPDEST PUSH1 0x40 MLOAD PUSH3 0x461BCD PUSH1 0xE5 SHL DUP2 MSTORE PUSH1 0x20 PUSH1 0x4 DUP3 ADD MSTORE PUSH1 0x2C PUSH1 0x24 DUP3 ADD MSTORE PUSH32 0x46756E6374696F6E206D7573742062652063616C6C6564207468726F75676820 PUSH1 0x44 DUP3 ADD MSTORE PUSH12 0x19195B1959D85D1958D85B1B PUSH1 0xA2 SHL PUSH1 0x64 DUP3 ADD MSTORE PUSH1 0x84 SWAP1 REVERT JUMPDEST ISZERO PUSH2 0x140C JUMPI JUMP JUMPDEST PUSH1 0x40 MLOAD PUSH3 0x461BCD PUSH1 0xE5 SHL DUP2 MSTORE PUSH1 0x20 PUSH1 0x4 DUP3 ADD MSTORE PUSH1 0x2C PUSH1 0x24 DUP3 ADD MSTORE PUSH32 0x46756E6374696F6E206D7573742062652063616C6C6564207468726F75676820 PUSH1 0x44 DUP3 ADD MSTORE PUSH12 0x6163746976652070726F7879 PUSH1 0xA0 SHL PUSH1 0x64 DUP3 ADD MSTORE PUSH1 0x84 SWAP1 REVERT JUMPDEST SWAP1 DUP2 PUSH1 0x20 SWAP2 SUB SLT PUSH2 0xD1F JUMPI MLOAD DUP1 ISZERO ISZERO DUP2 SUB PUSH2 0xD1F JUMPI SWAP1 JUMP JUMPDEST ISZERO PUSH2 0x1485 JUMPI JUMP JUMPDEST PUSH1 0x40 MLOAD PUSH3 0x461BCD PUSH1 0xE5 SHL DUP2 MSTORE PUSH1 0x20 PUSH1 0x4 DUP3 ADD MSTORE PUSH1 0x2B PUSH1 0x24 DUP3 ADD MSTORE PUSH32 0x496E697469616C697A61626C653A20636F6E7472616374206973206E6F742069 PUSH1 0x44 DUP3 ADD MSTORE PUSH11 0x6E697469616C697A696E67 PUSH1 0xA8 SHL PUSH1 0x64 DUP3 ADD MSTORE PUSH1 0x84 SWAP1 REVERT JUMPDEST PUSH1 0x97 SLOAD PUSH1 0x1 PUSH1 0x1 PUSH1 0xA0 SHL SUB AND CALLER SUB PUSH2 0x14F2 JUMPI JUMP JUMPDEST PUSH1 0x64 PUSH1 0x40 MLOAD PUSH3 0x461BCD PUSH1 0xE5 SHL DUP2 MSTORE PUSH1 0x20 PUSH1 0x4 DUP3 ADD MSTORE PUSH1 0x20 PUSH1 0x24 DUP3 ADD MSTORE PUSH32 0x4F776E61626C653A2063616C6C6572206973206E6F7420746865206F776E6572 PUSH1 0x44 DUP3 ADD MSTORE REVERT JUMPDEST PUSH1 0x97 DUP1 SLOAD PUSH1 0x1 PUSH1 0x1 PUSH1 0xA0 SHL SUB SWAP3 DUP4 AND PUSH1 0x1 PUSH1 0x1 PUSH1 0xA0 SHL SUB NOT DUP3 AND DUP2 OR SWAP1 SWAP3 SSTORE SWAP1 SWAP2 AND PUSH32 0x8BE0079C531659141344CD1FD0A4F28419497F9722A3DAAFE3B4186F6B6457E0 PUSH1 0x0 DUP1 LOG3 JUMP JUMPDEST DUP1 EXTCODESIZE ISZERO PUSH2 0x15B4 JUMPI PUSH1 0x0 DUP1 MLOAD PUSH1 0x20 PUSH2 0x16E4 DUP4 CODECOPY DUP2 MLOAD SWAP2 MSTORE DUP1 SLOAD PUSH1 0x1 PUSH1 0x1 PUSH1 0xA0 SHL SUB NOT AND PUSH1 0x1 PUSH1 0x1 PUSH1 0xA0 SHL SUB SWAP1 SWAP3 AND SWAP2 SWAP1 SWAP2 OR SWAP1 SSTORE JUMP JUMPDEST PUSH1 0x40 MLOAD PUSH3 0x461BCD PUSH1 0xE5 SHL DUP2 MSTORE PUSH1 0x20 PUSH1 0x4 DUP3 ADD MSTORE PUSH1 0x2D PUSH1 0x24 DUP3 ADD MSTORE PUSH32 0x455243313936373A206E657720696D706C656D656E746174696F6E206973206E PUSH1 0x44 DUP3 ADD MSTORE PUSH13 0x1BDD08184818DBDB9D1C9858DD PUSH1 0x9A SHL PUSH1 0x64 DUP3 ADD MSTORE PUSH1 0x84 SWAP1 REVERT JUMPDEST SWAP2 SWAP3 SWAP1 ISZERO PUSH2 0x1671 JUMPI POP DUP2 MLOAD ISZERO PUSH2 0x1623 JUMPI POP SWAP1 JUMP JUMPDEST EXTCODESIZE ISZERO PUSH2 0x162C JUMPI SWAP1 JUMP JUMPDEST PUSH1 0x40 MLOAD PUSH3 0x461BCD PUSH1 0xE5 SHL DUP2 MSTORE PUSH1 0x20 PUSH1 0x4 DUP3 ADD MSTORE PUSH1 0x1D PUSH1 0x24 DUP3 ADD MSTORE PUSH32 0x416464726573733A2063616C6C20746F206E6F6E2D636F6E7472616374000000 PUSH1 0x44 DUP3 ADD MSTORE PUSH1 0x64 SWAP1 REVERT JUMPDEST DUP3 MLOAD SWAP1 SWAP2 POP ISZERO PUSH2 0x1684 JUMPI POP DUP1 MLOAD SWAP1 PUSH1 0x20 ADD REVERT JUMPDEST PUSH1 0x40 MLOAD SWAP1 PUSH3 0x461BCD PUSH1 0xE5 SHL DUP3 MSTORE DUP2 PUSH1 0x20 DUP1 PUSH1 0x4 DUP4 ADD MSTORE DUP3 MLOAD SWAP1 DUP2 PUSH1 0x24 DUP5 ADD MSTORE PUSH1 0x0 SWAP4 JUMPDEST DUP3 DUP6 LT PUSH2 0x16CA JUMPI POP POP PUSH1 0x44 SWAP3 POP PUSH1 0x0 DUP4 DUP3 DUP5 ADD ADD MSTORE PUSH1 0x1F DUP1 NOT SWAP2 ADD AND DUP2 ADD SUB ADD SWAP1 REVERT JUMPDEST DUP5 DUP2 ADD DUP3 ADD MLOAD DUP7 DUP7 ADD PUSH1 0x44 ADD MSTORE SWAP4 DUP2 ADD SWAP4 DUP6 SWAP4 POP PUSH2 0x16A7 JUMP INVALID CALLDATASIZE ADDMOD SWAP5 LOG1 EXTCODESIZE LOG1 LOG3 0x21 MOD PUSH8 0xC828492DB98DCA3E KECCAK256 PUSH23 0xCC3735A920A3CA505D382BBCA264697066735822122090 SIGNEXTEND STOP TSTORE 0xB6 0xD7 MULMOD AND 0x4D PUSH5 0xE5C959DAEA POP PUSH22 0x4F4C525BE842505182D473555675D964736F6C634300 ADDMOD XOR STOP CALLER "},"methodIdentifiers":{"BOND_AMOUNT()":"bcacc70a","CHALLENGE_WINDOW()":"d62aad29","adminResolver()":"44ef913c","dispute(uint256)":"86d6282c","distributeBonds(uint256,address)":"c25432d4","finalizeNoDispute(uint256)":"f6c85888","initialize(address,address)":"485cc955","owner()":"8da5cb5b","proposalCount()":"da35c664","proposals(uint256)":"013cf08b","proposeOutcome(address,uint8)":"719f409c","proxiableUUID()":"52d1902d","renounceOwnership()":"715018a6","resolveDisputedProposal(uint256,uint8)":"3242597e","transferOwnership(address)":"f2fde38b","upgradeTo(address)":"3659cfe6","upgradeToAndCall(address,bytes)":"4f1ef286","usdc()":"3e413bee"}}}}}