{"contracts/AdminResolver.sol":{"AdminResolver":{"abi":[{"anonymous":false,"inputs":[{"indexed":false,"internalType":"uint256","name":"proposalId","type":"uint256"},{"indexed":false,"internalType":"address","name":"winner","type":"address"},{"indexed":false,"internalType":"address","name":"loser","type":"address"},{"indexed":false,"internalType":"uint256","name":"amount","type":"uint256"}],"name":"BondsDistributed","type":"event"},{"anonymous":false,"inputs":[{"indexed":true,"internalType":"address","name":"previousOwner","type":"address"},{"indexed":true,"internalType":"address","name":"newOwner","type":"address"}],"name":"OwnershipTransferred","type":"event"},{"inputs":[],"name":"owner","outputs":[{"internalType":"address","name":"","type":"address"}],"stateMutability":"view","type":"function"},{"inputs":[],"name":"renounceOwnership","outputs":[],"stateMutability":"nonpayable","type":"function"},{"inputs":[{"internalType":"uint256","name":"proposalId","type":"uint256"},{"internalType":"uint8","name":"finalOutcome","type":"uint8"},{"internalType":"address","name":"resolutionModule","type":"address"}],"name":"resolveDispute","outputs":[],"stateMutability":"nonpayable","type":"function"},{"inputs":[{"internalType":"address","name":"newOwner","type":"address"}],"name":"transferOwnership","outputs":[],"stateMutability":"nonpayable","type":"function"}],"evm":{"bytecode":{"linkReferences":{},"object":"6080806040523461005b5760008054336001600160a01b0319821681178355916001600160a01b03909116907f8be0079c531659141344cd1fd0a4f28419497f9722a3daafe3b4186f6b6457e09080a361053790816100618239f35b600080fdfe60406080815260048036101561001457600080fd5b600091823560e01c8063715018a6146104015780638da5cb5b146103d957838163a8aa57eb14610125575063f2fde38b1461004e57600080fd5b34610121576020366003190112610121576001600160a01b0382358181169391929084900361011c5761007f6104a9565b83156100ca575050600054826bffffffffffffffffffffffff60a01b821617600055167f8be0079c531659141344cd1fd0a4f28419497f9722a3daafe3b4186f6b6457e0600080a380f35b906020608492519162461bcd60e51b8352820152602660248201527f4f776e61626c653a206e6577206f776e657220697320746865207a65726f206160448201526564647265737360d01b6064820152fd5b600080fd5b8280fd5b919050346102b15760603660031901126102b157823592602480359060ff82168092036103d5576001600160a01b03926044358481169291908390036103d15761016d6104a9565b855163013cf08b60e01b8152818101899052936101009081868581885afa80156103c75789908a978b948c9261031d575b5050156102ec57853b156102e85788516319212cbf60e11b81528b8582015282868201528c81604481838b5af180156102de576102c4575b5060ff1614948a919086156102bd5780965b156102b55750945b843b156102b15781879160448c838c5195869485936330950cb560e21b85528a85015216998a8a8401525af180156102a75761028f575b50508660011b968088046002149015171561027e57887f733a19d1ca389f4706a15f67e1f85d1989aec8fa9cf01e91a76fb0fff1f0741f60808a8a8a8a8a8a8351958652602086015216908301526060820152a180f35b634e487b7160e01b89526011905287fd5b6102989061045e565b6102a3578838610227565b8880fd5b88513d84823e3d90fd5b5080fd5b9050946101f0565b81966101e8565b9b6102d460ff9d9493929461045e565b9b929091926101d6565b8a513d8f823e3d90fd5b8b80fd5b885162461bcd60e51b8152602081860152600c818701526b139bdd08191a5cdc1d5d195960a21b6044820152606490fd5b94509a5050509450803d82116103c0575b601f8101601f1916890167ffffffffffffffff81118a8210176103ae5788528801889003126102a35760208701519360ff851685036103aa578790610374888301610488565b61038060608401610488565b9661039e60e061039760c06080880151970161049c565b9c0161049c565b5090969299388061019e565b8980fd5b634e487b7160e01b8c5260418452848cfd5b503d61032e565b88513d8b823e3d90fd5b8680fd5b8480fd5b8382346102b157816003193601126102b157905490516001600160a01b039091168152602090f35b833461045b578060031936011261045b5761041a6104a9565b80546001600160a01b03198116825581906001600160a01b03167f8be0079c531659141344cd1fd0a4f28419497f9722a3daafe3b4186f6b6457e08280a380f35b80fd5b67ffffffffffffffff811161047257604052565b634e487b7160e01b600052604160045260246000fd5b51906001600160a01b038216820361011c57565b5190811515820361011c57565b6000546001600160a01b031633036104bd57565b606460405162461bcd60e51b815260206004820152602060248201527f4f776e61626c653a2063616c6c6572206973206e6f7420746865206f776e65726044820152fdfea264697066735822122042fca24e7b0758d92a4d20b819045f44ecd498029a5eea27c106a8a877b2e41b64736f6c63430008180033","opcodes":"PUSH1 0x80 DUP1 PUSH1 0x40 MSTORE CALLVALUE PUSH2 0x5B JUMPI PUSH1 0x0 DUP1 SLOAD CALLER PUSH1 0x1 PUSH1 0x1 PUSH1 0xA0 SHL SUB NOT DUP3 AND DUP2 OR DUP4 SSTORE SWAP2 PUSH1 0x1 PUSH1 0x1 PUSH1 0xA0 SHL SUB SWAP1 SWAP2 AND SWAP1 PUSH32 0x8BE0079C531659141344CD1FD0A4F28419497F9722A3DAAFE3B4186F6B6457E0 SWAP1 DUP1 LOG3 PUSH2 0x537 SWAP1 DUP2 PUSH2 0x61 DUP3 CODECOPY RETURN JUMPDEST PUSH1 0x0 DUP1 REVERT INVALID PUSH1 0x40 PUSH1 0x80 DUP2 MSTORE PUSH1 0x4 DUP1 CALLDATASIZE LT ISZERO PUSH2 0x14 JUMPI PUSH1 0x0 DUP1 REVERT JUMPDEST PUSH1 0x0 SWAP2 DUP3 CALLDATALOAD PUSH1 0xE0 SHR DUP1 PUSH4 0x715018A6 EQ PUSH2 0x401 JUMPI DUP1 PUSH4 0x8DA5CB5B EQ PUSH2 0x3D9 JUMPI DUP4 DUP2 PUSH4 0xA8AA57EB EQ PUSH2 0x125 JUMPI POP PUSH4 0xF2FDE38B EQ PUSH2 0x4E JUMPI PUSH1 0x0 DUP1 REVERT JUMPDEST CALLVALUE PUSH2 0x121 JUMPI PUSH1 0x20 CALLDATASIZE PUSH1 0x3 NOT ADD SLT PUSH2 0x121 JUMPI PUSH1 0x1 PUSH1 0x1 PUSH1 0xA0 SHL SUB DUP3 CALLDATALOAD DUP2 DUP2 AND SWAP4 SWAP2 SWAP3 SWAP1 DUP5 SWAP1 SUB PUSH2 0x11C JUMPI PUSH2 0x7F PUSH2 0x4A9 JUMP JUMPDEST DUP4 ISZERO PUSH2 0xCA JUMPI POP POP PUSH1 0x0 SLOAD DUP3 PUSH12 0xFFFFFFFFFFFFFFFFFFFFFFFF PUSH1 0xA0 SHL DUP3 AND OR PUSH1 0x0 SSTORE AND PUSH32 0x8BE0079C531659141344CD1FD0A4F28419497F9722A3DAAFE3B4186F6B6457E0 PUSH1 0x0 DUP1 LOG3 DUP1 RETURN JUMPDEST SWAP1 PUSH1 0x20 PUSH1 0x84 SWAP3 MLOAD SWAP2 PUSH3 0x461BCD PUSH1 0xE5 SHL DUP4 MSTORE DUP3 ADD MSTORE PUSH1 0x26 PUSH1 0x24 DUP3 ADD MSTORE PUSH32 0x4F776E61626C653A206E6577206F776E657220697320746865207A65726F2061 PUSH1 0x44 DUP3 ADD MSTORE PUSH6 0x646472657373 PUSH1 0xD0 SHL PUSH1 0x64 DUP3 ADD MSTORE REVERT JUMPDEST PUSH1 0x0 DUP1 REVERT JUMPDEST DUP3 DUP1 REVERT JUMPDEST SWAP2 SWAP1 POP CALLVALUE PUSH2 0x2B1 JUMPI PUSH1 0x60 CALLDATASIZE PUSH1 0x3 NOT ADD SLT PUSH2 0x2B1 JUMPI DUP3 CALLDATALOAD SWAP3 PUSH1 0x24 DUP1 CALLDATALOAD SWAP1 PUSH1 0xFF DUP3 AND DUP1 SWAP3 SUB PUSH2 0x3D5 JUMPI PUSH1 0x1 PUSH1 0x1 PUSH1 0xA0 SHL SUB SWAP3 PUSH1 0x44 CALLDATALOAD DUP5 DUP2 AND SWAP3 SWAP2 SWAP1 DUP4 SWAP1 SUB PUSH2 0x3D1 JUMPI PUSH2 0x16D PUSH2 0x4A9 JUMP JUMPDEST DUP6 MLOAD PUSH4 0x13CF08B PUSH1 0xE0 SHL DUP2 MSTORE DUP2 DUP2 ADD DUP10 SWAP1 MSTORE SWAP4 PUSH2 0x100 SWAP1 DUP2 DUP7 DUP6 DUP2 DUP9 GAS STATICCALL DUP1 ISZERO PUSH2 0x3C7 JUMPI DUP10 SWAP1 DUP11 SWAP8 DUP12 SWAP5 DUP13 SWAP3 PUSH2 0x31D JUMPI JUMPDEST POP POP ISZERO PUSH2 0x2EC JUMPI DUP6 EXTCODESIZE ISZERO PUSH2 0x2E8 JUMPI DUP9 MLOAD PUSH4 0x19212CBF PUSH1 0xE1 SHL DUP2 MSTORE DUP12 DUP6 DUP3 ADD MSTORE DUP3 DUP7 DUP3 ADD MSTORE DUP13 DUP2 PUSH1 0x44 DUP2 DUP4 DUP12 GAS CALL DUP1 ISZERO PUSH2 0x2DE JUMPI PUSH2 0x2C4 JUMPI JUMPDEST POP PUSH1 0xFF AND EQ SWAP5 DUP11 SWAP2 SWAP1 DUP7 ISZERO PUSH2 0x2BD JUMPI DUP1 SWAP7 JUMPDEST ISZERO PUSH2 0x2B5 JUMPI POP SWAP5 JUMPDEST DUP5 EXTCODESIZE ISZERO PUSH2 0x2B1 JUMPI DUP2 DUP8 SWAP2 PUSH1 0x44 DUP13 DUP4 DUP13 MLOAD SWAP6 DUP7 SWAP5 DUP6 SWAP4 PUSH4 0x30950CB5 PUSH1 0xE2 SHL DUP6 MSTORE DUP11 DUP6 ADD MSTORE AND SWAP10 DUP11 DUP11 DUP5 ADD MSTORE GAS CALL DUP1 ISZERO PUSH2 0x2A7 JUMPI PUSH2 0x28F JUMPI JUMPDEST POP POP DUP7 PUSH1 0x1 SHL SWAP7 DUP1 DUP9 DIV PUSH1 0x2 EQ SWAP1 ISZERO OR ISZERO PUSH2 0x27E JUMPI DUP9 PUSH32 0x733A19D1CA389F4706A15F67E1F85D1989AEC8FA9CF01E91A76FB0FFF1F0741F PUSH1 0x80 DUP11 DUP11 DUP11 DUP11 DUP11 DUP11 DUP4 MLOAD SWAP6 DUP7 MSTORE PUSH1 0x20 DUP7 ADD MSTORE AND SWAP1 DUP4 ADD MSTORE PUSH1 0x60 DUP3 ADD MSTORE LOG1 DUP1 RETURN JUMPDEST PUSH4 0x4E487B71 PUSH1 0xE0 SHL DUP10 MSTORE PUSH1 0x11 SWAP1 MSTORE DUP8 REVERT JUMPDEST PUSH2 0x298 SWAP1 PUSH2 0x45E JUMP JUMPDEST PUSH2 0x2A3 JUMPI DUP9 CODESIZE PUSH2 0x227 JUMP JUMPDEST DUP9 DUP1 REVERT JUMPDEST DUP9 MLOAD RETURNDATASIZE DUP5 DUP3 RETURNDATACOPY RETURNDATASIZE SWAP1 REVERT JUMPDEST POP DUP1 REVERT JUMPDEST SWAP1 POP SWAP5 PUSH2 0x1F0 JUMP JUMPDEST DUP2 SWAP7 PUSH2 0x1E8 JUMP JUMPDEST SWAP12 PUSH2 0x2D4 PUSH1 0xFF SWAP14 SWAP5 SWAP4 SWAP3 SWAP5 PUSH2 0x45E JUMP JUMPDEST SWAP12 SWAP3 SWAP1 SWAP2 SWAP3 PUSH2 0x1D6 JUMP JUMPDEST DUP11 MLOAD RETURNDATASIZE DUP16 DUP3 RETURNDATACOPY RETURNDATASIZE SWAP1 REVERT JUMPDEST DUP12 DUP1 REVERT JUMPDEST DUP9 MLOAD PUSH3 0x461BCD PUSH1 0xE5 SHL DUP2 MSTORE PUSH1 0x20 DUP2 DUP7 ADD MSTORE PUSH1 0xC DUP2 DUP8 ADD MSTORE PUSH12 0x139BDD08191A5CDC1D5D1959 PUSH1 0xA2 SHL PUSH1 0x44 DUP3 ADD MSTORE PUSH1 0x64 SWAP1 REVERT JUMPDEST SWAP5 POP SWAP11 POP POP POP SWAP5 POP DUP1 RETURNDATASIZE DUP3 GT PUSH2 0x3C0 JUMPI JUMPDEST PUSH1 0x1F DUP2 ADD PUSH1 0x1F NOT AND DUP10 ADD PUSH8 0xFFFFFFFFFFFFFFFF DUP2 GT DUP11 DUP3 LT OR PUSH2 0x3AE JUMPI DUP9 MSTORE DUP9 ADD DUP9 SWAP1 SUB SLT PUSH2 0x2A3 JUMPI PUSH1 0x20 DUP8 ADD MLOAD SWAP4 PUSH1 0xFF DUP6 AND DUP6 SUB PUSH2 0x3AA JUMPI DUP8 SWAP1 PUSH2 0x374 DUP9 DUP4 ADD PUSH2 0x488 JUMP JUMPDEST PUSH2 0x380 PUSH1 0x60 DUP5 ADD PUSH2 0x488 JUMP JUMPDEST SWAP7 PUSH2 0x39E PUSH1 0xE0 PUSH2 0x397 PUSH1 0xC0 PUSH1 0x80 DUP9 ADD MLOAD SWAP8 ADD PUSH2 0x49C JUMP JUMPDEST SWAP13 ADD PUSH2 0x49C JUMP JUMPDEST POP SWAP1 SWAP7 SWAP3 SWAP10 CODESIZE DUP1 PUSH2 0x19E JUMP JUMPDEST DUP10 DUP1 REVERT JUMPDEST PUSH4 0x4E487B71 PUSH1 0xE0 SHL DUP13 MSTORE PUSH1 0x41 DUP5 MSTORE DUP5 DUP13 REVERT JUMPDEST POP RETURNDATASIZE PUSH2 0x32E JUMP JUMPDEST DUP9 MLOAD RETURNDATASIZE DUP12 DUP3 RETURNDATACOPY RETURNDATASIZE SWAP1 REVERT JUMPDEST DUP7 DUP1 REVERT JUMPDEST DUP5 DUP1 REVERT JUMPDEST DUP4 DUP3 CALLVALUE PUSH2 0x2B1 JUMPI DUP2 PUSH1 0x3 NOT CALLDATASIZE ADD SLT PUSH2 0x2B1 JUMPI SWAP1 SLOAD SWAP1 MLOAD PUSH1 0x1 PUSH1 0x1 PUSH1 0xA0 SHL SUB SWAP1 SWAP2 AND DUP2 MSTORE PUSH1 0x20 SWAP1 RETURN JUMPDEST DUP4 CALLVALUE PUSH2 0x45B JUMPI DUP1 PUSH1 0x3 NOT CALLDATASIZE ADD SLT PUSH2 0x45B JUMPI PUSH2 0x41A PUSH2 0x4A9 JUMP JUMPDEST DUP1 SLOAD PUSH1 0x1 PUSH1 0x1 PUSH1 0xA0 SHL SUB NOT DUP2 AND DUP3 SSTORE DUP2 SWAP1 PUSH1 0x1 PUSH1 0x1 PUSH1 0xA0 SHL SUB AND PUSH32 0x8BE0079C531659141344CD1FD0A4F28419497F9722A3DAAFE3B4186F6B6457E0 DUP3 DUP1 LOG3 DUP1 RETURN JUMPDEST DUP1 REVERT JUMPDEST PUSH8 0xFFFFFFFFFFFFFFFF DUP2 GT PUSH2 0x472 JUMPI PUSH1 0x40 MSTORE JUMP JUMPDEST PUSH4 0x4E487B71 PUSH1 0xE0 SHL PUSH1 0x0 MSTORE PUSH1 0x41 PUSH1 0x4 MSTORE PUSH1 0x24 PUSH1 0x0 REVERT JUMPDEST MLOAD SWAP1 PUSH1 0x1 PUSH1 0x1 PUSH1 0xA0 SHL SUB DUP3 AND DUP3 SUB PUSH2 0x11C JUMPI JUMP JUMPDEST MLOAD SWAP1 DUP2 ISZERO ISZERO DUP3 SUB PUSH2 0x11C JUMPI JUMP JUMPDEST PUSH1 0x0 SLOAD PUSH1 0x1 PUSH1 0x1 PUSH1 0xA0 SHL SUB AND CALLER SUB PUSH2 0x4BD JUMPI JUMP JUMPDEST PUSH1 0x64 PUSH1 0x40 MLOAD PUSH3 0x461BCD PUSH1 0xE5 SHL DUP2 MSTORE PUSH1 0x20 PUSH1 0x4 DUP3 ADD MSTORE PUSH1 0x20 PUSH1 0x24 DUP3 ADD MSTORE PUSH32 0x4F776E61626C653A2063616C6C6572206973206E6F7420746865206F776E6572 PUSH1 0x44 DUP3 ADD MSTORE REVERT INVALID LOG2 PUSH5 0x6970667358 0x22 SLT KECCAK256 TIMESTAMP 0xFC LOG2 0x4E PUSH28 0x758D92A4D20B819045F44ECD498029A5EEA27C106A8A877B2E41B64 PUSH20 0x6F6C634300081800330000000000000000000000 "},"methodIdentifiers":{"owner()":"8da5cb5b","renounceOwnership()":"715018a6","resolveDispute(uint256,uint8,address)":"a8aa57eb","transferOwnership(address)":"f2fde38b"}}}}}