{"contracts/AMMPool.sol":{"AMMPool":{"abi":[{"inputs":[{"internalType":"address","name":"_usdc","type":"address"},{"internalType":"address","name":"_market","type":"address"},{"internalType":"bool","name":"_isYes","type":"bool"}],"stateMutability":"nonpayable","type":"constructor"},{"anonymous":false,"inputs":[{"indexed":true,"internalType":"address","name":"owner","type":"address"},{"indexed":true,"internalType":"address","name":"spender","type":"address"},{"indexed":false,"internalType":"uint256","name":"value","type":"uint256"}],"name":"Approval","type":"event"},{"anonymous":false,"inputs":[{"indexed":false,"internalType":"address","name":"token","type":"address"},{"indexed":false,"internalType":"address","name":"to","type":"address"},{"indexed":false,"internalType":"uint256","name":"amount","type":"uint256"}],"name":"EmergencyWithdrawn","type":"event"},{"anonymous":false,"inputs":[{"indexed":true,"internalType":"address","name":"provider","type":"address"},{"indexed":false,"internalType":"uint256","name":"usdcAmount","type":"uint256"},{"indexed":false,"internalType":"uint256","name":"shares","type":"uint256"}],"name":"LiquidityAdded","type":"event"},{"anonymous":false,"inputs":[{"indexed":true,"internalType":"address","name":"provider","type":"address"},{"indexed":false,"internalType":"uint256","name":"usdcAmount","type":"uint256"},{"indexed":false,"internalType":"uint256","name":"shares","type":"uint256"}],"name":"LiquidityRemoved","type":"event"},{"anonymous":false,"inputs":[{"indexed":true,"internalType":"address","name":"previousOwner","type":"address"},{"indexed":true,"internalType":"address","name":"newOwner","type":"address"}],"name":"OwnershipTransferred","type":"event"},{"anonymous":false,"inputs":[{"indexed":false,"internalType":"address","name":"account","type":"address"}],"name":"Paused","type":"event"},{"anonymous":false,"inputs":[{"indexed":true,"internalType":"address","name":"user","type":"address"},{"indexed":false,"internalType":"uint256","name":"usdcIn","type":"uint256"},{"indexed":false,"internalType":"uint256","name":"sharesOut","type":"uint256"}],"name":"SwapExecuted","type":"event"},{"anonymous":false,"inputs":[{"indexed":true,"internalType":"address","name":"from","type":"address"},{"indexed":true,"internalType":"address","name":"to","type":"address"},{"indexed":false,"internalType":"uint256","name":"value","type":"uint256"}],"name":"Transfer","type":"event"},{"anonymous":false,"inputs":[{"indexed":false,"internalType":"address","name":"account","type":"address"}],"name":"Unpaused","type":"event"},{"inputs":[],"name":"DECIMAL_SCALE","outputs":[{"internalType":"uint256","name":"","type":"uint256"}],"stateMutability":"view","type":"function"},{"inputs":[],"name":"FEE","outputs":[{"internalType":"uint256","name":"","type":"uint256"}],"stateMutability":"view","type":"function"},{"inputs":[],"name":"SHARE_DECIMALS","outputs":[{"internalType":"uint256","name":"","type":"uint256"}],"stateMutability":"view","type":"function"},{"inputs":[],"name":"USDC_DECIMALS","outputs":[{"internalType":"uint256","name":"","type":"uint256"}],"stateMutability":"view","type":"function"},{"inputs":[{"internalType":"uint256","name":"usdcAmount","type":"uint256"}],"name":"addLiquidity","outputs":[],"stateMutability":"nonpayable","type":"function"},{"inputs":[{"internalType":"address","name":"owner","type":"address"},{"internalType":"address","name":"spender","type":"address"}],"name":"allowance","outputs":[{"internalType":"uint256","name":"","type":"uint256"}],"stateMutability":"view","type":"function"},{"inputs":[{"internalType":"address","name":"spender","type":"address"},{"internalType":"uint256","name":"amount","type":"uint256"}],"name":"approve","outputs":[{"internalType":"bool","name":"","type":"bool"}],"stateMutability":"nonpayable","type":"function"},{"inputs":[{"internalType":"address","name":"account","type":"address"}],"name":"balanceOf","outputs":[{"internalType":"uint256","name":"","type":"uint256"}],"stateMutability":"view","type":"function"},{"inputs":[{"internalType":"address","name":"user","type":"address"}],"name":"calculatePayout","outputs":[{"internalType":"uint256","name":"","type":"uint256"}],"stateMutability":"view","type":"function"},{"inputs":[],"name":"decimals","outputs":[{"internalType":"uint8","name":"","type":"uint8"}],"stateMutability":"view","type":"function"},{"inputs":[{"internalType":"address","name":"spender","type":"address"},{"internalType":"uint256","name":"subtractedValue","type":"uint256"}],"name":"decreaseAllowance","outputs":[{"internalType":"bool","name":"","type":"bool"}],"stateMutability":"nonpayable","type":"function"},{"inputs":[{"internalType":"address","name":"token","type":"address"},{"internalType":"address","name":"to","type":"address"}],"name":"emergencyWithdraw","outputs":[],"stateMutability":"nonpayable","type":"function"},{"inputs":[],"name":"getPrice","outputs":[{"internalType":"uint256","name":"","type":"uint256"}],"stateMutability":"view","type":"function"},{"inputs":[],"name":"getReserveInfo","outputs":[{"internalType":"uint256","name":"usdcReserve","type":"uint256"},{"internalType":"uint256","name":"sharesReserve","type":"uint256"},{"internalType":"uint256","name":"totalShares","type":"uint256"},{"internalType":"uint256","name":"currentPrice","type":"uint256"}],"stateMutability":"view","type":"function"},{"inputs":[],"name":"getReserveShares","outputs":[{"internalType":"uint256","name":"","type":"uint256"}],"stateMutability":"view","type":"function"},{"inputs":[],"name":"getReserveUSDC","outputs":[{"internalType":"uint256","name":"","type":"uint256"}],"stateMutability":"view","type":"function"},{"inputs":[{"internalType":"address","name":"spender","type":"address"},{"internalType":"uint256","name":"addedValue","type":"uint256"}],"name":"increaseAllowance","outputs":[{"internalType":"bool","name":"","type":"bool"}],"stateMutability":"nonpayable","type":"function"},{"inputs":[],"name":"isYes","outputs":[{"internalType":"bool","name":"","type":"bool"}],"stateMutability":"view","type":"function"},{"inputs":[],"name":"market","outputs":[{"internalType":"address","name":"","type":"address"}],"stateMutability":"view","type":"function"},{"inputs":[],"name":"name","outputs":[{"internalType":"string","name":"","type":"string"}],"stateMutability":"view","type":"function"},{"inputs":[],"name":"owner","outputs":[{"internalType":"address","name":"","type":"address"}],"stateMutability":"view","type":"function"},{"inputs":[],"name":"pause","outputs":[],"stateMutability":"nonpayable","type":"function"},{"inputs":[],"name":"paused","outputs":[{"internalType":"bool","name":"","type":"bool"}],"stateMutability":"view","type":"function"},{"inputs":[{"internalType":"uint256","name":"lpAmount","type":"uint256"}],"name":"removeLiquidity","outputs":[],"stateMutability":"nonpayable","type":"function"},{"inputs":[],"name":"renounceOwnership","outputs":[],"stateMutability":"nonpayable","type":"function"},{"inputs":[],"name":"reserveShares","outputs":[{"internalType":"uint256","name":"","type":"uint256"}],"stateMutability":"view","type":"function"},{"inputs":[],"name":"reserveUSDC","outputs":[{"internalType":"uint256","name":"","type":"uint256"}],"stateMutability":"view","type":"function"},{"inputs":[{"internalType":"uint256","name":"usdcIn","type":"uint256"},{"internalType":"address","name":"to","type":"address"}],"name":"swapIn","outputs":[],"stateMutability":"nonpayable","type":"function"},{"inputs":[],"name":"symbol","outputs":[{"internalType":"string","name":"","type":"string"}],"stateMutability":"view","type":"function"},{"inputs":[],"name":"totalSupply","outputs":[{"internalType":"uint256","name":"","type":"uint256"}],"stateMutability":"view","type":"function"},{"inputs":[{"internalType":"address","name":"to","type":"address"},{"internalType":"uint256","name":"amount","type":"uint256"}],"name":"transfer","outputs":[{"internalType":"bool","name":"","type":"bool"}],"stateMutability":"nonpayable","type":"function"},{"inputs":[{"internalType":"address","name":"from","type":"address"},{"internalType":"address","name":"to","type":"address"},{"internalType":"uint256","name":"amount","type":"uint256"}],"name":"transferFrom","outputs":[{"internalType":"bool","name":"","type":"bool"}],"stateMutability":"nonpayable","type":"function"},{"inputs":[{"internalType":"address","name":"newOwner","type":"address"}],"name":"transferOwnership","outputs":[],"stateMutability":"nonpayable","type":"function"},{"inputs":[],"name":"unpause","outputs":[],"stateMutability":"nonpayable","type":"function"},{"inputs":[],"name":"usdc","outputs":[{"internalType":"address","name":"","type":"address"}],"stateMutability":"view","type":"function"}],"evm":{"bytecode":{"linkReferences":{},"object":"6080346200043357601f1990601f6001600160401b0362001ced3881900383810186168501919083831186841017620002f2578086926060946040528339810103126200043357620000518362000458565b9360209160406200006484870162000458565b9501519384151594858103620004335780156200040d576200008562000438565b600a8152695945532053686172657360b01b86820152905b15620003ee57620000ad62000438565b600381526259455360e81b86820152915b815192848411620002f25760039384546001948582811c92168015620003e3575b8a831014620003cd57818584931162000377575b508990858311600114620003145760009262000308575b505060001982871b1c191690841b1784555b8051948511620002f25760049687548481811c91168015620002e7575b82821014620002d25783811162000287575b50809286116001146200021b5750849550908492916000956200020f575b50501b92600019911b1c19161790555b600580546001600160a81b031980821633600881811b610100600160a81b0316929092179094556040519691936001600160a01b03938493921c83167f8be0079c531659141344cd1fd0a4f28419497f9722a3daafe3b4186f6b6457e0600080a31660018060a01b031960065416176006556007549260ff60a01b9060a01b1693169116171760075561187f90816200046e8239f35b01519350388062000169565b939295859081168860005285600020956000905b898383106200026c575050501062000251575b50505050811b01905562000179565b01519060f884600019921b161c191690553880808062000242565b8587015189559097019694850194889350908101906200022f565b88600052816000208480890160051c820192848a10620002c8575b0160051c019085905b828110620002bb5750506200014b565b60008155018590620002ab565b92508192620002a2565b602289634e487b7160e01b6000525260246000fd5b90607f169062000139565b634e487b7160e01b600052604160045260246000fd5b0151905038806200010a565b908987941691886000528b6000209260005b8d82821062000360575050841162000347575b505050811b0184556200011c565b015160001983891b60f8161c1916905538808062000339565b8385015186558a9790950194938401930162000326565b90915086600052896000208580850160051c8201928c8610620003c3575b918891869594930160051c01915b828110620003b3575050620000f3565b60008155859450889101620003a3565b9250819262000395565b634e487b7160e01b600052602260045260246000fd5b91607f1691620000df565b620003f862000438565b60028152614e4f60f01b8682015291620000be565b6200041762000438565b60098152684e4f2053686172657360b81b86820152906200009d565b600080fd5b60408051919082016001600160401b03811183821017620002f257604052565b51906001600160a01b0382168203620004335756fe608060408181526004918236101561001657600080fd5b600092833560e01c91826306fdde031461117557508163095ea7b31461114b57816318160ddd1461112c57816323b872dd14611062578163313ce5671461034857816339509351146110125781633e413bee14610fe95781633f4ba83a14610f535781634ecfdfad14610dc757816351c6590a14610c5457816358c7aa0f146102c05781635c975abb14610c305781636382d9ad14610a4f57816370a0823114610a18578163715018a6146109b757816380f556051461098e5781638456cb59146109335781638840d7b9146103645781638da5cb5b1461090657816395d89b4114610801578163983babb4146107da57816398d5fdca146107bd5781639c8f9f23146104c1578163a457c2d714610419578163a877933f146103ec578163a9059cbb146103bb578163c1419def1461039f578163c57981b514610383578163c87b502e14610364578163d853365f14610348578163db5dca2114610328578163dd62ed3e146102df578163eef37a18146102c0578163f2fde38b146101e3575063ffe777bd146101a657600080fd5b346101df57816003193601126101df576008546009546002546080936101ca611419565b92815194855260208501528301526060820152f35b5080fd5b9050346102bc5760203660031901126102bc576101fe6112b3565b610206611707565b6001600160a01b0381811693909290841561026a57505060058054610100600160a81b03198116600893841b610100600160a81b031617909155901c167f8be0079c531659141344cd1fd0a4f28419497f9722a3daafe3b4186f6b6457e08380a380f35b906020608492519162461bcd60e51b8352820152602660248201527f4f776e61626c653a206e6577206f776e657220697320746865207a65726f206160448201526564647265737360d01b6064820152fd5b8280fd5b5050346101df57816003193601126101df576020906009549051908152f35b5050346101df57806003193601126101df57806020926102fd6112b3565b6103056112ce565b6001600160a01b0391821683526001865283832091168252845220549051908152f35b5050346101df57816003193601126101df576020905164e8d4a510008152f35b5050346101df57816003193601126101df576020905160128152f35b5050346101df57816003193601126101df576020906008549051908152f35b5050346101df57816003193601126101df5760209051601e8152f35b5050346101df57816003193601126101df576020905160068152f35b5050346101df57806003193601126101df576020906103e56103db6112b3565b6024359033611599565b5160018152f35b5050346101df5760203660031901126101df5760209061041261040d6112b3565b61144f565b9051908152f35b905082346104be57826003193601126104be576104346112b3565b918360243592338152600160205281812060018060a01b038616825260205220549082821061046d576020856103e58585038733611497565b608490602086519162461bcd60e51b8352820152602560248201527f45524332303a2064656372656173656420616c6c6f77616e63652062656c6f77604482015264207a65726f60d81b6064820152fd5b80fd5b8383346101df57602090816003193601126102bc5783356104e0611805565b80156107895733845283835280828520541061074d57600254801561071b576105149061050f6008548461138d565b6113a0565b9283156106d957331561068d573385528481528285205482811061063f57846105c69697848493338b528a855203868a20558460025403806002558987518781527fddf252ad1be2c89b69c2b068fc378daa952ba7f163c4a11628f55a4df523b3ef863392a3610586836008546112e4565b600855600955600654865163a9059cbb60e01b8152339281019283526020830193909352919788926001600160a01b03169183918b918391604090910190565b03925af1948515610635577f96cd817c6329656790ef8fba7675405193677d39619571282f5e21f3a98cd0599495610608575b5082519485528401523392a280f35b61062790823d841161062e575b61061f8183611307565b810190611401565b50866105f9565b503d610615565b83513d88823e3d90fd5b835162461bcd60e51b8152808801839052602260248201527f45524332303a206275726e20616d6f756e7420657863656564732062616c616e604482015261636560f01b6064820152608490fd5b8560849184519162461bcd60e51b8352820152602160248201527f45524332303a206275726e2066726f6d20746865207a65726f206164647265736044820152607360f81b6064820152fd5b8560649184519162461bcd60e51b8352820152601760248201527f5553444320616d6f756e74206d757374206265203e20300000000000000000006044820152fd5b825162461bcd60e51b8152808701859052600c60248201526b4e6f206c697175696469747960a01b6044820152606490fd5b815162461bcd60e51b81528086018490526016602482015275496e73756666696369656e74204c5020746f6b656e7360501b6044820152606490fd5b815162461bcd60e51b8152808601849052600e60248201526d125b9d985b1a5908185b5bdd5b9d60921b6044820152606490fd5b5050346101df57816003193601126101df57602090610412611419565b5050346101df57816003193601126101df5760209060ff60075460a01c1690519015158152f35b8383346101df57816003193601126101df5780519180938054916001908360011c92600185169485156108fc575b60209586861081146108e9578589529081156108c5575060011461086d575b610869878761085f828c0383611307565b519182918261126a565b0390f35b81529295507f8a35acfbc15ff81a39ae7d344fd709f28e8600b4aa8c65c6b64bfe7fe36bd19b5b8284106108b257505050826108699461085f9282010194868061084e565b8054868501880152928601928101610894565b60ff19168887015250505050151560051b830101925061085f82610869868061084e565b634e487b7160e01b845260228352602484fd5b93607f169361082f565b5050346101df57816003193601126101df57600554905160089190911c6001600160a01b03168152602090f35b5050346101df57816003193601126101df5760207f62e78cea01bee320cd4e420270b5ea74000d11b0c9f74754ebdbfc544b05a25891610971611707565b610979611805565b600160ff19600554161760055551338152a180f35b5050346101df57816003193601126101df5760075490516001600160a01b039091168152602090f35b83346104be57806003193601126104be576109d0611707565b60058054610100600160a81b03198116909155819060081c6001600160a01b03167f8be0079c531659141344cd1fd0a4f28419497f9722a3daafe3b4186f6b6457e08280a380f35b5050346101df5760203660031901126101df5760209181906001600160a01b03610a406112b3565b16815280845220549051908152f35b9050346102bc57816003193601126102bc57610a696112b3565b610a716112ce565b91610a7a611707565b60ff6005541615610bfc5783516370a0823160e01b81523081830152906020906001600160a01b038416908284602481855afa938415610bf2578894610bbf575b508315610b8457865163a9059cbb60e01b81526001600160a01b0387169181019182526020820185905291839183919082908b90829060400103925af18015610b7a57917f457e4fe0c9f161a0c6f3bfb8d7809a4ac19f6291bd81b03b86b0d00f9af3717b9691610b569493610b5c575b5050516001600160a01b039384168152939092166020840152604083019190915281906060820190565b0390a180f35b81610b7292903d1061062e5761061f8183611307565b503880610b2c565b86513d89823e3d90fd5b865162461bcd60e51b815290810183905260156024820152744e6f20746f6b656e7320746f20776974686472617760581b6044820152606490fd5b9093508281813d8311610beb575b610bd78183611307565b81010312610be757519238610abb565b8780fd5b503d610bcd565b87513d8a823e3d90fd5b606490602085519162461bcd60e51b8352820152600e60248201526d135d5cdd081899481c185d5cd95960921b6044820152fd5b5050346101df57816003193601126101df5760209060ff6005541690519015158152f35b8383346101df5760203660031901126101df57823590610c72611805565b8115610c7e811561134c565b60065482516323b872dd60e01b81523387820190815230602080830191909152604082018790529192839182900360600190829089906001600160a01b03165af18015610dbd57610d9e575b5060025480610d5c575064e8d4a510009081840291848304141715610d49577fac1d76749e5447b7b16f5ab61447e1bd502f3bb4807af3b28e620d1700a6ee45929394505b610d1a8115156113c0565b610d248133611762565b610d308460085461133f565b600855600254600955815193845260208401523392a280f35b634e487b7160e01b845260118552602484fd5b83949550610d999150610d90907fac1d76749e5447b7b16f5ab61447e1bd502f3bb4807af3b28e620d1700a6ee459461138d565b600854906113a0565b610d0f565b610db69060203d60201161062e5761061f8183611307565b5085610cca565b83513d87823e3d90fd5b8383346101df57806003193601126101df57823590610de46112ce565b6007546001600160a01b03919082163303610f22578315610e05811561134c565b601e850290858204601e141715610f0f57612710610e249104856112e4565b60025480610eb7575064e8d4a51000808202908282041482151715610ea4577f2d043ce009ff53fd444b0f4f5ff4c3f4ee293265203f77f156eeb33b595dfc4f95969750610e8b90915b610e798315156113c0565b610e838385611762565b60085461133f565b600855600254600955835195865260208601521692a280f35b634e487b7160e01b875260118852602487fd5b7f2d043ce009ff53fd444b0f4f5ff4c3f4ee293265203f77f156eeb33b595dfc4f95969750610f09610e8b91610f03600854610efd86610ef7858461138d565b9261133f565b906113a0565b906112e4565b91610e6e565b634e487b7160e01b865260118752602486fd5b825162461bcd60e51b8152602081880152600b60248201526a13db9b1e481b585c9ad95d60aa1b6044820152606490fd5b9050346102bc57826003193601126102bc57610f6d611707565b6005549060ff821615610faf575060ff1916600555513381527f5db9ee0a495bf2e6ff9c91a7834c1ba4fdd244a5e8aa4e537bd38aeae4b073aa90602090a180f35b606490602084519162461bcd60e51b8352820152601460248201527314185d5cd8589b194e881b9bdd081c185d5cd95960621b6044820152fd5b5050346101df57816003193601126101df5760065490516001600160a01b039091168152602090f35b5050346101df57806003193601126101df576103e560209261105b6110356112b3565b338352600186528483206001600160a01b0382168452865291849020546024359061133f565b9033611497565b839150346101df5760603660031901126101df5761107e6112b3565b6110866112ce565b91846044359460018060a01b0384168152600160205281812033825260205220549060001982036110c0575b6020866103e5878787611599565b8482106110e957509183916110de602096956103e595033383611497565b9193948193506110b2565b606490602087519162461bcd60e51b8352820152601d60248201527f45524332303a20696e73756666696369656e7420616c6c6f77616e63650000006044820152fd5b5050346101df57816003193601126101df576020906002549051908152f35b5050346101df57806003193601126101df576020906103e561116b6112b3565b6024359033611497565b92915034611266578360031936011261126657600354600181811c918690828116801561125c575b6020958686108214611249575084885290811561122757506001146111ce575b610869868661085f828b0383611307565b929550600383527fc2575a0e9e593c00f959f8c92f12db2869c3395a3b0502d05e2516446f71f85b5b82841061121457505050826108699461085f9282010194386111bd565b80548685018801529286019281016111f7565b60ff191687860152505050151560051b830101925061085f82610869386111bd565b634e487b7160e01b845260229052602483fd5b93607f169361119d565b8380fd5b6020808252825181830181905290939260005b82811061129f57505060409293506000838284010152601f8019910116010190565b81810186015184820160400152850161127d565b600435906001600160a01b03821682036112c957565b600080fd5b602435906001600160a01b03821682036112c957565b919082039182116112f157565b634e487b7160e01b600052601160045260246000fd5b90601f8019910116810190811067ffffffffffffffff82111761132957604052565b634e487b7160e01b600052604160045260246000fd5b919082018092116112f157565b1561135357565b60405162461bcd60e51b81526020600482015260126024820152710416d6f756e74206d757374206265203e20360741b6044820152606490fd5b818102929181159184041417156112f157565b81156113aa570490565b634e487b7160e01b600052601260045260246000fd5b156113c757565b60405162461bcd60e51b81526020600482015260126024820152710536861726573206d757374206265203e20360741b6044820152606490fd5b908160209103126112c9575180151581036112c95790565b6002548015611449576008549064e8d4a51000918281029281840414901517156112f157611446916113a0565b90565b50600090565b6001600160a01b03166000908152602081905260409020548015801561148d575b61144957611484611446916008549061138d565b600254906113a0565b5060025415611470565b6001600160a01b0390811691821561154857169182156114f85760207f8c5be1e5ebec7d5bd14f71427d1e84f3dd0314c0f7b2291e5b200ac8c7c3b925918360005260018252604060002085600052825280604060002055604051908152a3565b60405162461bcd60e51b815260206004820152602260248201527f45524332303a20617070726f766520746f20746865207a65726f206164647265604482015261737360f01b6064820152608490fd5b60405162461bcd60e51b8152602060048201526024808201527f45524332303a20617070726f76652066726f6d20746865207a65726f206164646044820152637265737360e01b6064820152608490fd5b6001600160a01b039081169182156116b457169182156116635760008281528060205260408120549180831061160f57604082827fddf252ad1be2c89b69c2b068fc378daa952ba7f163c4a11628f55a4df523b3ef958760209652828652038282205586815220818154019055604051908152a3565b60405162461bcd60e51b815260206004820152602660248201527f45524332303a207472616e7366657220616d6f756e7420657863656564732062604482015265616c616e636560d01b6064820152608490fd5b60405162461bcd60e51b815260206004820152602360248201527f45524332303a207472616e7366657220746f20746865207a65726f206164647260448201526265737360e81b6064820152608490fd5b60405162461bcd60e51b815260206004820152602560248201527f45524332303a207472616e736665722066726f6d20746865207a65726f206164604482015264647265737360d81b6064820152608490fd5b60055460081c6001600160a01b0316330361171e57565b606460405162461bcd60e51b815260206004820152602060248201527f4f776e61626c653a2063616c6c6572206973206e6f7420746865206f776e65726044820152fd5b6001600160a01b03169081156117c0577fddf252ad1be2c89b69c2b068fc378daa952ba7f163c4a11628f55a4df523b3ef6020826117a460009460025461133f565b60025584845283825260408420818154019055604051908152a3565b60405162461bcd60e51b815260206004820152601f60248201527f45524332303a206d696e7420746f20746865207a65726f2061646472657373006044820152606490fd5b60ff6005541661181157565b60405162461bcd60e51b815260206004820152601060248201526f14185d5cd8589b194e881c185d5cd95960821b6044820152606490fdfea2646970667358221220d4de3804cab62882537d469c302dd55007cfa6cb3daea6c132e19fc5d35cdbe664736f6c63430008180033","opcodes":"PUSH1 0x80 CALLVALUE PUSH3 0x433 JUMPI PUSH1 0x1F NOT SWAP1 PUSH1 0x1F PUSH1 0x1 PUSH1 0x1 PUSH1 0x40 SHL SUB PUSH3 0x1CED CODESIZE DUP2 SWAP1 SUB DUP4 DUP2 ADD DUP7 AND DUP6 ADD SWAP2 SWAP1 DUP4 DUP4 GT DUP7 DUP5 LT OR PUSH3 0x2F2 JUMPI DUP1 DUP7 SWAP3 PUSH1 0x60 SWAP5 PUSH1 0x40 MSTORE DUP4 CODECOPY DUP2 ADD SUB SLT PUSH3 0x433 JUMPI PUSH3 0x51 DUP4 PUSH3 0x458 JUMP JUMPDEST SWAP4 PUSH1 0x20 SWAP2 PUSH1 0x40 PUSH3 0x64 DUP5 DUP8 ADD PUSH3 0x458 JUMP JUMPDEST SWAP6 ADD MLOAD SWAP4 DUP5 ISZERO ISZERO SWAP5 DUP6 DUP2 SUB PUSH3 0x433 JUMPI DUP1 ISZERO PUSH3 0x40D JUMPI PUSH3 0x85 PUSH3 0x438 JUMP JUMPDEST PUSH1 0xA DUP2 MSTORE PUSH10 0x59455320536861726573 PUSH1 0xB0 SHL DUP7 DUP3 ADD MSTORE SWAP1 JUMPDEST ISZERO PUSH3 0x3EE JUMPI PUSH3 0xAD PUSH3 0x438 JUMP JUMPDEST PUSH1 0x3 DUP2 MSTORE PUSH3 0x594553 PUSH1 0xE8 SHL DUP7 DUP3 ADD MSTORE SWAP2 JUMPDEST DUP2 MLOAD SWAP3 DUP5 DUP5 GT PUSH3 0x2F2 JUMPI PUSH1 0x3 SWAP4 DUP5 SLOAD PUSH1 0x1 SWAP5 DUP6 DUP3 DUP2 SHR SWAP3 AND DUP1 ISZERO PUSH3 0x3E3 JUMPI JUMPDEST DUP11 DUP4 LT EQ PUSH3 0x3CD JUMPI DUP2 DUP6 DUP5 SWAP4 GT PUSH3 0x377 JUMPI JUMPDEST POP DUP10 SWAP1 DUP6 DUP4 GT PUSH1 0x1 EQ PUSH3 0x314 JUMPI PUSH1 0x0 SWAP3 PUSH3 0x308 JUMPI JUMPDEST POP POP PUSH1 0x0 NOT DUP3 DUP8 SHL SHR NOT AND SWAP1 DUP5 SHL OR DUP5 SSTORE JUMPDEST DUP1 MLOAD SWAP5 DUP6 GT PUSH3 0x2F2 JUMPI PUSH1 0x4 SWAP7 DUP8 SLOAD DUP5 DUP2 DUP2 SHR SWAP2 AND DUP1 ISZERO PUSH3 0x2E7 JUMPI JUMPDEST DUP3 DUP3 LT EQ PUSH3 0x2D2 JUMPI DUP4 DUP2 GT PUSH3 0x287 JUMPI JUMPDEST POP DUP1 SWAP3 DUP7 GT PUSH1 0x1 EQ PUSH3 0x21B JUMPI POP DUP5 SWAP6 POP SWAP1 DUP5 SWAP3 SWAP2 PUSH1 0x0 SWAP6 PUSH3 0x20F JUMPI JUMPDEST POP POP SHL SWAP3 PUSH1 0x0 NOT SWAP2 SHL SHR NOT AND OR SWAP1 SSTORE JUMPDEST PUSH1 0x5 DUP1 SLOAD PUSH1 0x1 PUSH1 0x1 PUSH1 0xA8 SHL SUB NOT DUP1 DUP3 AND CALLER PUSH1 0x8 DUP2 DUP2 SHL PUSH2 0x100 PUSH1 0x1 PUSH1 0xA8 SHL SUB AND SWAP3 SWAP1 SWAP3 OR SWAP1 SWAP5 SSTORE PUSH1 0x40 MLOAD SWAP7 SWAP2 SWAP4 PUSH1 0x1 PUSH1 0x1 PUSH1 0xA0 SHL SUB SWAP4 DUP5 SWAP4 SWAP3 SHR DUP4 AND PUSH32 0x8BE0079C531659141344CD1FD0A4F28419497F9722A3DAAFE3B4186F6B6457E0 PUSH1 0x0 DUP1 LOG3 AND PUSH1 0x1 DUP1 PUSH1 0xA0 SHL SUB NOT PUSH1 0x6 SLOAD AND OR PUSH1 0x6 SSTORE PUSH1 0x7 SLOAD SWAP3 PUSH1 0xFF PUSH1 0xA0 SHL SWAP1 PUSH1 0xA0 SHL AND SWAP4 AND SWAP2 AND OR OR PUSH1 0x7 SSTORE PUSH2 0x187F SWAP1 DUP2 PUSH3 0x46E DUP3 CODECOPY RETURN JUMPDEST ADD MLOAD SWAP4 POP CODESIZE DUP1 PUSH3 0x169 JUMP JUMPDEST SWAP4 SWAP3 SWAP6 DUP6 SWAP1 DUP2 AND DUP9 PUSH1 0x0 MSTORE DUP6 PUSH1 0x0 KECCAK256 SWAP6 PUSH1 0x0 SWAP1 JUMPDEST DUP10 DUP4 DUP4 LT PUSH3 0x26C JUMPI POP POP POP LT PUSH3 0x251 JUMPI JUMPDEST POP POP POP POP DUP2 SHL ADD SWAP1 SSTORE PUSH3 0x179 JUMP JUMPDEST ADD MLOAD SWAP1 PUSH1 0xF8 DUP5 PUSH1 0x0 NOT SWAP3 SHL AND SHR NOT AND SWAP1 SSTORE CODESIZE DUP1 DUP1 DUP1 PUSH3 0x242 JUMP JUMPDEST DUP6 DUP8 ADD MLOAD DUP10 SSTORE SWAP1 SWAP8 ADD SWAP7 SWAP5 DUP6 ADD SWAP5 DUP9 SWAP4 POP SWAP1 DUP2 ADD SWAP1 PUSH3 0x22F JUMP JUMPDEST DUP9 PUSH1 0x0 MSTORE DUP2 PUSH1 0x0 KECCAK256 DUP5 DUP1 DUP10 ADD PUSH1 0x5 SHR DUP3 ADD SWAP3 DUP5 DUP11 LT PUSH3 0x2C8 JUMPI JUMPDEST ADD PUSH1 0x5 SHR ADD SWAP1 DUP6 SWAP1 JUMPDEST DUP3 DUP2 LT PUSH3 0x2BB JUMPI POP POP PUSH3 0x14B JUMP JUMPDEST PUSH1 0x0 DUP2 SSTORE ADD DUP6 SWAP1 PUSH3 0x2AB JUMP JUMPDEST SWAP3 POP DUP2 SWAP3 PUSH3 0x2A2 JUMP JUMPDEST PUSH1 0x22 DUP10 PUSH4 0x4E487B71 PUSH1 0xE0 SHL PUSH1 0x0 MSTORE MSTORE PUSH1 0x24 PUSH1 0x0 REVERT JUMPDEST SWAP1 PUSH1 0x7F AND SWAP1 PUSH3 0x139 JUMP JUMPDEST PUSH4 0x4E487B71 PUSH1 0xE0 SHL PUSH1 0x0 MSTORE PUSH1 0x41 PUSH1 0x4 MSTORE PUSH1 0x24 PUSH1 0x0 REVERT JUMPDEST ADD MLOAD SWAP1 POP CODESIZE DUP1 PUSH3 0x10A JUMP JUMPDEST SWAP1 DUP10 DUP8 SWAP5 AND SWAP2 DUP9 PUSH1 0x0 MSTORE DUP12 PUSH1 0x0 KECCAK256 SWAP3 PUSH1 0x0 JUMPDEST DUP14 DUP3 DUP3 LT PUSH3 0x360 JUMPI POP POP DUP5 GT PUSH3 0x347 JUMPI JUMPDEST POP POP POP DUP2 SHL ADD DUP5 SSTORE PUSH3 0x11C JUMP JUMPDEST ADD MLOAD PUSH1 0x0 NOT DUP4 DUP10 SHL PUSH1 0xF8 AND SHR NOT AND SWAP1 SSTORE CODESIZE DUP1 DUP1 PUSH3 0x339 JUMP JUMPDEST DUP4 DUP6 ADD MLOAD DUP7 SSTORE DUP11 SWAP8 SWAP1 SWAP6 ADD SWAP5 SWAP4 DUP5 ADD SWAP4 ADD PUSH3 0x326 JUMP JUMPDEST SWAP1 SWAP2 POP DUP7 PUSH1 0x0 MSTORE DUP10 PUSH1 0x0 KECCAK256 DUP6 DUP1 DUP6 ADD PUSH1 0x5 SHR DUP3 ADD SWAP3 DUP13 DUP7 LT PUSH3 0x3C3 JUMPI JUMPDEST SWAP2 DUP9 SWAP2 DUP7 SWAP6 SWAP5 SWAP4 ADD PUSH1 0x5 SHR ADD SWAP2 JUMPDEST DUP3 DUP2 LT PUSH3 0x3B3 JUMPI POP POP PUSH3 0xF3 JUMP JUMPDEST PUSH1 0x0 DUP2 SSTORE DUP6 SWAP5 POP DUP9 SWAP2 ADD PUSH3 0x3A3 JUMP JUMPDEST SWAP3 POP DUP2 SWAP3 PUSH3 0x395 JUMP JUMPDEST PUSH4 0x4E487B71 PUSH1 0xE0 SHL PUSH1 0x0 MSTORE PUSH1 0x22 PUSH1 0x4 MSTORE PUSH1 0x24 PUSH1 0x0 REVERT JUMPDEST SWAP2 PUSH1 0x7F AND SWAP2 PUSH3 0xDF JUMP JUMPDEST PUSH3 0x3F8 PUSH3 0x438 JUMP JUMPDEST PUSH1 0x2 DUP2 MSTORE PUSH2 0x4E4F PUSH1 0xF0 SHL DUP7 DUP3 ADD MSTORE SWAP2 PUSH3 0xBE JUMP JUMPDEST PUSH3 0x417 PUSH3 0x438 JUMP JUMPDEST PUSH1 0x9 DUP2 MSTORE PUSH9 0x4E4F20536861726573 PUSH1 0xB8 SHL DUP7 DUP3 ADD MSTORE SWAP1 PUSH3 0x9D JUMP JUMPDEST PUSH1 0x0 DUP1 REVERT JUMPDEST PUSH1 0x40 DUP1 MLOAD SWAP2 SWAP1 DUP3 ADD PUSH1 0x1 PUSH1 0x1 PUSH1 0x40 SHL SUB DUP2 GT DUP4 DUP3 LT OR PUSH3 0x2F2 JUMPI PUSH1 0x40 MSTORE JUMP JUMPDEST MLOAD SWAP1 PUSH1 0x1 PUSH1 0x1 PUSH1 0xA0 SHL SUB DUP3 AND DUP3 SUB PUSH3 0x433 JUMPI JUMP INVALID PUSH1 0x80 PUSH1 0x40 DUP2 DUP2 MSTORE PUSH1 0x4 SWAP2 DUP3 CALLDATASIZE LT ISZERO PUSH2 0x16 JUMPI PUSH1 0x0 DUP1 REVERT JUMPDEST PUSH1 0x0 SWAP3 DUP4 CALLDATALOAD PUSH1 0xE0 SHR SWAP2 DUP3 PUSH4 0x6FDDE03 EQ PUSH2 0x1175 JUMPI POP DUP2 PUSH4 0x95EA7B3 EQ PUSH2 0x114B JUMPI DUP2 PUSH4 0x18160DDD EQ PUSH2 0x112C JUMPI DUP2 PUSH4 0x23B872DD EQ PUSH2 0x1062 JUMPI DUP2 PUSH4 0x313CE567 EQ PUSH2 0x348 JUMPI DUP2 PUSH4 0x39509351 EQ PUSH2 0x1012 JUMPI DUP2 PUSH4 0x3E413BEE EQ PUSH2 0xFE9 JUMPI DUP2 PUSH4 0x3F4BA83A EQ PUSH2 0xF53 JUMPI DUP2 PUSH4 0x4ECFDFAD EQ PUSH2 0xDC7 JUMPI DUP2 PUSH4 0x51C6590A EQ PUSH2 0xC54 JUMPI DUP2 PUSH4 0x58C7AA0F EQ PUSH2 0x2C0 JUMPI DUP2 PUSH4 0x5C975ABB EQ PUSH2 0xC30 JUMPI DUP2 PUSH4 0x6382D9AD EQ PUSH2 0xA4F JUMPI DUP2 PUSH4 0x70A08231 EQ PUSH2 0xA18 JUMPI DUP2 PUSH4 0x715018A6 EQ PUSH2 0x9B7 JUMPI DUP2 PUSH4 0x80F55605 EQ PUSH2 0x98E JUMPI DUP2 PUSH4 0x8456CB59 EQ PUSH2 0x933 JUMPI DUP2 PUSH4 0x8840D7B9 EQ PUSH2 0x364 JUMPI DUP2 PUSH4 0x8DA5CB5B EQ PUSH2 0x906 JUMPI DUP2 PUSH4 0x95D89B41 EQ PUSH2 0x801 JUMPI DUP2 PUSH4 0x983BABB4 EQ PUSH2 0x7DA JUMPI DUP2 PUSH4 0x98D5FDCA EQ PUSH2 0x7BD JUMPI DUP2 PUSH4 0x9C8F9F23 EQ PUSH2 0x4C1 JUMPI DUP2 PUSH4 0xA457C2D7 EQ PUSH2 0x419 JUMPI DUP2 PUSH4 0xA877933F EQ PUSH2 0x3EC JUMPI DUP2 PUSH4 0xA9059CBB EQ PUSH2 0x3BB JUMPI DUP2 PUSH4 0xC1419DEF EQ PUSH2 0x39F JUMPI DUP2 PUSH4 0xC57981B5 EQ PUSH2 0x383 JUMPI DUP2 PUSH4 0xC87B502E EQ PUSH2 0x364 JUMPI DUP2 PUSH4 0xD853365F EQ PUSH2 0x348 JUMPI DUP2 PUSH4 0xDB5DCA21 EQ PUSH2 0x328 JUMPI DUP2 PUSH4 0xDD62ED3E EQ PUSH2 0x2DF JUMPI DUP2 PUSH4 0xEEF37A18 EQ PUSH2 0x2C0 JUMPI DUP2 PUSH4 0xF2FDE38B EQ PUSH2 0x1E3 JUMPI POP PUSH4 0xFFE777BD EQ PUSH2 0x1A6 JUMPI PUSH1 0x0 DUP1 REVERT JUMPDEST CALLVALUE PUSH2 0x1DF JUMPI DUP2 PUSH1 0x3 NOT CALLDATASIZE ADD SLT PUSH2 0x1DF JUMPI PUSH1 0x8 SLOAD PUSH1 0x9 SLOAD PUSH1 0x2 SLOAD PUSH1 0x80 SWAP4 PUSH2 0x1CA PUSH2 0x1419 JUMP JUMPDEST SWAP3 DUP2 MLOAD SWAP5 DUP6 MSTORE PUSH1 0x20 DUP6 ADD MSTORE DUP4 ADD MSTORE PUSH1 0x60 DUP3 ADD MSTORE RETURN JUMPDEST POP DUP1 REVERT JUMPDEST SWAP1 POP CALLVALUE PUSH2 0x2BC JUMPI PUSH1 0x20 CALLDATASIZE PUSH1 0x3 NOT ADD SLT PUSH2 0x2BC JUMPI PUSH2 0x1FE PUSH2 0x12B3 JUMP JUMPDEST PUSH2 0x206 PUSH2 0x1707 JUMP JUMPDEST PUSH1 0x1 PUSH1 0x1 PUSH1 0xA0 SHL SUB DUP2 DUP2 AND SWAP4 SWAP1 SWAP3 SWAP1 DUP5 ISZERO PUSH2 0x26A JUMPI POP POP PUSH1 0x5 DUP1 SLOAD PUSH2 0x100 PUSH1 0x1 PUSH1 0xA8 SHL SUB NOT DUP2 AND PUSH1 0x8 SWAP4 DUP5 SHL PUSH2 0x100 PUSH1 0x1 PUSH1 0xA8 SHL SUB AND OR SWAP1 SWAP2 SSTORE SWAP1 SHR AND PUSH32 0x8BE0079C531659141344CD1FD0A4F28419497F9722A3DAAFE3B4186F6B6457E0 DUP4 DUP1 LOG3 DUP1 RETURN JUMPDEST SWAP1 PUSH1 0x20 PUSH1 0x84 SWAP3 MLOAD SWAP2 PUSH3 0x461BCD PUSH1 0xE5 SHL DUP4 MSTORE DUP3 ADD MSTORE PUSH1 0x26 PUSH1 0x24 DUP3 ADD MSTORE PUSH32 0x4F776E61626C653A206E6577206F776E657220697320746865207A65726F2061 PUSH1 0x44 DUP3 ADD MSTORE PUSH6 0x646472657373 PUSH1 0xD0 SHL PUSH1 0x64 DUP3 ADD MSTORE REVERT JUMPDEST DUP3 DUP1 REVERT JUMPDEST POP POP CALLVALUE PUSH2 0x1DF JUMPI DUP2 PUSH1 0x3 NOT CALLDATASIZE ADD SLT PUSH2 0x1DF JUMPI PUSH1 0x20 SWAP1 PUSH1 0x9 SLOAD SWAP1 MLOAD SWAP1 DUP2 MSTORE RETURN JUMPDEST POP POP CALLVALUE PUSH2 0x1DF JUMPI DUP1 PUSH1 0x3 NOT CALLDATASIZE ADD SLT PUSH2 0x1DF JUMPI DUP1 PUSH1 0x20 SWAP3 PUSH2 0x2FD PUSH2 0x12B3 JUMP JUMPDEST PUSH2 0x305 PUSH2 0x12CE JUMP JUMPDEST PUSH1 0x1 PUSH1 0x1 PUSH1 0xA0 SHL SUB SWAP2 DUP3 AND DUP4 MSTORE PUSH1 0x1 DUP7 MSTORE DUP4 DUP4 KECCAK256 SWAP2 AND DUP3 MSTORE DUP5 MSTORE KECCAK256 SLOAD SWAP1 MLOAD SWAP1 DUP2 MSTORE RETURN JUMPDEST POP POP CALLVALUE PUSH2 0x1DF JUMPI DUP2 PUSH1 0x3 NOT CALLDATASIZE ADD SLT PUSH2 0x1DF JUMPI PUSH1 0x20 SWAP1 MLOAD PUSH5 0xE8D4A51000 DUP2 MSTORE RETURN JUMPDEST POP POP CALLVALUE PUSH2 0x1DF JUMPI DUP2 PUSH1 0x3 NOT CALLDATASIZE ADD SLT PUSH2 0x1DF JUMPI PUSH1 0x20 SWAP1 MLOAD PUSH1 0x12 DUP2 MSTORE RETURN JUMPDEST POP POP CALLVALUE PUSH2 0x1DF JUMPI DUP2 PUSH1 0x3 NOT CALLDATASIZE ADD SLT PUSH2 0x1DF JUMPI PUSH1 0x20 SWAP1 PUSH1 0x8 SLOAD SWAP1 MLOAD SWAP1 DUP2 MSTORE RETURN JUMPDEST POP POP CALLVALUE PUSH2 0x1DF JUMPI DUP2 PUSH1 0x3 NOT CALLDATASIZE ADD SLT PUSH2 0x1DF JUMPI PUSH1 0x20 SWAP1 MLOAD PUSH1 0x1E DUP2 MSTORE RETURN JUMPDEST POP POP CALLVALUE PUSH2 0x1DF JUMPI DUP2 PUSH1 0x3 NOT CALLDATASIZE ADD SLT PUSH2 0x1DF JUMPI PUSH1 0x20 SWAP1 MLOAD PUSH1 0x6 DUP2 MSTORE RETURN JUMPDEST POP POP CALLVALUE PUSH2 0x1DF JUMPI DUP1 PUSH1 0x3 NOT CALLDATASIZE ADD SLT PUSH2 0x1DF JUMPI PUSH1 0x20 SWAP1 PUSH2 0x3E5 PUSH2 0x3DB PUSH2 0x12B3 JUMP JUMPDEST PUSH1 0x24 CALLDATALOAD SWAP1 CALLER PUSH2 0x1599 JUMP JUMPDEST MLOAD PUSH1 0x1 DUP2 MSTORE RETURN JUMPDEST POP POP CALLVALUE PUSH2 0x1DF JUMPI PUSH1 0x20 CALLDATASIZE PUSH1 0x3 NOT ADD SLT PUSH2 0x1DF JUMPI PUSH1 0x20 SWAP1 PUSH2 0x412 PUSH2 0x40D PUSH2 0x12B3 JUMP JUMPDEST PUSH2 0x144F JUMP JUMPDEST SWAP1 MLOAD SWAP1 DUP2 MSTORE RETURN JUMPDEST SWAP1 POP DUP3 CALLVALUE PUSH2 0x4BE JUMPI DUP3 PUSH1 0x3 NOT CALLDATASIZE ADD SLT PUSH2 0x4BE JUMPI PUSH2 0x434 PUSH2 0x12B3 JUMP JUMPDEST SWAP2 DUP4 PUSH1 0x24 CALLDATALOAD SWAP3 CALLER DUP2 MSTORE PUSH1 0x1 PUSH1 0x20 MSTORE DUP2 DUP2 KECCAK256 PUSH1 0x1 DUP1 PUSH1 0xA0 SHL SUB DUP7 AND DUP3 MSTORE PUSH1 0x20 MSTORE KECCAK256 SLOAD SWAP1 DUP3 DUP3 LT PUSH2 0x46D JUMPI PUSH1 0x20 DUP6 PUSH2 0x3E5 DUP6 DUP6 SUB DUP8 CALLER PUSH2 0x1497 JUMP JUMPDEST PUSH1 0x84 SWAP1 PUSH1 0x20 DUP7 MLOAD SWAP2 PUSH3 0x461BCD PUSH1 0xE5 SHL DUP4 MSTORE DUP3 ADD MSTORE PUSH1 0x25 PUSH1 0x24 DUP3 ADD MSTORE PUSH32 0x45524332303A2064656372656173656420616C6C6F77616E63652062656C6F77 PUSH1 0x44 DUP3 ADD MSTORE PUSH5 0x207A65726F PUSH1 0xD8 SHL PUSH1 0x64 DUP3 ADD MSTORE REVERT JUMPDEST DUP1 REVERT JUMPDEST DUP4 DUP4 CALLVALUE PUSH2 0x1DF JUMPI PUSH1 0x20 SWAP1 DUP2 PUSH1 0x3 NOT CALLDATASIZE ADD SLT PUSH2 0x2BC JUMPI DUP4 CALLDATALOAD PUSH2 0x4E0 PUSH2 0x1805 JUMP JUMPDEST DUP1 ISZERO PUSH2 0x789 JUMPI CALLER DUP5 MSTORE DUP4 DUP4 MSTORE DUP1 DUP3 DUP6 KECCAK256 SLOAD LT PUSH2 0x74D JUMPI PUSH1 0x2 SLOAD DUP1 ISZERO PUSH2 0x71B JUMPI PUSH2 0x514 SWAP1 PUSH2 0x50F PUSH1 0x8 SLOAD DUP5 PUSH2 0x138D JUMP JUMPDEST PUSH2 0x13A0 JUMP JUMPDEST SWAP3 DUP4 ISZERO PUSH2 0x6D9 JUMPI CALLER ISZERO PUSH2 0x68D JUMPI CALLER DUP6 MSTORE DUP5 DUP2 MSTORE DUP3 DUP6 KECCAK256 SLOAD DUP3 DUP2 LT PUSH2 0x63F JUMPI DUP5 PUSH2 0x5C6 SWAP7 SWAP8 DUP5 DUP5 SWAP4 CALLER DUP12 MSTORE DUP11 DUP6 MSTORE SUB DUP7 DUP11 KECCAK256 SSTORE DUP5 PUSH1 0x2 SLOAD SUB DUP1 PUSH1 0x2 SSTORE DUP10 DUP8 MLOAD DUP8 DUP2 MSTORE PUSH32 0xDDF252AD1BE2C89B69C2B068FC378DAA952BA7F163C4A11628F55A4DF523B3EF DUP7 CALLER SWAP3 LOG3 PUSH2 0x586 DUP4 PUSH1 0x8 SLOAD PUSH2 0x12E4 JUMP JUMPDEST PUSH1 0x8 SSTORE PUSH1 0x9 SSTORE PUSH1 0x6 SLOAD DUP7 MLOAD PUSH4 0xA9059CBB PUSH1 0xE0 SHL DUP2 MSTORE CALLER SWAP3 DUP2 ADD SWAP3 DUP4 MSTORE PUSH1 0x20 DUP4 ADD SWAP4 SWAP1 SWAP4 MSTORE SWAP2 SWAP8 DUP9 SWAP3 PUSH1 0x1 PUSH1 0x1 PUSH1 0xA0 SHL SUB AND SWAP2 DUP4 SWAP2 DUP12 SWAP2 DUP4 SWAP2 PUSH1 0x40 SWAP1 SWAP2 ADD SWAP1 JUMP JUMPDEST SUB SWAP3 GAS CALL SWAP5 DUP6 ISZERO PUSH2 0x635 JUMPI PUSH32 0x96CD817C6329656790EF8FBA7675405193677D39619571282F5E21F3A98CD059 SWAP5 SWAP6 PUSH2 0x608 JUMPI JUMPDEST POP DUP3 MLOAD SWAP5 DUP6 MSTORE DUP5 ADD MSTORE CALLER SWAP3 LOG2 DUP1 RETURN JUMPDEST PUSH2 0x627 SWAP1 DUP3 RETURNDATASIZE DUP5 GT PUSH2 0x62E JUMPI JUMPDEST PUSH2 0x61F DUP2 DUP4 PUSH2 0x1307 JUMP JUMPDEST DUP2 ADD SWAP1 PUSH2 0x1401 JUMP JUMPDEST POP DUP7 PUSH2 0x5F9 JUMP JUMPDEST POP RETURNDATASIZE PUSH2 0x615 JUMP JUMPDEST DUP4 MLOAD RETURNDATASIZE DUP9 DUP3 RETURNDATACOPY RETURNDATASIZE SWAP1 REVERT JUMPDEST DUP4 MLOAD PUSH3 0x461BCD PUSH1 0xE5 SHL DUP2 MSTORE DUP1 DUP9 ADD DUP4 SWAP1 MSTORE PUSH1 0x22 PUSH1 0x24 DUP3 ADD MSTORE PUSH32 0x45524332303A206275726E20616D6F756E7420657863656564732062616C616E PUSH1 0x44 DUP3 ADD MSTORE PUSH2 0x6365 PUSH1 0xF0 SHL PUSH1 0x64 DUP3 ADD MSTORE PUSH1 0x84 SWAP1 REVERT JUMPDEST DUP6 PUSH1 0x84 SWAP2 DUP5 MLOAD SWAP2 PUSH3 0x461BCD PUSH1 0xE5 SHL DUP4 MSTORE DUP3 ADD MSTORE PUSH1 0x21 PUSH1 0x24 DUP3 ADD MSTORE PUSH32 0x45524332303A206275726E2066726F6D20746865207A65726F20616464726573 PUSH1 0x44 DUP3 ADD MSTORE PUSH1 0x73 PUSH1 0xF8 SHL PUSH1 0x64 DUP3 ADD MSTORE REVERT JUMPDEST DUP6 PUSH1 0x64 SWAP2 DUP5 MLOAD SWAP2 PUSH3 0x461BCD PUSH1 0xE5 SHL DUP4 MSTORE DUP3 ADD MSTORE PUSH1 0x17 PUSH1 0x24 DUP3 ADD MSTORE PUSH32 0x5553444320616D6F756E74206D757374206265203E2030000000000000000000 PUSH1 0x44 DUP3 ADD MSTORE REVERT JUMPDEST DUP3 MLOAD PUSH3 0x461BCD PUSH1 0xE5 SHL DUP2 MSTORE DUP1 DUP8 ADD DUP6 SWAP1 MSTORE PUSH1 0xC PUSH1 0x24 DUP3 ADD MSTORE PUSH12 0x4E6F206C6971756964697479 PUSH1 0xA0 SHL PUSH1 0x44 DUP3 ADD MSTORE PUSH1 0x64 SWAP1 REVERT JUMPDEST DUP2 MLOAD PUSH3 0x461BCD PUSH1 0xE5 SHL DUP2 MSTORE DUP1 DUP7 ADD DUP5 SWAP1 MSTORE PUSH1 0x16 PUSH1 0x24 DUP3 ADD MSTORE PUSH22 0x496E73756666696369656E74204C5020746F6B656E73 PUSH1 0x50 SHL PUSH1 0x44 DUP3 ADD MSTORE PUSH1 0x64 SWAP1 REVERT JUMPDEST DUP2 MLOAD PUSH3 0x461BCD PUSH1 0xE5 SHL DUP2 MSTORE DUP1 DUP7 ADD DUP5 SWAP1 MSTORE PUSH1 0xE PUSH1 0x24 DUP3 ADD MSTORE PUSH14 0x125B9D985B1A5908185B5BDD5B9D PUSH1 0x92 SHL PUSH1 0x44 DUP3 ADD MSTORE PUSH1 0x64 SWAP1 REVERT JUMPDEST POP POP CALLVALUE PUSH2 0x1DF JUMPI DUP2 PUSH1 0x3 NOT CALLDATASIZE ADD SLT PUSH2 0x1DF JUMPI PUSH1 0x20 SWAP1 PUSH2 0x412 PUSH2 0x1419 JUMP JUMPDEST POP POP CALLVALUE PUSH2 0x1DF JUMPI DUP2 PUSH1 0x3 NOT CALLDATASIZE ADD SLT PUSH2 0x1DF JUMPI PUSH1 0x20 SWAP1 PUSH1 0xFF PUSH1 0x7 SLOAD PUSH1 0xA0 SHR AND SWAP1 MLOAD SWAP1 ISZERO ISZERO DUP2 MSTORE RETURN JUMPDEST DUP4 DUP4 CALLVALUE PUSH2 0x1DF JUMPI DUP2 PUSH1 0x3 NOT CALLDATASIZE ADD SLT PUSH2 0x1DF JUMPI DUP1 MLOAD SWAP2 DUP1 SWAP4 DUP1 SLOAD SWAP2 PUSH1 0x1 SWAP1 DUP4 PUSH1 0x1 SHR SWAP3 PUSH1 0x1 DUP6 AND SWAP5 DUP6 ISZERO PUSH2 0x8FC JUMPI JUMPDEST PUSH1 0x20 SWAP6 DUP7 DUP7 LT DUP2 EQ PUSH2 0x8E9 JUMPI DUP6 DUP10 MSTORE SWAP1 DUP2 ISZERO PUSH2 0x8C5 JUMPI POP PUSH1 0x1 EQ PUSH2 0x86D JUMPI JUMPDEST PUSH2 0x869 DUP8 DUP8 PUSH2 0x85F DUP3 DUP13 SUB DUP4 PUSH2 0x1307 JUMP JUMPDEST MLOAD SWAP2 DUP3 SWAP2 DUP3 PUSH2 0x126A JUMP JUMPDEST SUB SWAP1 RETURN JUMPDEST DUP2 MSTORE SWAP3 SWAP6 POP PUSH32 0x8A35ACFBC15FF81A39AE7D344FD709F28E8600B4AA8C65C6B64BFE7FE36BD19B JUMPDEST DUP3 DUP5 LT PUSH2 0x8B2 JUMPI POP POP POP DUP3 PUSH2 0x869 SWAP5 PUSH2 0x85F SWAP3 DUP3 ADD ADD SWAP5 DUP7 DUP1 PUSH2 0x84E JUMP JUMPDEST DUP1 SLOAD DUP7 DUP6 ADD DUP9 ADD MSTORE SWAP3 DUP7 ADD SWAP3 DUP2 ADD PUSH2 0x894 JUMP JUMPDEST PUSH1 0xFF NOT AND DUP9 DUP8 ADD MSTORE POP POP POP POP ISZERO ISZERO PUSH1 0x5 SHL DUP4 ADD ADD SWAP3 POP PUSH2 0x85F DUP3 PUSH2 0x869 DUP7 DUP1 PUSH2 0x84E JUMP JUMPDEST PUSH4 0x4E487B71 PUSH1 0xE0 SHL DUP5 MSTORE PUSH1 0x22 DUP4 MSTORE PUSH1 0x24 DUP5 REVERT JUMPDEST SWAP4 PUSH1 0x7F AND SWAP4 PUSH2 0x82F JUMP JUMPDEST POP POP CALLVALUE PUSH2 0x1DF JUMPI DUP2 PUSH1 0x3 NOT CALLDATASIZE ADD SLT PUSH2 0x1DF JUMPI PUSH1 0x5 SLOAD SWAP1 MLOAD PUSH1 0x8 SWAP2 SWAP1 SWAP2 SHR PUSH1 0x1 PUSH1 0x1 PUSH1 0xA0 SHL SUB AND DUP2 MSTORE PUSH1 0x20 SWAP1 RETURN JUMPDEST POP POP CALLVALUE PUSH2 0x1DF JUMPI DUP2 PUSH1 0x3 NOT CALLDATASIZE ADD SLT PUSH2 0x1DF JUMPI PUSH1 0x20 PUSH32 0x62E78CEA01BEE320CD4E420270B5EA74000D11B0C9F74754EBDBFC544B05A258 SWAP2 PUSH2 0x971 PUSH2 0x1707 JUMP JUMPDEST PUSH2 0x979 PUSH2 0x1805 JUMP JUMPDEST PUSH1 0x1 PUSH1 0xFF NOT PUSH1 0x5 SLOAD AND OR PUSH1 0x5 SSTORE MLOAD CALLER DUP2 MSTORE LOG1 DUP1 RETURN JUMPDEST POP POP CALLVALUE PUSH2 0x1DF JUMPI DUP2 PUSH1 0x3 NOT CALLDATASIZE ADD SLT PUSH2 0x1DF JUMPI PUSH1 0x7 SLOAD SWAP1 MLOAD PUSH1 0x1 PUSH1 0x1 PUSH1 0xA0 SHL SUB SWAP1 SWAP2 AND DUP2 MSTORE PUSH1 0x20 SWAP1 RETURN JUMPDEST DUP4 CALLVALUE PUSH2 0x4BE JUMPI DUP1 PUSH1 0x3 NOT CALLDATASIZE ADD SLT PUSH2 0x4BE JUMPI PUSH2 0x9D0 PUSH2 0x1707 JUMP JUMPDEST PUSH1 0x5 DUP1 SLOAD PUSH2 0x100 PUSH1 0x1 PUSH1 0xA8 SHL SUB NOT DUP2 AND SWAP1 SWAP2 SSTORE DUP2 SWAP1 PUSH1 0x8 SHR PUSH1 0x1 PUSH1 0x1 PUSH1 0xA0 SHL SUB AND PUSH32 0x8BE0079C531659141344CD1FD0A4F28419497F9722A3DAAFE3B4186F6B6457E0 DUP3 DUP1 LOG3 DUP1 RETURN JUMPDEST POP POP CALLVALUE PUSH2 0x1DF JUMPI PUSH1 0x20 CALLDATASIZE PUSH1 0x3 NOT ADD SLT PUSH2 0x1DF JUMPI PUSH1 0x20 SWAP2 DUP2 SWAP1 PUSH1 0x1 PUSH1 0x1 PUSH1 0xA0 SHL SUB PUSH2 0xA40 PUSH2 0x12B3 JUMP JUMPDEST AND DUP2 MSTORE DUP1 DUP5 MSTORE KECCAK256 SLOAD SWAP1 MLOAD SWAP1 DUP2 MSTORE RETURN JUMPDEST SWAP1 POP CALLVALUE PUSH2 0x2BC JUMPI DUP2 PUSH1 0x3 NOT CALLDATASIZE ADD SLT PUSH2 0x2BC JUMPI PUSH2 0xA69 PUSH2 0x12B3 JUMP JUMPDEST PUSH2 0xA71 PUSH2 0x12CE JUMP JUMPDEST SWAP2 PUSH2 0xA7A PUSH2 0x1707 JUMP JUMPDEST PUSH1 0xFF PUSH1 0x5 SLOAD AND ISZERO PUSH2 0xBFC JUMPI DUP4 MLOAD PUSH4 0x70A08231 PUSH1 0xE0 SHL DUP2 MSTORE ADDRESS DUP2 DUP4 ADD MSTORE SWAP1 PUSH1 0x20 SWAP1 PUSH1 0x1 PUSH1 0x1 PUSH1 0xA0 SHL SUB DUP5 AND SWAP1 DUP3 DUP5 PUSH1 0x24 DUP2 DUP6 GAS STATICCALL SWAP4 DUP5 ISZERO PUSH2 0xBF2 JUMPI DUP9 SWAP5 PUSH2 0xBBF JUMPI JUMPDEST POP DUP4 ISZERO PUSH2 0xB84 JUMPI DUP7 MLOAD PUSH4 0xA9059CBB PUSH1 0xE0 SHL DUP2 MSTORE PUSH1 0x1 PUSH1 0x1 PUSH1 0xA0 SHL SUB DUP8 AND SWAP2 DUP2 ADD SWAP2 DUP3 MSTORE PUSH1 0x20 DUP3 ADD DUP6 SWAP1 MSTORE SWAP2 DUP4 SWAP2 DUP4 SWAP2 SWAP1 DUP3 SWAP1 DUP12 SWAP1 DUP3 SWAP1 PUSH1 0x40 ADD SUB SWAP3 GAS CALL DUP1 ISZERO PUSH2 0xB7A JUMPI SWAP2 PUSH32 0x457E4FE0C9F161A0C6F3BFB8D7809A4AC19F6291BD81B03B86B0D00F9AF3717B SWAP7 SWAP2 PUSH2 0xB56 SWAP5 SWAP4 PUSH2 0xB5C JUMPI JUMPDEST POP POP MLOAD PUSH1 0x1 PUSH1 0x1 PUSH1 0xA0 SHL SUB SWAP4 DUP5 AND DUP2 MSTORE SWAP4 SWAP1 SWAP3 AND PUSH1 0x20 DUP5 ADD MSTORE PUSH1 0x40 DUP4 ADD SWAP2 SWAP1 SWAP2 MSTORE DUP2 SWAP1 PUSH1 0x60 DUP3 ADD SWAP1 JUMP JUMPDEST SUB SWAP1 LOG1 DUP1 RETURN JUMPDEST DUP2 PUSH2 0xB72 SWAP3 SWAP1 RETURNDATASIZE LT PUSH2 0x62E JUMPI PUSH2 0x61F DUP2 DUP4 PUSH2 0x1307 JUMP JUMPDEST POP CODESIZE DUP1 PUSH2 0xB2C JUMP JUMPDEST DUP7 MLOAD RETURNDATASIZE DUP10 DUP3 RETURNDATACOPY RETURNDATASIZE SWAP1 REVERT JUMPDEST DUP7 MLOAD PUSH3 0x461BCD PUSH1 0xE5 SHL DUP2 MSTORE SWAP1 DUP2 ADD DUP4 SWAP1 MSTORE PUSH1 0x15 PUSH1 0x24 DUP3 ADD MSTORE PUSH21 0x4E6F20746F6B656E7320746F207769746864726177 PUSH1 0x58 SHL PUSH1 0x44 DUP3 ADD MSTORE PUSH1 0x64 SWAP1 REVERT JUMPDEST SWAP1 SWAP4 POP DUP3 DUP2 DUP2 RETURNDATASIZE DUP4 GT PUSH2 0xBEB JUMPI JUMPDEST PUSH2 0xBD7 DUP2 DUP4 PUSH2 0x1307 JUMP JUMPDEST DUP2 ADD SUB SLT PUSH2 0xBE7 JUMPI MLOAD SWAP3 CODESIZE PUSH2 0xABB JUMP JUMPDEST DUP8 DUP1 REVERT JUMPDEST POP RETURNDATASIZE PUSH2 0xBCD JUMP JUMPDEST DUP8 MLOAD RETURNDATASIZE DUP11 DUP3 RETURNDATACOPY RETURNDATASIZE SWAP1 REVERT JUMPDEST PUSH1 0x64 SWAP1 PUSH1 0x20 DUP6 MLOAD SWAP2 PUSH3 0x461BCD PUSH1 0xE5 SHL DUP4 MSTORE DUP3 ADD MSTORE PUSH1 0xE PUSH1 0x24 DUP3 ADD MSTORE PUSH14 0x135D5CDD081899481C185D5CD959 PUSH1 0x92 SHL PUSH1 0x44 DUP3 ADD MSTORE REVERT JUMPDEST POP POP CALLVALUE PUSH2 0x1DF JUMPI DUP2 PUSH1 0x3 NOT CALLDATASIZE ADD SLT PUSH2 0x1DF JUMPI PUSH1 0x20 SWAP1 PUSH1 0xFF PUSH1 0x5 SLOAD AND SWAP1 MLOAD SWAP1 ISZERO ISZERO DUP2 MSTORE RETURN JUMPDEST DUP4 DUP4 CALLVALUE PUSH2 0x1DF JUMPI PUSH1 0x20 CALLDATASIZE PUSH1 0x3 NOT ADD SLT PUSH2 0x1DF JUMPI DUP3 CALLDATALOAD SWAP1 PUSH2 0xC72 PUSH2 0x1805 JUMP JUMPDEST DUP2 ISZERO PUSH2 0xC7E DUP2 ISZERO PUSH2 0x134C JUMP JUMPDEST PUSH1 0x6 SLOAD DUP3 MLOAD PUSH4 0x23B872DD PUSH1 0xE0 SHL DUP2 MSTORE CALLER DUP8 DUP3 ADD SWAP1 DUP2 MSTORE ADDRESS PUSH1 0x20 DUP1 DUP4 ADD SWAP2 SWAP1 SWAP2 MSTORE PUSH1 0x40 DUP3 ADD DUP8 SWAP1 MSTORE SWAP2 SWAP3 DUP4 SWAP2 DUP3 SWAP1 SUB PUSH1 0x60 ADD SWAP1 DUP3 SWAP1 DUP10 SWAP1 PUSH1 0x1 PUSH1 0x1 PUSH1 0xA0 SHL SUB AND GAS CALL DUP1 ISZERO PUSH2 0xDBD JUMPI PUSH2 0xD9E JUMPI JUMPDEST POP PUSH1 0x2 SLOAD DUP1 PUSH2 0xD5C JUMPI POP PUSH5 0xE8D4A51000 SWAP1 DUP2 DUP5 MUL SWAP2 DUP5 DUP4 DIV EQ OR ISZERO PUSH2 0xD49 JUMPI PUSH32 0xAC1D76749E5447B7B16F5AB61447E1BD502F3BB4807AF3B28E620D1700A6EE45 SWAP3 SWAP4 SWAP5 POP JUMPDEST PUSH2 0xD1A DUP2 ISZERO ISZERO PUSH2 0x13C0 JUMP JUMPDEST PUSH2 0xD24 DUP2 CALLER PUSH2 0x1762 JUMP JUMPDEST PUSH2 0xD30 DUP5 PUSH1 0x8 SLOAD PUSH2 0x133F JUMP JUMPDEST PUSH1 0x8 SSTORE PUSH1 0x2 SLOAD PUSH1 0x9 SSTORE DUP2 MLOAD SWAP4 DUP5 MSTORE PUSH1 0x20 DUP5 ADD MSTORE CALLER SWAP3 LOG2 DUP1 RETURN JUMPDEST PUSH4 0x4E487B71 PUSH1 0xE0 SHL DUP5 MSTORE PUSH1 0x11 DUP6 MSTORE PUSH1 0x24 DUP5 REVERT JUMPDEST DUP4 SWAP5 SWAP6 POP PUSH2 0xD99 SWAP2 POP PUSH2 0xD90 SWAP1 PUSH32 0xAC1D76749E5447B7B16F5AB61447E1BD502F3BB4807AF3B28E620D1700A6EE45 SWAP5 PUSH2 0x138D JUMP JUMPDEST PUSH1 0x8 SLOAD SWAP1 PUSH2 0x13A0 JUMP JUMPDEST PUSH2 0xD0F JUMP JUMPDEST PUSH2 0xDB6 SWAP1 PUSH1 0x20 RETURNDATASIZE PUSH1 0x20 GT PUSH2 0x62E JUMPI PUSH2 0x61F DUP2 DUP4 PUSH2 0x1307 JUMP JUMPDEST POP DUP6 PUSH2 0xCCA JUMP JUMPDEST DUP4 MLOAD RETURNDATASIZE DUP8 DUP3 RETURNDATACOPY RETURNDATASIZE SWAP1 REVERT JUMPDEST DUP4 DUP4 CALLVALUE PUSH2 0x1DF JUMPI DUP1 PUSH1 0x3 NOT CALLDATASIZE ADD SLT PUSH2 0x1DF JUMPI DUP3 CALLDATALOAD SWAP1 PUSH2 0xDE4 PUSH2 0x12CE JUMP JUMPDEST PUSH1 0x7 SLOAD PUSH1 0x1 PUSH1 0x1 PUSH1 0xA0 SHL SUB SWAP2 SWAP1 DUP3 AND CALLER SUB PUSH2 0xF22 JUMPI DUP4 ISZERO PUSH2 0xE05 DUP2 ISZERO PUSH2 0x134C JUMP JUMPDEST PUSH1 0x1E DUP6 MUL SWAP1 DUP6 DUP3 DIV PUSH1 0x1E EQ OR ISZERO PUSH2 0xF0F JUMPI PUSH2 0x2710 PUSH2 0xE24 SWAP2 DIV DUP6 PUSH2 0x12E4 JUMP JUMPDEST PUSH1 0x2 SLOAD DUP1 PUSH2 0xEB7 JUMPI POP PUSH5 0xE8D4A51000 DUP1 DUP3 MUL SWAP1 DUP3 DUP3 DIV EQ DUP3 ISZERO OR ISZERO PUSH2 0xEA4 JUMPI PUSH32 0x2D043CE009FF53FD444B0F4F5FF4C3F4EE293265203F77F156EEB33B595DFC4F SWAP6 SWAP7 SWAP8 POP PUSH2 0xE8B SWAP1 SWAP2 JUMPDEST PUSH2 0xE79 DUP4 ISZERO ISZERO PUSH2 0x13C0 JUMP JUMPDEST PUSH2 0xE83 DUP4 DUP6 PUSH2 0x1762 JUMP JUMPDEST PUSH1 0x8 SLOAD PUSH2 0x133F JUMP JUMPDEST PUSH1 0x8 SSTORE PUSH1 0x2 SLOAD PUSH1 0x9 SSTORE DUP4 MLOAD SWAP6 DUP7 MSTORE PUSH1 0x20 DUP7 ADD MSTORE AND SWAP3 LOG2 DUP1 RETURN JUMPDEST PUSH4 0x4E487B71 PUSH1 0xE0 SHL DUP8 MSTORE PUSH1 0x11 DUP9 MSTORE PUSH1 0x24 DUP8 REVERT JUMPDEST PUSH32 0x2D043CE009FF53FD444B0F4F5FF4C3F4EE293265203F77F156EEB33B595DFC4F SWAP6 SWAP7 SWAP8 POP PUSH2 0xF09 PUSH2 0xE8B SWAP2 PUSH2 0xF03 PUSH1 0x8 SLOAD PUSH2 0xEFD DUP7 PUSH2 0xEF7 DUP6 DUP5 PUSH2 0x138D JUMP JUMPDEST SWAP3 PUSH2 0x133F JUMP JUMPDEST SWAP1 PUSH2 0x13A0 JUMP JUMPDEST SWAP1 PUSH2 0x12E4 JUMP JUMPDEST SWAP2 PUSH2 0xE6E JUMP JUMPDEST PUSH4 0x4E487B71 PUSH1 0xE0 SHL DUP7 MSTORE PUSH1 0x11 DUP8 MSTORE PUSH1 0x24 DUP7 REVERT JUMPDEST DUP3 MLOAD PUSH3 0x461BCD PUSH1 0xE5 SHL DUP2 MSTORE PUSH1 0x20 DUP2 DUP9 ADD MSTORE PUSH1 0xB PUSH1 0x24 DUP3 ADD MSTORE PUSH11 0x13DB9B1E481B585C9AD95D PUSH1 0xAA SHL PUSH1 0x44 DUP3 ADD MSTORE PUSH1 0x64 SWAP1 REVERT JUMPDEST SWAP1 POP CALLVALUE PUSH2 0x2BC JUMPI DUP3 PUSH1 0x3 NOT CALLDATASIZE ADD SLT PUSH2 0x2BC JUMPI PUSH2 0xF6D PUSH2 0x1707 JUMP JUMPDEST PUSH1 0x5 SLOAD SWAP1 PUSH1 0xFF DUP3 AND ISZERO PUSH2 0xFAF JUMPI POP PUSH1 0xFF NOT AND PUSH1 0x5 SSTORE MLOAD CALLER DUP2 MSTORE PUSH32 0x5DB9EE0A495BF2E6FF9C91A7834C1BA4FDD244A5E8AA4E537BD38AEAE4B073AA SWAP1 PUSH1 0x20 SWAP1 LOG1 DUP1 RETURN JUMPDEST PUSH1 0x64 SWAP1 PUSH1 0x20 DUP5 MLOAD SWAP2 PUSH3 0x461BCD PUSH1 0xE5 SHL DUP4 MSTORE DUP3 ADD MSTORE PUSH1 0x14 PUSH1 0x24 DUP3 ADD MSTORE PUSH20 0x14185D5CD8589B194E881B9BDD081C185D5CD959 PUSH1 0x62 SHL PUSH1 0x44 DUP3 ADD MSTORE REVERT JUMPDEST POP POP CALLVALUE PUSH2 0x1DF JUMPI DUP2 PUSH1 0x3 NOT CALLDATASIZE ADD SLT PUSH2 0x1DF JUMPI PUSH1 0x6 SLOAD SWAP1 MLOAD PUSH1 0x1 PUSH1 0x1 PUSH1 0xA0 SHL SUB SWAP1 SWAP2 AND DUP2 MSTORE PUSH1 0x20 SWAP1 RETURN JUMPDEST POP POP CALLVALUE PUSH2 0x1DF JUMPI DUP1 PUSH1 0x3 NOT CALLDATASIZE ADD SLT PUSH2 0x1DF JUMPI PUSH2 0x3E5 PUSH1 0x20 SWAP3 PUSH2 0x105B PUSH2 0x1035 PUSH2 0x12B3 JUMP JUMPDEST CALLER DUP4 MSTORE PUSH1 0x1 DUP7 MSTORE DUP5 DUP4 KECCAK256 PUSH1 0x1 PUSH1 0x1 PUSH1 0xA0 SHL SUB DUP3 AND DUP5 MSTORE DUP7 MSTORE SWAP2 DUP5 SWAP1 KECCAK256 SLOAD PUSH1 0x24 CALLDATALOAD SWAP1 PUSH2 0x133F JUMP JUMPDEST SWAP1 CALLER PUSH2 0x1497 JUMP JUMPDEST DUP4 SWAP2 POP CALLVALUE PUSH2 0x1DF JUMPI PUSH1 0x60 CALLDATASIZE PUSH1 0x3 NOT ADD SLT PUSH2 0x1DF JUMPI PUSH2 0x107E PUSH2 0x12B3 JUMP JUMPDEST PUSH2 0x1086 PUSH2 0x12CE JUMP JUMPDEST SWAP2 DUP5 PUSH1 0x44 CALLDATALOAD SWAP5 PUSH1 0x1 DUP1 PUSH1 0xA0 SHL SUB DUP5 AND DUP2 MSTORE PUSH1 0x1 PUSH1 0x20 MSTORE DUP2 DUP2 KECCAK256 CALLER DUP3 MSTORE PUSH1 0x20 MSTORE KECCAK256 SLOAD SWAP1 PUSH1 0x0 NOT DUP3 SUB PUSH2 0x10C0 JUMPI JUMPDEST PUSH1 0x20 DUP7 PUSH2 0x3E5 DUP8 DUP8 DUP8 PUSH2 0x1599 JUMP JUMPDEST DUP5 DUP3 LT PUSH2 0x10E9 JUMPI POP SWAP2 DUP4 SWAP2 PUSH2 0x10DE PUSH1 0x20 SWAP7 SWAP6 PUSH2 0x3E5 SWAP6 SUB CALLER DUP4 PUSH2 0x1497 JUMP JUMPDEST SWAP2 SWAP4 SWAP5 DUP2 SWAP4 POP PUSH2 0x10B2 JUMP JUMPDEST PUSH1 0x64 SWAP1 PUSH1 0x20 DUP8 MLOAD SWAP2 PUSH3 0x461BCD PUSH1 0xE5 SHL DUP4 MSTORE DUP3 ADD MSTORE PUSH1 0x1D PUSH1 0x24 DUP3 ADD MSTORE PUSH32 0x45524332303A20696E73756666696369656E7420616C6C6F77616E6365000000 PUSH1 0x44 DUP3 ADD MSTORE REVERT JUMPDEST POP POP CALLVALUE PUSH2 0x1DF JUMPI DUP2 PUSH1 0x3 NOT CALLDATASIZE ADD SLT PUSH2 0x1DF JUMPI PUSH1 0x20 SWAP1 PUSH1 0x2 SLOAD SWAP1 MLOAD SWAP1 DUP2 MSTORE RETURN JUMPDEST POP POP CALLVALUE PUSH2 0x1DF JUMPI DUP1 PUSH1 0x3 NOT CALLDATASIZE ADD SLT PUSH2 0x1DF JUMPI PUSH1 0x20 SWAP1 PUSH2 0x3E5 PUSH2 0x116B PUSH2 0x12B3 JUMP JUMPDEST PUSH1 0x24 CALLDATALOAD SWAP1 CALLER PUSH2 0x1497 JUMP JUMPDEST SWAP3 SWAP2 POP CALLVALUE PUSH2 0x1266 JUMPI DUP4 PUSH1 0x3 NOT CALLDATASIZE ADD SLT PUSH2 0x1266 JUMPI PUSH1 0x3 SLOAD PUSH1 0x1 DUP2 DUP2 SHR SWAP2 DUP7 SWAP1 DUP3 DUP2 AND DUP1 ISZERO PUSH2 0x125C JUMPI JUMPDEST PUSH1 0x20 SWAP6 DUP7 DUP7 LT DUP3 EQ PUSH2 0x1249 JUMPI POP DUP5 DUP9 MSTORE SWAP1 DUP2 ISZERO PUSH2 0x1227 JUMPI POP PUSH1 0x1 EQ PUSH2 0x11CE JUMPI JUMPDEST PUSH2 0x869 DUP7 DUP7 PUSH2 0x85F DUP3 DUP12 SUB DUP4 PUSH2 0x1307 JUMP JUMPDEST SWAP3 SWAP6 POP PUSH1 0x3 DUP4 MSTORE PUSH32 0xC2575A0E9E593C00F959F8C92F12DB2869C3395A3B0502D05E2516446F71F85B JUMPDEST DUP3 DUP5 LT PUSH2 0x1214 JUMPI POP POP POP DUP3 PUSH2 0x869 SWAP5 PUSH2 0x85F SWAP3 DUP3 ADD ADD SWAP5 CODESIZE PUSH2 0x11BD JUMP JUMPDEST DUP1 SLOAD DUP7 DUP6 ADD DUP9 ADD MSTORE SWAP3 DUP7 ADD SWAP3 DUP2 ADD PUSH2 0x11F7 JUMP JUMPDEST PUSH1 0xFF NOT AND DUP8 DUP7 ADD MSTORE POP POP POP ISZERO ISZERO PUSH1 0x5 SHL DUP4 ADD ADD SWAP3 POP PUSH2 0x85F DUP3 PUSH2 0x869 CODESIZE PUSH2 0x11BD JUMP JUMPDEST PUSH4 0x4E487B71 PUSH1 0xE0 SHL DUP5 MSTORE PUSH1 0x22 SWAP1 MSTORE PUSH1 0x24 DUP4 REVERT JUMPDEST SWAP4 PUSH1 0x7F AND SWAP4 PUSH2 0x119D JUMP JUMPDEST DUP4 DUP1 REVERT JUMPDEST PUSH1 0x20 DUP1 DUP3 MSTORE DUP3 MLOAD DUP2 DUP4 ADD DUP2 SWAP1 MSTORE SWAP1 SWAP4 SWAP3 PUSH1 0x0 JUMPDEST DUP3 DUP2 LT PUSH2 0x129F JUMPI POP POP PUSH1 0x40 SWAP3 SWAP4 POP PUSH1 0x0 DUP4 DUP3 DUP5 ADD ADD MSTORE PUSH1 0x1F DUP1 NOT SWAP2 ADD AND ADD ADD SWAP1 JUMP JUMPDEST DUP2 DUP2 ADD DUP7 ADD MLOAD DUP5 DUP3 ADD PUSH1 0x40 ADD MSTORE DUP6 ADD PUSH2 0x127D JUMP JUMPDEST PUSH1 0x4 CALLDATALOAD SWAP1 PUSH1 0x1 PUSH1 0x1 PUSH1 0xA0 SHL SUB DUP3 AND DUP3 SUB PUSH2 0x12C9 JUMPI JUMP JUMPDEST PUSH1 0x0 DUP1 REVERT JUMPDEST PUSH1 0x24 CALLDATALOAD SWAP1 PUSH1 0x1 PUSH1 0x1 PUSH1 0xA0 SHL SUB DUP3 AND DUP3 SUB PUSH2 0x12C9 JUMPI JUMP JUMPDEST SWAP2 SWAP1 DUP3 SUB SWAP2 DUP3 GT PUSH2 0x12F1 JUMPI JUMP JUMPDEST PUSH4 0x4E487B71 PUSH1 0xE0 SHL PUSH1 0x0 MSTORE PUSH1 0x11 PUSH1 0x4 MSTORE PUSH1 0x24 PUSH1 0x0 REVERT JUMPDEST SWAP1 PUSH1 0x1F DUP1 NOT SWAP2 ADD AND DUP2 ADD SWAP1 DUP2 LT PUSH8 0xFFFFFFFFFFFFFFFF DUP3 GT OR PUSH2 0x1329 JUMPI PUSH1 0x40 MSTORE JUMP JUMPDEST PUSH4 0x4E487B71 PUSH1 0xE0 SHL PUSH1 0x0 MSTORE PUSH1 0x41 PUSH1 0x4 MSTORE PUSH1 0x24 PUSH1 0x0 REVERT JUMPDEST SWAP2 SWAP1 DUP3 ADD DUP1 SWAP3 GT PUSH2 0x12F1 JUMPI JUMP JUMPDEST ISZERO PUSH2 0x1353 JUMPI JUMP JUMPDEST PUSH1 0x40 MLOAD PUSH3 0x461BCD PUSH1 0xE5 SHL DUP2 MSTORE PUSH1 0x20 PUSH1 0x4 DUP3 ADD MSTORE PUSH1 0x12 PUSH1 0x24 DUP3 ADD MSTORE PUSH18 0x416D6F756E74206D757374206265203E203 PUSH1 0x74 SHL PUSH1 0x44 DUP3 ADD MSTORE PUSH1 0x64 SWAP1 REVERT JUMPDEST DUP2 DUP2 MUL SWAP3 SWAP2 DUP2 ISZERO SWAP2 DUP5 DIV EQ OR ISZERO PUSH2 0x12F1 JUMPI JUMP JUMPDEST DUP2 ISZERO PUSH2 0x13AA JUMPI DIV SWAP1 JUMP JUMPDEST PUSH4 0x4E487B71 PUSH1 0xE0 SHL PUSH1 0x0 MSTORE PUSH1 0x12 PUSH1 0x4 MSTORE PUSH1 0x24 PUSH1 0x0 REVERT JUMPDEST ISZERO PUSH2 0x13C7 JUMPI JUMP JUMPDEST PUSH1 0x40 MLOAD PUSH3 0x461BCD PUSH1 0xE5 SHL DUP2 MSTORE PUSH1 0x20 PUSH1 0x4 DUP3 ADD MSTORE PUSH1 0x12 PUSH1 0x24 DUP3 ADD MSTORE PUSH18 0x536861726573206D757374206265203E203 PUSH1 0x74 SHL PUSH1 0x44 DUP3 ADD MSTORE PUSH1 0x64 SWAP1 REVERT JUMPDEST SWAP1 DUP2 PUSH1 0x20 SWAP2 SUB SLT PUSH2 0x12C9 JUMPI MLOAD DUP1 ISZERO ISZERO DUP2 SUB PUSH2 0x12C9 JUMPI SWAP1 JUMP JUMPDEST PUSH1 0x2 SLOAD DUP1 ISZERO PUSH2 0x1449 JUMPI PUSH1 0x8 SLOAD SWAP1 PUSH5 0xE8D4A51000 SWAP2 DUP3 DUP2 MUL SWAP3 DUP2 DUP5 DIV EQ SWAP1 ISZERO OR ISZERO PUSH2 0x12F1 JUMPI PUSH2 0x1446 SWAP2 PUSH2 0x13A0 JUMP JUMPDEST SWAP1 JUMP JUMPDEST POP PUSH1 0x0 SWAP1 JUMP JUMPDEST PUSH1 0x1 PUSH1 0x1 PUSH1 0xA0 SHL SUB AND PUSH1 0x0 SWAP1 DUP2 MSTORE PUSH1 0x20 DUP2 SWAP1 MSTORE PUSH1 0x40 SWAP1 KECCAK256 SLOAD DUP1 ISZERO DUP1 ISZERO PUSH2 0x148D JUMPI JUMPDEST PUSH2 0x1449 JUMPI PUSH2 0x1484 PUSH2 0x1446 SWAP2 PUSH1 0x8 SLOAD SWAP1 PUSH2 0x138D JUMP JUMPDEST PUSH1 0x2 SLOAD SWAP1 PUSH2 0x13A0 JUMP JUMPDEST POP PUSH1 0x2 SLOAD ISZERO PUSH2 0x1470 JUMP JUMPDEST PUSH1 0x1 PUSH1 0x1 PUSH1 0xA0 SHL SUB SWAP1 DUP2 AND SWAP2 DUP3 ISZERO PUSH2 0x1548 JUMPI AND SWAP2 DUP3 ISZERO PUSH2 0x14F8 JUMPI PUSH1 0x20 PUSH32 0x8C5BE1E5EBEC7D5BD14F71427D1E84F3DD0314C0F7B2291E5B200AC8C7C3B925 SWAP2 DUP4 PUSH1 0x0 MSTORE PUSH1 0x1 DUP3 MSTORE PUSH1 0x40 PUSH1 0x0 KECCAK256 DUP6 PUSH1 0x0 MSTORE DUP3 MSTORE DUP1 PUSH1 0x40 PUSH1 0x0 KECCAK256 SSTORE PUSH1 0x40 MLOAD SWAP1 DUP2 MSTORE LOG3 JUMP JUMPDEST PUSH1 0x40 MLOAD PUSH3 0x461BCD PUSH1 0xE5 SHL DUP2 MSTORE PUSH1 0x20 PUSH1 0x4 DUP3 ADD MSTORE PUSH1 0x22 PUSH1 0x24 DUP3 ADD MSTORE PUSH32 0x45524332303A20617070726F766520746F20746865207A65726F206164647265 PUSH1 0x44 DUP3 ADD MSTORE PUSH2 0x7373 PUSH1 0xF0 SHL PUSH1 0x64 DUP3 ADD MSTORE PUSH1 0x84 SWAP1 REVERT JUMPDEST PUSH1 0x40 MLOAD PUSH3 0x461BCD PUSH1 0xE5 SHL DUP2 MSTORE PUSH1 0x20 PUSH1 0x4 DUP3 ADD MSTORE PUSH1 0x24 DUP1 DUP3 ADD MSTORE PUSH32 0x45524332303A20617070726F76652066726F6D20746865207A65726F20616464 PUSH1 0x44 DUP3 ADD MSTORE PUSH4 0x72657373 PUSH1 0xE0 SHL PUSH1 0x64 DUP3 ADD MSTORE PUSH1 0x84 SWAP1 REVERT JUMPDEST PUSH1 0x1 PUSH1 0x1 PUSH1 0xA0 SHL SUB SWAP1 DUP2 AND SWAP2 DUP3 ISZERO PUSH2 0x16B4 JUMPI AND SWAP2 DUP3 ISZERO PUSH2 0x1663 JUMPI PUSH1 0x0 DUP3 DUP2 MSTORE DUP1 PUSH1 0x20 MSTORE PUSH1 0x40 DUP2 KECCAK256 SLOAD SWAP2 DUP1 DUP4 LT PUSH2 0x160F JUMPI PUSH1 0x40 DUP3 DUP3 PUSH32 0xDDF252AD1BE2C89B69C2B068FC378DAA952BA7F163C4A11628F55A4DF523B3EF SWAP6 DUP8 PUSH1 0x20 SWAP7 MSTORE DUP3 DUP7 MSTORE SUB DUP3 DUP3 KECCAK256 SSTORE DUP7 DUP2 MSTORE KECCAK256 DUP2 DUP2 SLOAD ADD SWAP1 SSTORE PUSH1 0x40 MLOAD SWAP1 DUP2 MSTORE LOG3 JUMP JUMPDEST PUSH1 0x40 MLOAD PUSH3 0x461BCD PUSH1 0xE5 SHL DUP2 MSTORE PUSH1 0x20 PUSH1 0x4 DUP3 ADD MSTORE PUSH1 0x26 PUSH1 0x24 DUP3 ADD MSTORE PUSH32 0x45524332303A207472616E7366657220616D6F756E7420657863656564732062 PUSH1 0x44 DUP3 ADD MSTORE PUSH6 0x616C616E6365 PUSH1 0xD0 SHL PUSH1 0x64 DUP3 ADD MSTORE PUSH1 0x84 SWAP1 REVERT JUMPDEST PUSH1 0x40 MLOAD PUSH3 0x461BCD PUSH1 0xE5 SHL DUP2 MSTORE PUSH1 0x20 PUSH1 0x4 DUP3 ADD MSTORE PUSH1 0x23 PUSH1 0x24 DUP3 ADD MSTORE PUSH32 0x45524332303A207472616E7366657220746F20746865207A65726F2061646472 PUSH1 0x44 DUP3 ADD MSTORE PUSH3 0x657373 PUSH1 0xE8 SHL PUSH1 0x64 DUP3 ADD MSTORE PUSH1 0x84 SWAP1 REVERT JUMPDEST PUSH1 0x40 MLOAD PUSH3 0x461BCD PUSH1 0xE5 SHL DUP2 MSTORE PUSH1 0x20 PUSH1 0x4 DUP3 ADD MSTORE PUSH1 0x25 PUSH1 0x24 DUP3 ADD MSTORE PUSH32 0x45524332303A207472616E736665722066726F6D20746865207A65726F206164 PUSH1 0x44 DUP3 ADD MSTORE PUSH5 0x6472657373 PUSH1 0xD8 SHL PUSH1 0x64 DUP3 ADD MSTORE PUSH1 0x84 SWAP1 REVERT JUMPDEST PUSH1 0x5 SLOAD PUSH1 0x8 SHR PUSH1 0x1 PUSH1 0x1 PUSH1 0xA0 SHL SUB AND CALLER SUB PUSH2 0x171E JUMPI JUMP JUMPDEST PUSH1 0x64 PUSH1 0x40 MLOAD PUSH3 0x461BCD PUSH1 0xE5 SHL DUP2 MSTORE PUSH1 0x20 PUSH1 0x4 DUP3 ADD MSTORE PUSH1 0x20 PUSH1 0x24 DUP3 ADD MSTORE PUSH32 0x4F776E61626C653A2063616C6C6572206973206E6F7420746865206F776E6572 PUSH1 0x44 DUP3 ADD MSTORE REVERT JUMPDEST PUSH1 0x1 PUSH1 0x1 PUSH1 0xA0 SHL SUB AND SWAP1 DUP2 ISZERO PUSH2 0x17C0 JUMPI PUSH32 0xDDF252AD1BE2C89B69C2B068FC378DAA952BA7F163C4A11628F55A4DF523B3EF PUSH1 0x20 DUP3 PUSH2 0x17A4 PUSH1 0x0 SWAP5 PUSH1 0x2 SLOAD PUSH2 0x133F JUMP JUMPDEST PUSH1 0x2 SSTORE DUP5 DUP5 MSTORE DUP4 DUP3 MSTORE PUSH1 0x40 DUP5 KECCAK256 DUP2 DUP2 SLOAD ADD SWAP1 SSTORE PUSH1 0x40 MLOAD SWAP1 DUP2 MSTORE LOG3 JUMP JUMPDEST PUSH1 0x40 MLOAD PUSH3 0x461BCD PUSH1 0xE5 SHL DUP2 MSTORE PUSH1 0x20 PUSH1 0x4 DUP3 ADD MSTORE PUSH1 0x1F PUSH1 0x24 DUP3 ADD MSTORE PUSH32 0x45524332303A206D696E7420746F20746865207A65726F206164647265737300 PUSH1 0x44 DUP3 ADD MSTORE PUSH1 0x64 SWAP1 REVERT JUMPDEST PUSH1 0xFF PUSH1 0x5 SLOAD AND PUSH2 0x1811 JUMPI JUMP JUMPDEST PUSH1 0x40 MLOAD PUSH3 0x461BCD PUSH1 0xE5 SHL DUP2 MSTORE PUSH1 0x20 PUSH1 0x4 DUP3 ADD MSTORE PUSH1 0x10 PUSH1 0x24 DUP3 ADD MSTORE PUSH16 0x14185D5CD8589B194E881C185D5CD959 PUSH1 0x82 SHL PUSH1 0x44 DUP3 ADD MSTORE PUSH1 0x64 SWAP1 REVERT INVALID LOG2 PUSH5 0x6970667358 0x22 SLT KECCAK256 0xD4 0xDE CODESIZE DIV 0xCA 0xB6 0x28 DUP3 MSTORE8 PUSH30 0x469C302DD55007CFA6CB3DAEA6C132E19FC5D35CDBE664736F6C63430008 XOR STOP CALLER "},"methodIdentifiers":{"DECIMAL_SCALE()":"db5dca21","FEE()":"c57981b5","SHARE_DECIMALS()":"d853365f","USDC_DECIMALS()":"c1419def","addLiquidity(uint256)":"51c6590a","allowance(address,address)":"dd62ed3e","approve(address,uint256)":"095ea7b3","balanceOf(address)":"70a08231","calculatePayout(address)":"a877933f","decimals()":"313ce567","decreaseAllowance(address,uint256)":"a457c2d7","emergencyWithdraw(address,address)":"6382d9ad","getPrice()":"98d5fdca","getReserveInfo()":"ffe777bd","getReserveShares()":"eef37a18","getReserveUSDC()":"8840d7b9","increaseAllowance(address,uint256)":"39509351","isYes()":"983babb4","market()":"80f55605","name()":"06fdde03","owner()":"8da5cb5b","pause()":"8456cb59","paused()":"5c975abb","removeLiquidity(uint256)":"9c8f9f23","renounceOwnership()":"715018a6","reserveShares()":"58c7aa0f","reserveUSDC()":"c87b502e","swapIn(uint256,address)":"4ecfdfad","symbol()":"95d89b41","totalSupply()":"18160ddd","transfer(address,uint256)":"a9059cbb","transferFrom(address,address,uint256)":"23b872dd","transferOwnership(address)":"f2fde38b","unpause()":"3f4ba83a","usdc()":"3e413bee"}}}}}