{
  "_format": "hh-sol-artifact-1",
  "contractName": "ResolutionModuleUpgradeable",
  "sourceName": "contracts/ResolutionModuleUpgradeable.sol",
  "abi": [
    {
      "anonymous": false,
      "inputs": [
        {
          "indexed": false,
          "internalType": "address",
          "name": "previousAdmin",
          "type": "address"
        },
        {
          "indexed": false,
          "internalType": "address",
          "name": "newAdmin",
          "type": "address"
        }
      ],
      "name": "AdminChanged",
      "type": "event"
    },
    {
      "anonymous": false,
      "inputs": [
        {
          "indexed": true,
          "internalType": "address",
          "name": "beacon",
          "type": "address"
        }
      ],
      "name": "BeaconUpgraded",
      "type": "event"
    },
    {
      "anonymous": false,
      "inputs": [
        {
          "indexed": true,
          "internalType": "uint256",
          "name": "proposalId",
          "type": "uint256"
        },
        {
          "indexed": false,
          "internalType": "address",
          "name": "winner",
          "type": "address"
        },
        {
          "indexed": false,
          "internalType": "uint256",
          "name": "amount",
          "type": "uint256"
        }
      ],
      "name": "BondsDistributed",
      "type": "event"
    },
    {
      "anonymous": false,
      "inputs": [
        {
          "indexed": true,
          "internalType": "uint256",
          "name": "proposalId",
          "type": "uint256"
        },
        {
          "indexed": false,
          "internalType": "address",
          "name": "disputer",
          "type": "address"
        }
      ],
      "name": "Disputed",
      "type": "event"
    },
    {
      "anonymous": false,
      "inputs": [
        {
          "indexed": false,
          "internalType": "uint8",
          "name": "version",
          "type": "uint8"
        }
      ],
      "name": "Initialized",
      "type": "event"
    },
    {
      "anonymous": false,
      "inputs": [
        {
          "indexed": true,
          "internalType": "uint256",
          "name": "proposalId",
          "type": "uint256"
        },
        {
          "indexed": false,
          "internalType": "uint256",
          "name": "marketId",
          "type": "uint256"
        },
        {
          "indexed": false,
          "internalType": "uint8",
          "name": "outcome",
          "type": "uint8"
        }
      ],
      "name": "OutcomeProposed",
      "type": "event"
    },
    {
      "anonymous": false,
      "inputs": [
        {
          "indexed": true,
          "internalType": "address",
          "name": "previousOwner",
          "type": "address"
        },
        {
          "indexed": true,
          "internalType": "address",
          "name": "newOwner",
          "type": "address"
        }
      ],
      "name": "OwnershipTransferred",
      "type": "event"
    },
    {
      "anonymous": false,
      "inputs": [
        {
          "indexed": true,
          "internalType": "address",
          "name": "implementation",
          "type": "address"
        }
      ],
      "name": "Upgraded",
      "type": "event"
    },
    {
      "inputs": [],
      "name": "BOND_AMOUNT",
      "outputs": [
        {
          "internalType": "uint256",
          "name": "",
          "type": "uint256"
        }
      ],
      "stateMutability": "view",
      "type": "function"
    },
    {
      "inputs": [],
      "name": "CHALLENGE_WINDOW",
      "outputs": [
        {
          "internalType": "uint256",
          "name": "",
          "type": "uint256"
        }
      ],
      "stateMutability": "view",
      "type": "function"
    },
    {
      "inputs": [],
      "name": "adminResolver",
      "outputs": [
        {
          "internalType": "address",
          "name": "",
          "type": "address"
        }
      ],
      "stateMutability": "view",
      "type": "function"
    },
    {
      "inputs": [
        {
          "internalType": "uint256",
          "name": "proposalId",
          "type": "uint256"
        }
      ],
      "name": "dispute",
      "outputs": [],
      "stateMutability": "nonpayable",
      "type": "function"
    },
    {
      "inputs": [
        {
          "internalType": "uint256",
          "name": "proposalId",
          "type": "uint256"
        },
        {
          "internalType": "address",
          "name": "winner",
          "type": "address"
        }
      ],
      "name": "distributeBonds",
      "outputs": [],
      "stateMutability": "nonpayable",
      "type": "function"
    },
    {
      "inputs": [
        {
          "internalType": "uint256",
          "name": "proposalId",
          "type": "uint256"
        }
      ],
      "name": "finalizeNoDispute",
      "outputs": [],
      "stateMutability": "nonpayable",
      "type": "function"
    },
    {
      "inputs": [
        {
          "internalType": "address",
          "name": "_usdc",
          "type": "address"
        },
        {
          "internalType": "address",
          "name": "_adminResolver",
          "type": "address"
        }
      ],
      "name": "initialize",
      "outputs": [],
      "stateMutability": "nonpayable",
      "type": "function"
    },
    {
      "inputs": [],
      "name": "owner",
      "outputs": [
        {
          "internalType": "address",
          "name": "",
          "type": "address"
        }
      ],
      "stateMutability": "view",
      "type": "function"
    },
    {
      "inputs": [],
      "name": "proposalCount",
      "outputs": [
        {
          "internalType": "uint256",
          "name": "",
          "type": "uint256"
        }
      ],
      "stateMutability": "view",
      "type": "function"
    },
    {
      "inputs": [
        {
          "internalType": "uint256",
          "name": "",
          "type": "uint256"
        }
      ],
      "name": "proposals",
      "outputs": [
        {
          "internalType": "uint256",
          "name": "marketId",
          "type": "uint256"
        },
        {
          "internalType": "uint8",
          "name": "outcome",
          "type": "uint8"
        },
        {
          "internalType": "address",
          "name": "proposer",
          "type": "address"
        },
        {
          "internalType": "address",
          "name": "disputer",
          "type": "address"
        },
        {
          "internalType": "uint256",
          "name": "bond",
          "type": "uint256"
        },
        {
          "internalType": "uint256",
          "name": "challengeEnd",
          "type": "uint256"
        },
        {
          "internalType": "bool",
          "name": "disputed",
          "type": "bool"
        },
        {
          "internalType": "bool",
          "name": "finalized",
          "type": "bool"
        }
      ],
      "stateMutability": "view",
      "type": "function"
    },
    {
      "inputs": [
        {
          "internalType": "address",
          "name": "market",
          "type": "address"
        },
        {
          "internalType": "uint8",
          "name": "outcome",
          "type": "uint8"
        }
      ],
      "name": "proposeOutcome",
      "outputs": [],
      "stateMutability": "nonpayable",
      "type": "function"
    },
    {
      "inputs": [],
      "name": "proxiableUUID",
      "outputs": [
        {
          "internalType": "bytes32",
          "name": "",
          "type": "bytes32"
        }
      ],
      "stateMutability": "view",
      "type": "function"
    },
    {
      "inputs": [],
      "name": "renounceOwnership",
      "outputs": [],
      "stateMutability": "nonpayable",
      "type": "function"
    },
    {
      "inputs": [
        {
          "internalType": "uint256",
          "name": "proposalId",
          "type": "uint256"
        },
        {
          "internalType": "uint8",
          "name": "finalOutcome",
          "type": "uint8"
        }
      ],
      "name": "resolveDisputedProposal",
      "outputs": [],
      "stateMutability": "nonpayable",
      "type": "function"
    },
    {
      "inputs": [
        {
          "internalType": "address",
          "name": "newOwner",
          "type": "address"
        }
      ],
      "name": "transferOwnership",
      "outputs": [],
      "stateMutability": "nonpayable",
      "type": "function"
    },
    {
      "inputs": [
        {
          "internalType": "address",
          "name": "newImplementation",
          "type": "address"
        }
      ],
      "name": "upgradeTo",
      "outputs": [],
      "stateMutability": "nonpayable",
      "type": "function"
    },
    {
      "inputs": [
        {
          "internalType": "address",
          "name": "newImplementation",
          "type": "address"
        },
        {
          "internalType": "bytes",
          "name": "data",
          "type": "bytes"
        }
      ],
      "name": "upgradeToAndCall",
      "outputs": [],
      "stateMutability": "payable",
      "type": "function"
    },
    {
      "inputs": [],
      "name": "usdc",
      "outputs": [
        {
          "internalType": "address",
          "name": "",
          "type": "address"
        }
      ],
      "stateMutability": "view",
      "type": "function"
    }
  ],
  "bytecode": "0x60a0806040523461003157306080526117399081610037823960805181818161097d01528181610aa50152610f280152f35b600080fdfe60806040908082526004918236101561001757600080fd5b600091823560e01c908163013cf08b1461119f575080633242597e146110f55780633659cfe614610f005780633e413bee14610ed857806344ef913c14610eb0578063485cc95514610d2f5780634f1ef28614610a2a57806352d1902d14610967578063715018a614610906578063719f409c146106b557806386d6282c1461054e5780638da5cb5b14610526578063bcacc70a14610508578063c25432d4146103af578063d62aad2914610393578063da35c66414610375578063f2fde38b146102e35763f6c85888146100eb57600080fd5b346102df57602090816003193601126102db578335835260c982528083209084820154421061029957600582019485549560ff871661024d576101008761013960ff899a60081c1615611364565b61ff00191617905582546001840180546001600160a01b0395919286169060ff16813b156102495788916024839288519b8c938492631b75218f60e11b84528a8401525af197881561023d5787989795969761021f575b506003876101d59860cb5416945460081c169201549386519788958694859363a9059cbb60e01b8552840160209093929193604081019460018060a01b031681520152565b03925af190811561021657506101e9578280f35b8161020892903d1061020f575b61020081836112a9565b810190611466565b5038808280f35b503d6101f6565b513d85823e3d90fd5b8197955061022c90611263565b6102395786939538610190565b8580fd5b508451903d90823e3d90fd5b8880fd5b5083608492519162461bcd60e51b8352820152602160248201527f43616e6e6f742066696e616c697a652064697370757465642070726f706f73616044820152601b60fa1b6064820152fd5b5162461bcd60e51b8152808501839052601a60248201527f4368616c6c656e67652077696e646f77206e6f7420656e6465640000000000006044820152606490fd5b8280fd5b5080fd5b5082346102db5760203660031901126102db576102fe611237565b916103076114de565b6001600160a01b03831615610323578361032084611536565b80f35b906020608492519162461bcd60e51b8352820152602660248201527f4f776e61626c653a206e6577206f776e657220697320746865207a65726f206160448201526564647265737360d01b6064820152fd5b50346102df57816003193601126102df5760209060ca549051908152f35b50346102df57816003193601126102df5760209051611c208152f35b5082346102db57816003193601126102db578035906103cc61124d565b60cc546001600160a01b0392906103e690841633146112e7565b83865260c9602052600385872060058101610100815461040860ff8216611329565b61041860ff8260081c1615611364565b61ff0019161790550154928360011b93808504600214901517156104f55760cb54865163a9059cbb60e01b81526001600160a01b0385169381019384526020848101879052909390928492169082908a90829060400103925af180156104eb57946104c6917f59234baae61fccb633663f7eb364a027f745ea9f20591ae9ef6858f705b5fa2295966104cc575b50516001600160a01b03909216825260208201929092529081906040820190565b0390a280f35b6104e49060203d60201161020f5761020081836112a9565b50876104a5565b85513d88823e3d90fd5b634e487b7160e01b875260118252602487fd5b50346102df57816003193601126102df5760209051633b9aca008152f35b50346102df57816003193601126102df5760975490516001600160a01b039091168152602090f35b5082346102db576020806003193601126106b15781359182855260c98252838520908082015442101561067e57600582019060ff8254166106485760cb54600384015487516323b872dd60e01b8152339381019390935230602484015260448301528490829060649082908b906001600160a01b03165af1801561063e57917fcde8e21e97a7f6ec4bbf0ee44450212e0ba73be8fdfbfb2b155e861d86756bac95969391600293610621575b50600160ff1982541617905501336001600160601b0360a01b82541617905551338152a280f35b61063790863d881161020f5761020081836112a9565b50886105fa565b86513d89823e3d90fd5b855162461bcd60e51b8152908101849052601060248201526f105b1c9958591e48191a5cdc1d5d195960821b6044820152606490fd5b845162461bcd60e51b8152908101839052600d60248201526c15da5b991bddc818db1bdcd959609a1b6044820152606490fd5b8380fd5b5082346102db57816003193601126102db576106cf611237565b9160ff6106da611227565b166001811480156108fc575b156108c7578460018060a01b038060cb54169484516323b872dd60e01b81523382820152306024820152633b9aca00968760448301528160648160209788945af180156108bd576108a0575b5060ca5496600019881461088d5782906001890160ca551695611c2042019081421161087a57865193610100850185811067ffffffffffffffff82111761086557918b9593918b95938a528a8552878501908982528a86019133835260608701928984526080880194855260a088019586528c60c089019a808c5260e08a019a818c52815260c98d52209751885560018801915160ff16825491600160a81b6101009003905160081b16916affffffffffffffffffffff60a81b1617179055600286019151166001600160601b0360a01b8254161790555160038401555190820155600501915115159082549051151560081b61ff00169160ff169061ffff19161717905582519384528301527f9269d301f16e15fa22cc98511a481ff00ab5b0d9e076522e330675d30d37a43891a280f35b604185634e487b7160e01b6000525260246000fd5b634e487b7160e01b8a526011835260248afd5b634e487b7160e01b895260118252602489fd5b6108b690843d861161020f5761020081836112a9565b5088610732565b86513d8b823e3d90fd5b815162461bcd60e51b8152602081850152600f60248201526e496e76616c6964206f7574636f6d6560881b6044820152606490fd5b50600281146106e6565b823461096457806003193601126109645761091f6114de565b609780546001600160a01b031981169091556000906001600160a01b03167f8be0079c531659141344cd1fd0a4f28419497f9722a3daafe3b4186f6b6457e08280a380f35b80fd5b50919034610964578060031936011261096457507f00000000000000000000000000000000000000000000000000000000000000006001600160a01b031630036109c257602082516000805160206116e48339815191528152f35b6020608492519162461bcd60e51b8352820152603860248201527f555550535570677261646561626c653a206d757374206e6f742062652063616c60448201527f6c6564207468726f7567682064656c656761746563616c6c00000000000000006064820152fd5b508083916003193601126102db57610a40611237565b906024359067ffffffffffffffff8211610d2b5736602383011215610d2b5781840135610a6c816112cb565b610a78835191826112a9565b818152866020948583019336602482840101116102db578060248893018637830101526001600160a01b037f0000000000000000000000000000000000000000000000000000000000000000811690610ad3308314156113a4565b610af06000805160206116e4833981519152928284541614611405565b610af86114de565b7f4910fdfa16fed3260ed0e7147f7cc6da11a60208b5b9406d12a635614ffd91435460ff1615610b3257505050505050610320915061157f565b869293949596169085516352d1902d60e01b815287818a81865afa60009181610cf7575b50610bb557865162461bcd60e51b8152808a01899052602e60248201527f45524331393637557067726164653a206e657720696d706c656d656e7461746960448201526d6f6e206973206e6f74205555505360901b6064820152608490fd5b979192939695949703610ca25750610bcc8261157f565b7fbc7cd75a20ee27fd9adebab32041f755214dbc6bffa90cc0225b39da2e5c2d3b600080a2835115801590610c9a575b610c09575b505050505080f35b600080610c8596845196610c1c8861128d565b602788527f416464726573733a206c6f772d6c6576656c2064656c65676174652063616c6c87890152660819985a5b195960ca1b868901525190845af4913d15610c90573d610c76610c6d826112cb565b925192836112a9565b8152600081943d92013e61160f565b508180808080610c01565b506060925061160f565b506001610bfc565b835162461bcd60e51b8152908101859052602960248201527f45524331393637557067726164653a20756e737570706f727465642070726f786044820152681a58589b195555525160ba1b6064820152608490fd5b9091508881813d8311610d24575b610d0f81836112a9565b81010312610d1f5751908b610b56565b600080fd5b503d610d05565b8480fd5b5082346102db57816003193601126102db57610d49611237565b90610d5261124d565b91845460ff8160081c161592838094610ea3575b8015610e8c575b15610e32575060ff198116600117865582610e21575b50610d9d60ff865460081c16610d988161147e565b61147e565b610da633611536565b845492610db860ff8560081c1661147e565b60018060a01b0390816001600160601b0360a01b93168360cb54161760cb55169060cc54161760cc55610de9578280f35b61ff001916825551600181527f7f26b83ff96e1f2b6a682f133852f6798a09c465da95921460cefb384740249890602090a181808280f35b61ffff191661010117855585610d83565b608490602087519162461bcd60e51b8352820152602e60248201527f496e697469616c697a61626c653a20636f6e747261637420697320616c72656160448201526d191e481a5b9a5d1a585b1a5e995960921b6064820152fd5b50303b158015610d6d5750600160ff831614610d6d565b50600160ff831610610d66565b50346102df57816003193601126102df5760cc5490516001600160a01b039091168152602090f35b50346102df57816003193601126102df5760cb5490516001600160a01b039091168152602090f35b508290346102db576020806003193601126106b157610f1d611237565b916001600160a01b037f00000000000000000000000000000000000000000000000000000000000000008116610f55308214156113a4565b610f726000805160206116e4833981519152918383541614611405565b610f7a6114de565b8251908482019282841067ffffffffffffffff8511176110e0578385528883527f4910fdfa16fed3260ed0e7147f7cc6da11a60208b5b9406d12a635614ffd91435460ff1615610fd457505050505050610320915061157f565b869293949596169085516352d1902d60e01b815287818a81865afa600091816110b1575b5061105757865162461bcd60e51b8152808a01899052602e60248201527f45524331393637557067726164653a206e657720696d706c656d656e7461746960448201526d6f6e206973206e6f74205555505360901b6064820152608490fd5b979192939695949703610ca2575061106e8261157f565b7fbc7cd75a20ee27fd9adebab32041f755214dbc6bffa90cc0225b39da2e5c2d3b600080a28351158015906110a957610c0957505050505080f35b506000610bfc565b9091508881813d83116110d9575b6110c981836112a9565b81010312610d1f5751908b610ff8565b503d6110bf565b604188634e487b7160e01b6000525260246000fd5b508290346102db57806003193601126102db5782611111611227565b60cc546001600160a01b039061112a90821633146112e7565b8435835260c960205283832061115560ff600583015461114b828216611329565b60081c1615611364565b5416803b156102db5760ff918360249286519788958694631b75218f60e11b865216908401525af1908115611196575061118d575080f35b61032090611263565b513d84823e3d90fd5b92939050346106b15760203660031901126106b1579081816101009560ff9435815260c9602052209081549260018301549060018060a01b038060028601541692600560038701549587015496015496895287811660208a015260081c16908701526060860152608085015260a0840152818116151560c084015260081c16151560e0820152f35b6024359060ff82168203610d1f57565b600435906001600160a01b0382168203610d1f57565b602435906001600160a01b0382168203610d1f57565b67ffffffffffffffff811161127757604052565b634e487b7160e01b600052604160045260246000fd5b6060810190811067ffffffffffffffff82111761127757604052565b90601f8019910116810190811067ffffffffffffffff82111761127757604052565b67ffffffffffffffff811161127757601f01601f191660200190565b156112ee57565b60405162461bcd60e51b815260206004820152601360248201527227b7363c9030b236b4b7103932b9b7b63b32b960691b6044820152606490fd5b1561133057565b60405162461bcd60e51b815260206004820152600c60248201526b139bdd08191a5cdc1d5d195960a21b6044820152606490fd5b1561136b57565b60405162461bcd60e51b8152602060048201526011602482015270105b1c9958591e48199a5b985b1a5e9959607a1b6044820152606490fd5b156113ab57565b60405162461bcd60e51b815260206004820152602c60248201527f46756e6374696f6e206d7573742062652063616c6c6564207468726f7567682060448201526b19195b1959d85d1958d85b1b60a21b6064820152608490fd5b1561140c57565b60405162461bcd60e51b815260206004820152602c60248201527f46756e6374696f6e206d7573742062652063616c6c6564207468726f7567682060448201526b6163746976652070726f787960a01b6064820152608490fd5b90816020910312610d1f57518015158103610d1f5790565b1561148557565b60405162461bcd60e51b815260206004820152602b60248201527f496e697469616c697a61626c653a20636f6e7472616374206973206e6f74206960448201526a6e697469616c697a696e6760a81b6064820152608490fd5b6097546001600160a01b031633036114f257565b606460405162461bcd60e51b815260206004820152602060248201527f4f776e61626c653a2063616c6c6572206973206e6f7420746865206f776e65726044820152fd5b609780546001600160a01b039283166001600160a01b0319821681179092559091167f8be0079c531659141344cd1fd0a4f28419497f9722a3daafe3b4186f6b6457e0600080a3565b803b156115b4576000805160206116e483398151915280546001600160a01b0319166001600160a01b03909216919091179055565b60405162461bcd60e51b815260206004820152602d60248201527f455243313936373a206e657720696d706c656d656e746174696f6e206973206e60448201526c1bdd08184818dbdb9d1c9858dd609a1b6064820152608490fd5b919290156116715750815115611623575090565b3b1561162c5790565b60405162461bcd60e51b815260206004820152601d60248201527f416464726573733a2063616c6c20746f206e6f6e2d636f6e74726163740000006044820152606490fd5b8251909150156116845750805190602001fd5b6040519062461bcd60e51b82528160208060048301528251908160248401526000935b8285106116ca575050604492506000838284010152601f80199101168101030190fd5b84810182015186860160440152938101938593506116a756fe360894a13ba1a3210667c828492db98dca3e2076cc3735a920a3ca505d382bbca2646970667358221220900b005db6d709164d64e5c959daea50754f4c525be842505182d473555675d964736f6c63430008180033",
  "linkReferences": {},
  "deployedLinkReferences": {}
}